{
  "contractName": "BytesUtilsMock",
  "abi": [
    {
      "constant": true,
      "inputs": [],
      "name": "extractBytes32Result",
      "outputs": [
        {
          "internalType": "bytes32",
          "name": "",
          "type": "bytes32"
        }
      ],
      "payable": false,
      "stateMutability": "view",
      "type": "function"
    },
    {
      "constant": false,
      "inputs": [
        {
          "internalType": "bytes",
          "name": "data",
          "type": "bytes"
        },
        {
          "internalType": "uint256",
          "name": "offset",
          "type": "uint256"
        }
      ],
      "name": "extractBytes32",
      "outputs": [],
      "payable": false,
      "stateMutability": "nonpayable",
      "type": "function"
    }
  ],
  "bytecode": "0x608060405234801561001057600080fd5b50610212806100206000396000f3fe608060405234801561001057600080fd5b50600436106100365760003560e01c8063349f06931461003b578063b1e05e8a14610059575b600080fd5b61004361011e565b6040518082815260200191505060405180910390f35b61011c6004803603604081101561006f57600080fd5b810190808035906020019064010000000081111561008c57600080fd5b82018360208201111561009e57600080fd5b803590602001918460018302840111640100000000831117156100c057600080fd5b91908080601f016020809104026020016040519081016040528093929190818152602001838380828437600081840152601f19601f82011690508083019250505050505050919291929080359060200190929190505050610124565b005b60005481565b61012e8282610138565b6000819055505050565b600080821015801561014e575082516020830111155b6101a3576040517f08c379a000000000000000000000000000000000000000000000000000000000815260040180806020018281038252602b8152602001806101b3602b913960400191505060405180910390fd5b8160200183015190509291505056fe6f66667365742076616c75652073686f756c6420626520696e2074686520636f72726563742072616e6765a265627a7a72315820ac676dd5f8b1a9d30063ca861d5b7792cb1687d5d3d11ac04409d2f165bee6da64736f6c634300050c0032",
  "source": "pragma solidity ^0.5.0;\n\nimport \"../Bytes.sol\";\n\n\ncontract BytesUtilsMock {\n  bytes32 public extractBytes32Result;\n  function extractBytes32(bytes memory data, uint offset) public {\n    extractBytes32Result = Bytes.extractBytes32(data, offset);\n  }\n}\n",
  "sourcePath": "/Users/bertrand/Desktop/requestNetwork-private/packages/smart-contracts/src/test/BytesUtilsMock.sol",
  "compiler": {
    "name": "solc",
    "version": "0.5.12+commit.7709ece9.Emscripten.clang"
  },
  "schemaVersion": "3.0.19",
  "updatedAt": "2019-12-04T06:27:46.624Z",
  "devdoc": {
    "methods": {}
  },
  "userdoc": {
    "methods": {}
  }
}