{
  "contractName": "RequestOpenHashSubmitter",
  "abi": [
    {
      "inputs": [
        {
          "internalType": "address",
          "name": "_addressRequestHashStorage",
          "type": "address"
        },
        {
          "internalType": "address payable",
          "name": "_addressBurner",
          "type": "address"
        }
      ],
      "payable": false,
      "stateMutability": "nonpayable",
      "type": "constructor"
    },
    {
      "anonymous": false,
      "inputs": [
        {
          "indexed": false,
          "internalType": "address",
          "name": "burnerAddress",
          "type": "address"
        }
      ],
      "name": "UpdatedBurnerContract",
      "type": "event"
    },
    {
      "anonymous": false,
      "inputs": [
        {
          "indexed": false,
          "internalType": "uint256",
          "name": "minimumFee",
          "type": "uint256"
        },
        {
          "indexed": false,
          "internalType": "uint256",
          "name": "rateFeesNumerator",
          "type": "uint256"
        },
        {
          "indexed": false,
          "internalType": "uint256",
          "name": "rateFeesDenominator",
          "type": "uint256"
        }
      ],
      "name": "UpdatedFeeParameters",
      "type": "event"
    },
    {
      "anonymous": false,
      "inputs": [
        {
          "indexed": false,
          "internalType": "uint256",
          "name": "threshold",
          "type": "uint256"
        }
      ],
      "name": "UpdatedMinimumFeeThreshold",
      "type": "event"
    },
    {
      "anonymous": false,
      "inputs": [
        {
          "indexed": true,
          "internalType": "address",
          "name": "account",
          "type": "address"
        }
      ],
      "name": "WhitelistAdminAdded",
      "type": "event"
    },
    {
      "anonymous": false,
      "inputs": [
        {
          "indexed": true,
          "internalType": "address",
          "name": "account",
          "type": "address"
        }
      ],
      "name": "WhitelistAdminRemoved",
      "type": "event"
    },
    {
      "payable": true,
      "stateMutability": "payable",
      "type": "fallback"
    },
    {
      "constant": false,
      "inputs": [
        {
          "internalType": "address",
          "name": "account",
          "type": "address"
        }
      ],
      "name": "addWhitelistAdmin",
      "outputs": [],
      "payable": false,
      "stateMutability": "nonpayable",
      "type": "function"
    },
    {
      "constant": true,
      "inputs": [
        {
          "internalType": "uint256",
          "name": "_contentSize",
          "type": "uint256"
        }
      ],
      "name": "getFeesAmount",
      "outputs": [
        {
          "internalType": "uint256",
          "name": "",
          "type": "uint256"
        }
      ],
      "payable": false,
      "stateMutability": "view",
      "type": "function"
    },
    {
      "constant": true,
      "inputs": [
        {
          "internalType": "address",
          "name": "account",
          "type": "address"
        }
      ],
      "name": "isWhitelistAdmin",
      "outputs": [
        {
          "internalType": "bool",
          "name": "",
          "type": "bool"
        }
      ],
      "payable": false,
      "stateMutability": "view",
      "type": "function"
    },
    {
      "constant": true,
      "inputs": [],
      "name": "minimumFee",
      "outputs": [
        {
          "internalType": "uint256",
          "name": "",
          "type": "uint256"
        }
      ],
      "payable": false,
      "stateMutability": "view",
      "type": "function"
    },
    {
      "constant": true,
      "inputs": [],
      "name": "rateFeesDenominator",
      "outputs": [
        {
          "internalType": "uint256",
          "name": "",
          "type": "uint256"
        }
      ],
      "payable": false,
      "stateMutability": "view",
      "type": "function"
    },
    {
      "constant": true,
      "inputs": [],
      "name": "rateFeesNumerator",
      "outputs": [
        {
          "internalType": "uint256",
          "name": "",
          "type": "uint256"
        }
      ],
      "payable": false,
      "stateMutability": "view",
      "type": "function"
    },
    {
      "constant": false,
      "inputs": [],
      "name": "renounceWhitelistAdmin",
      "outputs": [],
      "payable": false,
      "stateMutability": "nonpayable",
      "type": "function"
    },
    {
      "constant": true,
      "inputs": [],
      "name": "requestBurnerContract",
      "outputs": [
        {
          "internalType": "address payable",
          "name": "",
          "type": "address"
        }
      ],
      "payable": false,
      "stateMutability": "view",
      "type": "function"
    },
    {
      "constant": true,
      "inputs": [],
      "name": "requestHashStorage",
      "outputs": [
        {
          "internalType": "contract RequestHashStorage",
          "name": "",
          "type": "address"
        }
      ],
      "payable": false,
      "stateMutability": "view",
      "type": "function"
    },
    {
      "constant": false,
      "inputs": [
        {
          "internalType": "uint256",
          "name": "_minimumFee",
          "type": "uint256"
        },
        {
          "internalType": "uint256",
          "name": "_rateFeesNumerator",
          "type": "uint256"
        },
        {
          "internalType": "uint256",
          "name": "_rateFeesDenominator",
          "type": "uint256"
        }
      ],
      "name": "setFeeParameters",
      "outputs": [],
      "payable": false,
      "stateMutability": "nonpayable",
      "type": "function"
    },
    {
      "constant": false,
      "inputs": [
        {
          "internalType": "address payable",
          "name": "_requestBurnerContract",
          "type": "address"
        }
      ],
      "name": "setRequestBurnerContract",
      "outputs": [],
      "payable": false,
      "stateMutability": "nonpayable",
      "type": "function"
    },
    {
      "constant": false,
      "inputs": [
        {
          "internalType": "string",
          "name": "_hash",
          "type": "string"
        },
        {
          "internalType": "bytes",
          "name": "_feesParameters",
          "type": "bytes"
        }
      ],
      "name": "submitHash",
      "outputs": [],
      "payable": true,
      "stateMutability": "payable",
      "type": "function"
    }
  ],
  "bytecode": "0x608060405234801561001057600080fd5b50604051610fd4380380610fd48339818101604052604081101561003357600080fd5b8101908080519060200190929190805190602001909291905050508061005e336100e860201b60201c565b80600460006101000a81548173ffffffffffffffffffffffffffffffffffffffff021916908373ffffffffffffffffffffffffffffffffffffffff1602179055505081600560006101000a81548173ffffffffffffffffffffffffffffffffffffffff021916908373ffffffffffffffffffffffffffffffffffffffff160217905550505061028a565b61010081600061014660201b610c0e1790919060201c565b8073ffffffffffffffffffffffffffffffffffffffff167f22380c05984257a1cb900161c713dd71d39e74820f1aea43bd3f1bdd2096129960405160405180910390a250565b600073ffffffffffffffffffffffffffffffffffffffff168173ffffffffffffffffffffffffffffffffffffffff16141561018057600080fd5b61019082826101f860201b60201c565b1561019a57600080fd5b60018260000160008373ffffffffffffffffffffffffffffffffffffffff1673ffffffffffffffffffffffffffffffffffffffff16815260200190815260200160002060006101000a81548160ff0219169083151502179055505050565b60008073ffffffffffffffffffffffffffffffffffffffff168273ffffffffffffffffffffffffffffffffffffffff16141561023357600080fd5b8260000160008373ffffffffffffffffffffffffffffffffffffffff1673ffffffffffffffffffffffffffffffffffffffff16815260200190815260200160002060009054906101000a900460ff16905092915050565b610d3b806102996000396000f3fe6080604052600436106100a75760003560e01c806375c268f31161006457806375c268f3146102f25780638f5b87e11461031d578063bb5f747b1461036c578063cb2537cb146103d5578063e40e845714610424578063f76f22561461047b576100a7565b80631a7626e714610115578063263f6a42146101405780634c5a628c1461016b57806351a58abb14610182578063524eb29c146102505780637362d9c8146102a1575b6040517f08c379a00000000000000000000000000000000000000000000000000000000081526004018080602001828103825260148152602001807f6e6f742070617961626c652066616c6c6261636b00000000000000000000000081525060200191505060405180910390fd5b34801561012157600080fd5b5061012a6104d2565b6040518082815260200191505060405180910390f35b34801561014c57600080fd5b506101556104d8565b6040518082815260200191505060405180910390f35b34801561017757600080fd5b506101806104de565b005b61024e6004803603604081101561019857600080fd5b81019080803590602001906401000000008111156101b557600080fd5b8201836020820111156101c757600080fd5b803590602001918460018302840111640100000000831117156101e957600080fd5b90919293919293908035906020019064010000000081111561020a57600080fd5b82018360208201111561021c57600080fd5b8035906020019184600183028401116401000000008311171561023e57600080fd5b90919293919293905050506104e9565b005b34801561025c57600080fd5b5061029f6004803603602081101561027357600080fd5b81019080803573ffffffffffffffffffffffffffffffffffffffff16906020019092919050505061069c565b005b3480156102ad57600080fd5b506102f0600480360360208110156102c457600080fd5b81019080803573ffffffffffffffffffffffffffffffffffffffff169060200190929190505050610777565b005b3480156102fe57600080fd5b50610307610795565b6040518082815260200191505060405180910390f35b34801561032957600080fd5b506103566004803603602081101561034057600080fd5b810190808035906020019092919050505061079b565b6040518082815260200191505060405180910390f35b34801561037857600080fd5b506103bb6004803603602081101561038f57600080fd5b81019080803573ffffffffffffffffffffffffffffffffffffffff1690602001909291905050506107f5565b604051808215151515815260200191505060405180910390f35b3480156103e157600080fd5b50610422600480360360608110156103f857600080fd5b81019080803590602001909291908035906020019092919080359060200190929190505050610812565b005b34801561043057600080fd5b5061043961088b565b604051808273ffffffffffffffffffffffffffffffffffffffff1673ffffffffffffffffffffffffffffffffffffffff16815260200191505060405180910390f35b34801561048757600080fd5b506104906108b1565b604051808273ffffffffffffffffffffffffffffffffffffffff1673ffffffffffffffffffffffffffffffffffffffff16815260200191505060405180910390f35b60015481565b60025481565b6104e7336108d7565b565b600061053a83838080601f016020809104026020016040519081016040528093929190818152602001838380828437600081840152601f19601f820116905080830192505050505050506000610931565b60001c9050346105498261079b565b1461059f576040517f08c379a0000000000000000000000000000000000000000000000000000000008152600401808060200182810382526021815260200180610cbb6021913960400191505060405180910390fd5b6105a8346109ab565b600560009054906101000a900473ffffffffffffffffffffffffffffffffffffffff1673ffffffffffffffffffffffffffffffffffffffff1663fe8cc962868686866040518563ffffffff1660e01b81526004018080602001806020018381038352878782818152602001925080828437600081840152601f19601f8201169050808301925050508381038252858582818152602001925080828437600081840152601f19601f8201169050808301925050509650505050505050600060405180830381600087803b15801561067d57600080fd5b505af1158015610691573d6000803e3d6000fd5b505050505050505050565b6106a5336107f5565b6106ae57600080fd5b80600460006101000a81548173ffffffffffffffffffffffffffffffffffffffff021916908373ffffffffffffffffffffffffffffffffffffffff1602179055507fb2c87fdcc342ca09b09df1fb16a153b7ceb0a4b56ad223f12c8fbff63f98ccd8600460009054906101000a900473ffffffffffffffffffffffffffffffffffffffff16604051808273ffffffffffffffffffffffffffffffffffffffff1673ffffffffffffffffffffffffffffffffffffffff16815260200191505060405180910390a150565b610780336107f5565b61078957600080fd5b61079281610a17565b50565b60035481565b6000806107b360025484610a7190919063ffffffff16565b90506000600354146107d7576107d460035482610aab90919063ffffffff16565b90505b60015481116107eb576001549150506107f0565b809150505b919050565b600061080b826000610ad190919063ffffffff16565b9050919050565b61081b336107f5565b61082457600080fd5b8260018190555081600281905550806003819055507f741cafcfc8058975fab7ed6bdaf402b47dca8aa9826990c454c058a6f9b06d1660015460025460035460405180848152602001838152602001828152602001935050505060405180910390a1505050565b600460009054906101000a900473ffffffffffffffffffffffffffffffffffffffff1681565b600560009054906101000a900473ffffffffffffffffffffffffffffffffffffffff1681565b6108eb816000610b6390919063ffffffff16565b8073ffffffffffffffffffffffffffffffffffffffff167f0a8eb35e5ca14b3d6f28e4abf2f128dbab231a58b56e89beb5d636115001e16560405160405180910390a250565b6000808210158015610947575082516020830111155b61099c576040517f08c379a000000000000000000000000000000000000000000000000000000000815260040180806020018281038252602b815260200180610cdc602b913960400191505060405180910390fd5b81602001830151905092915050565b600460009054906101000a900473ffffffffffffffffffffffffffffffffffffffff1673ffffffffffffffffffffffffffffffffffffffff166108fc829081150290604051600060405180830381858888f19350505050158015610a13573d6000803e3d6000fd5b5050565b610a2b816000610c0e90919063ffffffff16565b8073ffffffffffffffffffffffffffffffffffffffff167f22380c05984257a1cb900161c713dd71d39e74820f1aea43bd3f1bdd2096129960405160405180910390a250565b600080831415610a845760009050610aa5565b6000828402905082848281610a9557fe5b0414610aa057600080fd5b809150505b92915050565b6000808211610ab957600080fd5b6000828481610ac457fe5b0490508091505092915050565b60008073ffffffffffffffffffffffffffffffffffffffff168273ffffffffffffffffffffffffffffffffffffffff161415610b0c57600080fd5b8260000160008373ffffffffffffffffffffffffffffffffffffffff1673ffffffffffffffffffffffffffffffffffffffff16815260200190815260200160002060009054906101000a900460ff16905092915050565b600073ffffffffffffffffffffffffffffffffffffffff168173ffffffffffffffffffffffffffffffffffffffff161415610b9d57600080fd5b610ba78282610ad1565b610bb057600080fd5b60008260000160008373ffffffffffffffffffffffffffffffffffffffff1673ffffffffffffffffffffffffffffffffffffffff16815260200190815260200160002060006101000a81548160ff0219169083151502179055505050565b600073ffffffffffffffffffffffffffffffffffffffff168173ffffffffffffffffffffffffffffffffffffffff161415610c4857600080fd5b610c528282610ad1565b15610c5c57600080fd5b60018260000160008373ffffffffffffffffffffffffffffffffffffffff1673ffffffffffffffffffffffffffffffffffffffff16815260200190815260200160002060006101000a81548160ff021916908315150217905550505056fe6d73672e76616c756520646f6573206e6f74206d617463682074686520666565736f66667365742076616c75652073686f756c6420626520696e2074686520636f72726563742072616e6765a265627a7a723158209956cea55d63aa28ca88400ec1a7d339198cdeac58105e03939f7d83f954203664736f6c634300050c0032",
  "source": "pragma solidity ^0.5.0;\n\nimport \"./StorageFeeCollector.sol\";\nimport \"./RequestHashStorage.sol\";\nimport \"./Bytes.sol\";\n\n\n/**\n * @title RequestOpenHashSubmitter\n * @notice Contract declares data hashes and collects the fees.\n * @notice The hash is declared to the whole request network system through the RequestHashStorage contract.\n * @notice Anyone can submit hashes.\n */\ncontract RequestOpenHashSubmitter is StorageFeeCollector {\n\n  RequestHashStorage public requestHashStorage;\n  \n  /**\n   * @param _addressRequestHashStorage contract address which manages the hashes declarations\n   * @param _addressBurner Burner address\n   */\n  constructor(address _addressRequestHashStorage, address payable _addressBurner)\n    StorageFeeCollector(_addressBurner)\n    public\n  {\n    requestHashStorage = RequestHashStorage(_addressRequestHashStorage);\n  }\n\n  // Fallback function returns funds to the sender\n  function()\n    external\n    payable\n  {\n    revert(\"not payable fallback\");\n  }\n\n  /**\n   * @notice Submit a new hash to the blockchain.\n   *\n   * @param _hash Hash of the request to be stored\n   * @param _feesParameters fees parameters used to compute the fees. Here, it is the content size in an uint256\n   */\n  function submitHash(string calldata _hash, bytes calldata _feesParameters)\n    external\n    payable\n  {\n    // extract the contentSize from the _feesParameters\n    uint256 contentSize = uint256(Bytes.extractBytes32(_feesParameters, 0));\n\n    // Check fees are paid\n    require(getFeesAmount(contentSize) == msg.value, \"msg.value does not match the fees\");\n\n    // Send fees to burner, throws on failure\n    collectForREQBurning(msg.value);\n\n    // declare the hash to the whole system through to RequestHashStorage\n    requestHashStorage.declareNewHash(_hash, _feesParameters);\n  }\n}\n",
  "sourcePath": "/Users/bertrand/Desktop/requestNetwork-private/packages/smart-contracts/src/RequestOpenHashSubmitter.sol",
  "compiler": {
    "name": "solc",
    "version": "0.5.12+commit.7709ece9.Emscripten.clang"
  },
  "schemaVersion": "3.0.19",
  "updatedAt": "2019-12-04T06:27:46.620Z",
  "devdoc": {
    "methods": {
      "constructor": {
        "params": {
          "_addressBurner": "Burner address",
          "_addressRequestHashStorage": "contract address which manages the hashes declarations"
        }
      },
      "getFeesAmount(uint256)": {
        "params": {
          "_contentSize": "Size of the content of the block to be stored"
        },
        "return": "the expected amount of fees in wei"
      },
      "setFeeParameters(uint256,uint256,uint256)": {
        "details": "if the _rateFeesDenominator is 0, it will be treated as 1. (in other words, the computation of the fees will not use it)",
        "params": {
          "_minimumFee": "minimum fixed fee",
          "_rateFeesDenominator": "denominator rate",
          "_rateFeesNumerator": "numerator rate"
        }
      },
      "setRequestBurnerContract(address)": {
        "params": {
          "_requestBurnerContract": "address of the contract that will burn req token (probably through Kyber)"
        }
      },
      "submitHash(string,bytes)": {
        "params": {
          "_feesParameters": "fees parameters used to compute the fees. Here, it is the content size in an uint256",
          "_hash": "Hash of the request to be stored"
        }
      }
    },
    "title": "RequestOpenHashSubmitter"
  },
  "userdoc": {
    "methods": {
      "getFeesAmount(uint256)": {
        "notice": "Computes the fees."
      },
      "setFeeParameters(uint256,uint256,uint256)": {
        "notice": "Sets the fees rate and minimum fee."
      },
      "setRequestBurnerContract(address)": {
        "notice": "Set the request burner address."
      },
      "submitHash(string,bytes)": {
        "notice": "Submit a new hash to the blockchain."
      }
    },
    "notice": "Contract declares data hashes and collects the fees.The hash is declared to the whole request network system through the RequestHashStorage contract.Anyone can submit hashes."
  }
}