{
  "contractName": "StorageFeeCollector",
  "abi": [
    {
      "inputs": [
        {
          "internalType": "address payable",
          "name": "_requestBurnerContract",
          "type": "address"
        }
      ],
      "payable": false,
      "stateMutability": "nonpayable",
      "type": "constructor"
    },
    {
      "anonymous": false,
      "inputs": [
        {
          "indexed": false,
          "internalType": "address",
          "name": "burnerAddress",
          "type": "address"
        }
      ],
      "name": "UpdatedBurnerContract",
      "type": "event"
    },
    {
      "anonymous": false,
      "inputs": [
        {
          "indexed": false,
          "internalType": "uint256",
          "name": "minimumFee",
          "type": "uint256"
        },
        {
          "indexed": false,
          "internalType": "uint256",
          "name": "rateFeesNumerator",
          "type": "uint256"
        },
        {
          "indexed": false,
          "internalType": "uint256",
          "name": "rateFeesDenominator",
          "type": "uint256"
        }
      ],
      "name": "UpdatedFeeParameters",
      "type": "event"
    },
    {
      "anonymous": false,
      "inputs": [
        {
          "indexed": false,
          "internalType": "uint256",
          "name": "threshold",
          "type": "uint256"
        }
      ],
      "name": "UpdatedMinimumFeeThreshold",
      "type": "event"
    },
    {
      "anonymous": false,
      "inputs": [
        {
          "indexed": true,
          "internalType": "address",
          "name": "account",
          "type": "address"
        }
      ],
      "name": "WhitelistAdminAdded",
      "type": "event"
    },
    {
      "anonymous": false,
      "inputs": [
        {
          "indexed": true,
          "internalType": "address",
          "name": "account",
          "type": "address"
        }
      ],
      "name": "WhitelistAdminRemoved",
      "type": "event"
    },
    {
      "constant": false,
      "inputs": [
        {
          "internalType": "address",
          "name": "account",
          "type": "address"
        }
      ],
      "name": "addWhitelistAdmin",
      "outputs": [],
      "payable": false,
      "stateMutability": "nonpayable",
      "type": "function"
    },
    {
      "constant": true,
      "inputs": [
        {
          "internalType": "address",
          "name": "account",
          "type": "address"
        }
      ],
      "name": "isWhitelistAdmin",
      "outputs": [
        {
          "internalType": "bool",
          "name": "",
          "type": "bool"
        }
      ],
      "payable": false,
      "stateMutability": "view",
      "type": "function"
    },
    {
      "constant": true,
      "inputs": [],
      "name": "minimumFee",
      "outputs": [
        {
          "internalType": "uint256",
          "name": "",
          "type": "uint256"
        }
      ],
      "payable": false,
      "stateMutability": "view",
      "type": "function"
    },
    {
      "constant": true,
      "inputs": [],
      "name": "rateFeesDenominator",
      "outputs": [
        {
          "internalType": "uint256",
          "name": "",
          "type": "uint256"
        }
      ],
      "payable": false,
      "stateMutability": "view",
      "type": "function"
    },
    {
      "constant": true,
      "inputs": [],
      "name": "rateFeesNumerator",
      "outputs": [
        {
          "internalType": "uint256",
          "name": "",
          "type": "uint256"
        }
      ],
      "payable": false,
      "stateMutability": "view",
      "type": "function"
    },
    {
      "constant": false,
      "inputs": [],
      "name": "renounceWhitelistAdmin",
      "outputs": [],
      "payable": false,
      "stateMutability": "nonpayable",
      "type": "function"
    },
    {
      "constant": true,
      "inputs": [],
      "name": "requestBurnerContract",
      "outputs": [
        {
          "internalType": "address payable",
          "name": "",
          "type": "address"
        }
      ],
      "payable": false,
      "stateMutability": "view",
      "type": "function"
    },
    {
      "constant": false,
      "inputs": [
        {
          "internalType": "uint256",
          "name": "_minimumFee",
          "type": "uint256"
        },
        {
          "internalType": "uint256",
          "name": "_rateFeesNumerator",
          "type": "uint256"
        },
        {
          "internalType": "uint256",
          "name": "_rateFeesDenominator",
          "type": "uint256"
        }
      ],
      "name": "setFeeParameters",
      "outputs": [],
      "payable": false,
      "stateMutability": "nonpayable",
      "type": "function"
    },
    {
      "constant": false,
      "inputs": [
        {
          "internalType": "address payable",
          "name": "_requestBurnerContract",
          "type": "address"
        }
      ],
      "name": "setRequestBurnerContract",
      "outputs": [],
      "payable": false,
      "stateMutability": "nonpayable",
      "type": "function"
    },
    {
      "constant": true,
      "inputs": [
        {
          "internalType": "uint256",
          "name": "_contentSize",
          "type": "uint256"
        }
      ],
      "name": "getFeesAmount",
      "outputs": [
        {
          "internalType": "uint256",
          "name": "",
          "type": "uint256"
        }
      ],
      "payable": false,
      "stateMutability": "view",
      "type": "function"
    }
  ],
  "bytecode": "0x608060405234801561001057600080fd5b50604051610a62380380610a628339818101604052602081101561003357600080fd5b81019080805190602001909291905050506100533361009a60201b60201c565b80600460006101000a81548173ffffffffffffffffffffffffffffffffffffffff021916908373ffffffffffffffffffffffffffffffffffffffff1602179055505061023c565b6100b28160006100f860201b6107361790919060201c565b8073ffffffffffffffffffffffffffffffffffffffff167f22380c05984257a1cb900161c713dd71d39e74820f1aea43bd3f1bdd2096129960405160405180910390a250565b600073ffffffffffffffffffffffffffffffffffffffff168173ffffffffffffffffffffffffffffffffffffffff16141561013257600080fd5b61014282826101aa60201b60201c565b1561014c57600080fd5b60018260000160008373ffffffffffffffffffffffffffffffffffffffff1673ffffffffffffffffffffffffffffffffffffffff16815260200190815260200160002060006101000a81548160ff0219169083151502179055505050565b60008073ffffffffffffffffffffffffffffffffffffffff168273ffffffffffffffffffffffffffffffffffffffff1614156101e557600080fd5b8260000160008373ffffffffffffffffffffffffffffffffffffffff1673ffffffffffffffffffffffffffffffffffffffff16815260200190815260200160002060009054906101000a900460ff16905092915050565b6108178061024b6000396000f3fe608060405234801561001057600080fd5b506004361061009e5760003560e01c806375c268f31161006657806375c268f3146101715780638f5b87e11461018f578063bb5f747b146101d1578063cb2537cb1461022d578063e40e84571461026f5761009e565b80631a7626e7146100a3578063263f6a42146100c15780634c5a628c146100df578063524eb29c146100e95780637362d9c81461012d575b600080fd5b6100ab6102b9565b6040518082815260200191505060405180910390f35b6100c96102bf565b6040518082815260200191505060405180910390f35b6100e76102c5565b005b61012b600480360360208110156100ff57600080fd5b81019080803573ffffffffffffffffffffffffffffffffffffffff1690602001909291905050506102d0565b005b61016f6004803603602081101561014357600080fd5b81019080803573ffffffffffffffffffffffffffffffffffffffff1690602001909291905050506103ab565b005b6101796103c9565b6040518082815260200191505060405180910390f35b6101bb600480360360208110156101a557600080fd5b81019080803590602001909291905050506103cf565b6040518082815260200191505060405180910390f35b610213600480360360208110156101e757600080fd5b81019080803573ffffffffffffffffffffffffffffffffffffffff169060200190929190505050610429565b604051808215151515815260200191505060405180910390f35b61026d6004803603606081101561024357600080fd5b81019080803590602001909291908035906020019092919080359060200190929190505050610446565b005b6102776104bf565b604051808273ffffffffffffffffffffffffffffffffffffffff1673ffffffffffffffffffffffffffffffffffffffff16815260200191505060405180910390f35b60015481565b60025481565b6102ce336104e5565b565b6102d933610429565b6102e257600080fd5b80600460006101000a81548173ffffffffffffffffffffffffffffffffffffffff021916908373ffffffffffffffffffffffffffffffffffffffff1602179055507fb2c87fdcc342ca09b09df1fb16a153b7ceb0a4b56ad223f12c8fbff63f98ccd8600460009054906101000a900473ffffffffffffffffffffffffffffffffffffffff16604051808273ffffffffffffffffffffffffffffffffffffffff1673ffffffffffffffffffffffffffffffffffffffff16815260200191505060405180910390a150565b6103b433610429565b6103bd57600080fd5b6103c68161053f565b50565b60035481565b6000806103e76002548461059990919063ffffffff16565b905060006003541461040b57610408600354826105d390919063ffffffff16565b90505b600154811161041f57600154915050610424565b809150505b919050565b600061043f8260006105f990919063ffffffff16565b9050919050565b61044f33610429565b61045857600080fd5b8260018190555081600281905550806003819055507f741cafcfc8058975fab7ed6bdaf402b47dca8aa9826990c454c058a6f9b06d1660015460025460035460405180848152602001838152602001828152602001935050505060405180910390a1505050565b600460009054906101000a900473ffffffffffffffffffffffffffffffffffffffff1681565b6104f981600061068b90919063ffffffff16565b8073ffffffffffffffffffffffffffffffffffffffff167f0a8eb35e5ca14b3d6f28e4abf2f128dbab231a58b56e89beb5d636115001e16560405160405180910390a250565b61055381600061073690919063ffffffff16565b8073ffffffffffffffffffffffffffffffffffffffff167f22380c05984257a1cb900161c713dd71d39e74820f1aea43bd3f1bdd2096129960405160405180910390a250565b6000808314156105ac57600090506105cd565b60008284029050828482816105bd57fe5b04146105c857600080fd5b809150505b92915050565b60008082116105e157600080fd5b60008284816105ec57fe5b0490508091505092915050565b60008073ffffffffffffffffffffffffffffffffffffffff168273ffffffffffffffffffffffffffffffffffffffff16141561063457600080fd5b8260000160008373ffffffffffffffffffffffffffffffffffffffff1673ffffffffffffffffffffffffffffffffffffffff16815260200190815260200160002060009054906101000a900460ff16905092915050565b600073ffffffffffffffffffffffffffffffffffffffff168173ffffffffffffffffffffffffffffffffffffffff1614156106c557600080fd5b6106cf82826105f9565b6106d857600080fd5b60008260000160008373ffffffffffffffffffffffffffffffffffffffff1673ffffffffffffffffffffffffffffffffffffffff16815260200190815260200160002060006101000a81548160ff0219169083151502179055505050565b600073ffffffffffffffffffffffffffffffffffffffff168173ffffffffffffffffffffffffffffffffffffffff16141561077057600080fd5b61077a82826105f9565b1561078457600080fd5b60018260000160008373ffffffffffffffffffffffffffffffffffffffff1673ffffffffffffffffffffffffffffffffffffffff16815260200190815260200160002060006101000a81548160ff021916908315150217905550505056fea265627a7a7231582076b846bb1b51b072f754a8d71ce605a81c2105740aaaa7a9ea5a1129af98cf0264736f6c634300050c0032",
  "source": "pragma solidity ^0.5.0;\n\nimport \"openzeppelin-solidity/contracts/math/SafeMath.sol\";\nimport \"openzeppelin-solidity/contracts/access/roles/WhitelistAdminRole.sol\";\n\n\n/**\n * @title StorageFeeCollector\n *\n * @notice StorageFeeCollector is a contract managing the fees\n */\ncontract StorageFeeCollector is WhitelistAdminRole {\n  using SafeMath for uint256;\n\n  /**\n   * Fee computation for storage are based on four parameters:\n   * minimumFee (wei) fee that will be applied for any size of storage\n   * rateFeesNumerator (wei) and rateFeesDenominator (byte) define the variable fee,\n   * for each <rateFeesDenominator> bytes above threshold, <rateFeesNumerator> wei will be charged\n   *\n   * Example:\n   * If the size to store is 50 bytes, the threshold is 100 bytes and the minimum fee is 300 wei,\n   * then 300 will be charged\n   *\n   * If rateFeesNumerator is 2 and rateFeesDenominator is 1 then 2 wei will be charged for every bytes above threshold,\n   * if the size to store is 150 bytes then the fee will be 300 + (150-100)*2 = 400 wei\n   */\n  uint256 public minimumFee;\n  uint256 public rateFeesNumerator;\n  uint256 public rateFeesDenominator;\n\n  // address of the contract that will burn req token\n  address payable public requestBurnerContract;\n\n  event UpdatedFeeParameters(uint256 minimumFee, uint256 rateFeesNumerator, uint256 rateFeesDenominator);\n  event UpdatedMinimumFeeThreshold(uint256 threshold);\n  event UpdatedBurnerContract(address burnerAddress);\n\n  /**\n   * @param _requestBurnerContract Address of the contract where to send the ether.\n   * This burner contract will have a function that can be called by anyone and will exchange ether to req via Kyber and burn the REQ\n   */\n  constructor(address payable _requestBurnerContract)\n    public\n  {\n    requestBurnerContract = _requestBurnerContract;\n  }\n\n  /**\n    * @notice Sets the fees rate and minimum fee.\n    * @dev if the _rateFeesDenominator is 0, it will be treated as 1. (in other words, the computation of the fees will not use it)\n    * @param _minimumFee minimum fixed fee\n    * @param _rateFeesNumerator numerator rate\n    * @param _rateFeesDenominator denominator rate\n    */\n  function setFeeParameters(uint256 _minimumFee, uint256 _rateFeesNumerator, uint256 _rateFeesDenominator)\n    external\n    onlyWhitelistAdmin\n  {\n    minimumFee = _minimumFee;\n    rateFeesNumerator = _rateFeesNumerator;\n    rateFeesDenominator = _rateFeesDenominator;\n    emit UpdatedFeeParameters(minimumFee, rateFeesNumerator, rateFeesDenominator);\n  }\n\n  /**\n    * @notice Set the request burner address.\n    * @param _requestBurnerContract address of the contract that will burn req token (probably through Kyber)\n    */\n  function setRequestBurnerContract(address payable _requestBurnerContract)\n    external\n    onlyWhitelistAdmin\n  {\n    requestBurnerContract = _requestBurnerContract;\n    emit UpdatedBurnerContract(requestBurnerContract);\n  }\n\n  /**\n    * @notice Computes the fees.\n    * @param _contentSize Size of the content of the block to be stored\n    * @return the expected amount of fees in wei\n    */\n  function getFeesAmount(uint256 _contentSize)\n    public\n    view\n    returns(uint256)\n  {\n    // Transactions fee\n    uint256 computedAllFee = _contentSize.mul(rateFeesNumerator);\n\n    if (rateFeesDenominator != 0) {\n      computedAllFee = computedAllFee.div(rateFeesDenominator);\n    }\n\n    if (computedAllFee <= minimumFee) {\n      return minimumFee;\n    } else {\n      return computedAllFee;\n    }\n  }\n\n  /**\n    * @notice Sends fees to the request burning address.\n    * @param _amount amount to send to the burning address\n    */\n  function collectForREQBurning(uint256 _amount)\n    internal\n  {\n    // .transfer throws on failure\n    requestBurnerContract.transfer(_amount);\n  }\n}\n",
  "sourcePath": "/Users/bertrand/Desktop/requestNetwork-private/packages/smart-contracts/src/StorageFeeCollector.sol",
  "compiler": {
    "name": "solc",
    "version": "0.5.12+commit.7709ece9.Emscripten.clang"
  },
  "schemaVersion": "3.0.19",
  "updatedAt": "2019-12-04T06:27:46.623Z",
  "devdoc": {
    "methods": {
      "constructor": {
        "params": {
          "_requestBurnerContract": "Address of the contract where to send the ether. This burner contract will have a function that can be called by anyone and will exchange ether to req via Kyber and burn the REQ"
        }
      },
      "getFeesAmount(uint256)": {
        "params": {
          "_contentSize": "Size of the content of the block to be stored"
        },
        "return": "the expected amount of fees in wei"
      },
      "setFeeParameters(uint256,uint256,uint256)": {
        "details": "if the _rateFeesDenominator is 0, it will be treated as 1. (in other words, the computation of the fees will not use it)",
        "params": {
          "_minimumFee": "minimum fixed fee",
          "_rateFeesDenominator": "denominator rate",
          "_rateFeesNumerator": "numerator rate"
        }
      },
      "setRequestBurnerContract(address)": {
        "params": {
          "_requestBurnerContract": "address of the contract that will burn req token (probably through Kyber)"
        }
      }
    },
    "title": "StorageFeeCollector"
  },
  "userdoc": {
    "methods": {
      "getFeesAmount(uint256)": {
        "notice": "Computes the fees."
      },
      "setFeeParameters(uint256,uint256,uint256)": {
        "notice": "Sets the fees rate and minimum fee."
      },
      "setRequestBurnerContract(address)": {
        "notice": "Set the request burner address."
      }
    },
    "notice": "StorageFeeCollector is a contract managing the fees"
  }
}