{
  "_format": "hh-sol-artifact-1",
  "contractName": "DiamondPaymentConversionFacet",
  "sourceName": "src/contracts/facets/DiamondPaymentConversionFacet.sol",
  "abi": [
    {
      "anonymous": false,
      "inputs": [
        {
          "indexed": false,
          "internalType": "uint256",
          "name": "amount",
          "type": "uint256"
        },
        {
          "indexed": false,
          "internalType": "address",
          "name": "currency",
          "type": "address"
        },
        {
          "indexed": true,
          "internalType": "bytes",
          "name": "paymentReference",
          "type": "bytes"
        },
        {
          "indexed": false,
          "internalType": "uint256",
          "name": "feeAmount",
          "type": "uint256"
        },
        {
          "indexed": false,
          "internalType": "uint256",
          "name": "maxRateTimespan",
          "type": "uint256"
        }
      ],
      "name": "TransferWithConversion",
      "type": "event"
    },
    {
      "inputs": [
        {
          "internalType": "address",
          "name": "_to",
          "type": "address"
        },
        {
          "internalType": "uint256",
          "name": "_requestAmount",
          "type": "uint256"
        },
        {
          "internalType": "address[]",
          "name": "_path",
          "type": "address[]"
        },
        {
          "internalType": "bytes",
          "name": "_paymentReference",
          "type": "bytes"
        },
        {
          "internalType": "uint256",
          "name": "_feeAmount",
          "type": "uint256"
        },
        {
          "internalType": "address",
          "name": "_feeAddress",
          "type": "address"
        },
        {
          "internalType": "uint256",
          "name": "_maxRateTimespan",
          "type": "uint256"
        }
      ],
      "name": "nativeTransferWithConversion",
      "outputs": [],
      "stateMutability": "payable",
      "type": "function"
    },
    {
      "inputs": [
        {
          "internalType": "address",
          "name": "_to",
          "type": "address"
        },
        {
          "internalType": "uint256",
          "name": "_requestAmount",
          "type": "uint256"
        },
        {
          "internalType": "address[]",
          "name": "_path",
          "type": "address[]"
        },
        {
          "internalType": "bytes",
          "name": "_paymentReference",
          "type": "bytes"
        },
        {
          "internalType": "uint256",
          "name": "_feeAmount",
          "type": "uint256"
        },
        {
          "internalType": "address",
          "name": "_feeAddress",
          "type": "address"
        },
        {
          "internalType": "uint256",
          "name": "_maxToSpend",
          "type": "uint256"
        },
        {
          "internalType": "uint256",
          "name": "_maxRateTimespan",
          "type": "uint256"
        }
      ],
      "name": "tokenTransferWithConversion",
      "outputs": [],
      "stateMutability": "nonpayable",
      "type": "function"
    }
  ],
  "bytecode": "0x608060405234801561001057600080fd5b50611698806100206000396000f3fe6080604052600436106100295760003560e01c80631fda5e181461002e57806398cc381614610057575b600080fd5b34801561003a57600080fd5b5061005560048036038101906100509190610bfa565b610073565b005b610071600480360381019061006c9190610b18565b61023d565b005b6000806100c38a8a80806020026020016040519081016040528093929190818152602001838360200280828437600081840152601f19601f820116905080830192505050505050508c8886610497565b915091508381836100d4919061120d565b1115610115576040517f08c379a000000000000000000000000000000000000000000000000000000000815260040161010c90611117565b60405180910390fd5b600061016f8d6101658d8d80806020026020016040519081016040528093929190818152602001838360200280828437600081840152601f19601f82011690508083019250505050505050610699565b8b8b878b886106ca565b9050806101b1576040517f08c379a00000000000000000000000000000000000000000000000000000000081526004016101a890611097565b60405180910390fd5b88886040516101c1929190610f5f565b60405180910390207f762cf434aae19804e92c1b63c0c65634bf9aa29f1adcd894433b14efa32a1d148d8d8d60008181106101ff576101fe6113fe565b5b90506020020160208101906102149190610aeb565b8a886040516102269493929190611157565b60405180910390a250505050505050505050505050565b6000800160009054906101000a900473ffffffffffffffffffffffffffffffffffffffff1673ffffffffffffffffffffffffffffffffffffffff166102c2888880806020026020016040519081016040528093929190818152602001838360200280828437600081840152601f19601f82011690508083019250505050505050610699565b73ffffffffffffffffffffffffffffffffffffffff1614610318576040517f08c379a000000000000000000000000000000000000000000000000000000000815260040161030f906110b7565b60405180910390fd5b600080610368898980806020026020016040519081016040528093929190818152602001838360200280828437600081840152601f19601f820116905080830192505050505050508b8786610497565b91509150348183610379919061120d565b11156103ba576040517f08c379a00000000000000000000000000000000000000000000000000000000081526004016103b190611077565b60405180910390fd5b60006103ca8c848a8a868a610850565b90508061040c576040517f08c379a000000000000000000000000000000000000000000000000000000000815260040161040390611137565b60405180910390fd5b878760405161041c929190610f5f565b60405180910390207f762cf434aae19804e92c1b63c0c65634bf9aa29f1adcd894433b14efa32a1d148c8c8c600081811061045a576104596113fe565b5b905060200201602081019061046f9190610aeb565b89886040516104819493929190611157565b60405180910390a2505050505050505050505050565b60008060007f97edd4fa1f5b353df26d4fdbdbba1d90cc765b46752be5249bba4132813cb0719050600081886040516024016104d39190611055565b604051602081830303815290604052907bffffffffffffffffffffffffffffffffffffffffffffffffffffffff19166020820180517bffffffffffffffffffffffffffffffffffffffffffffffffffffffff838183161783525050505090506000803073ffffffffffffffffffffffffffffffffffffffff168360405161055a9190610f78565b600060405180830381855af49150503d8060008114610595576040519150601f19603f3d011682016040523d82523d6000602084013e61059a565b606091505b5091509150816105df576040517f08c379a00000000000000000000000000000000000000000000000000000000081526004016105d6906110d7565b60405180910390fd5b6000806000838060200190518101906105f89190610cf1565b92509250925060008a1480610618575089824261061591906112ee565b11155b610657576040517f08c379a000000000000000000000000000000000000000000000000000000000815260040161064e906110f7565b60405180910390fd5b80838d6106649190611294565b61066e9190611263565b985080838c61067d9190611294565b6106879190611263565b97505050505050505094509492505050565b600081600183516106aa91906112ee565b815181106106bb576106ba6113fe565b5b60200260200101519050919050565b6000806106d56109d3565b905060007f972cf28875a4a37d83cc0752b281ed51d0e47bf4fb5430e86e56c2489b59e20090506000826000016000837bffffffffffffffffffffffffffffffffffffffffffffffffffffffff19167bffffffffffffffffffffffffffffffffffffffffffffffffffffffff191681526020019081526020016000205460601c90506000828b8d8a8d8d8b8d6040516024016107779796959493929190610f8f565b604051602081830303815290604052907bffffffffffffffffffffffffffffffffffffffffffffffffffffffff19166020820180517bffffffffffffffffffffffffffffffffffffffffffffffffffffffff838183161783525050505090508173ffffffffffffffffffffffffffffffffffffffff16816040516107fb9190610f78565b600060405180830381855af49150503d8060008114610836576040519150601f19603f3d011682016040523d82523d6000602084013e61083b565b606091505b50508095505050505050979650505050505050565b60008061085b6109d3565b905060007ff536d4685a1785894a3f5b8c63ece3651ebf08d3cd37bfa71c8c106287d37d8390506000826000016000837bffffffffffffffffffffffffffffffffffffffffffffffffffffffff19167bffffffffffffffffffffffffffffffffffffffffffffffffffffffff191681526020019081526020016000205460601c90506000828b8b8b8b8b8b6040516024016108fb96959493929190610ff9565b604051602081830303815290604052907bffffffffffffffffffffffffffffffffffffffffffffffffffffffff19166020820180517bffffffffffffffffffffffffffffffffffffffffffffffffffffffff838183161783525050505090508173ffffffffffffffffffffffffffffffffffffffff168160405161097f9190610f78565b600060405180830381855af49150503d80600081146109ba576040519150601f19603f3d011682016040523d82523d6000602084013e6109bf565b606091505b505080955050505050509695505050505050565b6000807fc8fcad8db84d3cc18b4c41d551ea0ee66dd599cde068d998e57d5e09332c131c90508091505090565b600081359050610a0f81611634565b92915050565b60008083601f840112610a2b57610a2a611432565b5b8235905067ffffffffffffffff811115610a4857610a4761142d565b5b602083019150836020820283011115610a6457610a63611437565b5b9250929050565b60008083601f840112610a8157610a80611432565b5b8235905067ffffffffffffffff811115610a9e57610a9d61142d565b5b602083019150836001820283011115610aba57610ab9611437565b5b9250929050565b600081359050610ad08161164b565b92915050565b600081519050610ae58161164b565b92915050565b600060208284031215610b0157610b00611441565b5b6000610b0f84828501610a00565b91505092915050565b600080600080600080600080600060e08a8c031215610b3a57610b39611441565b5b6000610b488c828d01610a00565b9950506020610b598c828d01610ac1565b98505060408a013567ffffffffffffffff811115610b7a57610b7961143c565b5b610b868c828d01610a15565b975097505060608a013567ffffffffffffffff811115610ba957610ba861143c565b5b610bb58c828d01610a6b565b95509550506080610bc88c828d01610ac1565b93505060a0610bd98c828d01610a00565b92505060c0610bea8c828d01610ac1565b9150509295985092959850929598565b6000806000806000806000806000806101008b8d031215610c1e57610c1d611441565b5b6000610c2c8d828e01610a00565b9a50506020610c3d8d828e01610ac1565b99505060408b013567ffffffffffffffff811115610c5e57610c5d61143c565b5b610c6a8d828e01610a15565b985098505060608b013567ffffffffffffffff811115610c8d57610c8c61143c565b5b610c998d828e01610a6b565b96509650506080610cac8d828e01610ac1565b94505060a0610cbd8d828e01610a00565b93505060c0610cce8d828e01610ac1565b92505060e0610cdf8d828e01610ac1565b9150509295989b9194979a5092959850565b600080600060608486031215610d0a57610d09611441565b5b6000610d1886828701610ad6565b9350506020610d2986828701610ad6565b9250506040610d3a86828701610ad6565b9150509250925092565b6000610d508383610d5c565b60208301905092915050565b610d6581611322565b82525050565b610d7481611322565b82525050565b6000610d85826111ac565b610d8f81856111cf565b9350610d9a8361119c565b8060005b83811015610dcb578151610db28882610d44565b9750610dbd836111c2565b925050600181019050610d9e565b5085935050505092915050565b6000610de483856111e0565b9350610df183858461135e565b610dfa83611446565b840190509392505050565b6000610e1183856111f1565b9350610e1e83858461135e565b82840190509392505050565b6000610e35826111b7565b610e3f81856111f1565b9350610e4f81856020860161136d565b80840191505092915050565b6000610e686035836111fc565b9150610e7382611457565b604082019050919050565b6000610e8b603d836111fc565b9150610e96826114a6565b604082019050919050565b6000610eae6029836111fc565b9150610eb9826114f5565b604082019050919050565b6000610ed1601d836111fc565b9150610edc82611544565b602082019050919050565b6000610ef4601b836111fc565b9150610eff8261156d565b602082019050919050565b6000610f176024836111fc565b9150610f2282611596565b604082019050919050565b6000610f3a603f836111fc565b9150610f45826115e5565b604082019050919050565b610f5981611354565b82525050565b6000610f6c828486610e05565b91508190509392505050565b6000610f848284610e2a565b915081905092915050565b600060c082019050610fa4600083018a610d6b565b610fb16020830189610d6b565b610fbe6040830188610f50565b8181036060830152610fd1818688610dd8565b9050610fe06080830185610f50565b610fed60a0830184610d6b565b98975050505050505050565b600060a08201905061100e6000830189610d6b565b61101b6020830188610f50565b818103604083015261102e818688610dd8565b905061103d6060830185610f50565b61104a6080830184610d6b565b979650505050505050565b6000602082019050818103600083015261106f8184610d7a565b905092915050565b6000602082019050818103600083015261109081610e5b565b9050919050565b600060208201905081810360008301526110b081610e7e565b9050919050565b600060208201905081810360008301526110d081610ea1565b9050919050565b600060208201905081810360008301526110f081610ec4565b9050919050565b6000602082019050818103600083015261111081610ee7565b9050919050565b6000602082019050818103600083015261113081610f0a565b9050919050565b6000602082019050818103600083015261115081610f2d565b9050919050565b600060808201905061116c6000830187610f50565b6111796020830186610d6b565b6111866040830185610f50565b6111936060830184610f50565b95945050505050565b6000819050602082019050919050565b600081519050919050565b600081519050919050565b6000602082019050919050565b600082825260208201905092915050565b600082825260208201905092915050565b600081905092915050565b600082825260208201905092915050565b600061121882611354565b915061122383611354565b9250827fffffffffffffffffffffffffffffffffffffffffffffffffffffffffffffffff03821115611258576112576113a0565b5b828201905092915050565b600061126e82611354565b915061127983611354565b925082611289576112886113cf565b5b828204905092915050565b600061129f82611354565b91506112aa83611354565b9250817fffffffffffffffffffffffffffffffffffffffffffffffffffffffffffffffff04831182151516156112e3576112e26113a0565b5b828202905092915050565b60006112f982611354565b915061130483611354565b925082821015611317576113166113a0565b5b828203905092915050565b600061132d82611334565b9050919050565b600073ffffffffffffffffffffffffffffffffffffffff82169050919050565b6000819050919050565b82818337600083830152505050565b60005b8381101561138b578082015181840152602081019050611370565b8381111561139a576000848401525b50505050565b7f4e487b7100000000000000000000000000000000000000000000000000000000600052601160045260246000fd5b7f4e487b7100000000000000000000000000000000000000000000000000000000600052601260045260246000fd5b7f4e487b7100000000000000000000000000000000000000000000000000000000600052603260045260246000fd5b600080fd5b600080fd5b600080fd5b600080fd5b600080fd5b6000601f19601f8301169050919050565b7f6e61746976655472616e7366657257697468436f6e76657273696f6e2066616960008201527f6c65643a2074782e76616c756520746f6f206c6f770000000000000000000000602082015250565b7f746f6b656e5472616e7366657257697468436f6e76657273696f6e206661696c60008201527f65643a206d616b65546f6b656e5061796d656e742829206661696c6564000000602082015250565b7f7061796d656e742063757272656e6379206d75737420626520746865206e617460008201527f69766520746f6b656e0000000000000000000000000000000000000000000000602082015250565b7f436f756c64206e6f742067657420636f6e76657273696f6e2072617465000000600082015250565b7f61676772656761746f722072617465206973206f757464617465640000000000600082015250565b7f416d6f756e7420746f20706179206973206f766572207468652075736572206c60008201527f696d697400000000000000000000000000000000000000000000000000000000602082015250565b7f6e61746976655472616e7366657257697468436f6e76657273696f6e2066616960008201527f6c65643a206d616b654e61746976655061796d656e742829206661696c656400602082015250565b61163d81611322565b811461164857600080fd5b50565b61165481611354565b811461165f57600080fd5b5056fea26469706673582212201d4c0aa149d7712ced51134bf8de8b1bfe3352b2d6ad2816073881b27b2cba7664736f6c63430008060033",
  "linkReferences": {},
  "deployedLinkReferences": {}
}