{
  "contractName": "ERC20FeeProxy",
  "abi": [
    {
      "anonymous": false,
      "inputs": [
        {
          "indexed": false,
          "internalType": "address",
          "name": "tokenAddress",
          "type": "address"
        },
        {
          "indexed": false,
          "internalType": "address",
          "name": "to",
          "type": "address"
        },
        {
          "indexed": false,
          "internalType": "uint256",
          "name": "amount",
          "type": "uint256"
        },
        {
          "indexed": true,
          "internalType": "bytes",
          "name": "paymentReference",
          "type": "bytes"
        },
        {
          "indexed": false,
          "internalType": "uint256",
          "name": "feeAmount",
          "type": "uint256"
        },
        {
          "indexed": false,
          "internalType": "address",
          "name": "feeAddress",
          "type": "address"
        }
      ],
      "name": "TransferWithReferenceAndFee",
      "type": "event"
    },
    {
      "inputs": [
        {
          "internalType": "address",
          "name": "_tokenAddress",
          "type": "address"
        },
        {
          "internalType": "address",
          "name": "_to",
          "type": "address"
        },
        {
          "internalType": "uint256",
          "name": "_amount",
          "type": "uint256"
        },
        {
          "internalType": "bytes",
          "name": "_paymentReference",
          "type": "bytes"
        },
        {
          "internalType": "uint256",
          "name": "_feeAmount",
          "type": "uint256"
        },
        {
          "internalType": "address",
          "name": "_feeAddress",
          "type": "address"
        }
      ],
      "name": "transferFromWithReferenceAndFee",
      "outputs": [],
      "stateMutability": "nonpayable",
      "type": "function"
    },
    {
      "stateMutability": "payable",
      "type": "receive"
    }
  ],
  "bytecode": "0x608060405234801561001057600080fd5b50d3801561001d57600080fd5b50d2801561002a57600080fd5b506104858061003a6000396000f3fe6080604052600436106100225760003560e01c8063c219a14d1461006f57600080fd5b3661006a5760405162461bcd60e51b81526020600482015260136024820152726e6f742070617961626c65207265636569766560681b60448201526064015b60405180910390fd5b600080fd5b34801561007b57600080fd5b50d3801561008857600080fd5b50d2801561009557600080fd5b506100a96100a436600461034c565b6100ab565b005b6100b68787876101f1565b6101025760405162461bcd60e51b815260206004820152601d60248201527f7061796d656e74207472616e7366657246726f6d2829206661696c65640000006044820152606401610061565b60008211801561011a57506001600160a01b03811615155b156101765761012a8782846101f1565b6101765760405162461bcd60e51b815260206004820152601960248201527f666565207472616e7366657246726f6d2829206661696c6564000000000000006044820152606401610061565b8383604051610186929190610404565b604080519182900382206001600160a01b03808b168452808a166020850152918301889052606083018590529083166080830152907f9f16cbcc523c67a60c450e5ffe4f3b7b6dbe772e7abcadb2686ce029a9a0a2b69060a00160405180910390a250505050505050565b6000833b6101fe57600080fd5b6040513360248201526001600160a01b038481166044830152606482018490526000919086169060840160408051601f198184030181529181526020820180516001600160e01b03166323b872dd60e01b1790525161025d9190610414565b6000604051808303816000865af19150503d806000811461029a576040519150601f19603f3d011682016040523d82523d6000602084013e61029f565b606091505b505090503d600081146102b957602081146102c257600080fd5b600192506102ce565b60206000803e60005192505b508061031c5760405162461bcd60e51b815260206004820181905260248201527f7472616e7366657246726f6d282920686173206265656e2072657665727465646044820152606401610061565b509392505050565b600081356001600160a81b038116811461033d57600080fd5b6001600160a01b031692915050565b600080600080600080600060c0888a03121561036757600080fd5b61037088610324565b965061037e60208901610324565b955060408801359450606088013567ffffffffffffffff808211156103a257600080fd5b818a0191508a601f8301126103b657600080fd5b8135818111156103c557600080fd5b8b60208285010111156103d757600080fd5b602083019650809550505050608088013591506103f660a08901610324565b905092959891949750929550565b8183823760009101908152919050565b6000825160005b81811015610435576020818601810151858301520161041b565b81811115610444576000828501525b50919091019291505056fea26474726f6e582212206da98c5f323052cc2f7f8c030104a1ce83e97ba2142f9246307deec3c2c17df164736f6c63430008060033",
  "source": "// SPDX-License-Identifier: MIT\npragma solidity ^0.8.0;\n\n/**\n * @title ERC20FeeProxy\n * @notice This contract performs an ERC20 token transfer, with a Fee sent to a third address and stores a reference\n * @dev This is a copy of the main ERC20FeeProxy contract for TronBox compatibility\n *      TronBox doesn't support imports from outside the contracts directory\n */\ncontract ERC20FeeProxy {\n  // Event to declare a transfer with a reference\n  event TransferWithReferenceAndFee(\n    address tokenAddress,\n    address to,\n    uint256 amount,\n    bytes indexed paymentReference,\n    uint256 feeAmount,\n    address feeAddress\n  );\n\n  // Fallback function returns funds to the sender\n  receive() external payable {\n    revert('not payable receive');\n  }\n\n  /**\n    * @notice Performs a ERC20 token transfer with a reference\n              and a transfer to a second address for the payment of a fee\n    * @param _tokenAddress Address of the ERC20 token smart contract\n    * @param _to Transfer recipient\n    * @param _amount Amount to transfer\n    * @param _paymentReference Reference of the payment related\n    * @param _feeAmount The amount of the payment fee\n    * @param _feeAddress The fee recipient\n    */\n  function transferFromWithReferenceAndFee(\n    address _tokenAddress,\n    address _to,\n    uint256 _amount,\n    bytes calldata _paymentReference,\n    uint256 _feeAmount,\n    address _feeAddress\n  ) external {\n    require(safeTransferFrom(_tokenAddress, _to, _amount), 'payment transferFrom() failed');\n    if (_feeAmount > 0 && _feeAddress != address(0)) {\n      require(\n        safeTransferFrom(_tokenAddress, _feeAddress, _feeAmount),\n        'fee transferFrom() failed'\n      );\n    }\n    emit TransferWithReferenceAndFee(\n      _tokenAddress,\n      _to,\n      _amount,\n      _paymentReference,\n      _feeAmount,\n      _feeAddress\n    );\n  }\n\n  /**\n   * @notice Call transferFrom ERC20 function and validates the return data of a ERC20 contract call.\n   * @dev This is necessary because of non-standard ERC20 tokens that don't have a return value.\n   * @return result The return value of the ERC20 call, returning true for non-standard tokens\n   */\n  function safeTransferFrom(\n    address _tokenAddress,\n    address _to,\n    uint256 _amount\n  ) internal returns (bool result) {\n    /* solium-disable security/no-inline-assembly */\n    // check if the address is a contract\n    assembly {\n      if iszero(extcodesize(_tokenAddress)) {\n        revert(0, 0)\n      }\n    }\n\n    // solium-disable-next-line security/no-low-level-calls\n    (bool success, ) = _tokenAddress.call(\n      abi.encodeWithSignature('transferFrom(address,address,uint256)', msg.sender, _to, _amount)\n    );\n\n    assembly {\n      switch returndatasize()\n      case 0 {\n        // not a standard erc20\n        result := 1\n      }\n      case 32 {\n        // standard erc20\n        returndatacopy(0, 0, 32)\n        result := mload(0)\n      }\n      default {\n        // anything else, should revert for safety\n        revert(0, 0)\n      }\n    }\n\n    require(success, 'transferFrom() has been reverted');\n\n    /* solium-enable security/no-inline-assembly */\n    return result;\n  }\n}\n",
  "sourcePath": "src/contracts/tron/ERC20FeeProxy.sol",
  "compiler": {
    "name": "solc",
    "version": "0.8.6+commit.0e36fba0.mod.Emscripten.clang"
  },
  "schemaVersion": "2.0.1",
  "updatedAt": "2026-01-22T14:35:44.148Z"
}