{
  "contractName": "TRC20True",
  "abi": [
    {
      "inputs": [
        {
          "internalType": "address",
          "name": "",
          "type": "address"
        },
        {
          "internalType": "address",
          "name": "",
          "type": "address"
        },
        {
          "internalType": "uint256",
          "name": "",
          "type": "uint256"
        }
      ],
      "name": "transferFrom",
      "outputs": [
        {
          "internalType": "bool",
          "name": "",
          "type": "bool"
        }
      ],
      "stateMutability": "pure",
      "type": "function"
    }
  ],
  "bytecode": "0x608060405234801561001057600080fd5b50d3801561001d57600080fd5b50d2801561002a57600080fd5b506101018061003a6000396000f3fe6080604052348015600f57600080fd5b50d38015601b57600080fd5b50d28015602757600080fd5b506004361060405760003560e01c806323b872dd146045575b600080fd5b605960503660046094565b60019392505050565b604051901515815260200160405180910390f35b600081356001600160a81b0381168114608557600080fd5b6001600160a01b031692915050565b60008060006060848603121560a857600080fd5b60af84606d565b925060bb60208501606d565b915060408401359050925092509256fea26474726f6e5822122056ac7d29d33742b9df46ab1b43ead5385fa784dd9695fe599e081ecbe1d26ce464736f6c63430008060033",
  "source": "// SPDX-License-Identifier: MIT\npragma solidity ^0.8.0;\n\n/**\n * @title BadTRC20\n * @notice Non-standard TRC20 implementation for testing\n * @dev Similar to BadERC20 in EVM tests - implements ERC20 but with non-standard behavior\n */\ncontract BadTRC20 {\n  string public name;\n  string public symbol;\n  uint8 public decimals;\n  uint256 public totalSupply;\n\n  mapping(address => uint256) public balanceOf;\n  mapping(address => mapping(address => uint256)) public allowance;\n\n  constructor(\n    uint256 initialSupply,\n    string memory name_,\n    string memory symbol_,\n    uint8 decimals_\n  ) {\n    name = name_;\n    symbol = symbol_;\n    decimals = decimals_;\n    totalSupply = initialSupply;\n    balanceOf[msg.sender] = initialSupply;\n  }\n\n  function transfer(address to, uint256 amount) public returns (bool) {\n    require(balanceOf[msg.sender] >= amount, 'Insufficient balance');\n    balanceOf[msg.sender] -= amount;\n    balanceOf[to] += amount;\n    return true;\n  }\n\n  function approve(address spender, uint256 amount) public returns (bool) {\n    allowance[msg.sender][spender] = amount;\n    return true;\n  }\n\n  // Note: No return value - this is the \"bad\" non-standard behavior\n  function transferFrom(\n    address from,\n    address to,\n    uint256 amount\n  ) public {\n    require(balanceOf[from] >= amount, 'Insufficient balance');\n    require(allowance[from][msg.sender] >= amount, 'Insufficient allowance');\n    balanceOf[from] -= amount;\n    balanceOf[to] += amount;\n    allowance[from][msg.sender] -= amount;\n  }\n}\n\n/**\n * @title TRC20True\n * @notice TRC20 that always returns true from transferFrom\n * @dev Used to test tokens that always succeed\n */\ncontract TRC20True {\n  function transferFrom(\n    address,\n    address,\n    uint256\n  ) public pure returns (bool) {\n    return true;\n  }\n}\n",
  "sourcePath": "tron/contracts/BadTRC20.sol",
  "compiler": {
    "name": "solc",
    "version": "0.8.6+commit.0e36fba0.mod.Emscripten.clang"
  },
  "schemaVersion": "2.0.1",
  "updatedAt": "2026-01-22T14:35:44.147Z"
}