{
  "contractName": "TRC20False",
  "abi": [
    {
      "inputs": [
        {
          "internalType": "address",
          "name": "",
          "type": "address"
        },
        {
          "internalType": "address",
          "name": "",
          "type": "address"
        },
        {
          "internalType": "uint256",
          "name": "",
          "type": "uint256"
        }
      ],
      "name": "transferFrom",
      "outputs": [
        {
          "internalType": "bool",
          "name": "",
          "type": "bool"
        }
      ],
      "stateMutability": "pure",
      "type": "function"
    }
  ],
  "bytecode": "0x608060405234801561001057600080fd5b50d3801561001d57600080fd5b50d2801561002a57600080fd5b506101018061003a6000396000f3fe6080604052348015600f57600080fd5b50d38015601b57600080fd5b50d28015602757600080fd5b506004361060405760003560e01c806323b872dd146045575b600080fd5b605960503660046094565b60009392505050565b604051901515815260200160405180910390f35b600081356001600160a81b0381168114608557600080fd5b6001600160a01b031692915050565b60008060006060848603121560a857600080fd5b60af84606d565b925060bb60208501606d565b915060408401359050925092509256fea26474726f6e58221220a2d689cf6057bb49b60b003125a353faad18d14f71f5fad45172989ffc7e643a64736f6c63430008060033",
  "source": "// SPDX-License-Identifier: MIT\npragma solidity ^0.8.0;\n\n/**\n * @title TestTRC20\n * @notice Test TRC20 token for Tron network testing\n * @dev Minimal ERC20/TRC20 implementation for testing purposes\n */\ncontract TestTRC20 {\n  string public name;\n  string public symbol;\n  uint8 public decimals;\n  uint256 public totalSupply;\n\n  mapping(address => uint256) public balanceOf;\n  mapping(address => mapping(address => uint256)) public allowance;\n\n  event Transfer(address indexed from, address indexed to, uint256 value);\n  event Approval(address indexed owner, address indexed spender, uint256 value);\n\n  constructor(\n    uint256 initialSupply,\n    string memory name_,\n    string memory symbol_,\n    uint8 decimals_\n  ) {\n    name = name_;\n    symbol = symbol_;\n    decimals = decimals_;\n    totalSupply = initialSupply;\n    balanceOf[msg.sender] = initialSupply;\n    emit Transfer(address(0), msg.sender, initialSupply);\n  }\n\n  function transfer(address to, uint256 amount) public returns (bool) {\n    require(balanceOf[msg.sender] >= amount, 'Insufficient balance');\n    balanceOf[msg.sender] -= amount;\n    balanceOf[to] += amount;\n    emit Transfer(msg.sender, to, amount);\n    return true;\n  }\n\n  function approve(address spender, uint256 amount) public returns (bool) {\n    allowance[msg.sender][spender] = amount;\n    emit Approval(msg.sender, spender, amount);\n    return true;\n  }\n\n  function transferFrom(\n    address from,\n    address to,\n    uint256 amount\n  ) public returns (bool) {\n    require(balanceOf[from] >= amount, 'Insufficient balance');\n    require(allowance[from][msg.sender] >= amount, 'Insufficient allowance');\n    balanceOf[from] -= amount;\n    balanceOf[to] += amount;\n    allowance[from][msg.sender] -= amount;\n    emit Transfer(from, to, amount);\n    return true;\n  }\n\n  function mint(address to, uint256 amount) external {\n    totalSupply += amount;\n    balanceOf[to] += amount;\n    emit Transfer(address(0), to, amount);\n  }\n}\n\n/**\n * @title TRC20NoReturn\n * @notice Non-standard TRC20 that doesn't return a value from transferFrom\n */\ncontract TRC20NoReturn {\n  mapping(address => uint256) public balanceOf;\n  mapping(address => mapping(address => uint256)) public allowance;\n\n  constructor(uint256 initialSupply) {\n    balanceOf[msg.sender] = initialSupply;\n  }\n\n  function transfer(address to, uint256 amount) public {\n    require(balanceOf[msg.sender] >= amount, 'Insufficient balance');\n    balanceOf[msg.sender] -= amount;\n    balanceOf[to] += amount;\n  }\n\n  function approve(address spender, uint256 amount) public {\n    allowance[msg.sender][spender] = amount;\n  }\n\n  function transferFrom(\n    address from,\n    address to,\n    uint256 amount\n  ) public {\n    require(balanceOf[from] >= amount, 'Insufficient balance');\n    require(allowance[from][msg.sender] >= amount, 'Insufficient allowance');\n    balanceOf[from] -= amount;\n    balanceOf[to] += amount;\n    allowance[from][msg.sender] -= amount;\n  }\n}\n\n/**\n * @title TRC20False\n * @notice TRC20 that always returns false from transferFrom\n */\ncontract TRC20False {\n  function transferFrom(\n    address,\n    address,\n    uint256\n  ) public pure returns (bool) {\n    return false;\n  }\n}\n\n/**\n * @title TRC20Revert\n * @notice TRC20 that always reverts on transferFrom\n */\ncontract TRC20Revert {\n  function transferFrom(\n    address,\n    address,\n    uint256\n  ) public pure {\n    revert('TRC20Revert: transfer failed');\n  }\n}\n",
  "sourcePath": "tron/contracts/TestTRC20.sol",
  "compiler": {
    "name": "solc",
    "version": "0.8.6+commit.0e36fba0.mod.Emscripten.clang"
  },
  "schemaVersion": "2.0.1",
  "updatedAt": "2026-01-22T14:35:44.149Z"
}