{
  "_format": "hh-sol-artifact-1",
  "contractName": "DiamondNativeHashFacet",
  "sourceName": "src/contracts/facets/DiamondNativeHashFacet.sol",
  "abi": [
    {
      "inputs": [],
      "name": "getNativeTokenHash",
      "outputs": [
        {
          "internalType": "address",
          "name": "",
          "type": "address"
        }
      ],
      "stateMutability": "view",
      "type": "function"
    },
    {
      "inputs": [
        {
          "internalType": "address",
          "name": "_nativeTokenHash",
          "type": "address"
        }
      ],
      "name": "updateNativeTokenHash",
      "outputs": [],
      "stateMutability": "nonpayable",
      "type": "function"
    }
  ],
  "bytecode": "0x608060405234801561001057600080fd5b5061044c806100206000396000f3fe608060405234801561001057600080fd5b50600436106100365760003560e01c8063c0e6822f1461003b578063d0ab59d114610057575b600080fd5b6100556004803603810190610050919061023c565b610075565b005b61005f610133565b60405161006c91906102be565b60405180910390f35b61007d61015f565b600073ffffffffffffffffffffffffffffffffffffffff168173ffffffffffffffffffffffffffffffffffffffff1614156100ed576040517f08c379a00000000000000000000000000000000000000000000000000000000081526004016100e4906102f9565b60405180910390fd5b806000800160006101000a81548173ffffffffffffffffffffffffffffffffffffffff021916908373ffffffffffffffffffffffffffffffffffffffff16021790555050565b60008060000160009054906101000a900473ffffffffffffffffffffffffffffffffffffffff16905090565b6101676101fa565b60040160009054906101000a900473ffffffffffffffffffffffffffffffffffffffff1673ffffffffffffffffffffffffffffffffffffffff163373ffffffffffffffffffffffffffffffffffffffff16146101f8576040517f08c379a00000000000000000000000000000000000000000000000000000000081526004016101ef906102d9565b60405180910390fd5b565b6000807fc8fcad8db84d3cc18b4c41d551ea0ee66dd599cde068d998e57d5e09332c131c90508091505090565b600081359050610236816103ff565b92915050565b6000602082840312156102525761025161035c565b5b600061026084828501610227565b91505092915050565b6102728161032a565b82525050565b6000610285602283610319565b915061029082610361565b604082019050919050565b60006102a8603783610319565b91506102b3826103b0565b604082019050919050565b60006020820190506102d36000830184610269565b92915050565b600060208201905081810360008301526102f281610278565b9050919050565b600060208201905081810360008301526103128161029b565b9050919050565b600082825260208201905092915050565b60006103358261033c565b9050919050565b600073ffffffffffffffffffffffffffffffffffffffff82169050919050565b600080fd5b7f4c69624469616d6f6e643a204d75737420626520636f6e7472616374206f776e60008201527f6572000000000000000000000000000000000000000000000000000000000000602082015250565b7f5570646174654e6174697665546f6b656e48617368206661696c65643a20496e60008201527f76616c6964206e617469766520746f6b656e2068617368000000000000000000602082015250565b6104088161032a565b811461041357600080fd5b5056fea2646970667358221220a5f22ff5ad13c3514e2a0def34b58b7eae08bb65828f0ff1ebb147125c64fe7464736f6c63430008060033",
  "linkReferences": {},
  "deployedLinkReferences": {}
}