{
  "contractName": "RequestEthereum",
  "abi": [
    {
      "constant": false,
      "inputs": [],
      "name": "withdraw",
      "outputs": [],
      "payable": false,
      "stateMutability": "nonpayable",
      "type": "function"
    },
    {
      "constant": false,
      "inputs": [],
      "name": "unpause",
      "outputs": [],
      "payable": false,
      "stateMutability": "nonpayable",
      "type": "function"
    },
    {
      "constant": false,
      "inputs": [
        {
          "name": "_requestId",
          "type": "bytes32"
        }
      ],
      "name": "payback",
      "outputs": [],
      "payable": true,
      "stateMutability": "payable",
      "type": "function"
    },
    {
      "constant": false,
      "inputs": [
        {
          "name": "_requestId",
          "type": "bytes32"
        },
        {
          "name": "_recipient",
          "type": "address"
        },
        {
          "name": "_amount",
          "type": "uint256"
        }
      ],
      "name": "fundOrder",
      "outputs": [
        {
          "name": "",
          "type": "bool"
        }
      ],
      "payable": false,
      "stateMutability": "nonpayable",
      "type": "function"
    },
    {
      "constant": true,
      "inputs": [],
      "name": "paused",
      "outputs": [
        {
          "name": "",
          "type": "bool"
        }
      ],
      "payable": false,
      "stateMutability": "view",
      "type": "function"
    },
    {
      "constant": true,
      "inputs": [],
      "name": "requestCore",
      "outputs": [
        {
          "name": "",
          "type": "address"
        }
      ],
      "payable": false,
      "stateMutability": "view",
      "type": "function"
    },
    {
      "constant": false,
      "inputs": [
        {
          "name": "_payer",
          "type": "address"
        },
        {
          "name": "_amountInitial",
          "type": "uint256"
        },
        {
          "name": "_extension",
          "type": "address"
        },
        {
          "name": "_extensionParams",
          "type": "bytes32[9]"
        },
        {
          "name": "_details",
          "type": "string"
        }
      ],
      "name": "createRequestAsPayee",
      "outputs": [
        {
          "name": "requestId",
          "type": "bytes32"
        }
      ],
      "payable": false,
      "stateMutability": "nonpayable",
      "type": "function"
    },
    {
      "constant": true,
      "inputs": [
        {
          "name": "signer",
          "type": "address"
        },
        {
          "name": "hash",
          "type": "bytes32"
        },
        {
          "name": "v",
          "type": "uint8"
        },
        {
          "name": "r",
          "type": "bytes32"
        },
        {
          "name": "s",
          "type": "bytes32"
        }
      ],
      "name": "isValidSignature",
      "outputs": [
        {
          "name": "",
          "type": "bool"
        }
      ],
      "payable": false,
      "stateMutability": "pure",
      "type": "function"
    },
    {
      "constant": false,
      "inputs": [],
      "name": "pause",
      "outputs": [],
      "payable": false,
      "stateMutability": "nonpayable",
      "type": "function"
    },
    {
      "constant": true,
      "inputs": [],
      "name": "owner",
      "outputs": [
        {
          "name": "",
          "type": "address"
        }
      ],
      "payable": false,
      "stateMutability": "view",
      "type": "function"
    },
    {
      "constant": false,
      "inputs": [
        {
          "name": "_requestId",
          "type": "bytes32"
        },
        {
          "name": "_amount",
          "type": "uint256"
        }
      ],
      "name": "payment",
      "outputs": [
        {
          "name": "",
          "type": "bool"
        }
      ],
      "payable": false,
      "stateMutability": "nonpayable",
      "type": "function"
    },
    {
      "constant": false,
      "inputs": [
        {
          "name": "_requestId",
          "type": "bytes32"
        }
      ],
      "name": "cancel",
      "outputs": [
        {
          "name": "",
          "type": "bool"
        }
      ],
      "payable": false,
      "stateMutability": "nonpayable",
      "type": "function"
    },
    {
      "constant": false,
      "inputs": [
        {
          "name": "_payee",
          "type": "address"
        },
        {
          "name": "_amountInitial",
          "type": "uint256"
        },
        {
          "name": "_extension",
          "type": "address"
        },
        {
          "name": "_extensionParams",
          "type": "bytes32[9]"
        },
        {
          "name": "_tips",
          "type": "uint256"
        },
        {
          "name": "_details",
          "type": "string"
        }
      ],
      "name": "createRequestAsPayer",
      "outputs": [
        {
          "name": "requestId",
          "type": "bytes32"
        }
      ],
      "payable": true,
      "stateMutability": "payable",
      "type": "function"
    },
    {
      "constant": false,
      "inputs": [
        {
          "name": "_requestId",
          "type": "bytes32"
        },
        {
          "name": "_amount",
          "type": "uint256"
        }
      ],
      "name": "discount",
      "outputs": [],
      "payable": false,
      "stateMutability": "nonpayable",
      "type": "function"
    },
    {
      "constant": false,
      "inputs": [
        {
          "name": "_requestId",
          "type": "bytes32"
        },
        {
          "name": "_tips",
          "type": "uint256"
        }
      ],
      "name": "pay",
      "outputs": [],
      "payable": true,
      "stateMutability": "payable",
      "type": "function"
    },
    {
      "constant": true,
      "inputs": [
        {
          "name": "signer",
          "type": "address"
        },
        {
          "name": "payee",
          "type": "address"
        },
        {
          "name": "payer",
          "type": "address"
        },
        {
          "name": "amountInitial",
          "type": "uint256"
        },
        {
          "name": "extension",
          "type": "address"
        },
        {
          "name": "extensionParams",
          "type": "bytes32[9]"
        },
        {
          "name": "details",
          "type": "string"
        },
        {
          "name": "v",
          "type": "uint8"
        },
        {
          "name": "r",
          "type": "bytes32"
        },
        {
          "name": "s",
          "type": "bytes32"
        }
      ],
      "name": "checkRequestSignature",
      "outputs": [
        {
          "name": "",
          "type": "bool"
        }
      ],
      "payable": false,
      "stateMutability": "view",
      "type": "function"
    },
    {
      "constant": false,
      "inputs": [
        {
          "name": "_requestId",
          "type": "bytes32"
        }
      ],
      "name": "accept",
      "outputs": [
        {
          "name": "",
          "type": "bool"
        }
      ],
      "payable": false,
      "stateMutability": "nonpayable",
      "type": "function"
    },
    {
      "constant": true,
      "inputs": [
        {
          "name": "",
          "type": "address"
        }
      ],
      "name": "ethToWithdraw",
      "outputs": [
        {
          "name": "",
          "type": "uint256"
        }
      ],
      "payable": false,
      "stateMutability": "view",
      "type": "function"
    },
    {
      "constant": false,
      "inputs": [
        {
          "name": "newOwner",
          "type": "address"
        }
      ],
      "name": "transferOwnership",
      "outputs": [],
      "payable": false,
      "stateMutability": "nonpayable",
      "type": "function"
    },
    {
      "constant": false,
      "inputs": [
        {
          "name": "_payee",
          "type": "address"
        },
        {
          "name": "_amountInitial",
          "type": "uint256"
        },
        {
          "name": "_extension",
          "type": "address"
        },
        {
          "name": "_extensionParams",
          "type": "bytes32[9]"
        },
        {
          "name": "_tips",
          "type": "uint256"
        },
        {
          "name": "_details",
          "type": "string"
        },
        {
          "name": "v",
          "type": "uint8"
        },
        {
          "name": "r",
          "type": "bytes32"
        },
        {
          "name": "s",
          "type": "bytes32"
        }
      ],
      "name": "broadcastSignedRequestAsPayer",
      "outputs": [
        {
          "name": "requestId",
          "type": "bytes32"
        }
      ],
      "payable": true,
      "stateMutability": "payable",
      "type": "function"
    },
    {
      "inputs": [
        {
          "name": "_requestCoreAddress",
          "type": "address"
        }
      ],
      "payable": false,
      "stateMutability": "nonpayable",
      "type": "constructor"
    },
    {
      "anonymous": false,
      "inputs": [],
      "name": "Pause",
      "type": "event"
    },
    {
      "anonymous": false,
      "inputs": [],
      "name": "Unpause",
      "type": "event"
    },
    {
      "anonymous": false,
      "inputs": [
        {
          "indexed": true,
          "name": "previousOwner",
          "type": "address"
        },
        {
          "indexed": true,
          "name": "newOwner",
          "type": "address"
        }
      ],
      "name": "OwnershipTransferred",
      "type": "event"
    }
  ],
  "bytecode": "0x606060405260008060146101000a81548160ff021916908315150217905550341561002957600080fd5b604051602080613fbc83398101604052808051906020019091905050336000806101000a81548173ffffffffffffffffffffffffffffffffffffffff021916908373ffffffffffffffffffffffffffffffffffffffff16021790555080600160006101000a81548173ffffffffffffffffffffffffffffffffffffffff021916908373ffffffffffffffffffffffffffffffffffffffff16021790555050613ee6806100d66000396000f300606060405260043610610112576000357c0100000000000000000000000000000000000000000000000000000000900463ffffffff1680633ccfd60b146101175780633f4ba83a1461012c57806340f53f1914610141578063452e79a41461015d5780635c975abb146101c45780636c4fbaa4146101f1578063808a188e146102465780638163681e146102df5780638456cb59146103635780638da5cb5b14610378578063a05bd4c6146103cd578063c4d252f514610415578063c5fc900c14610454578063c684dc95146104eb578063d0ee4de01461051b578063df050be814610540578063e4725ba11461068d578063ed80cf3b146106cc578063f2fde38b14610719578063f88efd4e14610752575b600080fd5b341561012257600080fd5b61012a61080f565b005b341561013757600080fd5b61013f6108db565b005b61015b600480803560001916906020019091905050610999565b005b341561016857600080fd5b6101aa60048080356000191690602001909190803573ffffffffffffffffffffffffffffffffffffffff16906020019091908035906020019091905050610fa7565b604051808215151515815260200191505060405180910390f35b34156101cf57600080fd5b6101d7610fee565b604051808215151515815260200191505060405180910390f35b34156101fc57600080fd5b610204611001565b604051808273ffffffffffffffffffffffffffffffffffffffff1673ffffffffffffffffffffffffffffffffffffffff16815260200191505060405180910390f35b341561025157600080fd5b6102c1600480803573ffffffffffffffffffffffffffffffffffffffff1690602001909190803590602001909190803573ffffffffffffffffffffffffffffffffffffffff1690602001909190806101200190919080359060200190820180359060200191909192905050611027565b60405180826000191660001916815260200191505060405180910390f35b34156102ea57600080fd5b610349600480803573ffffffffffffffffffffffffffffffffffffffff169060200190919080356000191690602001909190803560ff16906020019091908035600019169060200190919080356000191690602001909190505061132a565b604051808215151515815260200191505060405180910390f35b341561036e57600080fd5b610376611431565b005b341561038357600080fd5b61038b6114f1565b604051808273ffffffffffffffffffffffffffffffffffffffff1673ffffffffffffffffffffffffffffffffffffffff16815260200191505060405180910390f35b34156103d857600080fd5b6103fb600480803560001916906020019091908035906020019091905050611516565b604051808215151515815260200191505060405180910390f35b341561042057600080fd5b61043a60048080356000191690602001909190505061155b565b604051808215151515815260200191505060405180910390f35b6104cd600480803573ffffffffffffffffffffffffffffffffffffffff1690602001909190803590602001909190803573ffffffffffffffffffffffffffffffffffffffff1690602001909190806101200190919080359060200190919080359060200190820180359060200191909192905050611c6e565b60405180826000191660001916815260200191505060405180910390f35b34156104f657600080fd5b610519600480803560001916906020019091908035906020019091905050611fe0565b005b61053e6004808035600019169060200190919080359060200190919050506126d1565b005b341561054b57600080fd5b610673600480803573ffffffffffffffffffffffffffffffffffffffff1690602001909190803573ffffffffffffffffffffffffffffffffffffffff1690602001909190803573ffffffffffffffffffffffffffffffffffffffff1690602001909190803590602001909190803573ffffffffffffffffffffffffffffffffffffffff1690602001909190806101200190600980602002604051908101604052809291908260096020028082843782019150505050509190803590602001908201803590602001908080601f0160208091040260200160405190810160405280939291908181526020018383808284378201915050505050509190803560ff1690602001909190803560001916906020019091908035600019169060200190919050506128e2565b604051808215151515815260200191505060405180910390f35b341561069857600080fd5b6106b2600480803560001916906020019091905050612913565b604051808215151515815260200191505060405180910390f35b34156106d757600080fd5b610703600480803573ffffffffffffffffffffffffffffffffffffffff16906020019091905050612b24565b6040518082815260200191505060405180910390f35b341561072457600080fd5b610750600480803573ffffffffffffffffffffffffffffffffffffffff16906020019091905050612b3c565b005b6107f1600480803573ffffffffffffffffffffffffffffffffffffffff1690602001909190803590602001909190803573ffffffffffffffffffffffffffffffffffffffff169060200190919080610120019091908035906020019091908035906020019082018035906020019190919290803560ff169060200190919080356000191690602001909190803560001916906020019091905050612c91565b60405180826000191660001916815260200191505060405180910390f35b6000600260003373ffffffffffffffffffffffffffffffffffffffff1673ffffffffffffffffffffffffffffffffffffffff1681526020019081526020016000205490506000600260003373ffffffffffffffffffffffffffffffffffffffff1673ffffffffffffffffffffffffffffffffffffffff168152602001908152602001600020819055503373ffffffffffffffffffffffffffffffffffffffff166108fc829081150290604051600060405180830381858888f1935050505015156108d857600080fd5b50565b6000809054906101000a900473ffffffffffffffffffffffffffffffffffffffff1673ffffffffffffffffffffffffffffffffffffffff163373ffffffffffffffffffffffffffffffffffffffff1614151561093657600080fd5b600060149054906101000a900460ff16151561095157600080fd5b60008060146101000a81548160ff0219169083151502179055507f7805862f689e2f13df9f062ff482ad3ad112aca9e0847911ed832e158c525b3360405160405180910390a1565b60008060008060149054906101000a900460ff161515156109b957600080fd5b600160028111156109c657fe5b600160009054906101000a900473ffffffffffffffffffffffffffffffffffffffff1673ffffffffffffffffffffffffffffffffffffffff166309648a9d866000604051602001526040518263ffffffff167c0100000000000000000000000000000000000000000000000000000000028152600401808260001916600019168152602001915050602060405180830381600087803b1515610a6757600080fd5b6102c65a03f11515610a7857600080fd5b505050604051805190506002811115610a8d57fe5b14801515610a9a57600080fd5b843373ffffffffffffffffffffffffffffffffffffffff16600160009054906101000a900473ffffffffffffffffffffffffffffffffffffffff1673ffffffffffffffffffffffffffffffffffffffff1662ca2f75836000604051602001526040518263ffffffff167c0100000000000000000000000000000000000000000000000000000000028152600401808260001916600019168152602001915050602060405180830381600087803b1515610b5257600080fd5b6102c65a03f11515610b6357600080fd5b5050506040518051905073ffffffffffffffffffffffffffffffffffffffff16141515610b8f57600080fd5b600160009054906101000a900473ffffffffffffffffffffffffffffffffffffffff1673ffffffffffffffffffffffffffffffffffffffff16636e5a2d6c876000604051602001526040518263ffffffff167c0100000000000000000000000000000000000000000000000000000000028152600401808260001916600019168152602001915050602060405180830381600087803b1515610c3057600080fd5b6102c65a03f11515610c4157600080fd5b50505060405180519050341115801515610c5a57600080fd5b600160009054906101000a900473ffffffffffffffffffffffffffffffffffffffff1673ffffffffffffffffffffffffffffffffffffffff1663c139626b886000604051602001526040518263ffffffff167c0100000000000000000000000000000000000000000000000000000000028152600401808260001916600019168152602001915050602060405180830381600087803b1515610cfb57600080fd5b6102c65a03f11515610d0c57600080fd5b5050506040518051905095506001945060008673ffffffffffffffffffffffffffffffffffffffff1614158015610d6f57503373ffffffffffffffffffffffffffffffffffffffff168673ffffffffffffffffffffffffffffffffffffffff1614155b15610e1c578593508373ffffffffffffffffffffffffffffffffffffffff1663695eda1988346000604051602001526040518363ffffffff167c010000000000000000000000000000000000000000000000000000000002815260040180836000191660001916815260200182815260200192505050602060405180830381600087803b1515610dfe57600080fd5b6102c65a03f11515610e0f57600080fd5b5050506040518051905094505b8415610f9e57600160009054906101000a900473ffffffffffffffffffffffffffffffffffffffff1673ffffffffffffffffffffffffffffffffffffffff1663695eda1988346040518363ffffffff167c010000000000000000000000000000000000000000000000000000000002815260040180836000191660001916815260200182815260200192505050600060405180830381600087803b1515610ec257600080fd5b6102c65a03f11515610ed357600080fd5b505050610f9c87600160009054906101000a900473ffffffffffffffffffffffffffffffffffffffff1673ffffffffffffffffffffffffffffffffffffffff1663a12cad708a6000604051602001526040518263ffffffff167c0100000000000000000000000000000000000000000000000000000000028152600401808260001916600019168152602001915050602060405180830381600087803b1515610f7b57600080fd5b6102c65a03f11515610f8c57600080fd5b505050604051805190503461307a565b505b50505050505050565b60008060149054906101000a900460ff16151515610fc457600080fd5b83610fce816132d7565b1515610fd957600080fd5b610fe485858561307a565b9150509392505050565b600060149054906101000a900460ff1681565b600160009054906101000a900473ffffffffffffffffffffffffffffffffffffffff1681565b600080600060149054906101000a900460ff1615151561104657600080fd5b8773ffffffffffffffffffffffffffffffffffffffff163373ffffffffffffffffffffffffffffffffffffffff1614158015611099575060008873ffffffffffffffffffffffffffffffffffffffff1614155b15156110a457600080fd5b600160009054906101000a900473ffffffffffffffffffffffffffffffffffffffff1673ffffffffffffffffffffffffffffffffffffffff166366a8530c33338b8b8b8a8a6000604051602001526040518863ffffffff167c0100000000000000000000000000000000000000000000000000000000028152600401808873ffffffffffffffffffffffffffffffffffffffff1673ffffffffffffffffffffffffffffffffffffffff1681526020018773ffffffffffffffffffffffffffffffffffffffff1673ffffffffffffffffffffffffffffffffffffffff1681526020018673ffffffffffffffffffffffffffffffffffffffff1673ffffffffffffffffffffffffffffffffffffffff1681526020018581526020018473ffffffffffffffffffffffffffffffffffffffff1673ffffffffffffffffffffffffffffffffffffffff168152602001806020018281038252848482818152602001925080828437820191505098505050505050505050602060405180830381600087803b151561122f57600080fd5b6102c65a03f1151561124057600080fd5b50505060405180519050915060008673ffffffffffffffffffffffffffffffffffffffff1614151561131c578590508073ffffffffffffffffffffffffffffffffffffffff1663d29574ba83876000604051602001526040518363ffffffff167c010000000000000000000000000000000000000000000000000000000002815260040180836000191660001916815260200182600960200280828437820191505092505050602060405180830381600087803b15156112ff57600080fd5b6102c65a03f1151561131057600080fd5b50505060405180519050505b819150509695505050505050565b600060018560405180807f19457468657265756d205369676e6564204d6573736167653a0a333200000000815250601c0182600019166000191681526020019150506040518091039020858585604051600081526020016040526000604051602001526040518085600019166000191681526020018460ff1660ff16815260200183600019166000191681526020018260001916600019168152602001945050505050602060405160208103908084039060008661646e5a03f115156113ef57600080fd5b50506020604051035173ffffffffffffffffffffffffffffffffffffffff168673ffffffffffffffffffffffffffffffffffffffff1614905095945050505050565b6000809054906101000a900473ffffffffffffffffffffffffffffffffffffffff1673ffffffffffffffffffffffffffffffffffffffff163373ffffffffffffffffffffffffffffffffffffffff1614151561148c57600080fd5b600060149054906101000a900460ff161515156114a857600080fd5b6001600060146101000a81548160ff0219169083151502179055507f6985a02210a168e66602d3235cb6db0e70f92b3ba4d376a33c0f3d9434bff62560405160405180910390a1565b6000809054906101000a900473ffffffffffffffffffffffffffffffffffffffff1681565b60008060149054906101000a900460ff1615151561153357600080fd5b8261153d816132d7565b151561154857600080fd5b61155284846133ca565b91505092915050565b600080600080600060149054906101000a900460ff1615151561157d57600080fd5b611586856132d7565b8061175457503373ffffffffffffffffffffffffffffffffffffffff16600160009054906101000a900473ffffffffffffffffffffffffffffffffffffffff1673ffffffffffffffffffffffffffffffffffffffff1663a12cad70876000604051602001526040518263ffffffff167c0100000000000000000000000000000000000000000000000000000000028152600401808260001916600019168152602001915050602060405180830381600087803b151561164457600080fd5b6102c65a03f1151561165557600080fd5b5050506040518051905073ffffffffffffffffffffffffffffffffffffffff1614801561175357506000600281111561168a57fe5b600160009054906101000a900473ffffffffffffffffffffffffffffffffffffffff1673ffffffffffffffffffffffffffffffffffffffff166309648a9d876000604051602001526040518263ffffffff167c0100000000000000000000000000000000000000000000000000000000028152600401808260001916600019168152602001915050602060405180830381600087803b151561172b57600080fd5b6102c65a03f1151561173c57600080fd5b50505060405180519050600281111561175157fe5b145b5b8061192157503373ffffffffffffffffffffffffffffffffffffffff16600160009054906101000a900473ffffffffffffffffffffffffffffffffffffffff1673ffffffffffffffffffffffffffffffffffffffff1662ca2f75876000604051602001526040518263ffffffff167c0100000000000000000000000000000000000000000000000000000000028152600401808260001916600019168152602001915050602060405180830381600087803b151561181157600080fd5b6102c65a03f1151561182257600080fd5b5050506040518051905073ffffffffffffffffffffffffffffffffffffffff16148015611920575060028081111561185657fe5b600160009054906101000a900473ffffffffffffffffffffffffffffffffffffffff1673ffffffffffffffffffffffffffffffffffffffff166309648a9d876000604051602001526040518263ffffffff167c0100000000000000000000000000000000000000000000000000000000028152600401808260001916600019168152602001915050602060405180830381600087803b15156118f757600080fd5b6102c65a03f1151561190857600080fd5b50505060405180519050600281111561191d57fe5b14155b5b151561192c57600080fd5b6000600160009054906101000a900473ffffffffffffffffffffffffffffffffffffffff1673ffffffffffffffffffffffffffffffffffffffff16636e5a2d6c876000604051602001526040518263ffffffff167c0100000000000000000000000000000000000000000000000000000000028152600401808260001916600019168152602001915050602060405180830381600087803b15156119cf57600080fd5b6102c65a03f115156119e057600080fd5b505050604051805190501415156119f657600080fd5b600160009054906101000a900473ffffffffffffffffffffffffffffffffffffffff1673ffffffffffffffffffffffffffffffffffffffff1663c139626b866000604051602001526040518263ffffffff167c0100000000000000000000000000000000000000000000000000000000028152600401808260001916600019168152602001915050602060405180830381600087803b1515611a9757600080fd5b6102c65a03f11515611aa857600080fd5b5050506040518051905092506001915060008373ffffffffffffffffffffffffffffffffffffffff1614158015611b0b57503373ffffffffffffffffffffffffffffffffffffffff168373ffffffffffffffffffffffffffffffffffffffff1614155b15611bb0578290508073ffffffffffffffffffffffffffffffffffffffff1663c4d252f5866000604051602001526040518263ffffffff167c0100000000000000000000000000000000000000000000000000000000028152600401808260001916600019168152602001915050602060405180830381600087803b1515611b9257600080fd5b6102c65a03f11515611ba357600080fd5b5050506040518051905091505b8115611c6357600160009054906101000a900473ffffffffffffffffffffffffffffffffffffffff1673ffffffffffffffffffffffffffffffffffffffff1663c4d252f5866040518263ffffffff167c0100000000000000000000000000000000000000000000000000000000028152600401808260001916600019168152602001915050600060405180830381600087803b1515611c4e57600080fd5b6102c65a03f11515611c5f57600080fd5b5050505b819350505050919050565b600080600060149054906101000a900460ff16151515611c8d57600080fd5b8873ffffffffffffffffffffffffffffffffffffffff163373ffffffffffffffffffffffffffffffffffffffff1614158015611ce0575060008973ffffffffffffffffffffffffffffffffffffffff1614155b1515611ceb57600080fd5b843410151515611cfa57600080fd5b34611d0e868a61371f90919063ffffffff16565b10151515611d1b57600080fd5b600160009054906101000a900473ffffffffffffffffffffffffffffffffffffffff1673ffffffffffffffffffffffffffffffffffffffff166366a8530c338b338c8c8a8a6000604051602001526040518863ffffffff167c0100000000000000000000000000000000000000000000000000000000028152600401808873ffffffffffffffffffffffffffffffffffffffff1673ffffffffffffffffffffffffffffffffffffffff1681526020018773ffffffffffffffffffffffffffffffffffffffff1673ffffffffffffffffffffffffffffffffffffffff1681526020018673ffffffffffffffffffffffffffffffffffffffff1673ffffffffffffffffffffffffffffffffffffffff1681526020018581526020018473ffffffffffffffffffffffffffffffffffffffff1673ffffffffffffffffffffffffffffffffffffffff168152602001806020018281038252848482818152602001925080828437820191505098505050505050505050602060405180830381600087803b1515611ea657600080fd5b6102c65a03f11515611eb757600080fd5b50505060405180519050915060008773ffffffffffffffffffffffffffffffffffffffff16141515611f93578690508073ffffffffffffffffffffffffffffffffffffffff1663d29574ba83886000604051602001526040518363ffffffff167c010000000000000000000000000000000000000000000000000000000002815260040180836000191660001916815260200182600960200280828437820191505092505050602060405180830381600087803b1515611f7657600080fd5b6102c65a03f11515611f8757600080fd5b50505060405180519050505b611f9c8261373d565b1515611fa757600080fd5b6000851115611fbc57611fba8286613a76565b505b6000341115611fd157611fcf82346133ca565b505b81915050979650505050505050565b60008060008060149054906101000a900460ff1615151561200057600080fd5b6001600281111561200d57fe5b600160009054906101000a900473ffffffffffffffffffffffffffffffffffffffff1673ffffffffffffffffffffffffffffffffffffffff166309648a9d876000604051602001526040518263ffffffff167c0100000000000000000000000000000000000000000000000000000000028152600401808260001916600019168152602001915050602060405180830381600087803b15156120ae57600080fd5b6102c65a03f115156120bf57600080fd5b5050506040518051905060028111156120d457fe5b14806121b15750600060028111156120e857fe5b600160009054906101000a900473ffffffffffffffffffffffffffffffffffffffff1673ffffffffffffffffffffffffffffffffffffffff166309648a9d876000604051602001526040518263ffffffff167c0100000000000000000000000000000000000000000000000000000000028152600401808260001916600019168152602001915050602060405180830381600087803b151561218957600080fd5b6102c65a03f1151561219a57600080fd5b5050506040518051905060028111156121af57fe5b145b8015156121bd57600080fd5b853373ffffffffffffffffffffffffffffffffffffffff16600160009054906101000a900473ffffffffffffffffffffffffffffffffffffffff1673ffffffffffffffffffffffffffffffffffffffff1662ca2f75836000604051602001526040518263ffffffff167c0100000000000000000000000000000000000000000000000000000000028152600401808260001916600019168152602001915050602060405180830381600087803b151561227557600080fd5b6102c65a03f1151561228657600080fd5b5050506040518051905073ffffffffffffffffffffffffffffffffffffffff161415156122b257600080fd5b600160009054906101000a900473ffffffffffffffffffffffffffffffffffffffff1673ffffffffffffffffffffffffffffffffffffffff16636907c77d886000604051602001526040518263ffffffff167c0100000000000000000000000000000000000000000000000000000000028152600401808260001916600019168152602001915050602060405180830381600087803b151561235357600080fd5b6102c65a03f1151561236457600080fd5b5050506040518051905061243c600160009054906101000a900473ffffffffffffffffffffffffffffffffffffffff1673ffffffffffffffffffffffffffffffffffffffff16636e5a2d6c8a6000604051602001526040518263ffffffff167c0100000000000000000000000000000000000000000000000000000000028152600401808260001916600019168152602001915050602060405180830381600087803b151561241257600080fd5b6102c65a03f1151561242357600080fd5b505050604051805190508861371f90919063ffffffff16565b111580151561244a57600080fd5b600160009054906101000a900473ffffffffffffffffffffffffffffffffffffffff1673ffffffffffffffffffffffffffffffffffffffff1663c139626b896000604051602001526040518263ffffffff167c0100000000000000000000000000000000000000000000000000000000028152600401808260001916600019168152602001915050602060405180830381600087803b15156124eb57600080fd5b6102c65a03f115156124fc57600080fd5b5050506040518051905095506001945060008673ffffffffffffffffffffffffffffffffffffffff161415801561255f57503373ffffffffffffffffffffffffffffffffffffffff168673ffffffffffffffffffffffffffffffffffffffff1614155b1561260c578593508373ffffffffffffffffffffffffffffffffffffffff16633f4fc19c89896000604051602001526040518363ffffffff167c010000000000000000000000000000000000000000000000000000000002815260040180836000191660001916815260200182815260200192505050602060405180830381600087803b15156125ee57600080fd5b6102c65a03f115156125ff57600080fd5b5050506040518051905094505b84156126c757600160009054906101000a900473ffffffffffffffffffffffffffffffffffffffff1673ffffffffffffffffffffffffffffffffffffffff16633f4fc19c89896040518363ffffffff167c010000000000000000000000000000000000000000000000000000000002815260040180836000191660001916815260200182815260200192505050600060405180830381600087803b15156126b257600080fd5b6102c65a03f115156126c357600080fd5b5050505b5050505050505050565b600060149054906101000a900460ff161515156126ed57600080fd5b600160028111156126fa57fe5b600160009054906101000a900473ffffffffffffffffffffffffffffffffffffffff1673ffffffffffffffffffffffffffffffffffffffff166309648a9d846000604051602001526040518263ffffffff167c0100000000000000000000000000000000000000000000000000000000028152600401808260001916600019168152602001915050602060405180830381600087803b151561279b57600080fd5b6102c65a03f115156127ac57600080fd5b5050506040518051905060028111156127c157fe5b148015156127ce57600080fd5b813410158015156127de57600080fd5b346128ad84600160009054906101000a900473ffffffffffffffffffffffffffffffffffffffff1673ffffffffffffffffffffffffffffffffffffffff16636907c77d886000604051602001526040518263ffffffff167c0100000000000000000000000000000000000000000000000000000000028152600401808260001916600019168152602001915050602060405180830381600087803b151561288457600080fd5b6102c65a03f1151561289557600080fd5b5050506040518051905061371f90919063ffffffff16565b10158015156128bb57600080fd5b60008411156128d0576128ce8585613a76565b505b6128da85346133ca565b505050505050565b6000806128f38b8b8b8b8b8b613d05565b90506129028c8287878761132a565b9150509a9950505050505050505050565b60008060149054906101000a900460ff1615151561293057600080fd5b612939826132d7565b80612b0757503373ffffffffffffffffffffffffffffffffffffffff16600160009054906101000a900473ffffffffffffffffffffffffffffffffffffffff1673ffffffffffffffffffffffffffffffffffffffff1663a12cad70846000604051602001526040518263ffffffff167c0100000000000000000000000000000000000000000000000000000000028152600401808260001916600019168152602001915050602060405180830381600087803b15156129f757600080fd5b6102c65a03f11515612a0857600080fd5b5050506040518051905073ffffffffffffffffffffffffffffffffffffffff16148015612b06575060006002811115612a3d57fe5b600160009054906101000a900473ffffffffffffffffffffffffffffffffffffffff1673ffffffffffffffffffffffffffffffffffffffff166309648a9d846000604051602001526040518263ffffffff167c0100000000000000000000000000000000000000000000000000000000028152600401808260001916600019168152602001915050602060405180830381600087803b1515612ade57600080fd5b6102c65a03f11515612aef57600080fd5b505050604051805190506002811115612b0457fe5b145b5b801515612b1357600080fd5b612b1c8361373d565b915050919050565b60026020528060005260406000206000915090505481565b6000809054906101000a900473ffffffffffffffffffffffffffffffffffffffff1673ffffffffffffffffffffffffffffffffffffffff163373ffffffffffffffffffffffffffffffffffffffff16141515612b9757600080fd5b600073ffffffffffffffffffffffffffffffffffffffff168173ffffffffffffffffffffffffffffffffffffffff1614151515612bd357600080fd5b8073ffffffffffffffffffffffffffffffffffffffff166000809054906101000a900473ffffffffffffffffffffffffffffffffffffffff1673ffffffffffffffffffffffffffffffffffffffff167f8be0079c531659141344cd1fd0a4f28419497f9722a3daafe3b4186f6b6457e060405160405180910390a3806000806101000a81548173ffffffffffffffffffffffffffffffffffffffff021916908373ffffffffffffffffffffffffffffffffffffffff16021790555050565b600080600060149054906101000a900460ff16151515612cb057600080fd5b8b73ffffffffffffffffffffffffffffffffffffffff163373ffffffffffffffffffffffffffffffffffffffff1614158015612d03575060008c73ffffffffffffffffffffffffffffffffffffffff1614155b1515612d0e57600080fd5b873410151515612d1d57600080fd5b34612d31898d61371f90919063ffffffff16565b10151515612d3e57600080fd5b612da78c8d338e8e8e600980602002604051908101604052809291908260096020028082843782019150505050508d8d8080601f0160208091040260200160405190810160405280939291908181526020018383808284378201915050505050508c8c8c6128e2565b1515612db257600080fd5b600160009054906101000a900473ffffffffffffffffffffffffffffffffffffffff1673ffffffffffffffffffffffffffffffffffffffff166366a8530c8d8e338f8f8d8d6000604051602001526040518863ffffffff167c0100000000000000000000000000000000000000000000000000000000028152600401808873ffffffffffffffffffffffffffffffffffffffff1673ffffffffffffffffffffffffffffffffffffffff1681526020018773ffffffffffffffffffffffffffffffffffffffff1673ffffffffffffffffffffffffffffffffffffffff1681526020018673ffffffffffffffffffffffffffffffffffffffff1673ffffffffffffffffffffffffffffffffffffffff1681526020018581526020018473ffffffffffffffffffffffffffffffffffffffff1673ffffffffffffffffffffffffffffffffffffffff168152602001806020018281038252848482818152602001925080828437820191505098505050505050505050602060405180830381600087803b1515612f3d57600080fd5b6102c65a03f11515612f4e57600080fd5b50505060405180519050915060008a73ffffffffffffffffffffffffffffffffffffffff1614151561302a578990508073ffffffffffffffffffffffffffffffffffffffff1663d29574ba838b6000604051602001526040518363ffffffff167c010000000000000000000000000000000000000000000000000000000002815260040180836000191660001916815260200182600960200280828437820191505092505050602060405180830381600087803b151561300d57600080fd5b6102c65a03f1151561301e57600080fd5b50505060405180519050505b6130338261373d565b151561303e57600080fd5b6000881115613053576130518289613a76565b505b60003411156130685761306682346133ca565b505b819150509a9950505050505050505050565b600080600080600160009054906101000a900473ffffffffffffffffffffffffffffffffffffffff1673ffffffffffffffffffffffffffffffffffffffff1663c139626b886000604051602001526040518263ffffffff167c0100000000000000000000000000000000000000000000000000000000028152600401808260001916600019168152602001915050602060405180830381600087803b151561312157600080fd5b6102c65a03f1151561313257600080fd5b5050506040518051905092506001915060008373ffffffffffffffffffffffffffffffffffffffff161415801561319557503373ffffffffffffffffffffffffffffffffffffffff168373ffffffffffffffffffffffffffffffffffffffff1614155b15613276578290508073ffffffffffffffffffffffffffffffffffffffff1663452e79a48888886000604051602001526040518463ffffffff167c01000000000000000000000000000000000000000000000000000000000281526004018084600019166000191681526020018373ffffffffffffffffffffffffffffffffffffffff1673ffffffffffffffffffffffffffffffffffffffff1681526020018281526020019350505050602060405180830381600087803b151561325857600080fd5b6102c65a03f1151561326957600080fd5b5050506040518051905091505b81156132ca5784600260008873ffffffffffffffffffffffffffffffffffffffff1673ffffffffffffffffffffffffffffffffffffffff168152602001908152602001600020600082825401925050819055505b8193505050509392505050565b6000600160009054906101000a900473ffffffffffffffffffffffffffffffffffffffff1673ffffffffffffffffffffffffffffffffffffffff1663c139626b836000604051602001526040518263ffffffff167c0100000000000000000000000000000000000000000000000000000000028152600401808260001916600019168152602001915050602060405180830381600087803b151561337a57600080fd5b6102c65a03f1151561338b57600080fd5b5050506040518051905073ffffffffffffffffffffffffffffffffffffffff163373ffffffffffffffffffffffffffffffffffffffff16149050919050565b600080600080600160009054906101000a900473ffffffffffffffffffffffffffffffffffffffff1673ffffffffffffffffffffffffffffffffffffffff1663c139626b876000604051602001526040518263ffffffff167c0100000000000000000000000000000000000000000000000000000000028152600401808260001916600019168152602001915050602060405180830381600087803b151561347157600080fd5b6102c65a03f1151561348257600080fd5b5050506040518051905092506001915060008373ffffffffffffffffffffffffffffffffffffffff16141580156134e557503373ffffffffffffffffffffffffffffffffffffffff168373ffffffffffffffffffffffffffffffffffffffff1614155b15613592578290508073ffffffffffffffffffffffffffffffffffffffff1663a05bd4c687876000604051602001526040518363ffffffff167c010000000000000000000000000000000000000000000000000000000002815260040180836000191660001916815260200182815260200192505050602060405180830381600087803b151561357457600080fd5b6102c65a03f1151561358557600080fd5b5050506040518051905091505b811561371357600160009054906101000a900473ffffffffffffffffffffffffffffffffffffffff1673ffffffffffffffffffffffffffffffffffffffff1663a05bd4c687876040518363ffffffff167c010000000000000000000000000000000000000000000000000000000002815260040180836000191660001916815260200182815260200192505050600060405180830381600087803b151561363857600080fd5b6102c65a03f1151561364957600080fd5b50505061371186600160009054906101000a900473ffffffffffffffffffffffffffffffffffffffff1673ffffffffffffffffffffffffffffffffffffffff1662ca2f75896000604051602001526040518263ffffffff167c0100000000000000000000000000000000000000000000000000000000028152600401808260001916600019168152602001915050602060405180830381600087803b15156136f057600080fd5b6102c65a03f1151561370157600080fd5b505050604051805190508761307a565b505b81935050505092915050565b600080828401905083811015151561373357fe5b8091505092915050565b600080600080600160009054906101000a900473ffffffffffffffffffffffffffffffffffffffff1673ffffffffffffffffffffffffffffffffffffffff1663c139626b866000604051602001526040518263ffffffff167c0100000000000000000000000000000000000000000000000000000000028152600401808260001916600019168152602001915050602060405180830381600087803b15156137e457600080fd5b6102c65a03f115156137f557600080fd5b5050506040518051905092506001915060008373ffffffffffffffffffffffffffffffffffffffff161415801561385857503373ffffffffffffffffffffffffffffffffffffffff168373ffffffffffffffffffffffffffffffffffffffff1614155b156139b857600160009054906101000a900473ffffffffffffffffffffffffffffffffffffffff1673ffffffffffffffffffffffffffffffffffffffff1663c139626b866000604051602001526040518263ffffffff167c0100000000000000000000000000000000000000000000000000000000028152600401808260001916600019168152602001915050602060405180830381600087803b15156138fe57600080fd5b6102c65a03f1151561390f57600080fd5b5050506040518051905090508073ffffffffffffffffffffffffffffffffffffffff1663e4725ba1866000604051602001526040518263ffffffff167c0100000000000000000000000000000000000000000000000000000000028152600401808260001916600019168152602001915050602060405180830381600087803b151561399a57600080fd5b6102c65a03f115156139ab57600080fd5b5050506040518051905091505b8115613a6b57600160009054906101000a900473ffffffffffffffffffffffffffffffffffffffff1673ffffffffffffffffffffffffffffffffffffffff1663e4725ba1866040518263ffffffff167c0100000000000000000000000000000000000000000000000000000000028152600401808260001916600019168152602001915050600060405180830381600087803b1515613a5657600080fd5b6102c65a03f11515613a6757600080fd5b5050505b819350505050919050565b600080600080600160009054906101000a900473ffffffffffffffffffffffffffffffffffffffff1673ffffffffffffffffffffffffffffffffffffffff1663c139626b876000604051602001526040518263ffffffff167c0100000000000000000000000000000000000000000000000000000000028152600401808260001916600019168152602001915050602060405180830381600087803b1515613b1d57600080fd5b6102c65a03f11515613b2e57600080fd5b5050506040518051905092506001915060008373ffffffffffffffffffffffffffffffffffffffff1614158015613b9157503373ffffffffffffffffffffffffffffffffffffffff168373ffffffffffffffffffffffffffffffffffffffff1614155b15613c3e578290508073ffffffffffffffffffffffffffffffffffffffff16636279dc5c87876000604051602001526040518363ffffffff167c010000000000000000000000000000000000000000000000000000000002815260040180836000191660001916815260200182815260200192505050602060405180830381600087803b1515613c2057600080fd5b6102c65a03f11515613c3157600080fd5b5050506040518051905091505b8115613cf957600160009054906101000a900473ffffffffffffffffffffffffffffffffffffffff1673ffffffffffffffffffffffffffffffffffffffff16636279dc5c87876040518363ffffffff167c010000000000000000000000000000000000000000000000000000000002815260040180836000191660001916815260200182815260200192505050600060405180830381600087803b1515613ce457600080fd5b6102c65a03f11515613cf557600080fd5b5050505b81935050505092915050565b600030878787878787604051808873ffffffffffffffffffffffffffffffffffffffff1673ffffffffffffffffffffffffffffffffffffffff166c010000000000000000000000000281526014018773ffffffffffffffffffffffffffffffffffffffff1673ffffffffffffffffffffffffffffffffffffffff166c010000000000000000000000000281526014018673ffffffffffffffffffffffffffffffffffffffff1673ffffffffffffffffffffffffffffffffffffffff166c010000000000000000000000000281526014018581526020018473ffffffffffffffffffffffffffffffffffffffff1673ffffffffffffffffffffffffffffffffffffffff166c0100000000000000000000000002815260140183600960200280838360005b83811015613e43578082015181840152602081019050613e28565b5050505090500182805190602001908083835b602083101515613e7b5780518252602082019150602081019050602083039250613e56565b6001836020036101000a0380198251168184511680821785525050505050509050019750505050505050506040518091039020905096955050505050505600a165627a7a7230582010c14d71e5ecb4aa921469621180cbe9cab7262b06e734ff20e8ccfc9d6554b70029",
  "source": "pragma solidity 0.4.18;\r\n\r\nimport '../core/RequestCore.sol';\r\nimport './extensions/RequestSynchroneInterface.sol';\r\nimport '../base/math/SafeMath.sol';\r\nimport '../base/lifecycle/Pausable.sol';\r\n\r\n/**\r\n * @title RequestEthereum\r\n *\r\n * @dev RequestEthereum is the sub contract managing the request payed in Ethereum\r\n *\r\n * @dev Requests can be created by the Payee with createRequest() or by the payer from a request signed offchain by the payee with createQuickRequest\r\n * @dev Requests can have 1 extension. it has to implement RequestSynchroneInterface and declared trusted on the Core\r\n */\r\ncontract RequestEthereum is Pausable {\r\n\tusing SafeMath for uint;\r\n\r\n\t// RequestCore object\r\n\tRequestCore public requestCore;\r\n\r\n\t// Ethereum available to withdraw\r\n\tstruct EthToWithdraw {\r\n\t\tuint amount;\r\n\t\taddress recipient;\r\n\t}\r\n\tmapping(address => uint) public ethToWithdraw;\r\n\r\n\t/*\r\n\t * @dev Constructor\r\n\t * @param _requestCoreAddress Request Core address\r\n\t */  \r\n\tfunction RequestEthereum(address _requestCoreAddress) public\r\n\t{\r\n\t\trequestCore=RequestCore(_requestCoreAddress);\r\n\t}\r\n\r\n\t/*\r\n\t * @dev Function to create a request as payee\r\n\t *\r\n\t * @dev msg.sender must be _payee\r\n\t *\r\n\t * @param _payer Entity supposed to pay\r\n\t * @param _amountInitial Initial amount initial to be received. This amount can't be changed.\r\n\t * @param _extension an extension can be linked to a request and allows advanced payments conditions such as escrow. Extensions have to be whitelisted in Core\r\n\t * @param _extensionParams Parameters for the extensions. It is an array of 9 bytes32.\r\n\t *\r\n\t * @return Returns the id of the request \r\n\t */\r\n\tfunction createRequestAsPayee(address _payer, uint _amountInitial, address _extension, bytes32[9] _extensionParams, string _details)\r\n\t\texternal\r\n\t\twhenNotPaused\r\n\t\treturns(bytes32 requestId)\r\n\t{\r\n\t\trequire(msg.sender != _payer && _payer != 0);\r\n\t\trequestId= requestCore.createRequest(msg.sender, msg.sender, _payer, _amountInitial, _extension, _details);\r\n\r\n\t\tif(_extension!=0) {\r\n\t\t\tRequestSynchroneInterface extension = RequestSynchroneInterface(_extension);\r\n\t\t\textension.createRequest(requestId, _extensionParams);\r\n\t\t}\r\n\r\n\t\treturn requestId;\r\n\t}\r\n\r\n\r\n\t/*\r\n\t * @dev Function to create a request as payer\r\n\t *\r\n\t * @dev msg.sender must be _payee or _payer\r\n\t *\r\n\t * @param _payee Entity which will receive the payment\r\n\t * @param _amountInitial Initial amount initial to be received. This amount can't be changed.\r\n\t * @param _extension an extension can be linked to a request and allows advanced payments conditions such as escrow. Extensions have to be whitelisted in Core\r\n\t * @param _extensionParams Parameters for the extensions. It is an array of 9 bytes32.\r\n\t *\r\n\t * @return Returns the id of the request \r\n\t */\r\n\tfunction createRequestAsPayer(address _payee, uint _amountInitial, address _extension, bytes32[9] _extensionParams, uint _tips, string _details)\r\n\t\texternal\r\n\t\tpayable\r\n\t\twhenNotPaused\r\n\t\treturns(bytes32 requestId)\r\n\t{\r\n\t\trequire(msg.sender != _payee && _payee != 0);\r\n\t\trequire(msg.value >= _tips); // tips declare must be lower than amount sent\r\n\t\trequire(_amountInitial.add(_tips) >= msg.value); // You cannot pay more than amount needed\r\n\r\n\t\trequestId= requestCore.createRequest(msg.sender, _payee, msg.sender, _amountInitial, _extension, _details);\r\n\r\n\t\tif(_extension!=0) {\r\n\t\t\tRequestSynchroneInterface extension = RequestSynchroneInterface(_extension);\r\n\t\t\textension.createRequest(requestId, _extensionParams);\r\n\t\t}\r\n\r\n\t\t// accept must succeed\r\n\t\trequire(acceptInternal(requestId));\r\n\r\n\t\tif(_tips > 0) {\r\n\t\t\taddAdditionalInternal(requestId, _tips);\r\n\t\t}\r\n\t\tif(msg.value > 0) {\r\n\t\t\tpaymentInternal(requestId, msg.value);\r\n\t\t}\r\n\r\n\t\treturn requestId;\r\n\t}\r\n\r\n\r\n\r\n\t/*\r\n\t * @dev Function to broadcast and accept an offchain signed request (can be paid and tips also)\r\n\t *\r\n\t * @dev msg.sender must be _payer\r\n\t * @dev the _payer can tips \r\n\t *\r\n\t * @param _payee Entity which will receive the payment\r\n\t * @param _payer Entity supposed to pay\r\n\t * @param _amountInitial Initial amount initial to be received. This amount can't be changed.\r\n\t * @param _extension an extension can be linked to a request and allows advanced payments conditions such as escrow. Extensions have to be whitelisted in Core\r\n\t * @param _extensionParams Parameters for the extension. It is an array of 9 bytes32\r\n\t * @param _tips amount of tips the payer want to declare\r\n\t * @param v ECDSA signature parameter v.\r\n\t * @param r ECDSA signature parameters r.\r\n\t * @param s ECDSA signature parameters s.\r\n\t *\r\n\t * @return Returns the id of the request \r\n\t */\r\n   function broadcastSignedRequestAsPayer(address _payee, uint _amountInitial, address _extension, bytes32[9] _extensionParams, uint _tips, string _details, uint8 v, bytes32 r, bytes32 s)\r\n\t\texternal\r\n\t\tpayable\r\n\t\twhenNotPaused\r\n\t\treturns(bytes32 requestId)\r\n\t{\r\n\t\trequire(msg.sender != _payee && _payee != 0);\r\n\t\trequire(msg.value >= _tips); // tips declare must be lower than amount sent\r\n\t\trequire(_amountInitial.add(_tips) >= msg.value); // You cannot pay more than amount needed\r\n\r\n\t\t// check the signature\r\n\t\trequire(checkRequestSignature(_payee,_payee,msg.sender,_amountInitial,_extension,_extensionParams,_details, v, r, s));\r\n\r\n\t\trequestId=requestCore.createRequest(_payee, _payee, msg.sender, _amountInitial, _extension, _details);\r\n\r\n\t\tif(_extension!=0) {\r\n\t\t\tRequestSynchroneInterface extension = RequestSynchroneInterface(_extension);\r\n\t\t\textension.createRequest(requestId, _extensionParams);\r\n\t\t}\r\n\r\n\t\t// accept must succeed\r\n\t\trequire(acceptInternal(requestId));\r\n\r\n\t\tif(_tips > 0) {\r\n\t\t\taddAdditionalInternal(requestId, _tips);\r\n\t\t}\r\n\t\tif(msg.value > 0) {\r\n\t\t\tpaymentInternal(requestId, msg.value);\r\n\t\t}\r\n\r\n\t\treturn requestId;\r\n\t}\r\n\r\n\t// ---- INTERFACE FUNCTIONS ------------------------------------------------------------------------------------\r\n\r\n\t/*\r\n\t * @dev Function to accept a request\r\n\t *\r\n\t * @dev msg.sender must be _payer or an extension used by the request\r\n\t *\r\n\t * @param _requestId id of the request \r\n\t *\r\n\t * @return true if the request is accepted, false otherwise\r\n\t */\r\n\tfunction accept(bytes32 _requestId) \r\n\t\texternal\r\n\t\twhenNotPaused\r\n\t\tcondition(isOnlyRequestExtension(_requestId) || (requestCore.getPayer(_requestId)==msg.sender && requestCore.getState(_requestId)==RequestCore.State.Created))\r\n\t\treturns(bool)\r\n\t{\r\n\t\treturn acceptInternal(_requestId);\r\n\t}\r\n\r\n\t/*\r\n\t * @dev Function to declare a payment a request\r\n\t *\r\n\t * @dev msg.sender must be an extension used by the request\r\n\t *\r\n\t * @param _requestId id of the request \r\n\t * @param _amount amount of the payment to declare\r\n\t *\r\n\t * @return true if the payment is declared, false otherwise\r\n\t */\r\n\tfunction payment(bytes32 _requestId, uint _amount)\r\n\t\texternal\r\n\t\twhenNotPaused\r\n\t\tonlyRequestExtensions(_requestId)\r\n\t\treturns(bool)\r\n\t{\r\n\t\treturn paymentInternal(_requestId, _amount);\r\n\t}\r\n\r\n\t/*\r\n\t * @dev Function to order a fund mouvment \r\n\t *\r\n\t * @dev msg.sender must be an extension used by the request\r\n\t *\r\n\t * @param _requestId id of the request \r\n\t * @param _recipient adress where the wei has to me send to\r\n\t * @param _amount amount in wei to send\r\n\t *\r\n\t * @return true if the fund mouvement is done, false otherwise\r\n\t */\r\n\tfunction fundOrder(bytes32 _requestId, address _recipient, uint _amount)\r\n\t\texternal\r\n\t\twhenNotPaused\r\n\t\tonlyRequestExtensions(_requestId)\r\n\t\treturns(bool)\r\n\t{\r\n\t\treturn fundOrderInternal(_requestId, _recipient, _amount);\r\n\t}\r\n\r\n\t/*\r\n\t * @dev Function to cancel a request\r\n\t *\r\n\t * @dev msg.sender must be the extension used by the request or the _payer (if request is created) or the _payee (if request is not canceled)\r\n\t * @dev only request with amountPaid equals to zero can be cancel\r\n\t *\r\n\t * @param _requestId id of the request \r\n\t *\r\n\t * @return true if the request is canceled, false otherwise\r\n\t */\r\n\tfunction cancel(bytes32 _requestId)\r\n\t\texternal\r\n\t\twhenNotPaused\r\n\t\treturns(bool)\r\n\t{\r\n\t\trequire(isOnlyRequestExtension(_requestId) \r\n\t\t\t\t|| (requestCore.getPayer(_requestId)==msg.sender && requestCore.getState(_requestId)==RequestCore.State.Created)\r\n\t\t\t\t|| (requestCore.getPayee(_requestId)==msg.sender && requestCore.getState(_requestId)!=RequestCore.State.Canceled)\r\n\t\t);\r\n\r\n\t\t// impossible to cancel a Request with a balance != 0\r\n\t\trequire(requestCore.getAmountPaid(_requestId) == 0); // TODO: maybe to delete\r\n\r\n\t\taddress extensionAddr = requestCore.getExtension(_requestId);\r\n\r\n\t\tbool isOK = true;\r\n\t\tif(extensionAddr!=0 && extensionAddr!=msg.sender)  \r\n\t\t{\r\n\t\t\tRequestSynchroneInterface extension = RequestSynchroneInterface(extensionAddr);\r\n\t\t\tisOK = extension.cancel(_requestId);\r\n\t\t}\r\n\t\t\r\n\t\tif(isOK) \r\n\t\t{\r\n\t\t  requestCore.cancel(_requestId);\r\n\t\t}\r\n\t\treturn isOK;\r\n\t}\r\n\r\n\t// ----------------------------------------------------------------------------------------\r\n\r\n\r\n\t// ---- CONTRACT FUNCTIONS ------------------------------------------------------------------------------------\r\n\t/*\r\n\t * @dev Function PAYABLE to pay in ether a request\r\n\t *\r\n\t * @dev the request must be accepted\r\n\t * @dev tips must be lower than the actual amount of wei sent\r\n\t *\r\n\t * @param _requestId id of the request\r\n\t * @param _tips amount of tips in wei to declare \r\n\t */\r\n\tfunction pay(bytes32 _requestId, uint _tips)\r\n\t\texternal\r\n\t\twhenNotPaused\r\n\t\tpayable\r\n\t\tcondition(requestCore.getState(_requestId)==RequestCore.State.Accepted)\r\n\t\tcondition(msg.value >= _tips) // tips declare must be lower than amount sent\r\n\t\tcondition(requestCore.getAmountInitialAfterSubAdd(_requestId).add(_tips) >= msg.value) // You can pay more than amount needed\r\n\t{\r\n\t\tif(_tips > 0) {\r\n\t\t\taddAdditionalInternal(_requestId, _tips);\r\n\t\t}\r\n\t\tpaymentInternal(_requestId, msg.value);\r\n\t}\r\n\r\n\t/*\r\n\t * @dev Function PAYABLE to pay back in ether a request to the payee\r\n\t *\r\n\t * @dev msg.sender must be _payer\r\n\t * @dev the request must be accepted\r\n\t * @dev the payback must be lower than the amount already paid for the request\r\n\t *\r\n\t * @param _requestId id of the request\r\n\t */\r\n\tfunction payback(bytes32 _requestId)\r\n\t\texternal\r\n\t\twhenNotPaused\r\n\t\tcondition(requestCore.getState(_requestId)==RequestCore.State.Accepted)\r\n\t\tonlyRequestPayee(_requestId)\r\n\t\tcondition(msg.value <= requestCore.getAmountPaid(_requestId))\r\n\t\tpayable\r\n\t{   \r\n\t\taddress extensionAddr = requestCore.getExtension(_requestId);\r\n\r\n\t\tbool isOK = true;\r\n\t\tif(extensionAddr!=0 && extensionAddr!=msg.sender)  \r\n\t\t{\r\n\t\t\tRequestSynchroneInterface extension = RequestSynchroneInterface(extensionAddr);\r\n\t\t\tisOK = extension.refund(_requestId, msg.value);\r\n\t\t}\r\n\r\n\t\tif(isOK) \r\n\t\t{\r\n\t\t\trequestCore.refund(_requestId, msg.value);\r\n\t\t\t// refund done, the money is ready to withdraw by the payer\r\n\t\t\tfundOrderInternal(_requestId, requestCore.getPayer(_requestId), msg.value);\r\n\t\t}\r\n\t}\r\n\r\n\t/*\r\n\t * @dev Function to declare a discount\r\n\t *\r\n\t * @dev msg.sender must be _payee or an extension used by the request\r\n\t * @dev the request must be accepted or created\r\n\t *\r\n\t * @param _requestId id of the request\r\n\t * @param _amount amount of discount in wei to declare \r\n\t */\r\n\tfunction discount(bytes32 _requestId, uint _amount)\r\n\t\texternal\r\n\t\twhenNotPaused\r\n\t\tcondition(requestCore.getState(_requestId)==RequestCore.State.Accepted || requestCore.getState(_requestId)==RequestCore.State.Created)\r\n\t\tonlyRequestPayee(_requestId)\r\n\t\tcondition(_amount.add(requestCore.getAmountPaid(_requestId)) <= requestCore.getAmountInitialAfterSubAdd(_requestId))\r\n\t{\r\n\t\taddress extensionAddr = requestCore.getExtension(_requestId);\r\n\r\n\t\tbool isOK = true;\r\n\t\tif(extensionAddr!=0 && extensionAddr!=msg.sender)  \r\n\t\t{\r\n\t\t\tRequestSynchroneInterface extension = RequestSynchroneInterface(extensionAddr);\r\n\t\t\tisOK = extension.addSubtract(_requestId, _amount);\r\n\t\t}\r\n\r\n\t\tif(isOK) \r\n\t\t{\r\n\t\t\trequestCore.addSubtract(_requestId, _amount);\r\n\t\t}\r\n\t}\r\n\r\n\r\n\t/*\r\n\t * @dev Function to withdraw ether\r\n\t */\r\n\tfunction withdraw()\r\n\t\tpublic\r\n\t{\r\n\t\tuint amount = ethToWithdraw[msg.sender];\r\n\t\tethToWithdraw[msg.sender] = 0;\r\n\t\tmsg.sender.transfer(amount);\r\n\t}\r\n\t// ----------------------------------------------------------------------------------------\r\n\r\n\r\n\t// ---- INTERNAL FUNCTIONS ------------------------------------------------------------------------------------\r\n\t/*\r\n\t * @dev Function internal to manage payment declaration\r\n\t *\r\n\t * @param _requestId id of the request\r\n\t * @param _amount amount of payment in wei to declare \r\n\t *\r\n\t * @return true if the payment is done, false otherwise\r\n\t */\r\n\tfunction paymentInternal(bytes32 _requestId, uint _amount) \r\n\t\tinternal\r\n\t\treturns(bool)\r\n\t{\r\n\t\taddress extensionAddr = requestCore.getExtension(_requestId);\r\n\r\n\t\tbool isOK = true;\r\n\t\tif(extensionAddr!=0 && extensionAddr!=msg.sender) \r\n\t\t{\r\n\t\t\tRequestSynchroneInterface extension = RequestSynchroneInterface(extensionAddr);\r\n\t\t\tisOK = extension.payment(_requestId, _amount);\r\n\t\t}\r\n\r\n\t\tif(isOK) \r\n\t\t{\r\n\t\t\trequestCore.payment(_requestId, _amount);\r\n\t\t\t// payment done, the money is ready to withdraw by the payee\r\n\t\t\tfundOrderInternal(_requestId, requestCore.getPayee(_requestId), _amount);\r\n\t\t}\r\n\t\treturn isOK;\r\n\t}\r\n\r\n\t/*\r\n\t * @dev Function internal to manage tips declaration\r\n\t *\r\n\t * @param _requestId id of the request\r\n\t * @param _amount amount of tips in wei to declare \r\n\t *\r\n\t * @return true if the tips is declared, false otherwise\r\n\t */\r\n\tfunction  addAdditionalInternal(bytes32 _requestId, uint _amount) \r\n\t\tinternal\r\n\t\treturns(bool)\r\n\t{\r\n\t\taddress extensionAddr = requestCore.getExtension(_requestId);\r\n\r\n\t\tbool isOK = true;\r\n\t\tif(extensionAddr!=0 && extensionAddr!=msg.sender)  \r\n\t\t{\r\n\t\t\tRequestSynchroneInterface extension = RequestSynchroneInterface(extensionAddr);\r\n\t\t\tisOK = extension.addAdditional(_requestId, _amount);\r\n\t\t}\r\n\r\n\t\tif(isOK) \r\n\t\t{\r\n\t\t\trequestCore.addAdditional(_requestId, _amount);\r\n\t\t}\r\n\t\treturn isOK;\r\n\t}\r\n\r\n\t/*\r\n\t * @dev Function internal to manage fund mouvement\r\n\t *\r\n\t * @param _requestId id of the request \r\n\t * @param _recipient adress where the wei has to me send to\r\n\t * @param _amount amount in wei to send\r\n\t *\r\n\t * @return true if the fund mouvement is done, false otherwise\r\n\t */\r\n\tfunction fundOrderInternal(bytes32 _requestId, address _recipient, uint _amount) \r\n\t\tinternal\r\n\t\treturns(bool)\r\n\t{\r\n\t\taddress extensionAddr = requestCore.getExtension(_requestId);\r\n\r\n\t\tbool isOK = true;\r\n\t\tif(extensionAddr!=0 && extensionAddr!=msg.sender)  \r\n\t\t{\r\n\t\t\tRequestSynchroneInterface extension = RequestSynchroneInterface(extensionAddr);\r\n\t\t\tisOK = extension.fundOrder(_requestId,_recipient,_amount);\r\n\t\t}\r\n\r\n\t\tif(isOK) \r\n\t\t{\r\n\t\t\t// sending fund means make it availbale to withdraw here\r\n\t\t\tethToWithdraw[_recipient] += _amount;\r\n\t\t}   \r\n\t\treturn isOK;\r\n\t}\r\n\r\n\t/*\r\n\t * @dev Function internal to manage acceptance\r\n\t *\r\n\t * @param _requestId id of the request \r\n\t *\r\n\t * @return true if the request is accept, false otherwise\r\n\t */\r\n\tfunction acceptInternal(bytes32 _requestId) \r\n\t\tinternal\r\n\t\treturns(bool)\r\n\t{\r\n\t\taddress extensionAddr = requestCore.getExtension(_requestId);\r\n\r\n\t\tbool isOK = true;\r\n\t\tif(extensionAddr!=0 && extensionAddr!=msg.sender)  \r\n\t\t{\r\n\t\t\tRequestSynchroneInterface extension = RequestSynchroneInterface(requestCore.getExtension(_requestId));\r\n\t\t\tisOK = extension.accept(_requestId);\r\n\t\t}\r\n\r\n\t\tif(isOK) \r\n\t\t{\r\n\t\t\trequestCore.accept(_requestId);\r\n\t\t}  \r\n\t\treturn isOK;\r\n\t}\r\n\r\n\t/*\r\n\t * @dev Function internal to calculate Keccak-256 hash of a request with specified parameters\r\n\t *\r\n\t * @param _payee Entity which will receive the payment\r\n\t * @param _payer Entity supposed to pay\r\n\t * @param _amountInitial Initial amount initial to be received. This amount can't be changed.\r\n\t * @param _extensions Up to 3 extensions can be linked to a request and allows advanced payments conditions such as escrow. Extensions have to be whitelisted in Core\r\n\t * @param _extensionParams Parameters for the extensions. It is an array of 9 bytes32, the 3 first element are for the first extension, the 3 next for the second extension and the last 3 for the third extension.\r\n\t *\r\n\t * @return Keccak-256 hash of a request\r\n\t */\r\n\tfunction getRequestHash(address _payee, address _payer, uint _amountInitial, address _extension, bytes32[9] _extensionParams, string _details)\r\n\t\tinternal\r\n\t\tview\r\n\t\treturns(bytes32)\r\n\t{\r\n\t\treturn keccak256(this,_payee,_payer,_amountInitial,_extension,_extensionParams,_details);\r\n\t}\r\n\r\n\t/*\r\n\t * @dev Verifies that a hash signature is valid. 0x style\r\n\t * @param signer address of signer.\r\n\t * @param hash Signed Keccak-256 hash.\r\n\t * @param v ECDSA signature parameter v.\r\n\t * @param r ECDSA signature parameters r.\r\n\t * @param s ECDSA signature parameters s.\r\n\t * @return Validity of order signature.\r\n\t */\r\n\tfunction isValidSignature(\r\n\t\taddress signer,\r\n\t\tbytes32 hash,\r\n\t\tuint8 v,\r\n\t\tbytes32 r,\r\n\t\tbytes32 s)\r\n\t\tpublic\r\n\t\tpure\r\n\t\treturns (bool)\r\n\t{\r\n\t\treturn signer == ecrecover(\r\n\t\t\tkeccak256(\"\\x19Ethereum Signed Message:\\n32\", hash),\r\n\t\t\tv,\r\n\t\t\tr,\r\n\t\t\ts\r\n\t\t);\r\n\t}\r\n\r\n\tfunction checkRequestSignature(\r\n\t\taddress signer,\r\n\t\taddress payee,\r\n\t\taddress payer,\r\n\t\tuint amountInitial,\r\n\t\taddress extension,\r\n\t\tbytes32[9] extensionParams,\r\n\t\tstring details,\r\n\t\tuint8 v,\r\n\t\tbytes32 r,\r\n\t\tbytes32 s)\r\n\t\tpublic\r\n\t\tview\r\n\t\treturns (bool)\r\n\t{\r\n\t\tbytes32 hash = getRequestHash(payee,payer,amountInitial,extension,extensionParams,details);\r\n\t\treturn isValidSignature(signer, hash, v, r, s);\r\n\t}\r\n\r\n\t/*\r\n\t * @dev Function internal to check if the msg.sender is an extension of the request\r\n\t *\r\n\t * @param _requestId id of the request \r\n\t *\r\n\t * @return true if msg.sender is an extension of the request\r\n\t */\r\n\tfunction isOnlyRequestExtension(bytes32 _requestId) \r\n\t\tinternal \r\n\t\tview\r\n\t\treturns(bool)\r\n\t{\r\n\t\treturn msg.sender==requestCore.getExtension(_requestId);\r\n\t}\r\n\r\n\t//modifier\r\n\tmodifier condition(bool c) \r\n\t{\r\n\t\trequire(c);\r\n\t\t_;\r\n\t}\r\n\r\n\t/*\r\n\t * @dev Modifier to check if msg.sender is payer\r\n\t * @dev Revert if msg.sender is not payer\r\n\t * @param _requestId id of the request \r\n\t */\t\r\n\tmodifier onlyRequestPayer(bytes32 _requestId) \r\n\t{\r\n\t\trequire(requestCore.getPayer(_requestId)==msg.sender);\r\n\t\t_;\r\n\t}\r\n\t\r\n\t/*\r\n\t * @dev Modifier to check if msg.sender is payee\r\n\t * @dev Revert if msg.sender is not payee\r\n\t * @param _requestId id of the request \r\n\t */\t\r\n\tmodifier onlyRequestPayee(bytes32 _requestId) \r\n\t{\r\n\t\trequire(requestCore.getPayee(_requestId)==msg.sender);\r\n\t\t_;\r\n\t}\r\n\r\n\t/*\r\n\t * @dev Modifier to check if msg.sender is payee or payer\r\n\t * @dev Revert if msg.sender is not payee or payer\r\n\t * @param _requestId id of the request \r\n\t */\r\n\tmodifier onlyRequestPayeeOrPayer(bytes32 _requestId) \r\n\t{\r\n\t\trequire(requestCore.getPayee(_requestId)==msg.sender || requestCore.getPayer(_requestId)==msg.sender);\r\n\t\t_;\r\n\t}\r\n\r\n\t/*\r\n\t * @dev Modifier to check if request is in a specify state\r\n\t * @dev Revert if request not in a specify state\r\n\t * @param _requestId id of the request \r\n\t * @param _state state to check\r\n\t */\r\n\tmodifier onlyRequestState(bytes32 _requestId, RequestCore.State _state) \r\n\t{\r\n\t\trequire(requestCore.getState(_requestId)==_state);\r\n\t\t_;\r\n\t}\r\n\r\n\t/*\r\n\t * @dev Modifier to check if the msg.sender is an extension of the request\r\n\t * @dev Revert if msg.sender is not an extension of the request\r\n\t * @param _requestId id of the request\r\n\t */\r\n\tmodifier onlyRequestExtensions(bytes32 _requestId) \r\n\t{\r\n\t\trequire(isOnlyRequestExtension(_requestId));\r\n\t\t_;\r\n\t}\r\n}\r\n",
  "sourcePath": "C:\\Users\\vince\\Documents\\Request\\git\\Request_SmartContracts\\contracts\\synchrone\\RequestEthereum.sol",
  "compiler": {
    "name": "solc",
    "version": "0.4.18+commit.9cf6e910.Emscripten.clang"
  },
  "schemaVersion": "1.0.1",
  "updatedAt": "2017-11-21T15:07:10.124Z"
}