{
  "contractName": "RequestSynchroneExtensionEscrow",
  "abi": [
    {
      "constant": true,
      "inputs": [
        {
          "name": "",
          "type": "bytes32"
        }
      ],
      "name": "escrows",
      "outputs": [
        {
          "name": "currencyContract",
          "type": "address"
        },
        {
          "name": "escrow",
          "type": "address"
        },
        {
          "name": "state",
          "type": "uint8"
        },
        {
          "name": "balance",
          "type": "uint256"
        }
      ],
      "payable": false,
      "stateMutability": "view",
      "type": "function"
    },
    {
      "constant": false,
      "inputs": [],
      "name": "unpause",
      "outputs": [],
      "payable": false,
      "stateMutability": "nonpayable",
      "type": "function"
    },
    {
      "constant": false,
      "inputs": [
        {
          "name": "_requestId",
          "type": "bytes32"
        },
        {
          "name": "_recipient",
          "type": "address"
        },
        {
          "name": "_amount",
          "type": "uint256"
        }
      ],
      "name": "fundOrder",
      "outputs": [
        {
          "name": "",
          "type": "bool"
        }
      ],
      "payable": false,
      "stateMutability": "nonpayable",
      "type": "function"
    },
    {
      "constant": true,
      "inputs": [],
      "name": "paused",
      "outputs": [
        {
          "name": "",
          "type": "bool"
        }
      ],
      "payable": false,
      "stateMutability": "view",
      "type": "function"
    },
    {
      "constant": false,
      "inputs": [
        {
          "name": "_requestId",
          "type": "bytes32"
        }
      ],
      "name": "releaseToPayeeAction",
      "outputs": [],
      "payable": false,
      "stateMutability": "nonpayable",
      "type": "function"
    },
    {
      "constant": false,
      "inputs": [
        {
          "name": "_requestId",
          "type": "bytes32"
        },
        {
          "name": "_amount",
          "type": "uint256"
        }
      ],
      "name": "refund",
      "outputs": [
        {
          "name": "",
          "type": "bool"
        }
      ],
      "payable": false,
      "stateMutability": "nonpayable",
      "type": "function"
    },
    {
      "constant": true,
      "inputs": [],
      "name": "requestCore",
      "outputs": [
        {
          "name": "",
          "type": "address"
        }
      ],
      "payable": false,
      "stateMutability": "view",
      "type": "function"
    },
    {
      "constant": false,
      "inputs": [
        {
          "name": "_requestId",
          "type": "bytes32"
        }
      ],
      "name": "releaseToPayerAction",
      "outputs": [],
      "payable": false,
      "stateMutability": "nonpayable",
      "type": "function"
    },
    {
      "constant": false,
      "inputs": [],
      "name": "pause",
      "outputs": [],
      "payable": false,
      "stateMutability": "nonpayable",
      "type": "function"
    },
    {
      "constant": true,
      "inputs": [],
      "name": "owner",
      "outputs": [
        {
          "name": "",
          "type": "address"
        }
      ],
      "payable": false,
      "stateMutability": "view",
      "type": "function"
    },
    {
      "constant": false,
      "inputs": [
        {
          "name": "_requestId",
          "type": "bytes32"
        },
        {
          "name": "_amount",
          "type": "uint256"
        }
      ],
      "name": "payment",
      "outputs": [
        {
          "name": "",
          "type": "bool"
        }
      ],
      "payable": false,
      "stateMutability": "nonpayable",
      "type": "function"
    },
    {
      "constant": false,
      "inputs": [
        {
          "name": "_requestId",
          "type": "bytes32"
        }
      ],
      "name": "cancel",
      "outputs": [
        {
          "name": "",
          "type": "bool"
        }
      ],
      "payable": false,
      "stateMutability": "nonpayable",
      "type": "function"
    },
    {
      "constant": false,
      "inputs": [
        {
          "name": "_requestId",
          "type": "bytes32"
        },
        {
          "name": "_params",
          "type": "bytes32[9]"
        }
      ],
      "name": "createRequest",
      "outputs": [
        {
          "name": "",
          "type": "bool"
        }
      ],
      "payable": false,
      "stateMutability": "nonpayable",
      "type": "function"
    },
    {
      "constant": false,
      "inputs": [
        {
          "name": "_requestId",
          "type": "bytes32"
        }
      ],
      "name": "accept",
      "outputs": [
        {
          "name": "",
          "type": "bool"
        }
      ],
      "payable": false,
      "stateMutability": "nonpayable",
      "type": "function"
    },
    {
      "constant": false,
      "inputs": [
        {
          "name": "newOwner",
          "type": "address"
        }
      ],
      "name": "transferOwnership",
      "outputs": [],
      "payable": false,
      "stateMutability": "nonpayable",
      "type": "function"
    },
    {
      "constant": false,
      "inputs": [
        {
          "name": "_requestId",
          "type": "bytes32"
        },
        {
          "name": "_deltaAmount",
          "type": "int256"
        }
      ],
      "name": "updateExpectedAmount",
      "outputs": [
        {
          "name": "",
          "type": "bool"
        }
      ],
      "payable": false,
      "stateMutability": "nonpayable",
      "type": "function"
    },
    {
      "inputs": [
        {
          "name": "_requestCoreAddress",
          "type": "address"
        }
      ],
      "payable": false,
      "stateMutability": "nonpayable",
      "type": "constructor"
    },
    {
      "anonymous": false,
      "inputs": [
        {
          "indexed": false,
          "name": "requestId",
          "type": "bytes32"
        },
        {
          "indexed": false,
          "name": "amount",
          "type": "uint256"
        }
      ],
      "name": "EscrowPayment",
      "type": "event"
    },
    {
      "anonymous": false,
      "inputs": [
        {
          "indexed": false,
          "name": "requestId",
          "type": "bytes32"
        }
      ],
      "name": "EscrowReleaseRequest",
      "type": "event"
    },
    {
      "anonymous": false,
      "inputs": [
        {
          "indexed": false,
          "name": "requestId",
          "type": "bytes32"
        }
      ],
      "name": "EscrowRefundRequest",
      "type": "event"
    },
    {
      "anonymous": false,
      "inputs": [],
      "name": "Pause",
      "type": "event"
    },
    {
      "anonymous": false,
      "inputs": [],
      "name": "Unpause",
      "type": "event"
    },
    {
      "anonymous": false,
      "inputs": [
        {
          "indexed": true,
          "name": "previousOwner",
          "type": "address"
        },
        {
          "indexed": true,
          "name": "newOwner",
          "type": "address"
        }
      ],
      "name": "OwnershipTransferred",
      "type": "event"
    }
  ],
  "bytecode": "0x606060405260008060146101000a81548160ff021916908315150217905550341561002957600080fd5b604051602080611afa83398101604052808051906020019091905050336000806101000a81548173ffffffffffffffffffffffffffffffffffffffff021916908373ffffffffffffffffffffffffffffffffffffffff16021790555080600260006101000a81548173ffffffffffffffffffffffffffffffffffffffff021916908373ffffffffffffffffffffffffffffffffffffffff16021790555050611a24806100d66000396000f3006060604052600436106100e6576000357c0100000000000000000000000000000000000000000000000000000000900463ffffffff1680632d83549c146100eb5780633f4ba83a146101a1578063452e79a4146101b65780635c975abb1461021d578063638526e81461024a578063695eda19146102715780636c4fbaa4146102b95780637ee1756a1461030e5780638456cb59146103355780638da5cb5b1461034a578063a05bd4c61461039f578063c4d252f5146103e7578063d29574ba14610426578063e4725ba114610492578063f2fde38b146104d1578063f3479fe81461050a575b600080fd5b34156100f657600080fd5b610110600480803560001916906020019091905050610552565b604051808573ffffffffffffffffffffffffffffffffffffffff1673ffffffffffffffffffffffffffffffffffffffff1681526020018473ffffffffffffffffffffffffffffffffffffffff1673ffffffffffffffffffffffffffffffffffffffff16815260200183600281111561018457fe5b60ff16815260200182815260200194505050505060405180910390f35b34156101ac57600080fd5b6101b46105cf565b005b34156101c157600080fd5b61020360048080356000191690602001909190803573ffffffffffffffffffffffffffffffffffffffff1690602001909190803590602001909190505061068d565b604051808215151515815260200191505060405180910390f35b341561022857600080fd5b61023061069a565b604051808215151515815260200191505060405180910390f35b341561025557600080fd5b61026f6004808035600019169060200190919050506106ad565b005b341561027c57600080fd5b61029f600480803560001916906020019091908035906020019091905050610b1a565b604051808215151515815260200191505060405180910390f35b34156102c457600080fd5b6102cc610c0e565b604051808273ffffffffffffffffffffffffffffffffffffffff1673ffffffffffffffffffffffffffffffffffffffff16815260200191505060405180910390f35b341561031957600080fd5b610333600480803560001916906020019091905050610c34565b005b341561034057600080fd5b610348611235565b005b341561035557600080fd5b61035d6112f5565b604051808273ffffffffffffffffffffffffffffffffffffffff1673ffffffffffffffffffffffffffffffffffffffff16815260200191505060405180910390f35b34156103aa57600080fd5b6103cd60048080356000191690602001909190803590602001909190505061131a565b604051808215151515815260200191505060405180910390f35b34156103f257600080fd5b61040c6004808035600019169060200190919050506114b1565b604051808215151515815260200191505060405180910390f35b341561043157600080fd5b610478600480803560001916906020019091908061012001906009806020026040519081016040528092919082600960200280828437820191505050505091905050611571565b604051808215151515815260200191505060405180910390f35b341561049d57600080fd5b6104b7600480803560001916906020019091905050611808565b604051808215151515815260200191505060405180910390f35b34156104dc57600080fd5b610508600480803573ffffffffffffffffffffffffffffffffffffffff16906020019091905050611813565b005b341561051557600080fd5b610538600480803560001916906020019091908035906020019091905050611968565b604051808215151515815260200191505060405180910390f35b60016020528060005260406000206000915090508060000160009054906101000a900473ffffffffffffffffffffffffffffffffffffffff16908060010160009054906101000a900473ffffffffffffffffffffffffffffffffffffffff16908060010160149054906101000a900460ff16908060020154905084565b6000809054906101000a900473ffffffffffffffffffffffffffffffffffffffff1673ffffffffffffffffffffffffffffffffffffffff163373ffffffffffffffffffffffffffffffffffffffff1614151561062a57600080fd5b600060149054906101000a900460ff16151561064557600080fd5b60008060146101000a81548160ff0219169083151502179055507f7805862f689e2f13df9f062ff482ad3ad112aca9e0847911ed832e158c525b3360405160405180910390a1565b6000600190509392505050565b600060149054906101000a900460ff1681565b60008060149054906101000a900460ff161515156106ca57600080fd5b813373ffffffffffffffffffffffffffffffffffffffff1660016000836000191660001916815260200190815260200160002060010160009054906101000a900473ffffffffffffffffffffffffffffffffffffffff1673ffffffffffffffffffffffffffffffffffffffff16148061082957503373ffffffffffffffffffffffffffffffffffffffff16600260009054906101000a900473ffffffffffffffffffffffffffffffffffffffff1673ffffffffffffffffffffffffffffffffffffffff1663a12cad70836000604051602001526040518263ffffffff167c0100000000000000000000000000000000000000000000000000000000028152600401808260001916600019168152602001915050602060405180830381600087803b15156107f657600080fd5b6102c65a03f1151561080757600080fd5b5050506040518051905073ffffffffffffffffffffffffffffffffffffffff16145b151561083457600080fd5b82600080600281111561084357fe5b60016000846000191660001916815260200190815260200160002060010160149054906101000a900460ff16600281111561087a57fe5b14151561088657600080fd5b84600180600281111561089557fe5b600260009054906101000a900473ffffffffffffffffffffffffffffffffffffffff1673ffffffffffffffffffffffffffffffffffffffff166309648a9d846000604051602001526040518263ffffffff167c0100000000000000000000000000000000000000000000000000000000028152600401808260001916600019168152602001915050602060405180830381600087803b151561093657600080fd5b6102c65a03f1151561094757600080fd5b50505060405180519050600281111561095c57fe5b14151561096857600080fd5b600260016000896000191660001916815260200190815260200160002060010160146101000a81548160ff021916908360028111156109a357fe5b02179055507f42b0f31519c4d6f0d5905e3bcbc1081cd5ee948f9aa336ce3857a98407d868738760405180826000191660001916815260200191505060405180910390a16000600160008960001916600019168152602001908152602001600020600201541115610b115760016000886000191660001916815260200190815260200160002060000160009054906101000a900473ffffffffffffffffffffffffffffffffffffffff1695508573ffffffffffffffffffffffffffffffffffffffff1663a05bd4c688600160008b60001916600019168152602001908152602001600020600201546000604051602001526040518363ffffffff167c010000000000000000000000000000000000000000000000000000000002815260040180836000191660001916815260200182815260200192505050602060405180830381600087803b1515610af457600080fd5b6102c65a03f11515610b0557600080fd5b50505060405180519050505b50505050505050565b60008060149054906101000a900460ff16151515610b3757600080fd5b823373ffffffffffffffffffffffffffffffffffffffff1660016000836000191660001916815260200190815260200160002060000160009054906101000a900473ffffffffffffffffffffffffffffffffffffffff1673ffffffffffffffffffffffffffffffffffffffff16141515610bb057600080fd5b610be1836001600087600019166000191681526020019081526020016000206002015461197490919063ffffffff16565b60016000866000191660001916815260200190815260200160002060020181905550600191505092915050565b600260009054906101000a900473ffffffffffffffffffffffffffffffffffffffff1681565b600080600060149054906101000a900460ff16151515610c5357600080fd5b823373ffffffffffffffffffffffffffffffffffffffff1660016000836000191660001916815260200190815260200160002060010160009054906101000a900473ffffffffffffffffffffffffffffffffffffffff1673ffffffffffffffffffffffffffffffffffffffff161480610db157503373ffffffffffffffffffffffffffffffffffffffff16600260009054906101000a900473ffffffffffffffffffffffffffffffffffffffff1673ffffffffffffffffffffffffffffffffffffffff1662ca2f75836000604051602001526040518263ffffffff167c0100000000000000000000000000000000000000000000000000000000028152600401808260001916600019168152602001915050602060405180830381600087803b1515610d7e57600080fd5b6102c65a03f11515610d8f57600080fd5b5050506040518051905073ffffffffffffffffffffffffffffffffffffffff16145b1515610dbc57600080fd5b836000806002811115610dcb57fe5b60016000846000191660001916815260200190815260200160002060010160149054906101000a900460ff166002811115610e0257fe5b141515610e0e57600080fd5b856001806002811115610e1d57fe5b600260009054906101000a900473ffffffffffffffffffffffffffffffffffffffff1673ffffffffffffffffffffffffffffffffffffffff166309648a9d846000604051602001526040518263ffffffff167c0100000000000000000000000000000000000000000000000000000000028152600401808260001916600019168152602001915050602060405180830381600087803b1515610ebe57600080fd5b6102c65a03f11515610ecf57600080fd5b505050604051805190506002811115610ee457fe5b141515610ef057600080fd5b60018060008a6000191660001916815260200190815260200160002060010160146101000a81548160ff02191690836002811115610f2a57fe5b02179055507f8f482593d146341944d7bd7864ae7499d8775b00371dc73213734151224536368860405180826000191660001916815260200191505060405180910390a16001600089600019166000191681526020019081526020016000206002015496506000600160008a600019166000191681526020019081526020016000206002018190555060016000896000191660001916815260200190815260200160002060000160009054906101000a900473ffffffffffffffffffffffffffffffffffffffff1695506000871115611190578573ffffffffffffffffffffffffffffffffffffffff1663452e79a489600260009054906101000a900473ffffffffffffffffffffffffffffffffffffffff1673ffffffffffffffffffffffffffffffffffffffff1663a12cad708c6000604051602001526040518263ffffffff167c0100000000000000000000000000000000000000000000000000000000028152600401808260001916600019168152602001915050602060405180830381600087803b15156110bb57600080fd5b6102c65a03f115156110cc57600080fd5b505050604051805190508a6000604051602001526040518463ffffffff167c01000000000000000000000000000000000000000000000000000000000281526004018084600019166000191681526020018373ffffffffffffffffffffffffffffffffffffffff1673ffffffffffffffffffffffffffffffffffffffff1681526020018281526020019350505050602060405180830381600087803b151561117357600080fd5b6102c65a03f1151561118457600080fd5b50505060405180519050505b8573ffffffffffffffffffffffffffffffffffffffff1663c4d252f5896000604051602001526040518263ffffffff167c0100000000000000000000000000000000000000000000000000000000028152600401808260001916600019168152602001915050602060405180830381600087803b151561120f57600080fd5b6102c65a03f1151561122057600080fd5b50505060405180519050505050505050505050565b6000809054906101000a900473ffffffffffffffffffffffffffffffffffffffff1673ffffffffffffffffffffffffffffffffffffffff163373ffffffffffffffffffffffffffffffffffffffff1614151561129057600080fd5b600060149054906101000a900460ff161515156112ac57600080fd5b6001600060146101000a81548160ff0219169083151502179055507f6985a02210a168e66602d3235cb6db0e70f92b3ba4d376a33c0f3d9434bff62560405160405180910390a1565b6000809054906101000a900473ffffffffffffffffffffffffffffffffffffffff1681565b60008060149054906101000a900460ff1615151561133757600080fd5b823373ffffffffffffffffffffffffffffffffffffffff1660016000836000191660001916815260200190815260200160002060000160009054906101000a900473ffffffffffffffffffffffffffffffffffffffff1673ffffffffffffffffffffffffffffffffffffffff161415156113b057600080fd5b8360018060028111156113bf57fe5b60016000846000191660001916815260200190815260200160002060010160149054906101000a900460ff1660028111156113f657fe5b1415151561140357600080fd5b611434856001600089600019166000191681526020019081526020016000206002015461198d90919063ffffffff16565b600160008860001916600019168152602001908152602001600020600201819055507f640ab74eaec4a0c0c67aec6ef5873788a00b6ccca55e5e13b23503e46b91b5e686866040518083600019166000191681526020018281526020019250505060405180910390a16114a6866119ab565b935050505092915050565b60008060149054906101000a900460ff161515156114ce57600080fd5b813373ffffffffffffffffffffffffffffffffffffffff1660016000836000191660001916815260200190815260200160002060000160009054906101000a900473ffffffffffffffffffffffffffffffffffffffff1673ffffffffffffffffffffffffffffffffffffffff1614151561154757600080fd5b60006001600085600019166000191681526020019081526020016000206002015414915050919050565b60008060149054906101000a900460ff1615151561158e57600080fd5b336001600260009054906101000a900473ffffffffffffffffffffffffffffffffffffffff1673ffffffffffffffffffffffffffffffffffffffff1663f8db71b5836000604051602001526040518263ffffffff167c0100000000000000000000000000000000000000000000000000000000028152600401808273ffffffffffffffffffffffffffffffffffffffff1673ffffffffffffffffffffffffffffffffffffffff168152602001915050602060405180830381600087803b151561165657600080fd5b6102c65a03f1151561166757600080fd5b5050506040518051905060ff1614151561168057600080fd5b600060010283600060098110151561169457fe5b60200201516000191614158015156116ab57600080fd5b6080604051908101604052803373ffffffffffffffffffffffffffffffffffffffff1681526020018560006009811015156116e257fe5b60200201516001900473ffffffffffffffffffffffffffffffffffffffff1681526020016000600281111561171357fe5b8152602001600081525060016000876000191660001916815260200190815260200160002060008201518160000160006101000a81548173ffffffffffffffffffffffffffffffffffffffff021916908373ffffffffffffffffffffffffffffffffffffffff16021790555060208201518160010160006101000a81548173ffffffffffffffffffffffffffffffffffffffff021916908373ffffffffffffffffffffffffffffffffffffffff16021790555060408201518160010160146101000a81548160ff021916908360028111156117ea57fe5b02179055506060820151816002015590505060019250505092915050565b600060019050919050565b6000809054906101000a900473ffffffffffffffffffffffffffffffffffffffff1673ffffffffffffffffffffffffffffffffffffffff163373ffffffffffffffffffffffffffffffffffffffff1614151561186e57600080fd5b600073ffffffffffffffffffffffffffffffffffffffff168173ffffffffffffffffffffffffffffffffffffffff16141515156118aa57600080fd5b8073ffffffffffffffffffffffffffffffffffffffff166000809054906101000a900473ffffffffffffffffffffffffffffffffffffffff1673ffffffffffffffffffffffffffffffffffffffff167f8be0079c531659141344cd1fd0a4f28419497f9722a3daafe3b4186f6b6457e060405160405180910390a3806000806101000a81548173ffffffffffffffffffffffffffffffffffffffff021916908373ffffffffffffffffffffffffffffffffffffffff16021790555050565b60006001905092915050565b600082821115151561198257fe5b818303905092915050565b60008082840190508381101515156119a157fe5b8091505092915050565b60006002808111156119b957fe5b60016000846000191660001916815260200190815260200160002060010160149054906101000a900460ff1660028111156119f057fe5b1490509190505600a165627a7a7230582073418ceada8626dee2ac5214ada17b7e1c2e9b12b4f430c4e54bb28bf6c127450029",
  "source": "pragma solidity 0.4.18;\r\n\r\nimport '../../core/RequestCore.sol';\r\nimport './RequestSynchroneInterface.sol';\r\nimport '../../base/math/SafeMath.sol';\r\n\r\n// many pattern from http://solidity.readthedocs.io/en/develop/types.html#structs\r\ncontract RequestSynchroneExtensionEscrow is RequestSynchroneInterface {\r\n\tusing SafeMath for uint256;\r\n\tusing SafeMathInt for int256;\r\n\r\n\tenum EscrowState { Created, Refunded, Released }\r\n\r\n\t// mapping of requestId => escrow\r\n\tstruct RequestEscrow {\r\n\t\taddress currencyContract;\r\n\t\taddress escrow;\r\n\t\tEscrowState state;\r\n\t\tuint256 balance;\r\n\t}\r\n\tmapping(bytes32 => RequestEscrow) public escrows;\r\n\r\n\tevent EscrowPayment(bytes32 requestId, uint256 amount);\r\n\tevent EscrowReleaseRequest(bytes32 requestId);\r\n\tevent EscrowRefundRequest(bytes32 requestId);\r\n\r\n\t// address of the contract of the request system\r\n\tRequestCore public requestCore;\r\n\r\n\t// contract constructor\r\n\tfunction RequestSynchroneExtensionEscrow(address _requestCoreAddress) \r\n\t\tpublic\r\n\t{\r\n\t\trequestCore = RequestCore(_requestCoreAddress);\r\n\t}\r\n\r\n\tfunction createRequest(bytes32 _requestId, bytes32[9] _params)\r\n\t\tpublic\r\n\t\twhenNotPaused\r\n\t\tisCurrencyContractTrusted(msg.sender)\r\n\t\tcondition(_params[0]!=0)\r\n\t\treturns(bool)\r\n\t{\r\n\t\tescrows[_requestId] = RequestEscrow(msg.sender, address(_params[0]), EscrowState.Created, 0); // create RequestEscrow\r\n\t\treturn true;\r\n\t}\r\n\r\n\tfunction payment(bytes32 _requestId, uint256 _amount)\r\n\t\tpublic\r\n\t\twhenNotPaused\r\n\t\tisCurrencyContractRight(_requestId)\r\n\t\tinNOTEscrowState(_requestId, EscrowState.Refunded)\r\n\t\treturns(bool)\r\n\t{\r\n\t\tescrows[_requestId].balance = escrows[_requestId].balance.add(_amount);\r\n\r\n\t\tEscrowPayment(_requestId, _amount);\r\n\r\n\t\treturn isEscrowReleasedPayment(_requestId);\r\n\t}\r\n\r\n\t// refund request\r\n\tfunction refund(bytes32 _requestId, uint256 _amount)\r\n\t\tpublic\r\n\t\twhenNotPaused\r\n\t\tisCurrencyContractRight(_requestId)\r\n\t\treturns(bool)\r\n\t{\r\n\t\tescrows[_requestId].balance = escrows[_requestId].balance.sub(_amount);\r\n\t\treturn true;\r\n\t}\r\n\r\n\t// cancel request\r\n\tfunction cancel(bytes32 _requestId) \r\n\t\tpublic\r\n\t\twhenNotPaused\r\n\t\tisCurrencyContractRight(_requestId)\r\n\t\treturns(bool)\r\n\t{\r\n\t\treturn escrows[_requestId].balance == 0;\r\n\t}\r\n\r\n\t\t// Escrow Function\r\n\t// escrow can release the payment to the seller\r\n\tfunction releaseToPayeeAction(bytes32 _requestId)\r\n\t\texternal\r\n\t\twhenNotPaused\r\n\t\tonlyRequestEscrowOrPayer(_requestId)\r\n\t\tinEscrowState(_requestId, EscrowState.Created)\r\n\t\tonlyRequestState(_requestId, RequestCore.State.Accepted)\r\n\t{\r\n\t\t// release the money\r\n\t\tescrows[_requestId].state = EscrowState.Released;\r\n\t\tEscrowReleaseRequest(_requestId);\r\n\r\n\t\tif(escrows[_requestId].balance > 0) {\r\n\t\t\tRequestSynchroneInterface currencyContract = RequestSynchroneInterface(escrows[_requestId].currencyContract);\r\n\t\t\tcurrencyContract.payment(_requestId, escrows[_requestId].balance);\r\n\t\t}\r\n\t}\r\n\r\n\t// escrow can refund the payment to the âyer\r\n\tfunction releaseToPayerAction(bytes32 _requestId)\r\n\t\texternal\r\n\t\twhenNotPaused\r\n\t\tonlyRequestEscrowOrPayee(_requestId)\r\n\t\tinEscrowState(_requestId, EscrowState.Created)\r\n\t\tonlyRequestState(_requestId, RequestCore.State.Accepted)\r\n\t{\r\n\t\t// Refund the money\r\n\t\tescrows[_requestId].state = EscrowState.Refunded;\r\n\t\tEscrowRefundRequest(_requestId);\r\n\r\n\t\tuint256 amountToRefund = escrows[_requestId].balance;\r\n\t\tescrows[_requestId].balance = 0;\r\n\r\n\t\tRequestSynchroneInterface currencyContract = RequestSynchroneInterface(escrows[_requestId].currencyContract);\r\n\t\tif(amountToRefund>0) currencyContract.fundOrder(_requestId, requestCore.getPayer(_requestId), amountToRefund); \r\n\t\tcurrencyContract.cancel(_requestId); \r\n\t}\r\n\r\n\r\n\t// internal function \r\n\tfunction isEscrowReleasedPayment(bytes32 _requestId) \r\n\t\tview \r\n\t\tinternal \r\n\t\treturns(bool) \r\n\t{\r\n\t\treturn escrows[_requestId].state == EscrowState.Released;\r\n\t}\r\n\r\n\r\n\t//modifier\r\n\tmodifier condition(bool c) {\r\n\t\trequire(c);\r\n\t\t_;\r\n\t}\r\n\r\n\tmodifier onlyRequestEscrow(bytes32 _requestId) {\r\n\t\trequire(escrows[_requestId].escrow==msg.sender);\r\n\t\t_;\r\n\t}\r\n\r\n\tmodifier onlyRequestEscrowOrPayer(bytes32 _requestId) {\r\n\t\trequire(escrows[_requestId].escrow==msg.sender || requestCore.getPayer(_requestId)==msg.sender);\r\n\t\t_;\r\n\t}\r\n\r\n\tmodifier onlyRequestEscrowOrPayee(bytes32 _requestId) {\r\n\t\trequire(escrows[_requestId].escrow==msg.sender || requestCore.getPayee(_requestId)==msg.sender);\r\n\t\t_;\r\n\t}\r\n\r\n\tmodifier inEscrowState(bytes32 _requestId, EscrowState es) {\r\n\t\trequire(escrows[_requestId].state==es);\r\n\t\t_;\r\n\t}\r\n\r\n\tmodifier inNOTEscrowState(bytes32 _requestId, EscrowState es) {\r\n\t\trequire(escrows[_requestId].state!=es);\r\n\t\t_;\r\n\t}\r\n\r\n\tmodifier onlyRequestState(bytes32 _requestId, RequestCore.State state) {\r\n\t\trequire(requestCore.getState(_requestId)==state);\r\n\t\t_;\r\n\t}\r\n\r\n\tmodifier isCurrencyContractTrusted(address currencyContract) {\r\n\t\trequire(requestCore.getStatusContract(currencyContract)==1);\r\n\t\t_;\r\n\t}\r\n\r\n\tmodifier isCurrencyContractRight(bytes32 _requestId)\r\n\t{\r\n\t\trequire(escrows[_requestId].currencyContract == msg.sender);\r\n\t\t_;\r\n\t}\t \r\n}\r\n",
  "sourcePath": "C:\\Users\\vince\\Documents\\Request\\git\\Request_SmartContracts\\contracts\\synchrone\\extensions\\RequestSynchroneExtensionEscrow.sol",
  "compiler": {
    "name": "solc",
    "version": "0.4.18+commit.9cf6e910.Emscripten.clang"
  },
  "schemaVersion": "1.0.1",
  "updatedAt": "2017-12-05T14:06:22.714Z"
}