{
  "contractName": "RequestBurnManagerSimple",
  "abi": [
    {
      "constant": false,
      "inputs": [
        {
          "name": "_reqBurnerContract",
          "type": "address"
        }
      ],
      "name": "setReqBurnerContract",
      "outputs": [],
      "payable": false,
      "stateMutability": "nonpayable",
      "type": "function"
    },
    {
      "constant": false,
      "inputs": [
        {
          "name": "_newFees",
          "type": "uint16"
        }
      ],
      "name": "setFeesPerTenThousand",
      "outputs": [],
      "payable": false,
      "stateMutability": "nonpayable",
      "type": "function"
    },
    {
      "constant": false,
      "inputs": [],
      "name": "unpause",
      "outputs": [],
      "payable": false,
      "stateMutability": "nonpayable",
      "type": "function"
    },
    {
      "constant": true,
      "inputs": [
        {
          "name": "_expectedAmount",
          "type": "int256"
        },
        {
          "name": "_currencyContract",
          "type": "address"
        },
        {
          "name": "_extension",
          "type": "address"
        }
      ],
      "name": "collectEstimation",
      "outputs": [
        {
          "name": "",
          "type": "uint256"
        }
      ],
      "payable": false,
      "stateMutability": "view",
      "type": "function"
    },
    {
      "constant": true,
      "inputs": [],
      "name": "paused",
      "outputs": [
        {
          "name": "",
          "type": "bool"
        }
      ],
      "payable": false,
      "stateMutability": "view",
      "type": "function"
    },
    {
      "constant": true,
      "inputs": [],
      "name": "reqBurnerContract",
      "outputs": [
        {
          "name": "",
          "type": "address"
        }
      ],
      "payable": false,
      "stateMutability": "view",
      "type": "function"
    },
    {
      "constant": false,
      "inputs": [
        {
          "name": "_expectedAmount",
          "type": "int256"
        },
        {
          "name": "_currencyContract",
          "type": "address"
        },
        {
          "name": "_extension",
          "type": "address"
        }
      ],
      "name": "collectForReqBurning",
      "outputs": [
        {
          "name": "",
          "type": "bool"
        }
      ],
      "payable": true,
      "stateMutability": "payable",
      "type": "function"
    },
    {
      "constant": false,
      "inputs": [],
      "name": "pause",
      "outputs": [
        {
          "name": "",
          "type": "uint256"
        }
      ],
      "payable": false,
      "stateMutability": "nonpayable",
      "type": "function"
    },
    {
      "constant": true,
      "inputs": [],
      "name": "owner",
      "outputs": [
        {
          "name": "",
          "type": "address"
        }
      ],
      "payable": false,
      "stateMutability": "view",
      "type": "function"
    },
    {
      "constant": true,
      "inputs": [],
      "name": "feesPerTenThousand",
      "outputs": [
        {
          "name": "",
          "type": "uint16"
        }
      ],
      "payable": false,
      "stateMutability": "view",
      "type": "function"
    },
    {
      "constant": false,
      "inputs": [
        {
          "name": "newOwner",
          "type": "address"
        }
      ],
      "name": "transferOwnership",
      "outputs": [
        {
          "name": "",
          "type": "uint16"
        }
      ],
      "payable": false,
      "stateMutability": "nonpayable",
      "type": "function"
    },
    {
      "constant": false,
      "inputs": [
        {
          "name": "_reqBurnerContract",
          "type": "address"
        }
      ],
      "name": "transferOwnership",
      "outputs": [],
      "payable": false,
      "stateMutability": "nonpayable",
      "type": "constructor"
    },
    {
      "inputs": [
        {
          "name": "_requestCoreAddress",
          "type": "address"
        }
      ],
      "payable": false,
      "stateMutability": "nonpayable",
      "type": "event",
      "anonymous": false,
      "name": "Pause"
    },
    {
      "anonymous": false,
      "inputs": [],
      "name": "Unpause",
      "type": "event"
    },
    {
      "anonymous": false,
      "inputs": [
        {
          "indexed": true,
          "name": "previousOwner",
          "type": "address"
        },
        {
          "indexed": true,
          "name": "newOwner",
          "type": "address"
        }
      ],
      "name": "OwnershipTransferred",
      "type": "event"
    },
    {
      "anonymous": false,
      "inputs": [
        {
          "indexed": true,
          "name": "previousOwner",
          "type": "address"
        },
        {
          "indexed": true,
          "name": "newOwner",
          "type": "address"
        }
      ],
      "name": "OwnershipTransferred",
      "type": "event"
    }
  ],
  "bytecode": "0x606060405260008060146101000a81548160ff021916908315150217905550341561002957600080fd5b6040516020806109e783398101604052808051906020019091905050336000806101000a81548173ffffffffffffffffffffffffffffffffffffffff021916908373ffffffffffffffffffffffffffffffffffffffff16021790555080600160006101000a81548173ffffffffffffffffffffffffffffffffffffffff021916908373ffffffffffffffffffffffffffffffffffffffff16021790555050610911806100d66000396000f3006060604052600436106100af576000357c0100000000000000000000000000000000000000000000000000000000900463ffffffff168063345a86f5146100b45780633b424a29146100ed5780633f4ba83a1461011457806349ede0ca146101295780635c975abb1461019e57806370170834146101cb578063720d3f49146102205780638456cb591461028e5780638da5cb5b146102a3578063ae3c5054146102f8578063f2fde38b14610329575b600080fd5b34156100bf57600080fd5b6100eb600480803573ffffffffffffffffffffffffffffffffffffffff16906020019091905050610362565b005b34156100f857600080fd5b610112600480803561ffff16906020019091905050610401565b005b341561011f57600080fd5b61012761047c565b005b341561013457600080fd5b610188600480803590602001909190803573ffffffffffffffffffffffffffffffffffffffff1690602001909190803573ffffffffffffffffffffffffffffffffffffffff1690602001909190505061053a565b6040518082815260200191505060405180910390f35b34156101a957600080fd5b6101b1610592565b604051808215151515815260200191505060405180910390f35b34156101d657600080fd5b6101de6105a5565b604051808273ffffffffffffffffffffffffffffffffffffffff1673ffffffffffffffffffffffffffffffffffffffff16815260200191505060405180910390f35b610274600480803590602001909190803573ffffffffffffffffffffffffffffffffffffffff1690602001909190803573ffffffffffffffffffffffffffffffffffffffff169060200190919050506105cb565b604051808215151515815260200191505060405180910390f35b341561029957600080fd5b6102a1610649565b005b34156102ae57600080fd5b6102b6610709565b604051808273ffffffffffffffffffffffffffffffffffffffff1673ffffffffffffffffffffffffffffffffffffffff16815260200191505060405180910390f35b341561030357600080fd5b61030b61072e565b604051808261ffff1661ffff16815260200191505060405180910390f35b341561033457600080fd5b610360600480803573ffffffffffffffffffffffffffffffffffffffff16906020019091905050610742565b005b6000809054906101000a900473ffffffffffffffffffffffffffffffffffffffff1673ffffffffffffffffffffffffffffffffffffffff163373ffffffffffffffffffffffffffffffffffffffff161415156103bd57600080fd5b80600160006101000a81548173ffffffffffffffffffffffffffffffffffffffff021916908373ffffffffffffffffffffffffffffffffffffffff16021790555050565b6000809054906101000a900473ffffffffffffffffffffffffffffffffffffffff1673ffffffffffffffffffffffffffffffffffffffff163373ffffffffffffffffffffffffffffffffffffffff1614151561045c57600080fd5b80600060156101000a81548161ffff021916908361ffff16021790555050565b6000809054906101000a900473ffffffffffffffffffffffffffffffffffffffff1673ffffffffffffffffffffffffffffffffffffffff163373ffffffffffffffffffffffffffffffffffffffff161415156104d757600080fd5b600060149054906101000a900460ff1615156104f257600080fd5b60008060146101000a81548160ff0219169083151502179055507f7805862f689e2f13df9f062ff482ad3ad112aca9e0847911ed832e158c525b3360405160405180910390a1565b60008084121561054d576000905061058b565b61058861271061057a600060159054906101000a900461ffff1661ffff168761089790919063ffffffff16565b6108ca90919063ffffffff16565b90505b9392505050565b600060149054906101000a900460ff1681565b600160009054906101000a900473ffffffffffffffffffffffffffffffffffffffff1681565b6000346105d985858561053a565b141561063d57600160009054906101000a900473ffffffffffffffffffffffffffffffffffffffff1673ffffffffffffffffffffffffffffffffffffffff166108fc349081150290604051600060405180830381858888f193505050509050610642565b600090505b9392505050565b6000809054906101000a900473ffffffffffffffffffffffffffffffffffffffff1673ffffffffffffffffffffffffffffffffffffffff163373ffffffffffffffffffffffffffffffffffffffff161415156106a457600080fd5b600060149054906101000a900460ff161515156106c057600080fd5b6001600060146101000a81548160ff0219169083151502179055507f6985a02210a168e66602d3235cb6db0e70f92b3ba4d376a33c0f3d9434bff62560405160405180910390a1565b6000809054906101000a900473ffffffffffffffffffffffffffffffffffffffff1681565b600060159054906101000a900461ffff1681565b6000809054906101000a900473ffffffffffffffffffffffffffffffffffffffff1673ffffffffffffffffffffffffffffffffffffffff163373ffffffffffffffffffffffffffffffffffffffff1614151561079d57600080fd5b600073ffffffffffffffffffffffffffffffffffffffff168173ffffffffffffffffffffffffffffffffffffffff16141515156107d957600080fd5b8073ffffffffffffffffffffffffffffffffffffffff166000809054906101000a900473ffffffffffffffffffffffffffffffffffffffff1673ffffffffffffffffffffffffffffffffffffffff167f8be0079c531659141344cd1fd0a4f28419497f9722a3daafe3b4186f6b6457e060405160405180910390a3806000806101000a81548173ffffffffffffffffffffffffffffffffffffffff021916908373ffffffffffffffffffffffffffffffffffffffff16021790555050565b600080828402905060008414806108b857508284828115156108b557fe5b04145b15156108c057fe5b8091505092915050565b60008082848115156108d857fe5b04905080915050929150505600a165627a7a72305820f4687dff2636bf1518001a113ee8c4cb325a05fa27c82f91acca4ceb9a811f9f0029",
  "source": "pragma solidity 0.4.18;\r\n\r\nimport './RequestBurnManagerInterface.sol';\r\nimport '../base/math/SafeMath.sol';\r\nimport '../base/lifecycle/Pausable.sol';\r\n\r\n/**\r\n * @title RequestBurnManagerSimple\r\n *\r\n * @dev RequestBurnManagerSimple is a contract managing the fees in the most simple way (percentage of the expected amount)\r\n */\r\ncontract RequestBurnManagerSimple is RequestBurnManagerInterface, Pausable {\r\n\tusing SafeMath for uint256;\r\n\r\n\t// fees percentage (per 10 000)\r\n\tuint16 public feesPerTenThousand;\r\n\r\n\t// address of the contract that will burn req token (probably through Kyber)\r\n\taddress public reqBurnerContract;\r\n\r\n\t/*\r\n\t * @dev Constructor\r\n\t * @param _requestCoreAddress Request Core address\r\n\t */  \r\n\tfunction RequestBurnManagerSimple(address _reqBurnerContract) \r\n\t\tpublic\r\n\t{\r\n\t\treqBurnerContract = _reqBurnerContract;\r\n\t}\r\n\r\n\t/*\r\n\t * @dev collect Fees\r\n\t * @param _requestId Request id\r\n\t */  \r\n\tfunction collectForReqBurning(int256 _expectedAmount, address _currencyContract, address _extension)\r\n\t\texternal\r\n\t\tpayable\r\n\t\treturns(bool)\r\n\t{\r\n\t\tif(collectEstimation(_expectedAmount,_currencyContract,_extension)==msg.value) {\r\n\t\t\treturn reqBurnerContract.send(msg.value);\r\n\t\t} else {\r\n\t\t\treturn false;\r\n\t\t}\r\n\t}\r\n\r\n\t/*\r\n\t * @dev computeFees\r\n\t * @param _requestId Request id\r\n\t * @return \r\n\t */  \r\n\tfunction collectEstimation(int256 _expectedAmount, address _currencyContract, address _extension)\r\n\t\tpublic\r\n\t\tview\r\n\t\treturns(uint256)\r\n\t{\r\n\t\tif(_expectedAmount<0) return 0;\r\n\t\treturn uint256(_expectedAmount).mul(uint256(feesPerTenThousand)).div(10000);\r\n\t}\r\n\r\n\r\n\t/*\r\n\t * @dev computeFees\r\n\t * @param _requestId Request id\r\n\t * @return \r\n\t */  \r\n\tfunction setFeesPerTenThousand(uint16 _newFees) \r\n\t\texternal\r\n\t\tonlyOwner\r\n\t{\r\n\t\tfeesPerTenThousand=_newFees;\r\n\t}\r\n\r\n\t/*\r\n\t * @dev setReqBurnerContract\r\n\t * @param _reqBurnerContract address of the contract that will burn req token (probably through Kyber)\r\n\t * @return \r\n\t */  \r\n\tfunction setReqBurnerContract(address _reqBurnerContract) \r\n\t\texternal\r\n\t\tonlyOwner\r\n\t{\r\n\t\treqBurnerContract=_reqBurnerContract;\r\n\t}\r\n}\r\n",
  "sourcePath": "C:\\Users\\vince\\Documents\\Request\\git\\Request_SmartContracts\\contracts\\collect\\RequestBurnManagerSimple.sol",
  "compiler": {
    "name": "solc",
    "version": "0.4.18+commit.9cf6e910.Emscripten.clang"
  },
  "schemaVersion": "1.0.1",
  "updatedAt": "2017-12-05T15:50:22.621Z"
}