{
  "contractName": "RequestCore",
  "abi": [
    {
      "constant": true,
      "inputs": [
        {
          "name": "_requestId",
          "type": "bytes32"
        }
      ],
      "name": "getPayee",
      "outputs": [
        {
          "name": "",
          "type": "address"
        }
      ],
      "payable": false,
      "stateMutability": "view",
      "type": "function"
    },
    {
      "constant": false,
      "inputs": [
        {
          "name": "_oldTrustedContractAddress",
          "type": "address"
        }
      ],
      "name": "adminRemoveTrustedCurrencyContract",
      "outputs": [],
      "payable": false,
      "stateMutability": "nonpayable",
      "type": "function"
    },
    {
      "constant": true,
      "inputs": [
        {
          "name": "_requestId",
          "type": "bytes32"
        }
      ],
      "name": "getState",
      "outputs": [
        {
          "name": "",
          "type": "uint8"
        }
      ],
      "payable": false,
      "stateMutability": "view",
      "type": "function"
    },
    {
      "constant": false,
      "inputs": [
        {
          "name": "_creator",
          "type": "address"
        },
        {
          "name": "_payee",
          "type": "address"
        },
        {
          "name": "_payer",
          "type": "address"
        },
        {
          "name": "_expectedAmount",
          "type": "int256"
        },
        {
          "name": "_extension",
          "type": "address"
        },
        {
          "name": "_data",
          "type": "string"
        }
      ],
      "name": "createRequest",
      "outputs": [
        {
          "name": "requestId",
          "type": "bytes32"
        }
      ],
      "payable": true,
      "stateMutability": "payable",
      "type": "function"
    },
    {
      "constant": false,
      "inputs": [
        {
          "name": "_requestId",
          "type": "bytes32"
        },
        {
          "name": "_extension",
          "type": "address"
        }
      ],
      "name": "setExtension",
      "outputs": [],
      "payable": false,
      "stateMutability": "nonpayable",
      "type": "function"
    },
    {
      "constant": false,
      "inputs": [
        {
          "name": "_requestId",
          "type": "bytes32"
        },
        {
          "name": "_payer",
          "type": "address"
        }
      ],
      "name": "setPayer",
      "outputs": [],
      "payable": false,
      "stateMutability": "nonpayable",
      "type": "function"
    },
    {
      "constant": true,
      "inputs": [],
      "name": "trustedNewBurnManager",
      "outputs": [
        {
          "name": "",
          "type": "address"
        }
      ],
      "payable": false,
      "stateMutability": "view",
      "type": "function"
    },
    {
      "constant": false,
      "inputs": [
        {
          "name": "_requestId",
          "type": "bytes32"
        },
        {
          "name": "_data",
          "type": "string"
        }
      ],
      "name": "setData",
      "outputs": [],
      "payable": false,
      "stateMutability": "nonpayable",
      "type": "function"
    },
    {
      "constant": false,
      "inputs": [
        {
          "name": "_oldExtension",
          "type": "address"
        }
      ],
      "name": "adminRemoveExtension",
      "outputs": [],
      "payable": false,
      "stateMutability": "nonpayable",
      "type": "function"
    },
    {
      "constant": false,
      "inputs": [],
      "name": "unpause",
      "outputs": [],
      "payable": false,
      "stateMutability": "nonpayable",
      "type": "function"
    },
    {
      "constant": false,
      "inputs": [
        {
          "name": "_requestId",
          "type": "bytes32"
        },
        {
          "name": "_expectedAmount",
          "type": "int256"
        }
      ],
      "name": "setExpectedAmount",
      "outputs": [],
      "payable": false,
      "stateMutability": "nonpayable",
      "type": "function"
    },
    {
      "constant": true,
      "inputs": [],
      "name": "paused",
      "outputs": [
        {
          "name": "",
          "type": "bool"
        }
      ],
      "payable": false,
      "stateMutability": "view",
      "type": "function"
    },
    {
      "constant": false,
      "inputs": [
        {
          "name": "_requestId",
          "type": "bytes32"
        },
        {
          "name": "_deltaAmount",
          "type": "int256"
        }
      ],
      "name": "updateBalance",
      "outputs": [],
      "payable": false,
      "stateMutability": "nonpayable",
      "type": "function"
    },
    {
      "constant": true,
      "inputs": [
        {
          "name": "_expectedAmount",
          "type": "int256"
        },
        {
          "name": "_currencyContract",
          "type": "address"
        },
        {
          "name": "_extension",
          "type": "address"
        }
      ],
      "name": "getCollectEstimation",
      "outputs": [
        {
          "name": "",
          "type": "uint256"
        }
      ],
      "payable": false,
      "stateMutability": "view",
      "type": "function"
    },
    {
      "constant": false,
      "inputs": [],
      "name": "pause",
      "outputs": [],
      "payable": false,
      "stateMutability": "nonpayable",
      "type": "function"
    },
    {
      "constant": false,
      "inputs": [
        {
          "name": "_newContractAddress",
          "type": "address"
        }
      ],
      "name": "adminAddTrustedCurrencyContract",
      "outputs": [],
      "payable": false,
      "stateMutability": "nonpayable",
      "type": "function"
    },
    {
      "constant": true,
      "inputs": [
        {
          "name": "",
          "type": "address"
        }
      ],
      "name": "trustedCurrencyContracts",
      "outputs": [
        {
          "name": "",
          "type": "uint8"
        }
      ],
      "payable": false,
      "stateMutability": "view",
      "type": "function"
    },
    {
      "constant": true,
      "inputs": [],
      "name": "owner",
      "outputs": [
        {
          "name": "",
          "type": "address"
        }
      ],
      "payable": false,
      "stateMutability": "view",
      "type": "function"
    },
    {
      "constant": true,
      "inputs": [
        {
          "name": "_requestId",
          "type": "bytes32"
        }
      ],
      "name": "getBalance",
      "outputs": [
        {
          "name": "",
          "type": "int256"
        }
      ],
      "payable": false,
      "stateMutability": "view",
      "type": "function"
    },
    {
      "constant": true,
      "inputs": [
        {
          "name": "_extension",
          "type": "address"
        }
      ],
      "name": "getStatusExtension",
      "outputs": [
        {
          "name": "",
          "type": "uint8"
        }
      ],
      "payable": false,
      "stateMutability": "view",
      "type": "function"
    },
    {
      "constant": false,
      "inputs": [
        {
          "name": "_newBurnManager",
          "type": "address"
        }
      ],
      "name": "setBurnManager",
      "outputs": [],
      "payable": false,
      "stateMutability": "nonpayable",
      "type": "function"
    },
    {
      "constant": true,
      "inputs": [
        {
          "name": "",
          "type": "bytes32"
        }
      ],
      "name": "requests",
      "outputs": [
        {
          "name": "creator",
          "type": "address"
        },
        {
          "name": "payee",
          "type": "address"
        },
        {
          "name": "payer",
          "type": "address"
        },
        {
          "name": "expectedAmount",
          "type": "int256"
        },
        {
          "name": "currencyContract",
          "type": "address"
        },
        {
          "name": "balance",
          "type": "int256"
        },
        {
          "name": "state",
          "type": "uint8"
        },
        {
          "name": "extension",
          "type": "address"
        },
        {
          "name": "data",
          "type": "string"
        }
      ],
      "payable": false,
      "stateMutability": "view",
      "type": "function"
    },
    {
      "constant": true,
      "inputs": [
        {
          "name": "_requestId",
          "type": "bytes32"
        }
      ],
      "name": "getCurrencyContract",
      "outputs": [
        {
          "name": "",
          "type": "address"
        }
      ],
      "payable": false,
      "stateMutability": "view",
      "type": "function"
    },
    {
      "constant": true,
      "inputs": [],
      "name": "numRequests",
      "outputs": [
        {
          "name": "",
          "type": "uint256"
        }
      ],
      "payable": false,
      "stateMutability": "view",
      "type": "function"
    },
    {
      "constant": true,
      "inputs": [
        {
          "name": "_requestId",
          "type": "bytes32"
        }
      ],
      "name": "getPayer",
      "outputs": [
        {
          "name": "",
          "type": "address"
        }
      ],
      "payable": false,
      "stateMutability": "view",
      "type": "function"
    },
    {
      "constant": false,
      "inputs": [
        {
          "name": "_newExtension",
          "type": "address"
        }
      ],
      "name": "adminAddTrustedExtension",
      "outputs": [],
      "payable": false,
      "stateMutability": "nonpayable",
      "type": "function"
    },
    {
      "constant": true,
      "inputs": [
        {
          "name": "_requestId",
          "type": "bytes32"
        }
      ],
      "name": "getExtension",
      "outputs": [
        {
          "name": "",
          "type": "address"
        }
      ],
      "payable": false,
      "stateMutability": "view",
      "type": "function"
    },
    {
      "constant": false,
      "inputs": [
        {
          "name": "_requestId",
          "type": "bytes32"
        }
      ],
      "name": "cancel",
      "outputs": [],
      "payable": false,
      "stateMutability": "nonpayable",
      "type": "function"
    },
    {
      "constant": true,
      "inputs": [
        {
          "name": "",
          "type": "address"
        }
      ],
      "name": "trustedExtensions",
      "outputs": [
        {
          "name": "",
          "type": "uint8"
        }
      ],
      "payable": false,
      "stateMutability": "view",
      "type": "function"
    },
    {
      "constant": false,
      "inputs": [
        {
          "name": "_requestId",
          "type": "bytes32"
        },
        {
          "name": "_payee",
          "type": "address"
        }
      ],
      "name": "setPayee",
      "outputs": [],
      "payable": false,
      "stateMutability": "nonpayable",
      "type": "function"
    },
    {
      "constant": false,
      "inputs": [
        {
          "name": "_requestId",
          "type": "bytes32"
        }
      ],
      "name": "accept",
      "outputs": [],
      "payable": false,
      "stateMutability": "nonpayable",
      "type": "function"
    },
    {
      "constant": false,
      "inputs": [
        {
          "name": "newOwner",
          "type": "address"
        }
      ],
      "name": "transferOwnership",
      "outputs": [],
      "payable": false,
      "stateMutability": "nonpayable",
      "type": "function"
    },
    {
      "constant": false,
      "inputs": [
        {
          "name": "_requestId",
          "type": "bytes32"
        },
        {
          "name": "_deltaAmount",
          "type": "int256"
        }
      ],
      "name": "updateExpectedAmount",
      "outputs": [],
      "payable": false,
      "stateMutability": "nonpayable",
      "type": "function"
    },
    {
      "constant": true,
      "inputs": [
        {
          "name": "_contractAddress",
          "type": "address"
        }
      ],
      "name": "getStatusContract",
      "outputs": [
        {
          "name": "",
          "type": "uint8"
        }
      ],
      "payable": false,
      "stateMutability": "view",
      "type": "function"
    },
    {
      "constant": true,
      "inputs": [
        {
          "name": "_requestId",
          "type": "bytes32"
        }
      ],
      "name": "getExpectedAmount",
      "outputs": [
        {
          "name": "",
          "type": "int256"
        }
      ],
      "payable": false,
      "stateMutability": "view",
      "type": "function"
    },
    {
      "constant": true,
      "inputs": [],
      "name": "VERSION",
      "outputs": [
        {
          "name": "",
          "type": "uint32"
        }
      ],
      "payable": false,
      "stateMutability": "view",
      "type": "function"
    },
    {
      "inputs": [],
      "payable": false,
      "stateMutability": "nonpayable",
      "type": "constructor"
    },
    {
      "anonymous": false,
      "inputs": [
        {
          "indexed": false,
          "name": "requestId",
          "type": "bytes32"
        },
        {
          "indexed": false,
          "name": "payee",
          "type": "address"
        },
        {
          "indexed": false,
          "name": "payer",
          "type": "address"
        }
      ],
      "name": "Created",
      "type": "event"
    },
    {
      "anonymous": false,
      "inputs": [
        {
          "indexed": false,
          "name": "requestId",
          "type": "bytes32"
        }
      ],
      "name": "Accepted",
      "type": "event"
    },
    {
      "anonymous": false,
      "inputs": [
        {
          "indexed": false,
          "name": "requestId",
          "type": "bytes32"
        }
      ],
      "name": "Canceled",
      "type": "event"
    },
    {
      "anonymous": false,
      "inputs": [
        {
          "indexed": false,
          "name": "requestId",
          "type": "bytes32"
        },
        {
          "indexed": false,
          "name": "deltaAmount",
          "type": "int256"
        }
      ],
      "name": "UpdateBalance",
      "type": "event"
    },
    {
      "anonymous": false,
      "inputs": [
        {
          "indexed": false,
          "name": "requestId",
          "type": "bytes32"
        },
        {
          "indexed": false,
          "name": "deltaAmount",
          "type": "int256"
        }
      ],
      "name": "UpdateExpectedAmount",
      "type": "event"
    },
    {
      "anonymous": false,
      "inputs": [
        {
          "indexed": false,
          "name": "requestId",
          "type": "bytes32"
        },
        {
          "indexed": false,
          "name": "payee",
          "type": "address"
        }
      ],
      "name": "NewPayee",
      "type": "event"
    },
    {
      "anonymous": false,
      "inputs": [
        {
          "indexed": false,
          "name": "requestId",
          "type": "bytes32"
        },
        {
          "indexed": false,
          "name": "payer",
          "type": "address"
        }
      ],
      "name": "NewPayer",
      "type": "event"
    },
    {
      "anonymous": false,
      "inputs": [
        {
          "indexed": false,
          "name": "requestId",
          "type": "bytes32"
        },
        {
          "indexed": false,
          "name": "expectedAmount",
          "type": "int256"
        }
      ],
      "name": "NewExpectedAmount",
      "type": "event"
    },
    {
      "anonymous": false,
      "inputs": [
        {
          "indexed": false,
          "name": "requestId",
          "type": "bytes32"
        },
        {
          "indexed": false,
          "name": "extension",
          "type": "address"
        }
      ],
      "name": "NewExtension",
      "type": "event"
    },
    {
      "anonymous": false,
      "inputs": [
        {
          "indexed": false,
          "name": "requestId",
          "type": "bytes32"
        },
        {
          "indexed": false,
          "name": "data",
          "type": "string"
        }
      ],
      "name": "NewData",
      "type": "event"
    },
    {
      "anonymous": false,
      "inputs": [
        {
          "indexed": false,
          "name": "newContract",
          "type": "address"
        }
      ],
      "name": "NewTrustedContract",
      "type": "event"
    },
    {
      "anonymous": false,
      "inputs": [
        {
          "indexed": false,
          "name": "oldContract",
          "type": "address"
        }
      ],
      "name": "RemoveTrustedContract",
      "type": "event"
    },
    {
      "anonymous": false,
      "inputs": [
        {
          "indexed": false,
          "name": "newExtension",
          "type": "address"
        }
      ],
      "name": "NewTrustedExtension",
      "type": "event"
    },
    {
      "anonymous": false,
      "inputs": [
        {
          "indexed": false,
          "name": "oldExtension",
          "type": "address"
        }
      ],
      "name": "RemoveTrustedExtension",
      "type": "event"
    },
    {
      "anonymous": false,
      "inputs": [
        {
          "indexed": false,
          "name": "newFeesManager",
          "type": "address"
        }
      ],
      "name": "NewBurnManager",
      "type": "event"
    },
    {
      "anonymous": false,
      "inputs": [],
      "name": "Pause",
      "type": "event"
    },
    {
      "anonymous": false,
      "inputs": [],
      "name": "Unpause",
      "type": "event"
    },
    {
      "anonymous": false,
      "inputs": [
        {
          "indexed": true,
          "name": "previousOwner",
          "type": "address"
        },
        {
          "indexed": true,
          "name": "newOwner",
          "type": "address"
        }
      ],
      "name": "OwnershipTransferred",
      "type": "event"
    }
  ],
  "bytecode": "0x606060405260008060146101000a81548160ff021916908315150217905550341561002957600080fd5b336000806101000a81548173ffffffffffffffffffffffffffffffffffffffff021916908373ffffffffffffffffffffffffffffffffffffffff1602179055506000600481905550612d31806100806000396000f3006060604052600436106101c1576000357c0100000000000000000000000000000000000000000000000000000000900463ffffffff168062ca2f75146101c65780630410fac71461022d57806309648a9d146102665780630cf45091146102af5780630d799b8514610373578063141dfcef146103b9578063161d3abb146103ff5780632d3e653614610454578063304ebbc41461048f5780633f4ba83a146104c857806354fe2499146104dd5780635c975abb1461050d57806379455ff51461053a5780637f538fd61461056a5780638456cb59146105df578063857bcb2c146105f45780638a80faeb1461062d5780638da5cb5b146106805780638e739461146106d5578063919c90a61461071057806396b5059d146107635780639d8669851461079c5780639e3572b51461097b5780639fb42b1f146109e2578063a12cad7014610a0b578063a246a6f514610a72578063c139626b14610aab578063c4d252f514610b12578063c868154914610b39578063ca7be8af14610b8c578063e4725ba114610bd2578063f2fde38b14610bf9578063f3479fe814610c32578063f8db71b514610c62578063fcc01cce14610cb5578063ffa1ad7414610cf0575b600080fd5b34156101d157600080fd5b6101eb600480803560001916906020019091905050610d25565b604051808273ffffffffffffffffffffffffffffffffffffffff1673ffffffffffffffffffffffffffffffffffffffff16815260200191505060405180910390f35b341561023857600080fd5b610264600480803573ffffffffffffffffffffffffffffffffffffffff16906020019091905050610d6d565b005b341561027157600080fd5b61028b600480803560001916906020019091905050610ee6565b6040518082600281111561029b57fe5b60ff16815260200191505060405180910390f35b610355600480803573ffffffffffffffffffffffffffffffffffffffff1690602001909190803573ffffffffffffffffffffffffffffffffffffffff1690602001909190803573ffffffffffffffffffffffffffffffffffffffff1690602001909190803590602001909190803573ffffffffffffffffffffffffffffffffffffffff169060200190919080359060200190820180359060200191909192905050610f1b565b60405180826000191660001916815260200191505060405180910390f35b341561037e57600080fd5b6103b760048080356000191690602001909190803573ffffffffffffffffffffffffffffffffffffffff16906020019091905050611551565b005b34156103c457600080fd5b6103fd60048080356000191690602001909190803573ffffffffffffffffffffffffffffffffffffffff16906020019091905050611724565b005b341561040a57600080fd5b610412611876565b604051808273ffffffffffffffffffffffffffffffffffffffff1673ffffffffffffffffffffffffffffffffffffffff16815260200191505060405180910390f35b341561045f57600080fd5b61048d600480803560001916906020019091908035906020019082018035906020019190919290505061189c565b005b341561049a57600080fd5b6104c6600480803573ffffffffffffffffffffffffffffffffffffffff169060200190919050506119ae565b005b34156104d357600080fd5b6104db611b27565b005b34156104e857600080fd5b61050b600480803560001916906020019091908035906020019091905050611be5565b005b341561051857600080fd5b610520611cd1565b604051808215151515815260200191505060405180910390f35b341561054557600080fd5b610568600480803560001916906020019091908035906020019091905050611ce4565b005b341561057557600080fd5b6105c9600480803590602001909190803573ffffffffffffffffffffffffffffffffffffffff1690602001909190803573ffffffffffffffffffffffffffffffffffffffff16906020019091905050611dcc565b6040518082815260200191505060405180910390f35b34156105ea57600080fd5b6105f2611ef3565b005b34156105ff57600080fd5b61062b600480803573ffffffffffffffffffffffffffffffffffffffff16906020019091905050611fb3565b005b341561063857600080fd5b610664600480803573ffffffffffffffffffffffffffffffffffffffff169060200190919050506120cc565b604051808260ff1660ff16815260200191505060405180910390f35b341561068b57600080fd5b6106936120ec565b604051808273ffffffffffffffffffffffffffffffffffffffff1673ffffffffffffffffffffffffffffffffffffffff16815260200191505060405180910390f35b34156106e057600080fd5b6106fa600480803560001916906020019091905050612111565b6040518082815260200191505060405180910390f35b341561071b57600080fd5b610747600480803573ffffffffffffffffffffffffffffffffffffffff16906020019091905050612139565b604051808260ff1660ff16815260200191505060405180910390f35b341561076e57600080fd5b61079a600480803573ffffffffffffffffffffffffffffffffffffffff1690602001909190505061218f565b005b34156107a757600080fd5b6107c1600480803560001916906020019091905050612291565b604051808a73ffffffffffffffffffffffffffffffffffffffff1673ffffffffffffffffffffffffffffffffffffffff1681526020018973ffffffffffffffffffffffffffffffffffffffff1673ffffffffffffffffffffffffffffffffffffffff1681526020018873ffffffffffffffffffffffffffffffffffffffff1673ffffffffffffffffffffffffffffffffffffffff1681526020018781526020018673ffffffffffffffffffffffffffffffffffffffff1673ffffffffffffffffffffffffffffffffffffffff1681526020018581526020018460028111156108a557fe5b60ff1681526020018373ffffffffffffffffffffffffffffffffffffffff1673ffffffffffffffffffffffffffffffffffffffff168152602001806020018281038252838181546001816001161561010002031660029004815260200191508054600181600116156101000203166002900480156109645780601f1061093957610100808354040283529160200191610964565b820191906000526020600020905b81548152906001019060200180831161094757829003601f168201915b50509a505050505050505050505060405180910390f35b341561098657600080fd5b6109a060048080356000191690602001909190505061238b565b604051808273ffffffffffffffffffffffffffffffffffffffff1673ffffffffffffffffffffffffffffffffffffffff16815260200191505060405180910390f35b34156109ed57600080fd5b6109f56123d3565b6040518082815260200191505060405180910390f35b3415610a1657600080fd5b610a306004808035600019169060200190919050506123d9565b604051808273ffffffffffffffffffffffffffffffffffffffff1673ffffffffffffffffffffffffffffffffffffffff16815260200191505060405180910390f35b3415610a7d57600080fd5b610aa9600480803573ffffffffffffffffffffffffffffffffffffffff16906020019091905050612421565b005b3415610ab657600080fd5b610ad060048080356000191690602001909190505061253b565b604051808273ffffffffffffffffffffffffffffffffffffffff1673ffffffffffffffffffffffffffffffffffffffff16815260200191505060405180910390f35b3415610b1d57600080fd5b610b37600480803560001916906020019091905050612583565b005b3415610b4457600080fd5b610b70600480803573ffffffffffffffffffffffffffffffffffffffff16906020019091905050612669565b604051808260ff1660ff16815260200191505060405180910390f35b3415610b9757600080fd5b610bd060048080356000191690602001909190803573ffffffffffffffffffffffffffffffffffffffff16906020019091905050612689565b005b3415610bdd57600080fd5b610bf76004808035600019169060200190919050506127db565b005b3415610c0457600080fd5b610c30600480803573ffffffffffffffffffffffffffffffffffffffff169060200190919050506128c1565b005b3415610c3d57600080fd5b610c60600480803560001916906020019091908035906020019091905050612a16565b005b3415610c6d57600080fd5b610c99600480803573ffffffffffffffffffffffffffffffffffffffff16906020019091905050612afe565b604051808260ff1660ff16815260200191505060405180910390f35b3415610cc057600080fd5b610cda600480803560001916906020019091905050612b54565b6040518082815260200191505060405180910390f35b3415610cfb57600080fd5b610d03612b7c565b604051808263ffffffff1663ffffffff16815260200191505060405180910390f35b600060056000836000191660001916815260200190815260200160002060010160009054906101000a900473ffffffffffffffffffffffffffffffffffffffff169050919050565b6000809054906101000a900473ffffffffffffffffffffffffffffffffffffffff1673ffffffffffffffffffffffffffffffffffffffff163373ffffffffffffffffffffffffffffffffffffffff16141515610dc857600080fd5b6000600160008373ffffffffffffffffffffffffffffffffffffffff1673ffffffffffffffffffffffffffffffffffffffff16815260200190815260200160002060009054906101000a900460ff1660ff1614151515610e2757600080fd5b6000600160008373ffffffffffffffffffffffffffffffffffffffff1673ffffffffffffffffffffffffffffffffffffffff16815260200190815260200160002060006101000a81548160ff021916908360ff1602179055507f37e1aad3ab2362f3de04d0fe2369a3dd3596a8c79745fb1345df1336f07cb72881604051808273ffffffffffffffffffffffffffffffffffffffff1673ffffffffffffffffffffffffffffffffffffffff16815260200191505060405180910390a150565b600060056000836000191660001916815260200190815260200160002060060160009054906101000a900460ff169050919050565b60008060149054906101000a900460ff16151515610f3857600080fd5b3360018060008373ffffffffffffffffffffffffffffffffffffffff1673ffffffffffffffffffffffffffffffffffffffff16815260200190815260200160002060009054906101000a900460ff1660ff16141515610f9657600080fd5b8460008173ffffffffffffffffffffffffffffffffffffffff16148061100b57506001600260008373ffffffffffffffffffffffffffffffffffffffff1673ffffffffffffffffffffffffffffffffffffffff16815260200190815260200160002060009054906101000a900460ff1660ff16145b151561101657600080fd5b8960008173ffffffffffffffffffffffffffffffffffffffff161415151561103d57600080fd5b6110536001600454612b8190919063ffffffff16565b6004819055506004546001604051808381526020018263ffffffff1663ffffffff167c01000000000000000000000000000000000000000000000000000000000281526004019250505060405180910390209350610120604051908101604052808c73ffffffffffffffffffffffffffffffffffffffff1681526020018b73ffffffffffffffffffffffffffffffffffffffff1681526020018a73ffffffffffffffffffffffffffffffffffffffff1681526020018981526020013373ffffffffffffffffffffffffffffffffffffffff168152602001600081526020016000600281111561113e57fe5b81526020018873ffffffffffffffffffffffffffffffffffffffff16815260200187878080601f01602080910402602001604051908101604052809392919081815260200183838082843782019150505050505081525060056000866000191660001916815260200190815260200160002060008201518160000160006101000a81548173ffffffffffffffffffffffffffffffffffffffff021916908373ffffffffffffffffffffffffffffffffffffffff16021790555060208201518160010160006101000a81548173ffffffffffffffffffffffffffffffffffffffff021916908373ffffffffffffffffffffffffffffffffffffffff16021790555060408201518160020160006101000a81548173ffffffffffffffffffffffffffffffffffffffff021916908373ffffffffffffffffffffffffffffffffffffffff1602179055506060820151816003015560808201518160040160006101000a81548173ffffffffffffffffffffffffffffffffffffffff021916908373ffffffffffffffffffffffffffffffffffffffff16021790555060a0820151816005015560c08201518160060160006101000a81548160ff0219169083600281111561130457fe5b021790555060e08201518160060160016101000a81548173ffffffffffffffffffffffffffffffffffffffff021916908373ffffffffffffffffffffffffffffffffffffffff16021790555061010082015181600701908051906020019061136d929190612be0565b50905050600360009054906101000a900473ffffffffffffffffffffffffffffffffffffffff1673ffffffffffffffffffffffffffffffffffffffff1663720d3f49348a338b6000604051602001526040518563ffffffff167c0100000000000000000000000000000000000000000000000000000000028152600401808481526020018373ffffffffffffffffffffffffffffffffffffffff1673ffffffffffffffffffffffffffffffffffffffff1681526020018273ffffffffffffffffffffffffffffffffffffffff1673ffffffffffffffffffffffffffffffffffffffff16815260200193505050506020604051808303818588803b151561147257600080fd5b6125ee5a03f1151561148357600080fd5b5050505060405180519050151561149957600080fd5b7fe6d28c9f55198aba8818ea50c42929faefa033fb2984d9095b4da1e999347478848b8b6040518084600019166000191681526020018373ffffffffffffffffffffffffffffffffffffffff1673ffffffffffffffffffffffffffffffffffffffff1681526020018273ffffffffffffffffffffffffffffffffffffffff1673ffffffffffffffffffffffffffffffffffffffff168152602001935050505060405180910390a1839350505050979650505050505050565b60008160008173ffffffffffffffffffffffffffffffffffffffff1614806115c857506001600260008373ffffffffffffffffffffffffffffffffffffffff1673ffffffffffffffffffffffffffffffffffffffff16815260200190815260200160002060009054906101000a900460ff1660ff16145b15156115d357600080fd5b60056000856000191660001916815260200190815260200160002091503373ffffffffffffffffffffffffffffffffffffffff168260040160009054906101000a900473ffffffffffffffffffffffffffffffffffffffff1673ffffffffffffffffffffffffffffffffffffffff1614151561164e57600080fd5b8260056000866000191660001916815260200190815260200160002060060160016101000a81548173ffffffffffffffffffffffffffffffffffffffff021916908373ffffffffffffffffffffffffffffffffffffffff1602179055507f374086d5e631a6f798d3727174cfbccdfc5bdd8a5d770a240dc23cb4b7da628084846040518083600019166000191681526020018273ffffffffffffffffffffffffffffffffffffffff1673ffffffffffffffffffffffffffffffffffffffff1681526020019250505060405180910390a150505050565b600060056000846000191660001916815260200190815260200160002090503373ffffffffffffffffffffffffffffffffffffffff168160040160009054906101000a900473ffffffffffffffffffffffffffffffffffffffff1673ffffffffffffffffffffffffffffffffffffffff161415156117a157600080fd5b8160056000856000191660001916815260200190815260200160002060020160006101000a81548173ffffffffffffffffffffffffffffffffffffffff021916908373ffffffffffffffffffffffffffffffffffffffff1602179055507fb993313924b36bd849fa52d0a074e373a396c05011da3e24549e065c1b2213f583836040518083600019166000191681526020018273ffffffffffffffffffffffffffffffffffffffff1673ffffffffffffffffffffffffffffffffffffffff1681526020019250505060405180910390a1505050565b600360009054906101000a900473ffffffffffffffffffffffffffffffffffffffff1681565b600060056000856000191660001916815260200190815260200160002090503373ffffffffffffffffffffffffffffffffffffffff168160040160009054906101000a900473ffffffffffffffffffffffffffffffffffffffff1673ffffffffffffffffffffffffffffffffffffffff1614151561191957600080fd5b82826005600087600019166000191681526020019081526020016000206007019190611946929190612c60565b507ff28775c10f46f84af2b7fd9bfc55f99af42f604d9e14c4f39c9e7c73b0834929848484604051808460001916600019168152602001806020018281038252848482818152602001925080828437820191505094505050505060405180910390a150505050565b6000809054906101000a900473ffffffffffffffffffffffffffffffffffffffff1673ffffffffffffffffffffffffffffffffffffffff163373ffffffffffffffffffffffffffffffffffffffff16141515611a0957600080fd5b6000600260008373ffffffffffffffffffffffffffffffffffffffff1673ffffffffffffffffffffffffffffffffffffffff16815260200190815260200160002060009054906101000a900460ff1660ff1614151515611a6857600080fd5b6000600260008373ffffffffffffffffffffffffffffffffffffffff1673ffffffffffffffffffffffffffffffffffffffff16815260200190815260200160002060006101000a81548160ff021916908360ff1602179055507fdc9a204d909138de82035fe2db864cb4bd386a905d05418e46cc3c2983d5bb8b81604051808273ffffffffffffffffffffffffffffffffffffffff1673ffffffffffffffffffffffffffffffffffffffff16815260200191505060405180910390a150565b6000809054906101000a900473ffffffffffffffffffffffffffffffffffffffff1673ffffffffffffffffffffffffffffffffffffffff163373ffffffffffffffffffffffffffffffffffffffff16141515611b8257600080fd5b600060149054906101000a900460ff161515611b9d57600080fd5b60008060146101000a81548160ff0219169083151502179055507f7805862f689e2f13df9f062ff482ad3ad112aca9e0847911ed832e158c525b3360405160405180910390a1565b600060056000846000191660001916815260200190815260200160002090503373ffffffffffffffffffffffffffffffffffffffff168160040160009054906101000a900473ffffffffffffffffffffffffffffffffffffffff1673ffffffffffffffffffffffffffffffffffffffff16141515611c6257600080fd5b81600560008560001916600019168152602001908152602001600020600301819055507fbaf58c8ec5a8e8ce319c874304238b79853ff6e9dcece29ff8a9dc8053bc544d83836040518083600019166000191681526020018281526020019250505060405180910390a1505050565b600060149054906101000a900460ff1681565b600060056000846000191660001916815260200190815260200160002090503373ffffffffffffffffffffffffffffffffffffffff168160040160009054906101000a900473ffffffffffffffffffffffffffffffffffffffff1673ffffffffffffffffffffffffffffffffffffffff16141515611d6157600080fd5b611d78828260050154612b9f90919063ffffffff16565b81600501819055507ff00660db1da02eadf1e0e71eb1d8c7b2d5205745aa3be7f89ade9a48884157f583836040518083600019166000191681526020018281526020019250505060405180910390a1505050565b6000600360009054906101000a900473ffffffffffffffffffffffffffffffffffffffff1673ffffffffffffffffffffffffffffffffffffffff166349ede0ca8585856000604051602001526040518463ffffffff167c0100000000000000000000000000000000000000000000000000000000028152600401808481526020018373ffffffffffffffffffffffffffffffffffffffff1673ffffffffffffffffffffffffffffffffffffffff1681526020018273ffffffffffffffffffffffffffffffffffffffff1673ffffffffffffffffffffffffffffffffffffffff1681526020019350505050602060405180830381600087803b1515611ecf57600080fd5b6102c65a03f11515611ee057600080fd5b5050506040518051905090509392505050565b6000809054906101000a900473ffffffffffffffffffffffffffffffffffffffff1673ffffffffffffffffffffffffffffffffffffffff163373ffffffffffffffffffffffffffffffffffffffff16141515611f4e57600080fd5b600060149054906101000a900460ff16151515611f6a57600080fd5b6001600060146101000a81548160ff0219169083151502179055507f6985a02210a168e66602d3235cb6db0e70f92b3ba4d376a33c0f3d9434bff62560405160405180910390a1565b6000809054906101000a900473ffffffffffffffffffffffffffffffffffffffff1673ffffffffffffffffffffffffffffffffffffffff163373ffffffffffffffffffffffffffffffffffffffff1614151561200e57600080fd5b60018060008373ffffffffffffffffffffffffffffffffffffffff1673ffffffffffffffffffffffffffffffffffffffff16815260200190815260200160002060006101000a81548160ff021916908360ff1602179055507f26644c0325b712ffff764a64a71985fb39d46406ffb32dd76c3ca00c56136a5781604051808273ffffffffffffffffffffffffffffffffffffffff1673ffffffffffffffffffffffffffffffffffffffff16815260200191505060405180910390a150565b60016020528060005260406000206000915054906101000a900460ff1681565b6000809054906101000a900473ffffffffffffffffffffffffffffffffffffffff1681565b6000600560008360001916600019168152602001908152602001600020600501549050919050565b6000600260008373ffffffffffffffffffffffffffffffffffffffff1673ffffffffffffffffffffffffffffffffffffffff16815260200190815260200160002060009054906101000a900460ff169050919050565b6000809054906101000a900473ffffffffffffffffffffffffffffffffffffffff1673ffffffffffffffffffffffffffffffffffffffff163373ffffffffffffffffffffffffffffffffffffffff161415156121ea57600080fd5b80600360006101000a81548173ffffffffffffffffffffffffffffffffffffffff021916908373ffffffffffffffffffffffffffffffffffffffff1602179055507f948381ee40839db1c971aa81c1d539a1f8f5f01b0d857bf1a321e9ae5038261a81604051808273ffffffffffffffffffffffffffffffffffffffff1673ffffffffffffffffffffffffffffffffffffffff16815260200191505060405180910390a150565b60056020528060005260406000206000915090508060000160009054906101000a900473ffffffffffffffffffffffffffffffffffffffff16908060010160009054906101000a900473ffffffffffffffffffffffffffffffffffffffff16908060020160009054906101000a900473ffffffffffffffffffffffffffffffffffffffff16908060030154908060040160009054906101000a900473ffffffffffffffffffffffffffffffffffffffff16908060050154908060060160009054906101000a900460ff16908060060160019054906101000a900473ffffffffffffffffffffffffffffffffffffffff169080600701905089565b600060056000836000191660001916815260200190815260200160002060040160009054906101000a900473ffffffffffffffffffffffffffffffffffffffff169050919050565b60045481565b600060056000836000191660001916815260200190815260200160002060020160009054906101000a900473ffffffffffffffffffffffffffffffffffffffff169050919050565b6000809054906101000a900473ffffffffffffffffffffffffffffffffffffffff1673ffffffffffffffffffffffffffffffffffffffff163373ffffffffffffffffffffffffffffffffffffffff1614151561247c57600080fd5b6001600260008373ffffffffffffffffffffffffffffffffffffffff1673ffffffffffffffffffffffffffffffffffffffff16815260200190815260200160002060006101000a81548160ff021916908360ff1602179055507ff86a6607d50e3e49c32332972e579f045ace5af1902162e45ac1802ccc006ff981604051808273ffffffffffffffffffffffffffffffffffffffff1673ffffffffffffffffffffffffffffffffffffffff16815260200191505060405180910390a150565b600060056000836000191660001916815260200190815260200160002060060160019054906101000a900473ffffffffffffffffffffffffffffffffffffffff169050919050565b600060056000836000191660001916815260200190815260200160002090503373ffffffffffffffffffffffffffffffffffffffff168160040160009054906101000a900473ffffffffffffffffffffffffffffffffffffffff1673ffffffffffffffffffffffffffffffffffffffff1614151561260057600080fd5b60028160060160006101000a81548160ff0219169083600281111561262157fe5b02179055507f134fdd648feeaf30251f0157f9624ef8608ff9a042aad6d13e73f35d21d3f88d8260405180826000191660001916815260200191505060405180910390a15050565b60026020528060005260406000206000915054906101000a900460ff1681565b600060056000846000191660001916815260200190815260200160002090503373ffffffffffffffffffffffffffffffffffffffff168160040160009054906101000a900473ffffffffffffffffffffffffffffffffffffffff1673ffffffffffffffffffffffffffffffffffffffff1614151561270657600080fd5b8160056000856000191660001916815260200190815260200160002060010160006101000a81548173ffffffffffffffffffffffffffffffffffffffff021916908373ffffffffffffffffffffffffffffffffffffffff1602179055507f7ab45e5f9954c3a9c811a8ce60096ad2c9fcf5d574145fb241de6ecee960164683836040518083600019166000191681526020018273ffffffffffffffffffffffffffffffffffffffff1673ffffffffffffffffffffffffffffffffffffffff1681526020019250505060405180910390a1505050565b600060056000836000191660001916815260200190815260200160002090503373ffffffffffffffffffffffffffffffffffffffff168160040160009054906101000a900473ffffffffffffffffffffffffffffffffffffffff1673ffffffffffffffffffffffffffffffffffffffff1614151561285857600080fd5b60018160060160006101000a81548160ff0219169083600281111561287957fe5b02179055507f1f3c0697c3ada95f9e84a917995664b76cd8b4ae5de25e77ee111122ae3a00d08260405180826000191660001916815260200191505060405180910390a15050565b6000809054906101000a900473ffffffffffffffffffffffffffffffffffffffff1673ffffffffffffffffffffffffffffffffffffffff163373ffffffffffffffffffffffffffffffffffffffff1614151561291c57600080fd5b600073ffffffffffffffffffffffffffffffffffffffff168173ffffffffffffffffffffffffffffffffffffffff161415151561295857600080fd5b8073ffffffffffffffffffffffffffffffffffffffff166000809054906101000a900473ffffffffffffffffffffffffffffffffffffffff1673ffffffffffffffffffffffffffffffffffffffff167f8be0079c531659141344cd1fd0a4f28419497f9722a3daafe3b4186f6b6457e060405160405180910390a3806000806101000a81548173ffffffffffffffffffffffffffffffffffffffff021916908373ffffffffffffffffffffffffffffffffffffffff16021790555050565b600060056000846000191660001916815260200190815260200160002090503373ffffffffffffffffffffffffffffffffffffffff168160040160009054906101000a900473ffffffffffffffffffffffffffffffffffffffff1673ffffffffffffffffffffffffffffffffffffffff16141515612a9357600080fd5b612aaa828260030154612b9f90919063ffffffff16565b81600301819055507f1718f2b0fe4312f030ebc92a188add3d89c73d19d346c00fff5f03b79846a46083836040518083600019166000191681526020018281526020019250505060405180910390a1505050565b6000600160008373ffffffffffffffffffffffffffffffffffffffff1673ffffffffffffffffffffffffffffffffffffffff16815260200190815260200160002060009054906101000a900460ff169050919050565b6000600560008360001916600019168152602001908152602001600020600301549050919050565b600181565b6000808284019050838110151515612b9557fe5b8091505092915050565b600080828401905060008312158015612bb85750838112155b80612bce5750600083128015612bcd57508381125b5b1515612bd657fe5b8091505092915050565b828054600181600116156101000203166002900490600052602060002090601f016020900481019282601f10612c2157805160ff1916838001178555612c4f565b82800160010185558215612c4f579182015b82811115612c4e578251825591602001919060010190612c33565b5b509050612c5c9190612ce0565b5090565b828054600181600116156101000203166002900490600052602060002090601f016020900481019282601f10612ca157803560ff1916838001178555612ccf565b82800160010185558215612ccf579182015b82811115612cce578235825591602001919060010190612cb3565b5b509050612cdc9190612ce0565b5090565b612d0291905b80821115612cfe576000816000905550600101612ce6565b5090565b905600a165627a7a723058202d0dad7425ace39dfaf4223f53c6527c1f8e33dc58bfb57e7df19a16a455e2fc0029",
  "source": "pragma solidity 0.4.18;\r\n\r\nimport './Administrable.sol';\r\nimport '../base/math/SafeMath.sol';\r\nimport '../base/math/SafeMathInt.sol';\r\n\r\n/**\r\n * @title RequestCore\r\n *\r\n * @dev The Core is the main contract which store all the Requests.\r\n *\r\n * @dev The Core philosophy is to be as much flexible as possible to adapt in the future to any new system\r\n * @dev All the important conditions and an important part of the business logic takes place in the subcontracts.\r\n * @dev Requests can only be created in the subcontracts\r\n * @dev Subcontracts have to be allowed by the Core and respect the business logic.\r\n * @dev Request Network will develop one subcontracts per currency and anyone can creates its own subcontracts.\r\n */\r\ncontract RequestCore is Administrable {\r\n    // current version of the core\r\n    uint32 public constant VERSION = 1;\r\n\r\n    using SafeMath for uint256;\r\n    using SafeMathInt for int256;\r\n\r\n    enum State { Created, Accepted, Canceled }\r\n\r\n    struct Request {\r\n        address creator;\r\n        address payee;\r\n        address payer;\r\n        int256 expectedAmount;\r\n        address currencyContract;\r\n        int256 balance;\r\n        State state;\r\n        address extension;\r\n        string data;\r\n    }\r\n\r\n    // index of the Request in the mapping\r\n    uint256 public numRequests; \r\n    \r\n    // mapping of all the Requests\r\n    mapping(bytes32 => Request) public requests;\r\n\r\n    /*\r\n     *  Events \r\n     */\r\n    event Created(bytes32 requestId, address payee, address payer);\r\n    event Accepted(bytes32 requestId);\r\n    event Canceled(bytes32 requestId);\r\n    event UpdateBalance(bytes32 requestId, int256 deltaAmount);\r\n    event UpdateExpectedAmount(bytes32 requestId, int256 deltaAmount);\r\n\r\n    event NewPayee(bytes32 requestId, address payee);\r\n    event NewPayer(bytes32 requestId, address payer);\r\n    event NewExpectedAmount(bytes32 requestId, int256 expectedAmount);\r\n    event NewExtension(bytes32 requestId, address extension);\r\n    event NewData(bytes32 requestId, string data);\r\n\r\n    /*\r\n     *  Constructor \r\n     */\r\n    function RequestCore() \r\n        public\r\n    {\r\n        numRequests = 0;\r\n    }\r\n\r\n    /*\r\n     * @dev Function used by Subcontracts to create a request in the Core\r\n     * @param _creator Request creator\r\n     * @param _payee Entity which will receive the payment\r\n     * @param _payer Entity supposed to pay\r\n     * @param _expectedAmount Expected amount to be received. This amount can't be changed.\r\n     * @param _extension an extension can be linked to a request and allows advanced payments conditions such as escrow. Extensions have to be whitelisted in Core\r\n     * @return Returns the id of the request \r\n     */   \r\n    function createRequest(address _creator, address _payee, address _payer, int256 _expectedAmount, address _extension, string _data) \r\n        payable\r\n        external\r\n        whenNotPaused \r\n        isTrustedContract(msg.sender)\r\n        isTrustedExtension(_extension)\r\n        creatorNotZero(_creator)\r\n        returns (bytes32 requestId) \r\n    {\r\n        numRequests = numRequests.add(1);\r\n        requestId = keccak256(numRequests,VERSION);\r\n\r\n        requests[requestId] = Request(_creator, _payee, _payer, _expectedAmount, msg.sender, 0, State.Created, _extension, _data); \r\n\r\n        // collect the fees\r\n        require(trustedNewBurnManager.collectForReqBurning.value(msg.value)(_expectedAmount, msg.sender, _extension));\r\n\r\n        Created(requestId, _payee, _payer);\r\n        return requestId;\r\n    }\r\n\r\n    /*\r\n     * @dev Function used by Subcontracts to accept a request in the Core. A request accepted is recognized by the payer as legit\r\n     * @param _requestId Request id\r\n     */ \r\n    function accept(bytes32 _requestId) \r\n        external\r\n    {\r\n        Request storage r = requests[_requestId];\r\n        require(r.currencyContract==msg.sender); \r\n        r.state = State.Accepted;\r\n        Accepted(_requestId);\r\n    }\r\n\r\n    /*\r\n     * @dev Function used by Subcontracts to cancel a request in the Core. Several reasons can lead to cancel a reason, see request life cycle for more info.\r\n     * @param _requestId Request id\r\n     */ \r\n    function cancel(bytes32 _requestId)\r\n        external\r\n    {\r\n        Request storage r = requests[_requestId];\r\n        require(r.currencyContract==msg.sender);\r\n\r\n        r.state = State.Canceled;\r\n        Canceled(_requestId);\r\n    }   \r\n\r\n    /*\r\n     * @dev Function used to update the balance\r\n     * @param _requestId Request id\r\n     * @param _deltaAmount modifier amount\r\n     */ \r\n    function updateBalance(bytes32 _requestId, int256 _deltaAmount)\r\n        external\r\n    {   \r\n        Request storage r = requests[_requestId];\r\n        require(r.currencyContract==msg.sender); \r\n\r\n        r.balance = r.balance.add(_deltaAmount);\r\n\r\n        UpdateBalance(_requestId, _deltaAmount);\r\n    }\r\n\r\n    /*\r\n     * @dev Function update the expectedAmount adding additional or subtract\r\n     * @param _requestId Request id\r\n     * @param _deltaAmount modifier amount\r\n     */ \r\n    function updateExpectedAmount(bytes32 _requestId, int256 _deltaAmount)\r\n        external\r\n    {   \r\n        Request storage r = requests[_requestId];\r\n        require(r.currencyContract==msg.sender); \r\n\r\n        r.expectedAmount = r.expectedAmount.add(_deltaAmount);\r\n\r\n        UpdateExpectedAmount(_requestId, _deltaAmount);\r\n    }\r\n\r\n\r\n    /* SETTER */\r\n    /*\r\n     * @dev Set payee of a request\r\n     * @param _requestId Request id\r\n     * @param _payee new payee\r\n     */ \r\n    function setPayee(bytes32 _requestId, address _payee)\r\n        external\r\n    {\r\n        Request storage r = requests[_requestId];\r\n        require(r.currencyContract==msg.sender);\r\n        requests[_requestId].payee = _payee;\r\n        NewPayee(_requestId, _payee);\r\n    }\r\n\r\n    /*\r\n     * @dev Get payer of a request\r\n     * @param _requestId Request id\r\n     * @param _payee new payer\r\n     */ \r\n    function setPayer(bytes32 _requestId, address _payer)\r\n        external\r\n    {\r\n        Request storage r = requests[_requestId];\r\n        require(r.currencyContract==msg.sender);\r\n        requests[_requestId].payer = _payer;\r\n        NewPayer(_requestId, _payer);\r\n    }\r\n\r\n    /*\r\n     * @dev Set amount expected of a request\r\n     * @param _requestId Request id\r\n     * @param new amount expected\r\n     */     \r\n    function setExpectedAmount(bytes32 _requestId, int256 _expectedAmount)\r\n        external\r\n    {\r\n        Request storage r = requests[_requestId];\r\n        require(r.currencyContract==msg.sender);\r\n        requests[_requestId].expectedAmount = _expectedAmount;\r\n        NewExpectedAmount(_requestId, _expectedAmount);\r\n    }\r\n\r\n    /*\r\n     * @dev Set extension of a request\r\n     * @param _requestId Request id\r\n     * @param new extension\r\n     */     \r\n    function setExtension(bytes32 _requestId, address _extension)\r\n        external\r\n        isTrustedExtension(_extension)\r\n    {\r\n        Request storage r = requests[_requestId];\r\n        require(r.currencyContract==msg.sender);\r\n        requests[_requestId].extension = _extension;\r\n        NewExtension(_requestId, _extension);\r\n    }\r\n\r\n    /*\r\n     * @dev Set extension of a request\r\n     * @param _requestId Request id\r\n     * @param new extension\r\n     */     \r\n    function setData(bytes32 _requestId, string _data)\r\n        external\r\n    {\r\n        Request storage r = requests[_requestId];\r\n        require(r.currencyContract==msg.sender);\r\n        requests[_requestId].data = _data;\r\n        NewData(_requestId, _data);\r\n    }\r\n\r\n    /* GETTER */\r\n    /*\r\n     * @dev Get payee of a request\r\n     * @param _requestId Request id\r\n     * @return payee address\r\n     */ \r\n    function getPayee(bytes32 _requestId)\r\n        public\r\n        constant\r\n        returns(address)\r\n    {\r\n        return requests[_requestId].payee;\r\n    }\r\n\r\n    /*\r\n     * @dev Get payer of a request\r\n     * @param _requestId Request id\r\n     * @return payer address\r\n     */ \r\n    function getPayer(bytes32 _requestId)\r\n        public\r\n        constant\r\n        returns(address)\r\n    {\r\n        return requests[_requestId].payer;\r\n    }\r\n\r\n    /*\r\n     * @dev Get amount expected of a request\r\n     * @param _requestId Request id\r\n     * @return amount expected\r\n     */     \r\n    function getExpectedAmount(bytes32 _requestId)\r\n        public\r\n        constant\r\n        returns(int256)\r\n    {\r\n        return requests[_requestId].expectedAmount;\r\n    }\r\n\r\n    /*\r\n     * @dev Get currencyContract of a request\r\n     * @param _requestId Request id\r\n     * @return currencyContract address\r\n     */\r\n    function getCurrencyContract(bytes32 _requestId)\r\n        public\r\n        constant\r\n        returns(address)\r\n    {\r\n        return requests[_requestId].currencyContract;\r\n    }\r\n\r\n    /*\r\n     * @dev Get balance of a request\r\n     * @param _requestId Request id\r\n     * @return balance\r\n     */     \r\n    function getBalance(bytes32 _requestId)\r\n        public\r\n        constant\r\n        returns(int256)\r\n    {\r\n        return requests[_requestId].balance;\r\n    }\r\n\r\n    /*\r\n     * @dev Get state of a request\r\n     * @param _requestId Request id\r\n     * @return state\r\n     */ \r\n    function getState(bytes32 _requestId)\r\n        public\r\n        constant\r\n        returns(State)\r\n    {\r\n        return requests[_requestId].state;\r\n    }\r\n\r\n    /*\r\n     * @dev Get extension of a request\r\n     * @param _requestId Request id\r\n     * @return address\r\n     */\r\n    function getExtension(bytes32 _requestId)\r\n        public\r\n        constant\r\n        returns(address)\r\n    {\r\n        return requests[_requestId].extension;\r\n    } \r\n\r\n    /*\r\n     * @dev Modifier Check that creator is not zero\r\n     * @param _creator Request\r\n     */\r\n    modifier creatorNotZero(address _creator) {\r\n       require(_creator!=0);\r\n       _;\r\n    }\r\n}",
  "sourcePath": "C:\\Users\\vince\\Documents\\Request\\git\\Request_SmartContracts\\contracts\\core\\RequestCore.sol",
  "compiler": {
    "name": "solc",
    "version": "0.4.18+commit.9cf6e910.Emscripten.clang"
  },
  "schemaVersion": "1.0.1",
  "updatedAt": "2017-12-05T14:06:22.700Z"
}