{
  "contractName": "RequestEthereum",
  "abi": [
    {
      "constant": false,
      "inputs": [],
      "name": "withdraw",
      "outputs": [],
      "payable": false,
      "stateMutability": "nonpayable",
      "type": "function"
    },
    {
      "constant": false,
      "inputs": [],
      "name": "unpause",
      "outputs": [],
      "payable": false,
      "stateMutability": "nonpayable",
      "type": "function"
    },
    {
      "constant": false,
      "inputs": [
        {
          "name": "_requestId",
          "type": "bytes32"
        }
      ],
      "name": "payback",
      "outputs": [],
      "payable": true,
      "stateMutability": "payable",
      "type": "function"
    },
    {
      "constant": false,
      "inputs": [
        {
          "name": "_requestId",
          "type": "bytes32"
        },
        {
          "name": "_recipient",
          "type": "address"
        },
        {
          "name": "_amount",
          "type": "uint256"
        }
      ],
      "name": "fundOrder",
      "outputs": [
        {
          "name": "",
          "type": "bool"
        }
      ],
      "payable": false,
      "stateMutability": "nonpayable",
      "type": "function"
    },
    {
      "constant": true,
      "inputs": [],
      "name": "paused",
      "outputs": [
        {
          "name": "",
          "type": "bool"
        }
      ],
      "payable": false,
      "stateMutability": "view",
      "type": "function"
    },
    {
      "constant": true,
      "inputs": [],
      "name": "requestCore",
      "outputs": [
        {
          "name": "",
          "type": "address"
        }
      ],
      "payable": false,
      "stateMutability": "view",
      "type": "function"
    },
    {
      "constant": false,
      "inputs": [
        {
          "name": "_payer",
          "type": "address"
        },
        {
          "name": "_amountInitial",
          "type": "uint256"
        },
        {
          "name": "_extension",
          "type": "address"
        },
        {
          "name": "_extensionParams",
          "type": "bytes32[9]"
        },
        {
          "name": "_details",
          "type": "string"
        }
      ],
      "name": "createRequestAsPayee",
      "outputs": [
        {
          "name": "requestId",
          "type": "bytes32"
        }
      ],
      "payable": false,
      "stateMutability": "nonpayable",
      "type": "function"
    },
    {
      "constant": true,
      "inputs": [
        {
          "name": "signer",
          "type": "address"
        },
        {
          "name": "hash",
          "type": "bytes32"
        },
        {
          "name": "v",
          "type": "uint8"
        },
        {
          "name": "r",
          "type": "bytes32"
        },
        {
          "name": "s",
          "type": "bytes32"
        }
      ],
      "name": "isValidSignature",
      "outputs": [
        {
          "name": "",
          "type": "bool"
        }
      ],
      "payable": false,
      "stateMutability": "pure",
      "type": "function"
    },
    {
      "constant": false,
      "inputs": [],
      "name": "pause",
      "outputs": [],
      "payable": false,
      "stateMutability": "nonpayable",
      "type": "function"
    },
    {
      "constant": false,
      "inputs": [
        {
          "name": "_requestId",
          "type": "bytes32"
        }
      ],
      "name": "decline",
      "outputs": [
        {
          "name": "",
          "type": "bool"
        }
      ],
      "payable": false,
      "stateMutability": "nonpayable",
      "type": "function"
    },
    {
      "constant": true,
      "inputs": [],
      "name": "owner",
      "outputs": [
        {
          "name": "",
          "type": "address"
        }
      ],
      "payable": false,
      "stateMutability": "view",
      "type": "function"
    },
    {
      "constant": false,
      "inputs": [
        {
          "name": "_requestId",
          "type": "bytes32"
        },
        {
          "name": "_amount",
          "type": "uint256"
        }
      ],
      "name": "payment",
      "outputs": [
        {
          "name": "",
          "type": "bool"
        }
      ],
      "payable": false,
      "stateMutability": "nonpayable",
      "type": "function"
    },
    {
      "constant": false,
      "inputs": [
        {
          "name": "_requestId",
          "type": "bytes32"
        }
      ],
      "name": "cancel",
      "outputs": [
        {
          "name": "",
          "type": "bool"
        }
      ],
      "payable": false,
      "stateMutability": "nonpayable",
      "type": "function"
    },
    {
      "constant": false,
      "inputs": [
        {
          "name": "_payee",
          "type": "address"
        },
        {
          "name": "_amountInitial",
          "type": "uint256"
        },
        {
          "name": "_extension",
          "type": "address"
        },
        {
          "name": "_extensionParams",
          "type": "bytes32[9]"
        },
        {
          "name": "_tips",
          "type": "uint256"
        },
        {
          "name": "_details",
          "type": "string"
        }
      ],
      "name": "createRequestAsPayer",
      "outputs": [
        {
          "name": "requestId",
          "type": "bytes32"
        }
      ],
      "payable": true,
      "stateMutability": "payable",
      "type": "function"
    },
    {
      "constant": false,
      "inputs": [
        {
          "name": "_requestId",
          "type": "bytes32"
        },
        {
          "name": "_amount",
          "type": "uint256"
        }
      ],
      "name": "discount",
      "outputs": [],
      "payable": false,
      "stateMutability": "nonpayable",
      "type": "function"
    },
    {
      "constant": false,
      "inputs": [
        {
          "name": "_requestId",
          "type": "bytes32"
        },
        {
          "name": "_tips",
          "type": "uint256"
        }
      ],
      "name": "pay",
      "outputs": [],
      "payable": true,
      "stateMutability": "payable",
      "type": "function"
    },
    {
      "constant": true,
      "inputs": [
        {
          "name": "signer",
          "type": "address"
        },
        {
          "name": "payee",
          "type": "address"
        },
        {
          "name": "payer",
          "type": "address"
        },
        {
          "name": "amountInitial",
          "type": "uint256"
        },
        {
          "name": "extension",
          "type": "address"
        },
        {
          "name": "extensionParams",
          "type": "bytes32[9]"
        },
        {
          "name": "details",
          "type": "string"
        },
        {
          "name": "v",
          "type": "uint8"
        },
        {
          "name": "r",
          "type": "bytes32"
        },
        {
          "name": "s",
          "type": "bytes32"
        }
      ],
      "name": "checkRequestSignature",
      "outputs": [
        {
          "name": "",
          "type": "bool"
        }
      ],
      "payable": false,
      "stateMutability": "view",
      "type": "function"
    },
    {
      "constant": false,
      "inputs": [
        {
          "name": "_requestId",
          "type": "bytes32"
        }
      ],
      "name": "accept",
      "outputs": [
        {
          "name": "",
          "type": "bool"
        }
      ],
      "payable": false,
      "stateMutability": "nonpayable",
      "type": "function"
    },
    {
      "constant": true,
      "inputs": [
        {
          "name": "",
          "type": "address"
        }
      ],
      "name": "ethToWithdraw",
      "outputs": [
        {
          "name": "",
          "type": "uint256"
        }
      ],
      "payable": false,
      "stateMutability": "view",
      "type": "function"
    },
    {
      "constant": false,
      "inputs": [
        {
          "name": "newOwner",
          "type": "address"
        }
      ],
      "name": "transferOwnership",
      "outputs": [],
      "payable": false,
      "stateMutability": "nonpayable",
      "type": "function"
    },
    {
      "constant": false,
      "inputs": [
        {
          "name": "_payee",
          "type": "address"
        },
        {
          "name": "_amountInitial",
          "type": "uint256"
        },
        {
          "name": "_extension",
          "type": "address"
        },
        {
          "name": "_extensionParams",
          "type": "bytes32[9]"
        },
        {
          "name": "_tips",
          "type": "uint256"
        },
        {
          "name": "_details",
          "type": "string"
        },
        {
          "name": "v",
          "type": "uint8"
        },
        {
          "name": "r",
          "type": "bytes32"
        },
        {
          "name": "s",
          "type": "bytes32"
        }
      ],
      "name": "broadcastSignedRequestAsPayer",
      "outputs": [
        {
          "name": "requestId",
          "type": "bytes32"
        }
      ],
      "payable": true,
      "stateMutability": "payable",
      "type": "function"
    },
    {
      "inputs": [
        {
          "name": "_requestCoreAddress",
          "type": "address"
        }
      ],
      "payable": false,
      "stateMutability": "nonpayable",
      "type": "constructor"
    },
    {
      "anonymous": false,
      "inputs": [],
      "name": "Pause",
      "type": "event"
    },
    {
      "anonymous": false,
      "inputs": [],
      "name": "Unpause",
      "type": "event"
    },
    {
      "anonymous": false,
      "inputs": [
        {
          "indexed": true,
          "name": "previousOwner",
          "type": "address"
        },
        {
          "indexed": true,
          "name": "newOwner",
          "type": "address"
        }
      ],
      "name": "OwnershipTransferred",
      "type": "event"
    }
  ],
  "bytecode": "0x606060405260008060146101000a81548160ff021916908315150217905550341561002957600080fd5b60405160208061427a83398101604052808051906020019091905050336000806101000a81548173ffffffffffffffffffffffffffffffffffffffff021916908373ffffffffffffffffffffffffffffffffffffffff16021790555080600160006101000a81548173ffffffffffffffffffffffffffffffffffffffff021916908373ffffffffffffffffffffffffffffffffffffffff160217905550506141a4806100d66000396000f30060606040526004361061011d576000357c0100000000000000000000000000000000000000000000000000000000900463ffffffff1680633ccfd60b146101225780633f4ba83a1461013757806340f53f191461014c578063452e79a4146101685780635c975abb146101cf5780636c4fbaa4146101fc578063808a188e146102515780638163681e146102ea5780638456cb591461036e5780638cc7d3d1146103835780638da5cb5b146103c2578063a05bd4c614610417578063c4d252f51461045f578063c5fc900c1461049e578063c684dc9514610535578063d0ee4de014610565578063df050be81461058a578063e4725ba1146106d7578063ed80cf3b14610716578063f2fde38b14610763578063f88efd4e1461079c575b600080fd5b341561012d57600080fd5b610135610859565b005b341561014257600080fd5b61014a610925565b005b6101666004808035600019169060200190919050506109e3565b005b341561017357600080fd5b6101b560048080356000191690602001909190803573ffffffffffffffffffffffffffffffffffffffff16906020019091908035906020019091905050610ff1565b604051808215151515815260200191505060405180910390f35b34156101da57600080fd5b6101e2611038565b604051808215151515815260200191505060405180910390f35b341561020757600080fd5b61020f61104b565b604051808273ffffffffffffffffffffffffffffffffffffffff1673ffffffffffffffffffffffffffffffffffffffff16815260200191505060405180910390f35b341561025c57600080fd5b6102cc600480803573ffffffffffffffffffffffffffffffffffffffff1690602001909190803590602001909190803573ffffffffffffffffffffffffffffffffffffffff1690602001909190806101200190919080359060200190820180359060200191909192905050611071565b60405180826000191660001916815260200191505060405180910390f35b34156102f557600080fd5b610354600480803573ffffffffffffffffffffffffffffffffffffffff169060200190919080356000191690602001909190803560ff169060200190919080356000191690602001909190803560001916906020019091905050611316565b604051808215151515815260200191505060405180910390f35b341561037957600080fd5b61038161141d565b005b341561038e57600080fd5b6103a86004808035600019169060200190919050506114dd565b604051808215151515815260200191505060405180910390f35b34156103cd57600080fd5b6103d561195b565b604051808273ffffffffffffffffffffffffffffffffffffffff1673ffffffffffffffffffffffffffffffffffffffff16815260200191505060405180910390f35b341561042257600080fd5b610445600480803560001916906020019091908035906020019091905050611980565b604051808215151515815260200191505060405180910390f35b341561046a57600080fd5b6104846004808035600019169060200190919050506119c5565b604051808215151515815260200191505060405180910390f35b610517600480803573ffffffffffffffffffffffffffffffffffffffff1690602001909190803590602001909190803573ffffffffffffffffffffffffffffffffffffffff1690602001909190806101200190919080359060200190919080359060200190820180359060200191909192905050611fe8565b60405180826000191660001916815260200191505060405180910390f35b341561054057600080fd5b6105636004808035600019169060200190919080359060200190919050506122fc565b005b6105886004808035600019169060200190919080359060200190919050506129ed565b005b341561059557600080fd5b6106bd600480803573ffffffffffffffffffffffffffffffffffffffff1690602001909190803573ffffffffffffffffffffffffffffffffffffffff1690602001909190803573ffffffffffffffffffffffffffffffffffffffff1690602001909190803590602001909190803573ffffffffffffffffffffffffffffffffffffffff1690602001909190806101200190600980602002604051908101604052809291908260096020028082843782019150505050509190803590602001908201803590602001908080601f0160208091040260200160405190810160405280939291908181526020018383808284378201915050505050509190803560ff169060200190919080356000191690602001909190803560001916906020019091905050612bfe565b604051808215151515815260200191505060405180910390f35b34156106e257600080fd5b6106fc600480803560001916906020019091905050612c2f565b604051808215151515815260200191505060405180910390f35b341561072157600080fd5b61074d600480803573ffffffffffffffffffffffffffffffffffffffff16906020019091905050612e40565b6040518082815260200191505060405180910390f35b341561076e57600080fd5b61079a600480803573ffffffffffffffffffffffffffffffffffffffff16906020019091905050612e58565b005b61083b600480803573ffffffffffffffffffffffffffffffffffffffff1690602001909190803590602001909190803573ffffffffffffffffffffffffffffffffffffffff169060200190919080610120019091908035906020019091908035906020019082018035906020019190919290803560ff169060200190919080356000191690602001909190803560001916906020019091905050612fad565b60405180826000191660001916815260200191505060405180910390f35b6000600260003373ffffffffffffffffffffffffffffffffffffffff1673ffffffffffffffffffffffffffffffffffffffff1681526020019081526020016000205490506000600260003373ffffffffffffffffffffffffffffffffffffffff1673ffffffffffffffffffffffffffffffffffffffff168152602001908152602001600020819055503373ffffffffffffffffffffffffffffffffffffffff166108fc829081150290604051600060405180830381858888f19350505050151561092257600080fd5b50565b6000809054906101000a900473ffffffffffffffffffffffffffffffffffffffff1673ffffffffffffffffffffffffffffffffffffffff163373ffffffffffffffffffffffffffffffffffffffff1614151561098057600080fd5b600060149054906101000a900460ff16151561099b57600080fd5b60008060146101000a81548160ff0219169083151502179055507f7805862f689e2f13df9f062ff482ad3ad112aca9e0847911ed832e158c525b3360405160405180910390a1565b60008060008060149054906101000a900460ff16151515610a0357600080fd5b60016003811115610a1057fe5b600160009054906101000a900473ffffffffffffffffffffffffffffffffffffffff1673ffffffffffffffffffffffffffffffffffffffff166309648a9d866000604051602001526040518263ffffffff167c0100000000000000000000000000000000000000000000000000000000028152600401808260001916600019168152602001915050602060405180830381600087803b1515610ab157600080fd5b6102c65a03f11515610ac257600080fd5b505050604051805190506003811115610ad757fe5b14801515610ae457600080fd5b843373ffffffffffffffffffffffffffffffffffffffff16600160009054906101000a900473ffffffffffffffffffffffffffffffffffffffff1673ffffffffffffffffffffffffffffffffffffffff1662ca2f75836000604051602001526040518263ffffffff167c0100000000000000000000000000000000000000000000000000000000028152600401808260001916600019168152602001915050602060405180830381600087803b1515610b9c57600080fd5b6102c65a03f11515610bad57600080fd5b5050506040518051905073ffffffffffffffffffffffffffffffffffffffff16141515610bd957600080fd5b600160009054906101000a900473ffffffffffffffffffffffffffffffffffffffff1673ffffffffffffffffffffffffffffffffffffffff16636e5a2d6c876000604051602001526040518263ffffffff167c0100000000000000000000000000000000000000000000000000000000028152600401808260001916600019168152602001915050602060405180830381600087803b1515610c7a57600080fd5b6102c65a03f11515610c8b57600080fd5b50505060405180519050341115801515610ca457600080fd5b600160009054906101000a900473ffffffffffffffffffffffffffffffffffffffff1673ffffffffffffffffffffffffffffffffffffffff1663c139626b886000604051602001526040518263ffffffff167c0100000000000000000000000000000000000000000000000000000000028152600401808260001916600019168152602001915050602060405180830381600087803b1515610d4557600080fd5b6102c65a03f11515610d5657600080fd5b5050506040518051905095506001945060008673ffffffffffffffffffffffffffffffffffffffff1614158015610db957503373ffffffffffffffffffffffffffffffffffffffff168673ffffffffffffffffffffffffffffffffffffffff1614155b15610e66578593508373ffffffffffffffffffffffffffffffffffffffff1663695eda1988346000604051602001526040518363ffffffff167c010000000000000000000000000000000000000000000000000000000002815260040180836000191660001916815260200182815260200192505050602060405180830381600087803b1515610e4857600080fd5b6102c65a03f11515610e5957600080fd5b5050506040518051905094505b8415610fe857600160009054906101000a900473ffffffffffffffffffffffffffffffffffffffff1673ffffffffffffffffffffffffffffffffffffffff1663695eda1988346040518363ffffffff167c010000000000000000000000000000000000000000000000000000000002815260040180836000191660001916815260200182815260200192505050600060405180830381600087803b1515610f0c57600080fd5b6102c65a03f11515610f1d57600080fd5b505050610fe687600160009054906101000a900473ffffffffffffffffffffffffffffffffffffffff1673ffffffffffffffffffffffffffffffffffffffff1663a12cad708a6000604051602001526040518263ffffffff167c0100000000000000000000000000000000000000000000000000000000028152600401808260001916600019168152602001915050602060405180830381600087803b1515610fc557600080fd5b6102c65a03f11515610fd657600080fd5b5050506040518051905034613338565b505b50505050505050565b60008060149054906101000a900460ff1615151561100e57600080fd5b8361101881613595565b151561102357600080fd5b61102e858585613338565b9150509392505050565b600060149054906101000a900460ff1681565b600160009054906101000a900473ffffffffffffffffffffffffffffffffffffffff1681565b600080600060149054906101000a900460ff1615151561109057600080fd5b600160009054906101000a900473ffffffffffffffffffffffffffffffffffffffff1673ffffffffffffffffffffffffffffffffffffffff166366a8530c33338b8b8b8a8a6000604051602001526040518863ffffffff167c0100000000000000000000000000000000000000000000000000000000028152600401808873ffffffffffffffffffffffffffffffffffffffff1673ffffffffffffffffffffffffffffffffffffffff1681526020018773ffffffffffffffffffffffffffffffffffffffff1673ffffffffffffffffffffffffffffffffffffffff1681526020018673ffffffffffffffffffffffffffffffffffffffff1673ffffffffffffffffffffffffffffffffffffffff1681526020018581526020018473ffffffffffffffffffffffffffffffffffffffff1673ffffffffffffffffffffffffffffffffffffffff168152602001806020018281038252848482818152602001925080828437820191505098505050505050505050602060405180830381600087803b151561121b57600080fd5b6102c65a03f1151561122c57600080fd5b50505060405180519050915060008673ffffffffffffffffffffffffffffffffffffffff16141515611308578590508073ffffffffffffffffffffffffffffffffffffffff1663d29574ba83876000604051602001526040518363ffffffff167c010000000000000000000000000000000000000000000000000000000002815260040180836000191660001916815260200182600960200280828437820191505092505050602060405180830381600087803b15156112eb57600080fd5b6102c65a03f115156112fc57600080fd5b50505060405180519050505b819150509695505050505050565b600060018560405180807f19457468657265756d205369676e6564204d6573736167653a0a333200000000815250601c0182600019166000191681526020019150506040518091039020858585604051600081526020016040526000604051602001526040518085600019166000191681526020018460ff1660ff16815260200183600019166000191681526020018260001916600019168152602001945050505050602060405160208103908084039060008661646e5a03f115156113db57600080fd5b50506020604051035173ffffffffffffffffffffffffffffffffffffffff168673ffffffffffffffffffffffffffffffffffffffff1614905095945050505050565b6000809054906101000a900473ffffffffffffffffffffffffffffffffffffffff1673ffffffffffffffffffffffffffffffffffffffff163373ffffffffffffffffffffffffffffffffffffffff1614151561147857600080fd5b600060149054906101000a900460ff1615151561149457600080fd5b6001600060146101000a81548160ff0219169083151502179055507f6985a02210a168e66602d3235cb6db0e70f92b3ba4d376a33c0f3d9434bff62560405160405180910390a1565b600080600080600060149054906101000a900460ff161515156114ff57600080fd5b61150885613595565b806116d657503373ffffffffffffffffffffffffffffffffffffffff16600160009054906101000a900473ffffffffffffffffffffffffffffffffffffffff1673ffffffffffffffffffffffffffffffffffffffff1663a12cad70876000604051602001526040518263ffffffff167c0100000000000000000000000000000000000000000000000000000000028152600401808260001916600019168152602001915050602060405180830381600087803b15156115c657600080fd5b6102c65a03f115156115d757600080fd5b5050506040518051905073ffffffffffffffffffffffffffffffffffffffff161480156116d557506000600381111561160c57fe5b600160009054906101000a900473ffffffffffffffffffffffffffffffffffffffff1673ffffffffffffffffffffffffffffffffffffffff166309648a9d876000604051602001526040518263ffffffff167c0100000000000000000000000000000000000000000000000000000000028152600401808260001916600019168152602001915050602060405180830381600087803b15156116ad57600080fd5b6102c65a03f115156116be57600080fd5b5050506040518051905060038111156116d357fe5b145b5b8015156116e257600080fd5b600160009054906101000a900473ffffffffffffffffffffffffffffffffffffffff1673ffffffffffffffffffffffffffffffffffffffff1663c139626b876000604051602001526040518263ffffffff167c0100000000000000000000000000000000000000000000000000000000028152600401808260001916600019168152602001915050602060405180830381600087803b151561178357600080fd5b6102c65a03f1151561179457600080fd5b5050506040518051905093506001925060008473ffffffffffffffffffffffffffffffffffffffff16141580156117f757503373ffffffffffffffffffffffffffffffffffffffff168473ffffffffffffffffffffffffffffffffffffffff1614155b1561189c578391508173ffffffffffffffffffffffffffffffffffffffff16638cc7d3d1876000604051602001526040518263ffffffff167c0100000000000000000000000000000000000000000000000000000000028152600401808260001916600019168152602001915050602060405180830381600087803b151561187e57600080fd5b6102c65a03f1151561188f57600080fd5b5050506040518051905092505b821561194f57600160009054906101000a900473ffffffffffffffffffffffffffffffffffffffff1673ffffffffffffffffffffffffffffffffffffffff16638cc7d3d1876040518263ffffffff167c0100000000000000000000000000000000000000000000000000000000028152600401808260001916600019168152602001915050600060405180830381600087803b151561193a57600080fd5b6102c65a03f1151561194b57600080fd5b5050505b82945050505050919050565b6000809054906101000a900473ffffffffffffffffffffffffffffffffffffffff1681565b60008060149054906101000a900460ff1615151561199d57600080fd5b826119a781613595565b15156119b257600080fd5b6119bc8484613688565b91505092915050565b600080600080600060149054906101000a900460ff161515156119e757600080fd5b6119f085613595565b80611c9957503373ffffffffffffffffffffffffffffffffffffffff16600160009054906101000a900473ffffffffffffffffffffffffffffffffffffffff1673ffffffffffffffffffffffffffffffffffffffff1662ca2f75876000604051602001526040518263ffffffff167c0100000000000000000000000000000000000000000000000000000000028152600401808260001916600019168152602001915050602060405180830381600087803b1515611aad57600080fd5b6102c65a03f11515611abe57600080fd5b5050506040518051905073ffffffffffffffffffffffffffffffffffffffff16148015611c98575060006003811115611af357fe5b600160009054906101000a900473ffffffffffffffffffffffffffffffffffffffff1673ffffffffffffffffffffffffffffffffffffffff166309648a9d876000604051602001526040518263ffffffff167c0100000000000000000000000000000000000000000000000000000000028152600401808260001916600019168152602001915050602060405180830381600087803b1515611b9457600080fd5b6102c65a03f11515611ba557600080fd5b505050604051805190506003811115611bba57fe5b1480611c97575060016003811115611bce57fe5b600160009054906101000a900473ffffffffffffffffffffffffffffffffffffffff1673ffffffffffffffffffffffffffffffffffffffff166309648a9d876000604051602001526040518263ffffffff167c0100000000000000000000000000000000000000000000000000000000028152600401808260001916600019168152602001915050602060405180830381600087803b1515611c6f57600080fd5b6102c65a03f11515611c8057600080fd5b505050604051805190506003811115611c9557fe5b145b5b5b801515611ca557600080fd5b6000600160009054906101000a900473ffffffffffffffffffffffffffffffffffffffff1673ffffffffffffffffffffffffffffffffffffffff16636e5a2d6c886000604051602001526040518263ffffffff167c0100000000000000000000000000000000000000000000000000000000028152600401808260001916600019168152602001915050602060405180830381600087803b1515611d4857600080fd5b6102c65a03f11515611d5957600080fd5b50505060405180519050141515611d6f57600080fd5b600160009054906101000a900473ffffffffffffffffffffffffffffffffffffffff1673ffffffffffffffffffffffffffffffffffffffff1663c139626b876000604051602001526040518263ffffffff167c0100000000000000000000000000000000000000000000000000000000028152600401808260001916600019168152602001915050602060405180830381600087803b1515611e1057600080fd5b6102c65a03f11515611e2157600080fd5b5050506040518051905093506001925060008473ffffffffffffffffffffffffffffffffffffffff1614158015611e8457503373ffffffffffffffffffffffffffffffffffffffff168473ffffffffffffffffffffffffffffffffffffffff1614155b15611f29578391508173ffffffffffffffffffffffffffffffffffffffff1663c4d252f5876000604051602001526040518263ffffffff167c0100000000000000000000000000000000000000000000000000000000028152600401808260001916600019168152602001915050602060405180830381600087803b1515611f0b57600080fd5b6102c65a03f11515611f1c57600080fd5b5050506040518051905092505b8215611fdc57600160009054906101000a900473ffffffffffffffffffffffffffffffffffffffff1673ffffffffffffffffffffffffffffffffffffffff1663c4d252f5876040518263ffffffff167c0100000000000000000000000000000000000000000000000000000000028152600401808260001916600019168152602001915050600060405180830381600087803b1515611fc757600080fd5b6102c65a03f11515611fd857600080fd5b5050505b82945050505050919050565b600080600060149054906101000a900460ff1615151561200757600080fd5b84341015151561201657600080fd5b3461202a868a6139dd90919063ffffffff16565b1015151561203757600080fd5b600160009054906101000a900473ffffffffffffffffffffffffffffffffffffffff1673ffffffffffffffffffffffffffffffffffffffff166366a8530c338b338c8c8a8a6000604051602001526040518863ffffffff167c0100000000000000000000000000000000000000000000000000000000028152600401808873ffffffffffffffffffffffffffffffffffffffff1673ffffffffffffffffffffffffffffffffffffffff1681526020018773ffffffffffffffffffffffffffffffffffffffff1673ffffffffffffffffffffffffffffffffffffffff1681526020018673ffffffffffffffffffffffffffffffffffffffff1673ffffffffffffffffffffffffffffffffffffffff1681526020018581526020018473ffffffffffffffffffffffffffffffffffffffff1673ffffffffffffffffffffffffffffffffffffffff168152602001806020018281038252848482818152602001925080828437820191505098505050505050505050602060405180830381600087803b15156121c257600080fd5b6102c65a03f115156121d357600080fd5b50505060405180519050915060008773ffffffffffffffffffffffffffffffffffffffff161415156122af578690508073ffffffffffffffffffffffffffffffffffffffff1663d29574ba83886000604051602001526040518363ffffffff167c010000000000000000000000000000000000000000000000000000000002815260040180836000191660001916815260200182600960200280828437820191505092505050602060405180830381600087803b151561229257600080fd5b6102c65a03f115156122a357600080fd5b50505060405180519050505b6122b8826139fb565b15156122c357600080fd5b60008511156122d8576122d68286613d34565b505b60003411156122ed576122eb8234613688565b505b81915050979650505050505050565b60008060008060149054906101000a900460ff1615151561231c57600080fd5b6001600381111561232957fe5b600160009054906101000a900473ffffffffffffffffffffffffffffffffffffffff1673ffffffffffffffffffffffffffffffffffffffff166309648a9d876000604051602001526040518263ffffffff167c0100000000000000000000000000000000000000000000000000000000028152600401808260001916600019168152602001915050602060405180830381600087803b15156123ca57600080fd5b6102c65a03f115156123db57600080fd5b5050506040518051905060038111156123f057fe5b14806124cd57506000600381111561240457fe5b600160009054906101000a900473ffffffffffffffffffffffffffffffffffffffff1673ffffffffffffffffffffffffffffffffffffffff166309648a9d876000604051602001526040518263ffffffff167c0100000000000000000000000000000000000000000000000000000000028152600401808260001916600019168152602001915050602060405180830381600087803b15156124a557600080fd5b6102c65a03f115156124b657600080fd5b5050506040518051905060038111156124cb57fe5b145b8015156124d957600080fd5b853373ffffffffffffffffffffffffffffffffffffffff16600160009054906101000a900473ffffffffffffffffffffffffffffffffffffffff1673ffffffffffffffffffffffffffffffffffffffff1662ca2f75836000604051602001526040518263ffffffff167c0100000000000000000000000000000000000000000000000000000000028152600401808260001916600019168152602001915050602060405180830381600087803b151561259157600080fd5b6102c65a03f115156125a257600080fd5b5050506040518051905073ffffffffffffffffffffffffffffffffffffffff161415156125ce57600080fd5b600160009054906101000a900473ffffffffffffffffffffffffffffffffffffffff1673ffffffffffffffffffffffffffffffffffffffff16636907c77d886000604051602001526040518263ffffffff167c0100000000000000000000000000000000000000000000000000000000028152600401808260001916600019168152602001915050602060405180830381600087803b151561266f57600080fd5b6102c65a03f1151561268057600080fd5b50505060405180519050612758600160009054906101000a900473ffffffffffffffffffffffffffffffffffffffff1673ffffffffffffffffffffffffffffffffffffffff16636e5a2d6c8a6000604051602001526040518263ffffffff167c0100000000000000000000000000000000000000000000000000000000028152600401808260001916600019168152602001915050602060405180830381600087803b151561272e57600080fd5b6102c65a03f1151561273f57600080fd5b50505060405180519050886139dd90919063ffffffff16565b111580151561276657600080fd5b600160009054906101000a900473ffffffffffffffffffffffffffffffffffffffff1673ffffffffffffffffffffffffffffffffffffffff1663c139626b896000604051602001526040518263ffffffff167c0100000000000000000000000000000000000000000000000000000000028152600401808260001916600019168152602001915050602060405180830381600087803b151561280757600080fd5b6102c65a03f1151561281857600080fd5b5050506040518051905095506001945060008673ffffffffffffffffffffffffffffffffffffffff161415801561287b57503373ffffffffffffffffffffffffffffffffffffffff168673ffffffffffffffffffffffffffffffffffffffff1614155b15612928578593508373ffffffffffffffffffffffffffffffffffffffff16633f4fc19c89896000604051602001526040518363ffffffff167c010000000000000000000000000000000000000000000000000000000002815260040180836000191660001916815260200182815260200192505050602060405180830381600087803b151561290a57600080fd5b6102c65a03f1151561291b57600080fd5b5050506040518051905094505b84156129e357600160009054906101000a900473ffffffffffffffffffffffffffffffffffffffff1673ffffffffffffffffffffffffffffffffffffffff16633f4fc19c89896040518363ffffffff167c010000000000000000000000000000000000000000000000000000000002815260040180836000191660001916815260200182815260200192505050600060405180830381600087803b15156129ce57600080fd5b6102c65a03f115156129df57600080fd5b5050505b5050505050505050565b600060149054906101000a900460ff16151515612a0957600080fd5b60016003811115612a1657fe5b600160009054906101000a900473ffffffffffffffffffffffffffffffffffffffff1673ffffffffffffffffffffffffffffffffffffffff166309648a9d846000604051602001526040518263ffffffff167c0100000000000000000000000000000000000000000000000000000000028152600401808260001916600019168152602001915050602060405180830381600087803b1515612ab757600080fd5b6102c65a03f11515612ac857600080fd5b505050604051805190506003811115612add57fe5b14801515612aea57600080fd5b81341015801515612afa57600080fd5b34612bc984600160009054906101000a900473ffffffffffffffffffffffffffffffffffffffff1673ffffffffffffffffffffffffffffffffffffffff16636907c77d886000604051602001526040518263ffffffff167c0100000000000000000000000000000000000000000000000000000000028152600401808260001916600019168152602001915050602060405180830381600087803b1515612ba057600080fd5b6102c65a03f11515612bb157600080fd5b505050604051805190506139dd90919063ffffffff16565b1015801515612bd757600080fd5b6000841115612bec57612bea8585613d34565b505b612bf68534613688565b505050505050565b600080612c0f8b8b8b8b8b8b613fc3565b9050612c1e8c82878787611316565b9150509a9950505050505050505050565b60008060149054906101000a900460ff16151515612c4c57600080fd5b612c5582613595565b80612e2357503373ffffffffffffffffffffffffffffffffffffffff16600160009054906101000a900473ffffffffffffffffffffffffffffffffffffffff1673ffffffffffffffffffffffffffffffffffffffff1663a12cad70846000604051602001526040518263ffffffff167c0100000000000000000000000000000000000000000000000000000000028152600401808260001916600019168152602001915050602060405180830381600087803b1515612d1357600080fd5b6102c65a03f11515612d2457600080fd5b5050506040518051905073ffffffffffffffffffffffffffffffffffffffff16148015612e22575060006003811115612d5957fe5b600160009054906101000a900473ffffffffffffffffffffffffffffffffffffffff1673ffffffffffffffffffffffffffffffffffffffff166309648a9d846000604051602001526040518263ffffffff167c0100000000000000000000000000000000000000000000000000000000028152600401808260001916600019168152602001915050602060405180830381600087803b1515612dfa57600080fd5b6102c65a03f11515612e0b57600080fd5b505050604051805190506003811115612e2057fe5b145b5b801515612e2f57600080fd5b612e38836139fb565b915050919050565b60026020528060005260406000206000915090505481565b6000809054906101000a900473ffffffffffffffffffffffffffffffffffffffff1673ffffffffffffffffffffffffffffffffffffffff163373ffffffffffffffffffffffffffffffffffffffff16141515612eb357600080fd5b600073ffffffffffffffffffffffffffffffffffffffff168173ffffffffffffffffffffffffffffffffffffffff1614151515612eef57600080fd5b8073ffffffffffffffffffffffffffffffffffffffff166000809054906101000a900473ffffffffffffffffffffffffffffffffffffffff1673ffffffffffffffffffffffffffffffffffffffff167f8be0079c531659141344cd1fd0a4f28419497f9722a3daafe3b4186f6b6457e060405160405180910390a3806000806101000a81548173ffffffffffffffffffffffffffffffffffffffff021916908373ffffffffffffffffffffffffffffffffffffffff16021790555050565b600080600060149054906101000a900460ff16151515612fcc57600080fd5b873410151515612fdb57600080fd5b34612fef898d6139dd90919063ffffffff16565b10151515612ffc57600080fd5b6130658c8d338e8e8e600980602002604051908101604052809291908260096020028082843782019150505050508d8d8080601f0160208091040260200160405190810160405280939291908181526020018383808284378201915050505050508c8c8c612bfe565b151561307057600080fd5b600160009054906101000a900473ffffffffffffffffffffffffffffffffffffffff1673ffffffffffffffffffffffffffffffffffffffff166366a8530c8d8e338f8f8d8d6000604051602001526040518863ffffffff167c0100000000000000000000000000000000000000000000000000000000028152600401808873ffffffffffffffffffffffffffffffffffffffff1673ffffffffffffffffffffffffffffffffffffffff1681526020018773ffffffffffffffffffffffffffffffffffffffff1673ffffffffffffffffffffffffffffffffffffffff1681526020018673ffffffffffffffffffffffffffffffffffffffff1673ffffffffffffffffffffffffffffffffffffffff1681526020018581526020018473ffffffffffffffffffffffffffffffffffffffff1673ffffffffffffffffffffffffffffffffffffffff168152602001806020018281038252848482818152602001925080828437820191505098505050505050505050602060405180830381600087803b15156131fb57600080fd5b6102c65a03f1151561320c57600080fd5b50505060405180519050915060008a73ffffffffffffffffffffffffffffffffffffffff161415156132e8578990508073ffffffffffffffffffffffffffffffffffffffff1663d29574ba838b6000604051602001526040518363ffffffff167c010000000000000000000000000000000000000000000000000000000002815260040180836000191660001916815260200182600960200280828437820191505092505050602060405180830381600087803b15156132cb57600080fd5b6102c65a03f115156132dc57600080fd5b50505060405180519050505b6132f1826139fb565b15156132fc57600080fd5b60008811156133115761330f8289613d34565b505b6000341115613326576133248234613688565b505b819150509a9950505050505050505050565b600080600080600160009054906101000a900473ffffffffffffffffffffffffffffffffffffffff1673ffffffffffffffffffffffffffffffffffffffff1663c139626b886000604051602001526040518263ffffffff167c0100000000000000000000000000000000000000000000000000000000028152600401808260001916600019168152602001915050602060405180830381600087803b15156133df57600080fd5b6102c65a03f115156133f057600080fd5b5050506040518051905092506001915060008373ffffffffffffffffffffffffffffffffffffffff161415801561345357503373ffffffffffffffffffffffffffffffffffffffff168373ffffffffffffffffffffffffffffffffffffffff1614155b15613534578290508073ffffffffffffffffffffffffffffffffffffffff1663452e79a48888886000604051602001526040518463ffffffff167c01000000000000000000000000000000000000000000000000000000000281526004018084600019166000191681526020018373ffffffffffffffffffffffffffffffffffffffff1673ffffffffffffffffffffffffffffffffffffffff1681526020018281526020019350505050602060405180830381600087803b151561351657600080fd5b6102c65a03f1151561352757600080fd5b5050506040518051905091505b81156135885784600260008873ffffffffffffffffffffffffffffffffffffffff1673ffffffffffffffffffffffffffffffffffffffff168152602001908152602001600020600082825401925050819055505b8193505050509392505050565b6000600160009054906101000a900473ffffffffffffffffffffffffffffffffffffffff1673ffffffffffffffffffffffffffffffffffffffff1663c139626b836000604051602001526040518263ffffffff167c0100000000000000000000000000000000000000000000000000000000028152600401808260001916600019168152602001915050602060405180830381600087803b151561363857600080fd5b6102c65a03f1151561364957600080fd5b5050506040518051905073ffffffffffffffffffffffffffffffffffffffff163373ffffffffffffffffffffffffffffffffffffffff16149050919050565b600080600080600160009054906101000a900473ffffffffffffffffffffffffffffffffffffffff1673ffffffffffffffffffffffffffffffffffffffff1663c139626b876000604051602001526040518263ffffffff167c0100000000000000000000000000000000000000000000000000000000028152600401808260001916600019168152602001915050602060405180830381600087803b151561372f57600080fd5b6102c65a03f1151561374057600080fd5b5050506040518051905092506001915060008373ffffffffffffffffffffffffffffffffffffffff16141580156137a357503373ffffffffffffffffffffffffffffffffffffffff168373ffffffffffffffffffffffffffffffffffffffff1614155b15613850578290508073ffffffffffffffffffffffffffffffffffffffff1663a05bd4c687876000604051602001526040518363ffffffff167c010000000000000000000000000000000000000000000000000000000002815260040180836000191660001916815260200182815260200192505050602060405180830381600087803b151561383257600080fd5b6102c65a03f1151561384357600080fd5b5050506040518051905091505b81156139d157600160009054906101000a900473ffffffffffffffffffffffffffffffffffffffff1673ffffffffffffffffffffffffffffffffffffffff1663a05bd4c687876040518363ffffffff167c010000000000000000000000000000000000000000000000000000000002815260040180836000191660001916815260200182815260200192505050600060405180830381600087803b15156138f657600080fd5b6102c65a03f1151561390757600080fd5b5050506139cf86600160009054906101000a900473ffffffffffffffffffffffffffffffffffffffff1673ffffffffffffffffffffffffffffffffffffffff1662ca2f75896000604051602001526040518263ffffffff167c0100000000000000000000000000000000000000000000000000000000028152600401808260001916600019168152602001915050602060405180830381600087803b15156139ae57600080fd5b6102c65a03f115156139bf57600080fd5b5050506040518051905087613338565b505b81935050505092915050565b60008082840190508381101515156139f157fe5b8091505092915050565b600080600080600160009054906101000a900473ffffffffffffffffffffffffffffffffffffffff1673ffffffffffffffffffffffffffffffffffffffff1663c139626b866000604051602001526040518263ffffffff167c0100000000000000000000000000000000000000000000000000000000028152600401808260001916600019168152602001915050602060405180830381600087803b1515613aa257600080fd5b6102c65a03f11515613ab357600080fd5b5050506040518051905092506001915060008373ffffffffffffffffffffffffffffffffffffffff1614158015613b1657503373ffffffffffffffffffffffffffffffffffffffff168373ffffffffffffffffffffffffffffffffffffffff1614155b15613c7657600160009054906101000a900473ffffffffffffffffffffffffffffffffffffffff1673ffffffffffffffffffffffffffffffffffffffff1663c139626b866000604051602001526040518263ffffffff167c0100000000000000000000000000000000000000000000000000000000028152600401808260001916600019168152602001915050602060405180830381600087803b1515613bbc57600080fd5b6102c65a03f11515613bcd57600080fd5b5050506040518051905090508073ffffffffffffffffffffffffffffffffffffffff1663e4725ba1866000604051602001526040518263ffffffff167c0100000000000000000000000000000000000000000000000000000000028152600401808260001916600019168152602001915050602060405180830381600087803b1515613c5857600080fd5b6102c65a03f11515613c6957600080fd5b5050506040518051905091505b8115613d2957600160009054906101000a900473ffffffffffffffffffffffffffffffffffffffff1673ffffffffffffffffffffffffffffffffffffffff1663e4725ba1866040518263ffffffff167c0100000000000000000000000000000000000000000000000000000000028152600401808260001916600019168152602001915050600060405180830381600087803b1515613d1457600080fd5b6102c65a03f11515613d2557600080fd5b5050505b819350505050919050565b600080600080600160009054906101000a900473ffffffffffffffffffffffffffffffffffffffff1673ffffffffffffffffffffffffffffffffffffffff1663c139626b876000604051602001526040518263ffffffff167c0100000000000000000000000000000000000000000000000000000000028152600401808260001916600019168152602001915050602060405180830381600087803b1515613ddb57600080fd5b6102c65a03f11515613dec57600080fd5b5050506040518051905092506001915060008373ffffffffffffffffffffffffffffffffffffffff1614158015613e4f57503373ffffffffffffffffffffffffffffffffffffffff168373ffffffffffffffffffffffffffffffffffffffff1614155b15613efc578290508073ffffffffffffffffffffffffffffffffffffffff16636279dc5c87876000604051602001526040518363ffffffff167c010000000000000000000000000000000000000000000000000000000002815260040180836000191660001916815260200182815260200192505050602060405180830381600087803b1515613ede57600080fd5b6102c65a03f11515613eef57600080fd5b5050506040518051905091505b8115613fb757600160009054906101000a900473ffffffffffffffffffffffffffffffffffffffff1673ffffffffffffffffffffffffffffffffffffffff16636279dc5c87876040518363ffffffff167c010000000000000000000000000000000000000000000000000000000002815260040180836000191660001916815260200182815260200192505050600060405180830381600087803b1515613fa257600080fd5b6102c65a03f11515613fb357600080fd5b5050505b81935050505092915050565b600030878787878787604051808873ffffffffffffffffffffffffffffffffffffffff1673ffffffffffffffffffffffffffffffffffffffff166c010000000000000000000000000281526014018773ffffffffffffffffffffffffffffffffffffffff1673ffffffffffffffffffffffffffffffffffffffff166c010000000000000000000000000281526014018673ffffffffffffffffffffffffffffffffffffffff1673ffffffffffffffffffffffffffffffffffffffff166c010000000000000000000000000281526014018581526020018473ffffffffffffffffffffffffffffffffffffffff1673ffffffffffffffffffffffffffffffffffffffff166c0100000000000000000000000002815260140183600960200280838360005b838110156141015780820151818401526020810190506140e6565b5050505090500182805190602001908083835b6020831015156141395780518252602082019150602081019050602083039250614114565b6001836020036101000a0380198251168184511680821785525050505050509050019750505050505050506040518091039020905096955050505050505600a165627a7a72305820dace28b0dc2084468ca4b3dc75bedb9fb7ad5db00801de1b49e137ef4fb087710029",
  "source": "pragma solidity 0.4.18;\r\n\r\nimport '../core/RequestCore.sol';\r\nimport './extensions/RequestSynchroneInterface.sol';\r\nimport '../base/math/SafeMath.sol';\r\nimport '../base/lifecycle/Pausable.sol';\r\n\r\n/**\r\n * @title RequestEthereum\r\n *\r\n * @dev RequestEthereum is the sub contract managing the request payed in Ethereum\r\n *\r\n * @dev Requests can be created by the Payee with createRequest() or by the payer from a request signed offchain by the payee with createQuickRequest\r\n * @dev Requests can have 1 extension. it has to implement RequestSynchroneInterface and declared trusted on the Core\r\n */\r\ncontract RequestEthereum is Pausable {\r\n    using SafeMath for uint;\r\n\r\n    // RequestCore object\r\n    RequestCore public requestCore;\r\n\r\n    // Ethereum available to withdraw\r\n    struct EthToWithdraw {\r\n        uint amount;\r\n        address recipient;\r\n    }\r\n    mapping(address => uint) public ethToWithdraw;\r\n\r\n    /*\r\n     * @dev Constructor\r\n     * @param _requestCoreAddress Request Core address\r\n     */  \r\n    function RequestEthereum(address _requestCoreAddress) public\r\n    {\r\n        requestCore=RequestCore(_requestCoreAddress);\r\n    }\r\n\r\n    /*\r\n     * @dev Function to create a request as payee\r\n     *\r\n     * @dev msg.sender must be _payee\r\n     *\r\n     * @param _payer Entity supposed to pay\r\n     * @param _amountInitial Initial amount initial to be received. This amount can't be changed.\r\n     * @param _extension an extension can be linked to a request and allows advanced payments conditions such as escrow. Extensions have to be whitelisted in Core\r\n     * @param _extensionParams Parameters for the extensions. It is an array of 9 bytes32.\r\n     *\r\n     * @return Returns the id of the request \r\n     */\r\n    function createRequestAsPayee(address _payer, uint _amountInitial, address _extension, bytes32[9] _extensionParams, string _details)\r\n        external\r\n        whenNotPaused\r\n        returns(bytes32 requestId)\r\n    {\r\n        requestId= requestCore.createRequest(msg.sender, msg.sender, _payer, _amountInitial, _extension, _details);\r\n\r\n        if(_extension!=0) {\r\n            RequestSynchroneInterface extension = RequestSynchroneInterface(_extension);\r\n            extension.createRequest(requestId, _extensionParams);\r\n        }\r\n\r\n        return requestId;\r\n    }\r\n\r\n\r\n    /*\r\n     * @dev Function to create a request as payer\r\n     *\r\n     * @dev msg.sender must be _payee or _payer\r\n     *\r\n     * @param _payee Entity which will receive the payment\r\n     * @param _amountInitial Initial amount initial to be received. This amount can't be changed.\r\n     * @param _extension an extension can be linked to a request and allows advanced payments conditions such as escrow. Extensions have to be whitelisted in Core\r\n     * @param _extensionParams Parameters for the extensions. It is an array of 9 bytes32.\r\n     *\r\n     * @return Returns the id of the request \r\n     */\r\n    function createRequestAsPayer(address _payee, uint _amountInitial, address _extension, bytes32[9] _extensionParams, uint _tips, string _details)\r\n        external\r\n        payable\r\n        whenNotPaused\r\n        returns(bytes32 requestId)\r\n    {\r\n        require(msg.value >= _tips); // tips declare must be lower than amount sent\r\n        require(_amountInitial.add(_tips) >= msg.value); // You cannot pay more than amount needed\r\n\r\n        requestId= requestCore.createRequest(msg.sender, _payee, msg.sender, _amountInitial, _extension, _details);\r\n\r\n        if(_extension!=0) {\r\n            RequestSynchroneInterface extension = RequestSynchroneInterface(_extension);\r\n            extension.createRequest(requestId, _extensionParams);\r\n        }\r\n\r\n        // accept must succeed\r\n        require(acceptInternal(requestId));\r\n\r\n        if(_tips > 0) {\r\n            addAdditionalInternal(requestId, _tips);\r\n        }\r\n        if(msg.value > 0) {\r\n            paymentInternal(requestId, msg.value);\r\n        }\r\n\r\n        return requestId;\r\n    }\r\n\r\n\r\n\r\n    /*\r\n     * @dev Function to broadcast and accept an offchain signed request (can be paid and tips also)\r\n     *\r\n     * @dev msg.sender must be _payer\r\n     * @dev the _payer can tips \r\n     *\r\n     * @param _payee Entity which will receive the payment\r\n     * @param _payer Entity supposed to pay\r\n     * @param _amountInitial Initial amount initial to be received. This amount can't be changed.\r\n     * @param _extension an extension can be linked to a request and allows advanced payments conditions such as escrow. Extensions have to be whitelisted in Core\r\n     * @param _extensionParams Parameters for the extension. It is an array of 9 bytes32\r\n     * @param _tips amount of tips the payer want to declare\r\n     * @param v ECDSA signature parameter v.\r\n     * @param r ECDSA signature parameters r.\r\n     * @param s ECDSA signature parameters s.\r\n     *\r\n     * @return Returns the id of the request \r\n     */\r\n   function broadcastSignedRequestAsPayer(address _payee, uint _amountInitial, address _extension, bytes32[9] _extensionParams, uint _tips, string _details, uint8 v, bytes32 r, bytes32 s)\r\n        external\r\n        payable\r\n        whenNotPaused\r\n        returns(bytes32 requestId)\r\n    {\r\n        require(msg.value >= _tips); // tips declare must be lower than amount sent\r\n        require(_amountInitial.add(_tips) >= msg.value); // You cannot pay more than amount needed\r\n\r\n        // check the signature\r\n        require(checkRequestSignature(_payee,_payee,msg.sender,_amountInitial,_extension,_extensionParams,_details, v, r, s));\r\n\r\n        requestId=requestCore.createRequest(_payee, _payee, msg.sender, _amountInitial, _extension, _details);\r\n\r\n        if(_extension!=0) {\r\n            RequestSynchroneInterface extension = RequestSynchroneInterface(_extension);\r\n            extension.createRequest(requestId, _extensionParams);\r\n        }\r\n\r\n        // accept must succeed\r\n        require(acceptInternal(requestId));\r\n\r\n        if(_tips > 0) {\r\n            addAdditionalInternal(requestId, _tips);\r\n        }\r\n        if(msg.value > 0) {\r\n            paymentInternal(requestId, msg.value);\r\n        }\r\n\r\n        return requestId;\r\n    }\r\n\r\n    // ---- INTERFACE FUNCTIONS ------------------------------------------------------------------------------------\r\n\r\n    /*\r\n     * @dev Function to accept a request\r\n     *\r\n     * @dev msg.sender must be _payer or an extension used by the request\r\n     *\r\n     * @param _requestId id of the request \r\n     *\r\n     * @return true if the request is accepted, false otherwise\r\n     */\r\n    function accept(bytes32 _requestId) \r\n        external\r\n        whenNotPaused\r\n        condition(isOnlyRequestExtension(_requestId) || (requestCore.getPayer(_requestId)==msg.sender && requestCore.getState(_requestId)==RequestCore.State.Created))\r\n        returns(bool)\r\n    {\r\n        return acceptInternal(_requestId);\r\n    }\r\n\r\n    /*\r\n     * @dev Function to decline a request\r\n     *\r\n     * @dev msg.sender must be _payer or the extension used by the request\r\n     *\r\n     * @param _requestId id of the request \r\n     *\r\n     * @return true if the request is declined, false otherwise\r\n     */\r\n    function decline(bytes32 _requestId)\r\n        external\r\n        whenNotPaused\r\n        condition(isOnlyRequestExtension(_requestId) || (requestCore.getPayer(_requestId)==msg.sender && requestCore.getState(_requestId)==RequestCore.State.Created))\r\n        returns(bool)\r\n    {\r\n        address extensionAddr = requestCore.getExtension(_requestId);\r\n\r\n        bool isOK = true;\r\n        if(extensionAddr!=0 && extensionAddr!=msg.sender)  \r\n        {\r\n            RequestSynchroneInterface extension = RequestSynchroneInterface(extensionAddr);\r\n            isOK = extension.decline(_requestId);\r\n        }\r\n\r\n        if(isOK) \r\n        {\r\n            requestCore.decline(_requestId);\r\n        }  \r\n        return isOK;\r\n    }\r\n\r\n    /*\r\n     * @dev Function to declare a payment a request\r\n     *\r\n     * @dev msg.sender must be an extension used by the request\r\n     *\r\n     * @param _requestId id of the request \r\n     * @param _amount amount of the payment to declare\r\n     *\r\n     * @return true if the payment is declared, false otherwise\r\n     */\r\n    function payment(bytes32 _requestId, uint _amount)\r\n        external\r\n        whenNotPaused\r\n        onlyRequestExtensions(_requestId)\r\n        returns(bool)\r\n    {\r\n        return paymentInternal(_requestId, _amount);\r\n    }\r\n\r\n    /*\r\n     * @dev Function to order a fund mouvment \r\n     *\r\n     * @dev msg.sender must be an extension used by the request\r\n     *\r\n     * @param _requestId id of the request \r\n     * @param _recipient adress where the wei has to me send to\r\n     * @param _amount amount in wei to send\r\n     *\r\n     * @return true if the fund mouvement is done, false otherwise\r\n     */\r\n    function fundOrder(bytes32 _requestId, address _recipient, uint _amount)\r\n        external\r\n        whenNotPaused\r\n        onlyRequestExtensions(_requestId)\r\n        returns(bool)\r\n    {\r\n        return fundOrderInternal(_requestId, _recipient, _amount);\r\n    }\r\n\r\n    /*\r\n     * @dev Function to cancel a request\r\n     *\r\n     * @dev msg.sender must be _payee or an extension used by the request\r\n     * @dev only request with amountPaid equals to zero can be cancel\r\n     *\r\n     * @param _requestId id of the request \r\n     *\r\n     * @return true if the request is canceled, false otherwise\r\n     */\r\n    function cancel(bytes32 _requestId)\r\n        external\r\n        whenNotPaused\r\n        condition(isOnlyRequestExtension(_requestId) || (requestCore.getPayee(_requestId)==msg.sender && (requestCore.getState(_requestId)==RequestCore.State.Created || requestCore.getState(_requestId)==RequestCore.State.Accepted)))\r\n        returns(bool)\r\n    {\r\n        // impossible to cancel a Request with a balance != 0\r\n        require(requestCore.getAmountPaid(_requestId) == 0);\r\n\r\n        address extensionAddr = requestCore.getExtension(_requestId);\r\n\r\n        bool isOK = true;\r\n        if(extensionAddr!=0 && extensionAddr!=msg.sender)  \r\n        {\r\n            RequestSynchroneInterface extension = RequestSynchroneInterface(extensionAddr);\r\n            isOK = extension.cancel(_requestId);\r\n        }\r\n        \r\n        if(isOK) \r\n        {\r\n          requestCore.cancel(_requestId);\r\n        }\r\n        return isOK;\r\n    }\r\n\r\n    // ----------------------------------------------------------------------------------------\r\n\r\n\r\n    // ---- CONTRACT FUNCTIONS ------------------------------------------------------------------------------------\r\n    /*\r\n     * @dev Function PAYABLE to pay in ether a request\r\n     *\r\n     * @dev the request must be accepted\r\n     * @dev tips must be lower than the actual amount of wei sent\r\n     *\r\n     * @param _requestId id of the request\r\n     * @param _tips amount of tips in wei to declare \r\n     */\r\n    function pay(bytes32 _requestId, uint _tips)\r\n        external\r\n        whenNotPaused\r\n        payable\r\n        condition(requestCore.getState(_requestId)==RequestCore.State.Accepted)\r\n        condition(msg.value >= _tips) // tips declare must be lower than amount sent\r\n        condition(requestCore.getAmountInitialAfterSubAdd(_requestId).add(_tips) >= msg.value) // You can pay more than amount needed\r\n    {\r\n        if(_tips > 0) {\r\n            addAdditionalInternal(_requestId, _tips);\r\n        }\r\n        paymentInternal(_requestId, msg.value);\r\n    }\r\n\r\n    /*\r\n     * @dev Function PAYABLE to pay back in ether a request to the payee\r\n     *\r\n     * @dev msg.sender must be _payer\r\n     * @dev the request must be accepted\r\n     * @dev the payback must be lower than the amount already paid for the request\r\n     *\r\n     * @param _requestId id of the request\r\n     */\r\n    function payback(bytes32 _requestId)\r\n        external\r\n        whenNotPaused\r\n        condition(requestCore.getState(_requestId)==RequestCore.State.Accepted)\r\n        onlyRequestPayee(_requestId)\r\n        condition(msg.value <= requestCore.getAmountPaid(_requestId))\r\n        payable\r\n    {   \r\n        address extensionAddr = requestCore.getExtension(_requestId);\r\n\r\n        bool isOK = true;\r\n        if(extensionAddr!=0 && extensionAddr!=msg.sender)  \r\n        {\r\n            RequestSynchroneInterface extension = RequestSynchroneInterface(extensionAddr);\r\n            isOK = extension.refund(_requestId, msg.value);\r\n        }\r\n\r\n        if(isOK) \r\n        {\r\n            requestCore.refund(_requestId, msg.value);\r\n            // refund done, the money is ready to withdraw by the payer\r\n            fundOrderInternal(_requestId, requestCore.getPayer(_requestId), msg.value);\r\n        }\r\n    }\r\n\r\n    /*\r\n     * @dev Function to declare a discount\r\n     *\r\n     * @dev msg.sender must be _payee or an extension used by the request\r\n     * @dev the request must be accepted or created\r\n     *\r\n     * @param _requestId id of the request\r\n     * @param _tips amount of discount in wei to declare \r\n     */\r\n    function discount(bytes32 _requestId, uint _amount)\r\n        external\r\n        whenNotPaused\r\n        condition(requestCore.getState(_requestId)==RequestCore.State.Accepted || requestCore.getState(_requestId)==RequestCore.State.Created)\r\n        onlyRequestPayee(_requestId)\r\n        condition(_amount.add(requestCore.getAmountPaid(_requestId)) <= requestCore.getAmountInitialAfterSubAdd(_requestId))\r\n    {\r\n        address extensionAddr = requestCore.getExtension(_requestId);\r\n\r\n        bool isOK = true;\r\n        if(extensionAddr!=0 && extensionAddr!=msg.sender)  \r\n        {\r\n            RequestSynchroneInterface extension = RequestSynchroneInterface(extensionAddr);\r\n            isOK = extension.addSubtract(_requestId, _amount);\r\n        }\r\n\r\n        if(isOK) \r\n        {\r\n            requestCore.addSubtract(_requestId, _amount);\r\n        }\r\n    }\r\n\r\n\r\n    /*\r\n     * @dev Function to withdraw ether\r\n     */\r\n    function withdraw()\r\n        public\r\n    {\r\n        uint amount = ethToWithdraw[msg.sender];\r\n        ethToWithdraw[msg.sender] = 0;\r\n        msg.sender.transfer(amount);\r\n    }\r\n    // ----------------------------------------------------------------------------------------\r\n\r\n\r\n    // ---- INTERNAL FUNCTIONS ------------------------------------------------------------------------------------\r\n    /*\r\n     * @dev Function internal to manage payment declaration\r\n     *\r\n     * @param _requestId id of the request\r\n     * @param _amount amount of payment in wei to declare \r\n     *\r\n     * @return true if the payment is done, false otherwise\r\n     */\r\n    function paymentInternal(bytes32 _requestId, uint _amount) \r\n        internal\r\n        returns(bool)\r\n    {\r\n        address extensionAddr = requestCore.getExtension(_requestId);\r\n\r\n        bool isOK = true;\r\n        if(extensionAddr!=0 && extensionAddr!=msg.sender) \r\n        {\r\n            RequestSynchroneInterface extension = RequestSynchroneInterface(extensionAddr);\r\n            isOK = extension.payment(_requestId, _amount);\r\n        }\r\n\r\n        if(isOK) \r\n        {\r\n            requestCore.payment(_requestId, _amount);\r\n            // payment done, the money is ready to withdraw by the payee\r\n            fundOrderInternal(_requestId, requestCore.getPayee(_requestId), _amount);\r\n        }\r\n        return isOK;\r\n    }\r\n\r\n    /*\r\n     * @dev Function internal to manage tips declaration\r\n     *\r\n     * @param _requestId id of the request\r\n     * @param _amount amount of tips in wei to declare \r\n     *\r\n     * @return true if the tips is declared, false otherwise\r\n     */\r\n    function  addAdditionalInternal(bytes32 _requestId, uint _amount) \r\n        internal\r\n        returns(bool)\r\n    {\r\n        address extensionAddr = requestCore.getExtension(_requestId);\r\n\r\n        bool isOK = true;\r\n        if(extensionAddr!=0 && extensionAddr!=msg.sender)  \r\n        {\r\n            RequestSynchroneInterface extension = RequestSynchroneInterface(extensionAddr);\r\n            isOK = extension.addAdditional(_requestId, _amount);\r\n        }\r\n\r\n        if(isOK) \r\n        {\r\n            requestCore.addAdditional(_requestId, _amount);\r\n        }\r\n        return isOK;\r\n    }\r\n\r\n    /*\r\n     * @dev Function internal to manage fund mouvement\r\n     *\r\n     * @param _requestId id of the request \r\n     * @param _recipient adress where the wei has to me send to\r\n     * @param _amount amount in wei to send\r\n     *\r\n     * @return true if the fund mouvement is done, false otherwise\r\n     */\r\n    function fundOrderInternal(bytes32 _requestId, address _recipient, uint _amount) \r\n        internal\r\n        returns(bool)\r\n    {\r\n        address extensionAddr = requestCore.getExtension(_requestId);\r\n\r\n        bool isOK = true;\r\n        if(extensionAddr!=0 && extensionAddr!=msg.sender)  \r\n        {\r\n            RequestSynchroneInterface extension = RequestSynchroneInterface(extensionAddr);\r\n            isOK = extension.fundOrder(_requestId,_recipient,_amount);\r\n        }\r\n\r\n        if(isOK) \r\n        {\r\n            // sending fund means make it availbale to withdraw here\r\n            ethToWithdraw[_recipient] += _amount;\r\n        }   \r\n        return isOK;\r\n    }\r\n\r\n    /*\r\n     * @dev Function internal to manage acceptance\r\n     *\r\n     * @param _requestId id of the request \r\n     *\r\n     * @return true if the request is accept, false otherwise\r\n     */\r\n    function acceptInternal(bytes32 _requestId) \r\n        internal\r\n        returns(bool)\r\n    {\r\n        address extensionAddr = requestCore.getExtension(_requestId);\r\n\r\n        bool isOK = true;\r\n        if(extensionAddr!=0 && extensionAddr!=msg.sender)  \r\n        {\r\n            RequestSynchroneInterface extension = RequestSynchroneInterface(requestCore.getExtension(_requestId));\r\n            isOK = extension.accept(_requestId);\r\n        }\r\n\r\n        if(isOK) \r\n        {\r\n            requestCore.accept(_requestId);\r\n        }  \r\n        return isOK;\r\n    }\r\n\r\n    /*\r\n     * @dev Function internal to calculate Keccak-256 hash of a request with specified parameters\r\n     *\r\n     * @param _payee Entity which will receive the payment\r\n     * @param _payer Entity supposed to pay\r\n     * @param _amountInitial Initial amount initial to be received. This amount can't be changed.\r\n     * @param _extensions Up to 3 extensions can be linked to a request and allows advanced payments conditions such as escrow. Extensions have to be whitelisted in Core\r\n     * @param _extensionParams Parameters for the extensions. It is an array of 9 bytes32, the 3 first element are for the first extension, the 3 next for the second extension and the last 3 for the third extension.\r\n     *\r\n     * @return Keccak-256 hash of a request\r\n     */\r\n    function getRequestHash(address _payee, address _payer, uint _amountInitial, address _extension, bytes32[9] _extensionParams, string _details)\r\n        internal\r\n        view\r\n        returns(bytes32)\r\n    {\r\n        return keccak256(this,_payee,_payer,_amountInitial,_extension,_extensionParams,_details);\r\n    }\r\n\r\n    /*\r\n     * @dev Verifies that a hash signature is valid. 0x style\r\n     * @param signer address of signer.\r\n     * @param hash Signed Keccak-256 hash.\r\n     * @param v ECDSA signature parameter v.\r\n     * @param r ECDSA signature parameters r.\r\n     * @param s ECDSA signature parameters s.\r\n     * @return Validity of order signature.\r\n     */\r\n    function isValidSignature(\r\n        address signer,\r\n        bytes32 hash,\r\n        uint8 v,\r\n        bytes32 r,\r\n        bytes32 s)\r\n        public\r\n        pure\r\n        returns (bool)\r\n    {\r\n        return signer == ecrecover(\r\n            keccak256(\"\\x19Ethereum Signed Message:\\n32\", hash),\r\n            v,\r\n            r,\r\n            s\r\n        );\r\n    }\r\n\r\n    function checkRequestSignature(\r\n        address signer,\r\n        address payee,\r\n        address payer,\r\n        uint amountInitial,\r\n        address extension,\r\n        bytes32[9] extensionParams,\r\n        string details,\r\n        uint8 v,\r\n        bytes32 r,\r\n        bytes32 s)\r\n        public\r\n        view\r\n        returns (bool)\r\n    {\r\n        bytes32 hash = getRequestHash(payee,payer,amountInitial,extension,extensionParams,details);\r\n        return isValidSignature(signer, hash, v, r, s);\r\n    }\r\n\r\n    /*\r\n     * @dev Function internal to check if the msg.sender is an extension of the request\r\n     *\r\n     * @param _requestId id of the request \r\n     *\r\n     * @return true if msg.sender is an extension of the request\r\n     */\r\n    function isOnlyRequestExtension(bytes32 _requestId) \r\n        internal \r\n        view\r\n        returns(bool)\r\n    {\r\n        return msg.sender==requestCore.getExtension(_requestId);\r\n    }\r\n\r\n    //modifier\r\n    modifier condition(bool c) \r\n    {\r\n        require(c);\r\n        _;\r\n    }\r\n\r\n    /*\r\n     * @dev Modifier to check if msg.sender is payer\r\n     * @dev Revert if msg.sender is not payer\r\n     * @param _requestId id of the request \r\n     */    \r\n    modifier onlyRequestPayer(bytes32 _requestId) \r\n    {\r\n        require(requestCore.getPayer(_requestId)==msg.sender);\r\n        _;\r\n    }\r\n    \r\n    /*\r\n     * @dev Modifier to check if msg.sender is payee\r\n     * @dev Revert if msg.sender is not payee\r\n     * @param _requestId id of the request \r\n     */    \r\n    modifier onlyRequestPayee(bytes32 _requestId) \r\n    {\r\n        require(requestCore.getPayee(_requestId)==msg.sender);\r\n        _;\r\n    }\r\n\r\n    /*\r\n     * @dev Modifier to check if msg.sender is payee or payer\r\n     * @dev Revert if msg.sender is not payee or payer\r\n     * @param _requestId id of the request \r\n     */\r\n    modifier onlyRequestPayeeOrPayer(bytes32 _requestId) \r\n    {\r\n        require(requestCore.getPayee(_requestId)==msg.sender || requestCore.getPayer(_requestId)==msg.sender);\r\n        _;\r\n    }\r\n\r\n    /*\r\n     * @dev Modifier to check if request is in a specify state\r\n     * @dev Revert if request not in a specify state\r\n     * @param _requestId id of the request \r\n     * @param _state state to check\r\n     */\r\n    modifier onlyRequestState(bytes32 _requestId, RequestCore.State _state) \r\n    {\r\n        require(requestCore.getState(_requestId)==_state);\r\n        _;\r\n    }\r\n\r\n    /*\r\n     * @dev Modifier to check if the msg.sender is an extension of the request\r\n     * @dev Revert if msg.sender is not an extension of the request\r\n     * @param _requestId id of the request\r\n     */\r\n    modifier onlyRequestExtensions(bytes32 _requestId) \r\n    {\r\n        require(isOnlyRequestExtension(_requestId));\r\n        _;\r\n    }\r\n}\r\n",
  "sourcePath": "C:\\Users\\vince\\Documents\\Request\\git\\Request_SmartContracts\\contracts\\synchrone\\RequestEthereum.sol",
  "compiler": {
    "name": "solc",
    "version": "0.4.18+commit.9cf6e910.Emscripten.clang"
  },
  "schemaVersion": "1.0.1",
  "updatedAt": "2017-11-07T11:28:20.024Z"
}