{
  "contractName": "RequestCore",
  "abi": [
    {
      "constant": true,
      "inputs": [
        {
          "name": "_requestId",
          "type": "bytes32"
        }
      ],
      "name": "getPayee",
      "outputs": [
        {
          "name": "",
          "type": "address"
        }
      ],
      "payable": false,
      "stateMutability": "view",
      "type": "function"
    },
    {
      "constant": true,
      "inputs": [
        {
          "name": "_requestId",
          "type": "bytes32"
        }
      ],
      "name": "getAmountInitial",
      "outputs": [
        {
          "name": "",
          "type": "uint256"
        }
      ],
      "payable": false,
      "stateMutability": "view",
      "type": "function"
    },
    {
      "constant": true,
      "inputs": [
        {
          "name": "_requestId",
          "type": "bytes32"
        }
      ],
      "name": "getState",
      "outputs": [
        {
          "name": "",
          "type": "uint8"
        }
      ],
      "payable": false,
      "stateMutability": "view",
      "type": "function"
    },
    {
      "constant": false,
      "inputs": [
        {
          "name": "_requestId",
          "type": "bytes32"
        },
        {
          "name": "_extension",
          "type": "address"
        }
      ],
      "name": "setExtension",
      "outputs": [],
      "payable": false,
      "stateMutability": "nonpayable",
      "type": "function"
    },
    {
      "constant": true,
      "inputs": [
        {
          "name": "_requestId",
          "type": "bytes32"
        }
      ],
      "name": "getSubContract",
      "outputs": [
        {
          "name": "",
          "type": "address"
        }
      ],
      "payable": false,
      "stateMutability": "view",
      "type": "function"
    },
    {
      "constant": false,
      "inputs": [
        {
          "name": "_requestId",
          "type": "bytes32"
        },
        {
          "name": "_payer",
          "type": "address"
        }
      ],
      "name": "setPayer",
      "outputs": [],
      "payable": false,
      "stateMutability": "nonpayable",
      "type": "function"
    },
    {
      "constant": false,
      "inputs": [
        {
          "name": "_oldExtension",
          "type": "address"
        }
      ],
      "name": "adminRemoveExtension",
      "outputs": [],
      "payable": false,
      "stateMutability": "nonpayable",
      "type": "function"
    },
    {
      "constant": false,
      "inputs": [],
      "name": "unpause",
      "outputs": [],
      "payable": false,
      "stateMutability": "nonpayable",
      "type": "function"
    },
    {
      "constant": false,
      "inputs": [
        {
          "name": "_requestId",
          "type": "bytes32"
        },
        {
          "name": "_amount",
          "type": "uint256"
        }
      ],
      "name": "addSubtract",
      "outputs": [],
      "payable": false,
      "stateMutability": "nonpayable",
      "type": "function"
    },
    {
      "constant": true,
      "inputs": [
        {
          "name": "_requestId",
          "type": "bytes32"
        }
      ],
      "name": "getAmountSubtract",
      "outputs": [
        {
          "name": "",
          "type": "uint256"
        }
      ],
      "payable": false,
      "stateMutability": "view",
      "type": "function"
    },
    {
      "constant": false,
      "inputs": [
        {
          "name": "_newContractAddress",
          "type": "address"
        }
      ],
      "name": "adminAddTrustedSubContract",
      "outputs": [],
      "payable": false,
      "stateMutability": "nonpayable",
      "type": "function"
    },
    {
      "constant": true,
      "inputs": [],
      "name": "paused",
      "outputs": [
        {
          "name": "",
          "type": "bool"
        }
      ],
      "payable": false,
      "stateMutability": "view",
      "type": "function"
    },
    {
      "constant": false,
      "inputs": [
        {
          "name": "_requestId",
          "type": "bytes32"
        },
        {
          "name": "_amount",
          "type": "uint256"
        }
      ],
      "name": "addAdditional",
      "outputs": [],
      "payable": false,
      "stateMutability": "nonpayable",
      "type": "function"
    },
    {
      "constant": false,
      "inputs": [
        {
          "name": "_creator",
          "type": "address"
        },
        {
          "name": "_payee",
          "type": "address"
        },
        {
          "name": "_payer",
          "type": "address"
        },
        {
          "name": "_amountInitial",
          "type": "uint256"
        },
        {
          "name": "_extension",
          "type": "address"
        },
        {
          "name": "_details",
          "type": "string"
        }
      ],
      "name": "createRequest",
      "outputs": [
        {
          "name": "requestId",
          "type": "bytes32"
        }
      ],
      "payable": false,
      "stateMutability": "nonpayable",
      "type": "function"
    },
    {
      "constant": true,
      "inputs": [
        {
          "name": "_requestId",
          "type": "bytes32"
        }
      ],
      "name": "getAmountInitialAfterSubAdd",
      "outputs": [
        {
          "name": "",
          "type": "uint256"
        }
      ],
      "payable": false,
      "stateMutability": "view",
      "type": "function"
    },
    {
      "constant": false,
      "inputs": [
        {
          "name": "_requestId",
          "type": "bytes32"
        },
        {
          "name": "_amount",
          "type": "uint256"
        }
      ],
      "name": "refund",
      "outputs": [],
      "payable": false,
      "stateMutability": "nonpayable",
      "type": "function"
    },
    {
      "constant": true,
      "inputs": [
        {
          "name": "_requestId",
          "type": "bytes32"
        }
      ],
      "name": "getAmountAdditional",
      "outputs": [
        {
          "name": "",
          "type": "uint256"
        }
      ],
      "payable": false,
      "stateMutability": "view",
      "type": "function"
    },
    {
      "constant": true,
      "inputs": [
        {
          "name": "_requestId",
          "type": "bytes32"
        }
      ],
      "name": "getAmountPaid",
      "outputs": [
        {
          "name": "",
          "type": "uint256"
        }
      ],
      "payable": false,
      "stateMutability": "view",
      "type": "function"
    },
    {
      "constant": false,
      "inputs": [],
      "name": "pause",
      "outputs": [],
      "payable": false,
      "stateMutability": "nonpayable",
      "type": "function"
    },
    {
      "constant": false,
      "inputs": [
        {
          "name": "_oldTrustedContractAddress",
          "type": "address"
        }
      ],
      "name": "adminRemoveTrustedSubContract",
      "outputs": [],
      "payable": false,
      "stateMutability": "nonpayable",
      "type": "function"
    },
    {
      "constant": false,
      "inputs": [
        {
          "name": "_requestId",
          "type": "bytes32"
        }
      ],
      "name": "decline",
      "outputs": [],
      "payable": false,
      "stateMutability": "nonpayable",
      "type": "function"
    },
    {
      "constant": true,
      "inputs": [],
      "name": "owner",
      "outputs": [
        {
          "name": "",
          "type": "address"
        }
      ],
      "payable": false,
      "stateMutability": "view",
      "type": "function"
    },
    {
      "constant": true,
      "inputs": [
        {
          "name": "_extension",
          "type": "address"
        }
      ],
      "name": "getStatusExtension",
      "outputs": [
        {
          "name": "",
          "type": "uint8"
        }
      ],
      "payable": false,
      "stateMutability": "view",
      "type": "function"
    },
    {
      "constant": true,
      "inputs": [
        {
          "name": "",
          "type": "bytes32"
        }
      ],
      "name": "requests",
      "outputs": [
        {
          "name": "creator",
          "type": "address"
        },
        {
          "name": "payee",
          "type": "address"
        },
        {
          "name": "payer",
          "type": "address"
        },
        {
          "name": "amountInitial",
          "type": "uint256"
        },
        {
          "name": "subContract",
          "type": "address"
        },
        {
          "name": "amountPaid",
          "type": "uint256"
        },
        {
          "name": "amountAdditional",
          "type": "uint256"
        },
        {
          "name": "amountSubtract",
          "type": "uint256"
        },
        {
          "name": "state",
          "type": "uint8"
        },
        {
          "name": "extension",
          "type": "address"
        },
        {
          "name": "details",
          "type": "string"
        }
      ],
      "payable": false,
      "stateMutability": "view",
      "type": "function"
    },
    {
      "constant": true,
      "inputs": [],
      "name": "numRequests",
      "outputs": [
        {
          "name": "",
          "type": "uint256"
        }
      ],
      "payable": false,
      "stateMutability": "view",
      "type": "function"
    },
    {
      "constant": false,
      "inputs": [
        {
          "name": "_requestId",
          "type": "bytes32"
        },
        {
          "name": "_amount",
          "type": "uint256"
        }
      ],
      "name": "payment",
      "outputs": [],
      "payable": false,
      "stateMutability": "nonpayable",
      "type": "function"
    },
    {
      "constant": true,
      "inputs": [
        {
          "name": "_requestId",
          "type": "bytes32"
        }
      ],
      "name": "getPayer",
      "outputs": [
        {
          "name": "",
          "type": "address"
        }
      ],
      "payable": false,
      "stateMutability": "view",
      "type": "function"
    },
    {
      "constant": false,
      "inputs": [
        {
          "name": "_newExtension",
          "type": "address"
        }
      ],
      "name": "adminAddTrustedExtension",
      "outputs": [],
      "payable": false,
      "stateMutability": "nonpayable",
      "type": "function"
    },
    {
      "constant": false,
      "inputs": [
        {
          "name": "_requestId",
          "type": "bytes32"
        },
        {
          "name": "_amountInitial",
          "type": "uint256"
        }
      ],
      "name": "setAmountInitial",
      "outputs": [],
      "payable": false,
      "stateMutability": "nonpayable",
      "type": "function"
    },
    {
      "constant": true,
      "inputs": [
        {
          "name": "_requestId",
          "type": "bytes32"
        }
      ],
      "name": "getExtension",
      "outputs": [
        {
          "name": "",
          "type": "address"
        }
      ],
      "payable": false,
      "stateMutability": "view",
      "type": "function"
    },
    {
      "constant": false,
      "inputs": [
        {
          "name": "_requestId",
          "type": "bytes32"
        }
      ],
      "name": "cancel",
      "outputs": [],
      "payable": false,
      "stateMutability": "nonpayable",
      "type": "function"
    },
    {
      "constant": true,
      "inputs": [
        {
          "name": "",
          "type": "address"
        }
      ],
      "name": "trustedExtensions",
      "outputs": [
        {
          "name": "",
          "type": "uint8"
        }
      ],
      "payable": false,
      "stateMutability": "view",
      "type": "function"
    },
    {
      "constant": false,
      "inputs": [
        {
          "name": "_requestId",
          "type": "bytes32"
        },
        {
          "name": "_payee",
          "type": "address"
        }
      ],
      "name": "setPayee",
      "outputs": [],
      "payable": false,
      "stateMutability": "nonpayable",
      "type": "function"
    },
    {
      "constant": false,
      "inputs": [
        {
          "name": "_requestId",
          "type": "bytes32"
        },
        {
          "name": "_details",
          "type": "string"
        }
      ],
      "name": "setDetails",
      "outputs": [],
      "payable": false,
      "stateMutability": "nonpayable",
      "type": "function"
    },
    {
      "constant": false,
      "inputs": [
        {
          "name": "_requestId",
          "type": "bytes32"
        }
      ],
      "name": "accept",
      "outputs": [],
      "payable": false,
      "stateMutability": "nonpayable",
      "type": "function"
    },
    {
      "constant": true,
      "inputs": [
        {
          "name": "",
          "type": "address"
        }
      ],
      "name": "trustedSubContracts",
      "outputs": [
        {
          "name": "",
          "type": "uint8"
        }
      ],
      "payable": false,
      "stateMutability": "view",
      "type": "function"
    },
    {
      "constant": false,
      "inputs": [
        {
          "name": "newOwner",
          "type": "address"
        }
      ],
      "name": "transferOwnership",
      "outputs": [],
      "payable": false,
      "stateMutability": "nonpayable",
      "type": "function"
    },
    {
      "constant": true,
      "inputs": [
        {
          "name": "_contractAddress",
          "type": "address"
        }
      ],
      "name": "getStatusContract",
      "outputs": [
        {
          "name": "",
          "type": "uint8"
        }
      ],
      "payable": false,
      "stateMutability": "view",
      "type": "function"
    },
    {
      "constant": true,
      "inputs": [],
      "name": "VERSION",
      "outputs": [
        {
          "name": "",
          "type": "uint256"
        }
      ],
      "payable": false,
      "stateMutability": "view",
      "type": "function"
    },
    {
      "inputs": [],
      "payable": false,
      "stateMutability": "nonpayable",
      "type": "constructor"
    },
    {
      "anonymous": false,
      "inputs": [
        {
          "indexed": false,
          "name": "requestId",
          "type": "bytes32"
        },
        {
          "indexed": false,
          "name": "payee",
          "type": "address"
        },
        {
          "indexed": false,
          "name": "payer",
          "type": "address"
        }
      ],
      "name": "Created",
      "type": "event"
    },
    {
      "anonymous": false,
      "inputs": [
        {
          "indexed": false,
          "name": "requestId",
          "type": "bytes32"
        }
      ],
      "name": "Accepted",
      "type": "event"
    },
    {
      "anonymous": false,
      "inputs": [
        {
          "indexed": false,
          "name": "requestId",
          "type": "bytes32"
        }
      ],
      "name": "Declined",
      "type": "event"
    },
    {
      "anonymous": false,
      "inputs": [
        {
          "indexed": false,
          "name": "requestId",
          "type": "bytes32"
        }
      ],
      "name": "Canceled",
      "type": "event"
    },
    {
      "anonymous": false,
      "inputs": [
        {
          "indexed": false,
          "name": "requestId",
          "type": "bytes32"
        },
        {
          "indexed": false,
          "name": "amountPaid",
          "type": "uint256"
        }
      ],
      "name": "Payment",
      "type": "event"
    },
    {
      "anonymous": false,
      "inputs": [
        {
          "indexed": false,
          "name": "requestId",
          "type": "bytes32"
        },
        {
          "indexed": false,
          "name": "amountRefunded",
          "type": "uint256"
        }
      ],
      "name": "Refunded",
      "type": "event"
    },
    {
      "anonymous": false,
      "inputs": [
        {
          "indexed": false,
          "name": "requestId",
          "type": "bytes32"
        },
        {
          "indexed": false,
          "name": "amountAdded",
          "type": "uint256"
        }
      ],
      "name": "AddAdditional",
      "type": "event"
    },
    {
      "anonymous": false,
      "inputs": [
        {
          "indexed": false,
          "name": "requestId",
          "type": "bytes32"
        },
        {
          "indexed": false,
          "name": "amountSubtracted",
          "type": "uint256"
        }
      ],
      "name": "AddSubtract",
      "type": "event"
    },
    {
      "anonymous": false,
      "inputs": [
        {
          "indexed": false,
          "name": "requestId",
          "type": "bytes32"
        },
        {
          "indexed": false,
          "name": "payee",
          "type": "address"
        }
      ],
      "name": "NewPayee",
      "type": "event"
    },
    {
      "anonymous": false,
      "inputs": [
        {
          "indexed": false,
          "name": "requestId",
          "type": "bytes32"
        },
        {
          "indexed": false,
          "name": "payer",
          "type": "address"
        }
      ],
      "name": "NewPayer",
      "type": "event"
    },
    {
      "anonymous": false,
      "inputs": [
        {
          "indexed": false,
          "name": "requestId",
          "type": "bytes32"
        },
        {
          "indexed": false,
          "name": "amountInitial",
          "type": "uint256"
        }
      ],
      "name": "NewAmountInitial",
      "type": "event"
    },
    {
      "anonymous": false,
      "inputs": [
        {
          "indexed": false,
          "name": "requestId",
          "type": "bytes32"
        },
        {
          "indexed": false,
          "name": "extension",
          "type": "address"
        }
      ],
      "name": "NewExtension",
      "type": "event"
    },
    {
      "anonymous": false,
      "inputs": [
        {
          "indexed": false,
          "name": "requestId",
          "type": "bytes32"
        },
        {
          "indexed": false,
          "name": "details",
          "type": "string"
        }
      ],
      "name": "NewDetails",
      "type": "event"
    },
    {
      "anonymous": false,
      "inputs": [
        {
          "indexed": false,
          "name": "newContract",
          "type": "address"
        }
      ],
      "name": "NewTrustedContract",
      "type": "event"
    },
    {
      "anonymous": false,
      "inputs": [
        {
          "indexed": false,
          "name": "oldContract",
          "type": "address"
        }
      ],
      "name": "RemoveTrustedContract",
      "type": "event"
    },
    {
      "anonymous": false,
      "inputs": [
        {
          "indexed": false,
          "name": "newExtension",
          "type": "address"
        }
      ],
      "name": "NewTrustedExtension",
      "type": "event"
    },
    {
      "anonymous": false,
      "inputs": [
        {
          "indexed": false,
          "name": "oldExtension",
          "type": "address"
        }
      ],
      "name": "RemoveTrustedExtension",
      "type": "event"
    },
    {
      "anonymous": false,
      "inputs": [],
      "name": "Pause",
      "type": "event"
    },
    {
      "anonymous": false,
      "inputs": [],
      "name": "Unpause",
      "type": "event"
    },
    {
      "anonymous": false,
      "inputs": [
        {
          "indexed": true,
          "name": "previousOwner",
          "type": "address"
        },
        {
          "indexed": true,
          "name": "newOwner",
          "type": "address"
        }
      ],
      "name": "OwnershipTransferred",
      "type": "event"
    }
  ],
  "bytecode": "0x606060405260008060146101000a81548160ff021916908315150217905550341561002957600080fd5b336000806101000a81548173ffffffffffffffffffffffffffffffffffffffff021916908373ffffffffffffffffffffffffffffffffffffffff1602179055506000600381905550612dc2806100806000396000f3006060604052600436106101e2576000357c0100000000000000000000000000000000000000000000000000000000900463ffffffff168062ca2f75146101e75780630279e9431461024e57806309648a9d146102895780630d799b85146102d257806310c9c9ed14610318578063141dfcef1461037f578063304ebbc4146103c55780633f4ba83a146103fe5780633f4fc19c146104135780634e3fa15e146104435780635c34b18f1461047e5780635c975abb146104b75780636279dc5c146104e457806366a8530c146105145780636907c77d146105e3578063695eda191461061e5780636c0e154e1461064e5780636e5a2d6c146106895780638456cb59146106c45780638c17429f146106d95780638cc7d3d1146107125780638da5cb5b14610739578063919c90a61461078e5780639d866985146107e15780639fb42b1f146109ce578063a05bd4c6146109f7578063a12cad7014610a27578063a246a6f514610a8e578063ba6f47ab14610ac7578063c139626b14610af7578063c4d252f514610b5e578063c868154914610b85578063ca7be8af14610bd8578063e45a96f214610c1e578063e4725ba114610c59578063e4cb0a0a14610c80578063f2fde38b14610cd3578063f8db71b514610d0c578063ffa1ad7414610d5f575b600080fd5b34156101f257600080fd5b61020c600480803560001916906020019091905050610d88565b604051808273ffffffffffffffffffffffffffffffffffffffff1673ffffffffffffffffffffffffffffffffffffffff16815260200191505060405180910390f35b341561025957600080fd5b610273600480803560001916906020019091905050610dd0565b6040518082815260200191505060405180910390f35b341561029457600080fd5b6102ae600480803560001916906020019091905050610df8565b604051808260038111156102be57fe5b60ff16815260200191505060405180910390f35b34156102dd57600080fd5b61031660048080356000191690602001909190803573ffffffffffffffffffffffffffffffffffffffff16906020019091905050610e2d565b005b341561032357600080fd5b61033d600480803560001916906020019091905050611000565b604051808273ffffffffffffffffffffffffffffffffffffffff1673ffffffffffffffffffffffffffffffffffffffff16815260200191505060405180910390f35b341561038a57600080fd5b6103c360048080356000191690602001909190803573ffffffffffffffffffffffffffffffffffffffff16906020019091905050611048565b005b34156103d057600080fd5b6103fc600480803573ffffffffffffffffffffffffffffffffffffffff1690602001909190505061119a565b005b341561040957600080fd5b610411611313565b005b341561041e57600080fd5b6104416004808035600019169060200190919080359060200190919050506113d1565b005b341561044e57600080fd5b6104686004808035600019169060200190919050506114d6565b6040518082815260200191505060405180910390f35b341561048957600080fd5b6104b5600480803573ffffffffffffffffffffffffffffffffffffffff169060200190919050506114fe565b005b34156104c257600080fd5b6104ca611617565b604051808215151515815260200191505060405180910390f35b34156104ef57600080fd5b61051260048080356000191690602001909190803590602001909190505061162a565b005b341561051f57600080fd5b6105c5600480803573ffffffffffffffffffffffffffffffffffffffff1690602001909190803573ffffffffffffffffffffffffffffffffffffffff1690602001909190803573ffffffffffffffffffffffffffffffffffffffff1690602001909190803590602001909190803573ffffffffffffffffffffffffffffffffffffffff16906020019091908035906020019082018035906020019190919290505061172f565b60405180826000191660001916815260200191505060405180910390f35b34156105ee57600080fd5b610608600480803560001916906020019091905050611c36565b6040518082815260200191505060405180910390f35b341561062957600080fd5b61064c600480803560001916906020019091908035906020019091905050611cbe565b005b341561065957600080fd5b610673600480803560001916906020019091905050611da6565b6040518082815260200191505060405180910390f35b341561069457600080fd5b6106ae600480803560001916906020019091905050611dce565b6040518082815260200191505060405180910390f35b34156106cf57600080fd5b6106d7611df6565b005b34156106e457600080fd5b610710600480803573ffffffffffffffffffffffffffffffffffffffff16906020019091905050611eb6565b005b341561071d57600080fd5b61073760048080356000191690602001909190505061202f565b005b341561074457600080fd5b61074c612115565b604051808273ffffffffffffffffffffffffffffffffffffffff1673ffffffffffffffffffffffffffffffffffffffff16815260200191505060405180910390f35b341561079957600080fd5b6107c5600480803573ffffffffffffffffffffffffffffffffffffffff1690602001909190505061213a565b604051808260ff1660ff16815260200191505060405180910390f35b34156107ec57600080fd5b610806600480803560001916906020019091905050612190565b604051808c73ffffffffffffffffffffffffffffffffffffffff1673ffffffffffffffffffffffffffffffffffffffff1681526020018b73ffffffffffffffffffffffffffffffffffffffff1673ffffffffffffffffffffffffffffffffffffffff1681526020018a73ffffffffffffffffffffffffffffffffffffffff1673ffffffffffffffffffffffffffffffffffffffff1681526020018981526020018873ffffffffffffffffffffffffffffffffffffffff1673ffffffffffffffffffffffffffffffffffffffff1681526020018781526020018681526020018581526020018460038111156108f657fe5b60ff1681526020018373ffffffffffffffffffffffffffffffffffffffff1673ffffffffffffffffffffffffffffffffffffffff168152602001806020018281038252838181546001816001161561010002031660029004815260200191508054600181600116156101000203166002900480156109b55780601f1061098a576101008083540402835291602001916109b5565b820191906000526020600020905b81548152906001019060200180831161099857829003601f168201915b50509c5050505050505050505050505060405180910390f35b34156109d957600080fd5b6109e1612296565b6040518082815260200191505060405180910390f35b3415610a0257600080fd5b610a2560048080356000191690602001909190803590602001909190505061229c565b005b3415610a3257600080fd5b610a4c600480803560001916906020019091905050612384565b604051808273ffffffffffffffffffffffffffffffffffffffff1673ffffffffffffffffffffffffffffffffffffffff16815260200191505060405180910390f35b3415610a9957600080fd5b610ac5600480803573ffffffffffffffffffffffffffffffffffffffff169060200190919050506123cc565b005b3415610ad257600080fd5b610af56004808035600019169060200190919080359060200190919050506124e6565b005b3415610b0257600080fd5b610b1c6004808035600019169060200190919050506125d2565b604051808273ffffffffffffffffffffffffffffffffffffffff1673ffffffffffffffffffffffffffffffffffffffff16815260200191505060405180910390f35b3415610b6957600080fd5b610b8360048080356000191690602001909190505061261a565b005b3415610b9057600080fd5b610bbc600480803573ffffffffffffffffffffffffffffffffffffffff16906020019091905050612700565b604051808260ff1660ff16815260200191505060405180910390f35b3415610be357600080fd5b610c1c60048080356000191690602001909190803573ffffffffffffffffffffffffffffffffffffffff16906020019091905050612720565b005b3415610c2957600080fd5b610c576004808035600019169060200190919080359060200190820180359060200191909192905050612872565b005b3415610c6457600080fd5b610c7e600480803560001916906020019091905050612984565b005b3415610c8b57600080fd5b610cb7600480803573ffffffffffffffffffffffffffffffffffffffff16906020019091905050612a6a565b604051808260ff1660ff16815260200191505060405180910390f35b3415610cde57600080fd5b610d0a600480803573ffffffffffffffffffffffffffffffffffffffff16906020019091905050612a8a565b005b3415610d1757600080fd5b610d43600480803573ffffffffffffffffffffffffffffffffffffffff16906020019091905050612bdf565b604051808260ff1660ff16815260200191505060405180910390f35b3415610d6a57600080fd5b610d72612c35565b6040518082815260200191505060405180910390f35b600060046000836000191660001916815260200190815260200160002060010160009054906101000a900473ffffffffffffffffffffffffffffffffffffffff169050919050565b6000600460008360001916600019168152602001908152602001600020600301549050919050565b600060046000836000191660001916815260200190815260200160002060080160009054906101000a900460ff169050919050565b60008160008173ffffffffffffffffffffffffffffffffffffffff161480610ea457506001600260008373ffffffffffffffffffffffffffffffffffffffff1673ffffffffffffffffffffffffffffffffffffffff16815260200190815260200160002060009054906101000a900460ff1660ff16145b1515610eaf57600080fd5b60046000856000191660001916815260200190815260200160002091503373ffffffffffffffffffffffffffffffffffffffff168260040160009054906101000a900473ffffffffffffffffffffffffffffffffffffffff1673ffffffffffffffffffffffffffffffffffffffff16141515610f2a57600080fd5b8260046000866000191660001916815260200190815260200160002060080160016101000a81548173ffffffffffffffffffffffffffffffffffffffff021916908373ffffffffffffffffffffffffffffffffffffffff1602179055507f374086d5e631a6f798d3727174cfbccdfc5bdd8a5d770a240dc23cb4b7da628084846040518083600019166000191681526020018273ffffffffffffffffffffffffffffffffffffffff1673ffffffffffffffffffffffffffffffffffffffff1681526020019250505060405180910390a150505050565b600060046000836000191660001916815260200190815260200160002060040160009054906101000a900473ffffffffffffffffffffffffffffffffffffffff169050919050565b600060046000846000191660001916815260200190815260200160002090503373ffffffffffffffffffffffffffffffffffffffff168160040160009054906101000a900473ffffffffffffffffffffffffffffffffffffffff1673ffffffffffffffffffffffffffffffffffffffff161415156110c557600080fd5b8160046000856000191660001916815260200190815260200160002060020160006101000a81548173ffffffffffffffffffffffffffffffffffffffff021916908373ffffffffffffffffffffffffffffffffffffffff1602179055507fb993313924b36bd849fa52d0a074e373a396c05011da3e24549e065c1b2213f583836040518083600019166000191681526020018273ffffffffffffffffffffffffffffffffffffffff1673ffffffffffffffffffffffffffffffffffffffff1681526020019250505060405180910390a1505050565b6000809054906101000a900473ffffffffffffffffffffffffffffffffffffffff1673ffffffffffffffffffffffffffffffffffffffff163373ffffffffffffffffffffffffffffffffffffffff161415156111f557600080fd5b6000600260008373ffffffffffffffffffffffffffffffffffffffff1673ffffffffffffffffffffffffffffffffffffffff16815260200190815260200160002060009054906101000a900460ff1660ff161415151561125457600080fd5b6000600260008373ffffffffffffffffffffffffffffffffffffffff1673ffffffffffffffffffffffffffffffffffffffff16815260200190815260200160002060006101000a81548160ff021916908360ff1602179055507fdc9a204d909138de82035fe2db864cb4bd386a905d05418e46cc3c2983d5bb8b81604051808273ffffffffffffffffffffffffffffffffffffffff1673ffffffffffffffffffffffffffffffffffffffff16815260200191505060405180910390a150565b6000809054906101000a900473ffffffffffffffffffffffffffffffffffffffff1673ffffffffffffffffffffffffffffffffffffffff163373ffffffffffffffffffffffffffffffffffffffff1614151561136e57600080fd5b600060149054906101000a900460ff16151561138957600080fd5b60008060146101000a81548160ff0219169083151502179055507f7805862f689e2f13df9f062ff482ad3ad112aca9e0847911ed832e158c525b3360405160405180910390a1565b600060046000846000191660001916815260200190815260200160002090503373ffffffffffffffffffffffffffffffffffffffff168160040160009054906101000a900473ffffffffffffffffffffffffffffffffffffffff1673ffffffffffffffffffffffffffffffffffffffff1614151561144e57600080fd5b611465828260070154612c3a90919063ffffffff16565b8160070181905550806003015481600701548260030154031115151561148a57600080fd5b7f477cb15caea0801c2a0d32e40304eeb9a8a37250055d0e50686e2ac43e38802683836040518083600019166000191681526020018281526020019250505060405180910390a1505050565b6000600460008360001916600019168152602001908152602001600020600701549050919050565b6000809054906101000a900473ffffffffffffffffffffffffffffffffffffffff1673ffffffffffffffffffffffffffffffffffffffff163373ffffffffffffffffffffffffffffffffffffffff1614151561155957600080fd5b60018060008373ffffffffffffffffffffffffffffffffffffffff1673ffffffffffffffffffffffffffffffffffffffff16815260200190815260200160002060006101000a81548160ff021916908360ff1602179055507f26644c0325b712ffff764a64a71985fb39d46406ffb32dd76c3ca00c56136a5781604051808273ffffffffffffffffffffffffffffffffffffffff1673ffffffffffffffffffffffffffffffffffffffff16815260200191505060405180910390a150565b600060149054906101000a900460ff1681565b600060046000846000191660001916815260200190815260200160002090503373ffffffffffffffffffffffffffffffffffffffff168160040160009054906101000a900473ffffffffffffffffffffffffffffffffffffffff1673ffffffffffffffffffffffffffffffffffffffff161415156116a757600080fd5b6116be828260060154612c3a90919063ffffffff16565b816006018190555080600301548160030154826006015401101515156116e357600080fd5b7facf510f4ea7548b3aa698d8c982b1d34ca991a16d38e8ce52b91da4c6a79ff1d83836040518083600019166000191681526020018281526020019250505060405180910390a1505050565b60008060149054906101000a900460ff1615151561174c57600080fd5b3360018060008373ffffffffffffffffffffffffffffffffffffffff1673ffffffffffffffffffffffffffffffffffffffff16815260200190815260200160002060009054906101000a900460ff1660ff161415156117aa57600080fd5b8460008173ffffffffffffffffffffffffffffffffffffffff16148061181f57506001600260008373ffffffffffffffffffffffffffffffffffffffff1673ffffffffffffffffffffffffffffffffffffffff16815260200190815260200160002060009054906101000a900460ff1660ff16145b151561182a57600080fd5b8960008173ffffffffffffffffffffffffffffffffffffffff161415151561185157600080fd5b6118676001600354612c3a90919063ffffffff16565b6003819055506003546001604051808381526020018281526020019250505060405180910390209350610160604051908101604052808c73ffffffffffffffffffffffffffffffffffffffff1681526020018b73ffffffffffffffffffffffffffffffffffffffff1681526020018a73ffffffffffffffffffffffffffffffffffffffff1681526020018981526020013373ffffffffffffffffffffffffffffffffffffffff1681526020016000815260200160008152602001600081526020016000600381111561193557fe5b81526020018873ffffffffffffffffffffffffffffffffffffffff16815260200187878080601f01602080910402602001604051908101604052809392919081815260200183838082843782019150505050505081525060046000866000191660001916815260200190815260200160002060008201518160000160006101000a81548173ffffffffffffffffffffffffffffffffffffffff021916908373ffffffffffffffffffffffffffffffffffffffff16021790555060208201518160010160006101000a81548173ffffffffffffffffffffffffffffffffffffffff021916908373ffffffffffffffffffffffffffffffffffffffff16021790555060408201518160020160006101000a81548173ffffffffffffffffffffffffffffffffffffffff021916908373ffffffffffffffffffffffffffffffffffffffff1602179055506060820151816003015560808201518160040160006101000a81548173ffffffffffffffffffffffffffffffffffffffff021916908373ffffffffffffffffffffffffffffffffffffffff16021790555060a0820151816005015560c0820151816006015560e082015181600701556101008201518160080160006101000a81548160ff02191690836003811115611b1057fe5b02179055506101208201518160080160016101000a81548173ffffffffffffffffffffffffffffffffffffffff021916908373ffffffffffffffffffffffffffffffffffffffff160217905550610140820151816009019080519060200190611b7a929190612c71565b509050507fe6d28c9f55198aba8818ea50c42929faefa033fb2984d9095b4da1e999347478848b8b6040518084600019166000191681526020018373ffffffffffffffffffffffffffffffffffffffff1673ffffffffffffffffffffffffffffffffffffffff1681526020018273ffffffffffffffffffffffffffffffffffffffff1673ffffffffffffffffffffffffffffffffffffffff168152602001935050505060405180910390a1839350505050979650505050505050565b6000611cb760046000846000191660001916815260200190815260200160002060070154611ca96004600086600019166000191681526020019081526020016000206006015460046000876000191660001916815260200190815260200160002060030154612c3a90919063ffffffff16565b612c5890919063ffffffff16565b9050919050565b600060046000846000191660001916815260200190815260200160002090503373ffffffffffffffffffffffffffffffffffffffff168160040160009054906101000a900473ffffffffffffffffffffffffffffffffffffffff1673ffffffffffffffffffffffffffffffffffffffff16141515611d3b57600080fd5b611d52828260050154612c5890919063ffffffff16565b81600501819055507f1535ab411323bb41ad642ccf14068bbd78818ed38dd9b4421c927cc6eeb07e2d83836040518083600019166000191681526020018281526020019250505060405180910390a1505050565b6000600460008360001916600019168152602001908152602001600020600601549050919050565b6000600460008360001916600019168152602001908152602001600020600501549050919050565b6000809054906101000a900473ffffffffffffffffffffffffffffffffffffffff1673ffffffffffffffffffffffffffffffffffffffff163373ffffffffffffffffffffffffffffffffffffffff16141515611e5157600080fd5b600060149054906101000a900460ff16151515611e6d57600080fd5b6001600060146101000a81548160ff0219169083151502179055507f6985a02210a168e66602d3235cb6db0e70f92b3ba4d376a33c0f3d9434bff62560405160405180910390a1565b6000809054906101000a900473ffffffffffffffffffffffffffffffffffffffff1673ffffffffffffffffffffffffffffffffffffffff163373ffffffffffffffffffffffffffffffffffffffff16141515611f1157600080fd5b6000600160008373ffffffffffffffffffffffffffffffffffffffff1673ffffffffffffffffffffffffffffffffffffffff16815260200190815260200160002060009054906101000a900460ff1660ff1614151515611f7057600080fd5b6000600160008373ffffffffffffffffffffffffffffffffffffffff1673ffffffffffffffffffffffffffffffffffffffff16815260200190815260200160002060006101000a81548160ff021916908360ff1602179055507f37e1aad3ab2362f3de04d0fe2369a3dd3596a8c79745fb1345df1336f07cb72881604051808273ffffffffffffffffffffffffffffffffffffffff1673ffffffffffffffffffffffffffffffffffffffff16815260200191505060405180910390a150565b600060046000836000191660001916815260200190815260200160002090503373ffffffffffffffffffffffffffffffffffffffff168160040160009054906101000a900473ffffffffffffffffffffffffffffffffffffffff1673ffffffffffffffffffffffffffffffffffffffff161415156120ac57600080fd5b60028160080160006101000a81548160ff021916908360038111156120cd57fe5b02179055507f63a74c035a6c582a01b99a0efcd1faba14bf17a953d6ee04ebadac0aa34876fd8260405180826000191660001916815260200191505060405180910390a15050565b6000809054906101000a900473ffffffffffffffffffffffffffffffffffffffff1681565b6000600260008373ffffffffffffffffffffffffffffffffffffffff1673ffffffffffffffffffffffffffffffffffffffff16815260200190815260200160002060009054906101000a900460ff169050919050565b60046020528060005260406000206000915090508060000160009054906101000a900473ffffffffffffffffffffffffffffffffffffffff16908060010160009054906101000a900473ffffffffffffffffffffffffffffffffffffffff16908060020160009054906101000a900473ffffffffffffffffffffffffffffffffffffffff16908060030154908060040160009054906101000a900473ffffffffffffffffffffffffffffffffffffffff16908060050154908060060154908060070154908060080160009054906101000a900460ff16908060080160019054906101000a900473ffffffffffffffffffffffffffffffffffffffff16908060090190508b565b60035481565b600060046000846000191660001916815260200190815260200160002090503373ffffffffffffffffffffffffffffffffffffffff168160040160009054906101000a900473ffffffffffffffffffffffffffffffffffffffff1673ffffffffffffffffffffffffffffffffffffffff1614151561231957600080fd5b612330828260050154612c3a90919063ffffffff16565b81600501819055507f1cd328a1be3e091c1139295424bcd1ab9f8b73e34d95ef6974547b2bc9e82fbf83836040518083600019166000191681526020018281526020019250505060405180910390a1505050565b600060046000836000191660001916815260200190815260200160002060020160009054906101000a900473ffffffffffffffffffffffffffffffffffffffff169050919050565b6000809054906101000a900473ffffffffffffffffffffffffffffffffffffffff1673ffffffffffffffffffffffffffffffffffffffff163373ffffffffffffffffffffffffffffffffffffffff1614151561242757600080fd5b6001600260008373ffffffffffffffffffffffffffffffffffffffff1673ffffffffffffffffffffffffffffffffffffffff16815260200190815260200160002060006101000a81548160ff021916908360ff1602179055507ff86a6607d50e3e49c32332972e579f045ace5af1902162e45ac1802ccc006ff981604051808273ffffffffffffffffffffffffffffffffffffffff1673ffffffffffffffffffffffffffffffffffffffff16815260200191505060405180910390a150565b600060046000846000191660001916815260200190815260200160002090503373ffffffffffffffffffffffffffffffffffffffff168160040160009054906101000a900473ffffffffffffffffffffffffffffffffffffffff1673ffffffffffffffffffffffffffffffffffffffff1614151561256357600080fd5b81600460008560001916600019168152602001908152602001600020600301819055507f0a998ae63affc1018455a500990c3ee191cd911f61bf8e0bd8dc55e3fceab1bb83836040518083600019166000191681526020018281526020019250505060405180910390a1505050565b600060046000836000191660001916815260200190815260200160002060080160019054906101000a900473ffffffffffffffffffffffffffffffffffffffff169050919050565b600060046000836000191660001916815260200190815260200160002090503373ffffffffffffffffffffffffffffffffffffffff168160040160009054906101000a900473ffffffffffffffffffffffffffffffffffffffff1673ffffffffffffffffffffffffffffffffffffffff1614151561269757600080fd5b60038160080160006101000a81548160ff021916908360038111156126b857fe5b02179055507f134fdd648feeaf30251f0157f9624ef8608ff9a042aad6d13e73f35d21d3f88d8260405180826000191660001916815260200191505060405180910390a15050565b60026020528060005260406000206000915054906101000a900460ff1681565b600060046000846000191660001916815260200190815260200160002090503373ffffffffffffffffffffffffffffffffffffffff168160040160009054906101000a900473ffffffffffffffffffffffffffffffffffffffff1673ffffffffffffffffffffffffffffffffffffffff1614151561279d57600080fd5b8160046000856000191660001916815260200190815260200160002060010160006101000a81548173ffffffffffffffffffffffffffffffffffffffff021916908373ffffffffffffffffffffffffffffffffffffffff1602179055507f7ab45e5f9954c3a9c811a8ce60096ad2c9fcf5d574145fb241de6ecee960164683836040518083600019166000191681526020018273ffffffffffffffffffffffffffffffffffffffff1673ffffffffffffffffffffffffffffffffffffffff1681526020019250505060405180910390a1505050565b600060046000856000191660001916815260200190815260200160002090503373ffffffffffffffffffffffffffffffffffffffff168160040160009054906101000a900473ffffffffffffffffffffffffffffffffffffffff1673ffffffffffffffffffffffffffffffffffffffff161415156128ef57600080fd5b8282600460008760001916600019168152602001908152602001600020600901919061291c929190612cf1565b507ff0f68c56006ff20102bb84b06f97ccfe298a35797e42aa83b42757f35a28cd64848484604051808460001916600019168152602001806020018281038252848482818152602001925080828437820191505094505050505060405180910390a150505050565b600060046000836000191660001916815260200190815260200160002090503373ffffffffffffffffffffffffffffffffffffffff168160040160009054906101000a900473ffffffffffffffffffffffffffffffffffffffff1673ffffffffffffffffffffffffffffffffffffffff16141515612a0157600080fd5b60018160080160006101000a81548160ff02191690836003811115612a2257fe5b02179055507f1f3c0697c3ada95f9e84a917995664b76cd8b4ae5de25e77ee111122ae3a00d08260405180826000191660001916815260200191505060405180910390a15050565b60016020528060005260406000206000915054906101000a900460ff1681565b6000809054906101000a900473ffffffffffffffffffffffffffffffffffffffff1673ffffffffffffffffffffffffffffffffffffffff163373ffffffffffffffffffffffffffffffffffffffff16141515612ae557600080fd5b600073ffffffffffffffffffffffffffffffffffffffff168173ffffffffffffffffffffffffffffffffffffffff1614151515612b2157600080fd5b8073ffffffffffffffffffffffffffffffffffffffff166000809054906101000a900473ffffffffffffffffffffffffffffffffffffffff1673ffffffffffffffffffffffffffffffffffffffff167f8be0079c531659141344cd1fd0a4f28419497f9722a3daafe3b4186f6b6457e060405160405180910390a3806000806101000a81548173ffffffffffffffffffffffffffffffffffffffff021916908373ffffffffffffffffffffffffffffffffffffffff16021790555050565b6000600160008373ffffffffffffffffffffffffffffffffffffffff1673ffffffffffffffffffffffffffffffffffffffff16815260200190815260200160002060009054906101000a900460ff169050919050565b600181565b6000808284019050838110151515612c4e57fe5b8091505092915050565b6000828211151515612c6657fe5b818303905092915050565b828054600181600116156101000203166002900490600052602060002090601f016020900481019282601f10612cb257805160ff1916838001178555612ce0565b82800160010185558215612ce0579182015b82811115612cdf578251825591602001919060010190612cc4565b5b509050612ced9190612d71565b5090565b828054600181600116156101000203166002900490600052602060002090601f016020900481019282601f10612d3257803560ff1916838001178555612d60565b82800160010185558215612d60579182015b82811115612d5f578235825591602001919060010190612d44565b5b509050612d6d9190612d71565b5090565b612d9391905b80821115612d8f576000816000905550600101612d77565b5090565b905600a165627a7a723058202334de183622f97e82ac2b11d79f9e2a48d5fceb0476a89e775ac1381dadf6c00029",
  "source": "pragma solidity 0.4.18;\r\n\r\nimport './Administrable.sol';\r\nimport '../base/math/SafeMath.sol';\r\n\r\n/**\r\n * @title RequestCore\r\n *\r\n * @dev The Core is the main contract which store all the Requests.\r\n *\r\n * @dev The Core philosophy is to be as much flexible as possible to adapt in the future to any new system\r\n * @dev All the important conditions and an important part of the business logic takes place in the subcontracts.\r\n * @dev Requests can only be created in the subcontracts\r\n * @dev Subcontracts have to be allowed by the Core and respect the business logic.\r\n * @dev Request Network will develop one subcontracts per currency and anyone can creates its own subcontracts.\r\n */\r\ncontract RequestCore is Administrable {\r\n    // current version of the core\r\n    uint public constant VERSION = 1;\r\n\r\n    using SafeMath for uint;\r\n\r\n    enum State { Created, Accepted, Declined, Canceled }\r\n\r\n    struct Request {\r\n        address creator;\r\n        address payee;\r\n        address payer;\r\n        uint amountInitial;\r\n        address subContract;\r\n        uint amountPaid;\r\n        uint amountAdditional;\r\n        uint amountSubtract;\r\n        State state;\r\n        address extension;\r\n        string details;\r\n    }\r\n\r\n    // index of the Request in the mapping\r\n    uint public numRequests; \r\n    \r\n    // mapping of all the Requests\r\n    mapping(bytes32 => Request) public requests;\r\n\r\n    /*\r\n     *  Events \r\n     */\r\n    event Created(bytes32 requestId, address payee, address payer);\r\n    event Accepted(bytes32 requestId);\r\n    event Declined(bytes32 requestId);\r\n    event Canceled(bytes32 requestId);\r\n    event Payment(bytes32 requestId, uint amountPaid);\r\n    event Refunded(bytes32 requestId, uint amountRefunded);\r\n    event AddAdditional(bytes32 requestId, uint amountAdded);\r\n    event AddSubtract(bytes32 requestId, uint amountSubtracted);\r\n\r\n    event NewPayee(bytes32 requestId, address payee);\r\n    event NewPayer(bytes32 requestId, address payer);\r\n    event NewAmountInitial(bytes32 requestId, uint amountInitial);\r\n    event NewExtension(bytes32 requestId, address extension);\r\n    event NewDetails(bytes32 requestId, string details);\r\n\r\n    /*\r\n     *  Constructor \r\n     */\r\n    function RequestCore() \r\n        public\r\n    {\r\n        numRequests = 0;\r\n    }\r\n\r\n    /*\r\n     * @dev Function used by Subcontracts to create a request in the Core\r\n     * @param _creator Request creator\r\n     * @param _payee Entity which will receive the payment\r\n     * @param _payer Entity supposed to pay\r\n     * @param _amountInitial Initial amount initial to be received. This amount can't be changed.\r\n     * @param _extension an extension can be linked to a request and allows advanced payments conditions such as escrow. Extensions have to be whitelisted in Core\r\n     * @return Returns the id of the request \r\n     */   \r\n    function createRequest(address _creator, address _payee, address _payer, uint _amountInitial, address _extension, string _details) \r\n        external\r\n        whenNotPaused \r\n        isTrustedContract(msg.sender)\r\n        isTrustedExtension(_extension)\r\n        creatorNotZero(_creator)\r\n        returns (bytes32 requestId) \r\n    {\r\n        numRequests = numRequests.add(1);\r\n        requestId = keccak256(numRequests,VERSION);\r\n\r\n        requests[requestId] = Request(_creator, _payee, _payer, _amountInitial, msg.sender, 0, 0, 0, State.Created, _extension, _details); \r\n\r\n        Created(requestId, _payee, _payer);\r\n        return requestId;\r\n    }\r\n\r\n    /*\r\n     * @dev Function used by Subcontracts to accept a request in the Core. A request accepted is recognized by the payer as legit\r\n     * @param _requestId Request id\r\n     */ \r\n    function accept(bytes32 _requestId) \r\n        external\r\n    {\r\n        Request storage r = requests[_requestId];\r\n        require(r.subContract==msg.sender); \r\n        r.state = State.Accepted;\r\n        Accepted(_requestId);\r\n    }\r\n\r\n    /*\r\n     * @dev Function used by Subcontracts to decline a request in the Core. A request declined is recognized by the payer as not legit and might be spam\r\n     * @param _requestId Request id\r\n     */ \r\n    function decline(bytes32 _requestId)\r\n        external\r\n    {\r\n        Request storage r = requests[_requestId];\r\n        require(r.subContract==msg.sender); \r\n        r.state = State.Declined;\r\n        Declined(_requestId);\r\n    }\r\n\r\n    /*\r\n     * @dev Function used by Subcontracts to cancel a request in the Core. Several reasons can lead to cancel a reason, see request life cycle for more info.\r\n     * @param _requestId Request id\r\n     */ \r\n    function cancel(bytes32 _requestId)\r\n        external\r\n    {\r\n        Request storage r = requests[_requestId];\r\n        require(r.subContract==msg.sender);\r\n\r\n        r.state = State.Canceled;\r\n        Canceled(_requestId);\r\n    }   \r\n\r\n    /*\r\n     * @dev Function used by Subcontracts to declare a payment in the Core. The subcontract guarantee that the request was paid for a specific amount\r\n     * @param _requestId Request id\r\n     * @param _amount amount paid\r\n     */ \r\n    function payment(bytes32 _requestId, uint _amount)\r\n        external\r\n    {   \r\n        Request storage r = requests[_requestId];\r\n        require(r.subContract==msg.sender); \r\n\r\n        r.amountPaid = r.amountPaid.add(_amount);\r\n\r\n        Payment(_requestId, _amount);\r\n    }\r\n\r\n    /*\r\n     * @dev Function used by Subcontracts to declare a refund in the Core. A refund is initiated by the payee to the payer and decrease the amount paid in the request\r\n     * @param _requestId Request id\r\n     * @param _amount amount refunded\r\n     */ \r\n    function refund(bytes32 _requestId, uint _amount)\r\n        external\r\n    {   \r\n        Request storage r = requests[_requestId];\r\n        require(r.subContract==msg.sender); \r\n\r\n        r.amountPaid = r.amountPaid.sub(_amount);\r\n\r\n        Refunded(_requestId, _amount);\r\n    }\r\n\r\n    /*\r\n     * @dev Function used by Subcontracts to add an additional amount to pay to the request. The amount initial can not be changed but a tips, a  penalty or several reason can lead to a request being paid an additional\r\n     * @param _requestId Request id\r\n     * @param _amount additional amount\r\n     */ \r\n    function addAdditional(bytes32 _requestId, uint _amount)\r\n        external\r\n    {   \r\n        Request storage r = requests[_requestId];\r\n        require(r.subContract==msg.sender); \r\n\r\n        r.amountAdditional = r.amountAdditional.add(_amount);\r\n\r\n        require(r.amountAdditional+r.amountInitial >= r.amountInitial); // avoid overflow\r\n\r\n        AddAdditional(_requestId, _amount);\r\n    }\r\n\r\n    /*\r\n     * @dev Function used by Subcontracts to add a Substract amount to the request. A substract lead to a lower payment needed for the request. It can happens for several reasons including credit note, discount, reimbursement.\r\n     * @param _requestId Request id\r\n     * @param _amount subtract amount\r\n     */ \r\n    function addSubtract(bytes32 _requestId, uint _amount)\r\n        external\r\n    {   \r\n        Request storage r = requests[_requestId];\r\n        require(r.subContract==msg.sender);\r\n\r\n        r.amountSubtract = r.amountSubtract.add(_amount);\r\n\r\n        require(r.amountInitial-r.amountSubtract <= r.amountInitial); // avoid underflow\r\n\r\n        AddSubtract(_requestId, _amount);\r\n    }\r\n\r\n    /* SETTER */\r\n    /*\r\n     * @dev Set payee of a request\r\n     * @param _requestId Request id\r\n     * @param _payee new payee\r\n     */ \r\n    function setPayee(bytes32 _requestId, address _payee)\r\n        external\r\n    {\r\n        Request storage r = requests[_requestId];\r\n        require(r.subContract==msg.sender);\r\n        requests[_requestId].payee = _payee;\r\n        NewPayee(_requestId, _payee);\r\n    }\r\n\r\n    /*\r\n     * @dev Get payer of a request\r\n     * @param _requestId Request id\r\n     * @param _payee new payer\r\n     */ \r\n    function setPayer(bytes32 _requestId, address _payer)\r\n        external\r\n    {\r\n        Request storage r = requests[_requestId];\r\n        require(r.subContract==msg.sender);\r\n        requests[_requestId].payer = _payer;\r\n        NewPayer(_requestId, _payer);\r\n    }\r\n\r\n    /*\r\n     * @dev Set amount initial of a request\r\n     * @param _requestId Request id\r\n     * @param new amount initial\r\n     */     \r\n    function setAmountInitial(bytes32 _requestId, uint _amountInitial)\r\n        external\r\n    {\r\n        Request storage r = requests[_requestId];\r\n        require(r.subContract==msg.sender);\r\n        requests[_requestId].amountInitial = _amountInitial;\r\n        NewAmountInitial(_requestId, _amountInitial);\r\n    }\r\n\r\n    /*\r\n     * @dev Set extension of a request\r\n     * @param _requestId Request id\r\n     * @param new extension\r\n     */     \r\n    function setExtension(bytes32 _requestId, address _extension)\r\n        external\r\n        isTrustedExtension(_extension)\r\n    {\r\n        Request storage r = requests[_requestId];\r\n        require(r.subContract==msg.sender);\r\n        requests[_requestId].extension = _extension;\r\n        NewExtension(_requestId, _extension);\r\n    }\r\n\r\n    /*\r\n     * @dev Set extension of a request\r\n     * @param _requestId Request id\r\n     * @param new extension\r\n     */     \r\n    function setDetails(bytes32 _requestId, string _details)\r\n        external\r\n    {\r\n        Request storage r = requests[_requestId];\r\n        require(r.subContract==msg.sender);\r\n        requests[_requestId].details = _details;\r\n        NewDetails(_requestId, _details);\r\n    }\r\n\r\n    /* GETTER */\r\n    /*\r\n     * @dev Get payee of a request\r\n     * @param _requestId Request id\r\n     * @return payee address\r\n     */ \r\n    function getPayee(bytes32 _requestId)\r\n        public\r\n        constant\r\n        returns(address)\r\n    {\r\n        return requests[_requestId].payee;\r\n    }\r\n\r\n    /*\r\n     * @dev Get payer of a request\r\n     * @param _requestId Request id\r\n     * @return payer address\r\n     */ \r\n    function getPayer(bytes32 _requestId)\r\n        public\r\n        constant\r\n        returns(address)\r\n    {\r\n        return requests[_requestId].payer;\r\n    }\r\n\r\n    /*\r\n     * @dev Get amount initial of a request\r\n     * @param _requestId Request id\r\n     * @return amount initial\r\n     */     \r\n    function getAmountInitial(bytes32 _requestId)\r\n        public\r\n        constant\r\n        returns(uint)\r\n    {\r\n        return requests[_requestId].amountInitial;\r\n    }\r\n\r\n    /*\r\n     * @dev Get amount initial of a request plus additional and minus subtract\r\n     * @param _requestId Request id\r\n     * @return amount initial plus additional and minus subtract\r\n     */ \r\n    function getAmountInitialAfterSubAdd(bytes32 _requestId)\r\n        public\r\n        constant\r\n        returns(uint)\r\n    {\r\n        return requests[_requestId].amountInitial.add(requests[_requestId].amountAdditional).sub(requests[_requestId].amountSubtract);\r\n    }\r\n\r\n    /*\r\n     * @dev Get subContract of a request\r\n     * @param _requestId Request id\r\n     * @return subContract address\r\n     */\r\n    function getSubContract(bytes32 _requestId)\r\n        public\r\n        constant\r\n        returns(address)\r\n    {\r\n        return requests[_requestId].subContract;\r\n    }\r\n\r\n    /*\r\n     * @dev Get amount paid of a request\r\n     * @param _requestId Request id\r\n     * @return amount paid\r\n     */     \r\n    function getAmountPaid(bytes32 _requestId)\r\n        public\r\n        constant\r\n        returns(uint)\r\n    {\r\n        return requests[_requestId].amountPaid;\r\n    }\r\n\r\n    /*\r\n     * @dev Get amount additional of a request\r\n     * @param _requestId Request id\r\n     * @return amount additional\r\n     */ \r\n    function getAmountAdditional(bytes32 _requestId)\r\n        public\r\n        constant\r\n        returns(uint)\r\n    {\r\n        return requests[_requestId].amountAdditional;\r\n    }\r\n\r\n    /*\r\n     * @dev Get amount subtract of a request\r\n     * @param _requestId Request id\r\n     * @return amount subtract\r\n     */ \r\n    function getAmountSubtract(bytes32 _requestId)\r\n        public\r\n        constant\r\n        returns(uint)\r\n    {\r\n        return requests[_requestId].amountSubtract;\r\n    }\r\n\r\n    /*\r\n     * @dev Get state of a request\r\n     * @param _requestId Request id\r\n     * @return state\r\n     */ \r\n    function getState(bytes32 _requestId)\r\n        public\r\n        constant\r\n        returns(State)\r\n    {\r\n        return requests[_requestId].state;\r\n    }\r\n\r\n    /*\r\n     * @dev Get extension of a request\r\n     * @param _requestId Request id\r\n     * @return address\r\n     */\r\n    function getExtension(bytes32 _requestId)\r\n        public\r\n        constant\r\n        returns(address)\r\n    {\r\n        return requests[_requestId].extension;\r\n    } \r\n\r\n    /*\r\n     * @dev Modifier Check that creator is not zero\r\n     * @param _creator Request\r\n     */\r\n    modifier creatorNotZero(address _creator) {\r\n       require(_creator!=0);\r\n       _;\r\n    }\r\n}",
  "sourcePath": "C:\\Users\\vince\\Documents\\Request\\git\\Request_SmartContracts\\contracts\\core\\RequestCore.sol",
  "compiler": {
    "name": "solc",
    "version": "0.4.18+commit.9cf6e910.Emscripten.clang"
  },
  "schemaVersion": "1.0.1",
  "updatedAt": "2017-11-20T14:50:21.859Z"
}