{
  "contractName": "RequestHashStorage",
  "abi": [
    {
      "constant": true,
      "inputs": [],
      "name": "minimumFee",
      "outputs": [
        {
          "name": "",
          "type": "uint256"
        }
      ],
      "payable": false,
      "stateMutability": "view",
      "type": "function"
    },
    {
      "constant": true,
      "inputs": [],
      "name": "rateFeesNumerator",
      "outputs": [
        {
          "name": "",
          "type": "uint256"
        }
      ],
      "payable": false,
      "stateMutability": "view",
      "type": "function"
    },
    {
      "constant": true,
      "inputs": [],
      "name": "threshold",
      "outputs": [
        {
          "name": "",
          "type": "uint256"
        }
      ],
      "payable": false,
      "stateMutability": "view",
      "type": "function"
    },
    {
      "constant": false,
      "inputs": [
        {
          "name": "_requestBurnerContract",
          "type": "address"
        }
      ],
      "name": "setRequestBurnerContract",
      "outputs": [],
      "payable": false,
      "stateMutability": "nonpayable",
      "type": "function"
    },
    {
      "constant": false,
      "inputs": [],
      "name": "renounceOwnership",
      "outputs": [],
      "payable": false,
      "stateMutability": "nonpayable",
      "type": "function"
    },
    {
      "constant": true,
      "inputs": [],
      "name": "rateFeesDenominator",
      "outputs": [
        {
          "name": "",
          "type": "uint256"
        }
      ],
      "payable": false,
      "stateMutability": "view",
      "type": "function"
    },
    {
      "constant": true,
      "inputs": [],
      "name": "owner",
      "outputs": [
        {
          "name": "",
          "type": "address"
        }
      ],
      "payable": false,
      "stateMutability": "view",
      "type": "function"
    },
    {
      "constant": true,
      "inputs": [],
      "name": "isOwner",
      "outputs": [
        {
          "name": "",
          "type": "bool"
        }
      ],
      "payable": false,
      "stateMutability": "view",
      "type": "function"
    },
    {
      "constant": true,
      "inputs": [
        {
          "name": "_dataSize",
          "type": "uint256"
        }
      ],
      "name": "getFeesAmount",
      "outputs": [
        {
          "name": "",
          "type": "uint256"
        }
      ],
      "payable": false,
      "stateMutability": "view",
      "type": "function"
    },
    {
      "constant": false,
      "inputs": [
        {
          "name": "_threshold",
          "type": "uint256"
        }
      ],
      "name": "setMinimumFeeThreshold",
      "outputs": [],
      "payable": false,
      "stateMutability": "nonpayable",
      "type": "function"
    },
    {
      "constant": false,
      "inputs": [
        {
          "name": "_minimumFee",
          "type": "uint256"
        },
        {
          "name": "_rateFeesNumerator",
          "type": "uint256"
        },
        {
          "name": "_rateFeesDenominator",
          "type": "uint256"
        }
      ],
      "name": "setFeeParameters",
      "outputs": [],
      "payable": false,
      "stateMutability": "nonpayable",
      "type": "function"
    },
    {
      "constant": true,
      "inputs": [],
      "name": "requestBurnerContract",
      "outputs": [
        {
          "name": "",
          "type": "address"
        }
      ],
      "payable": false,
      "stateMutability": "view",
      "type": "function"
    },
    {
      "constant": false,
      "inputs": [
        {
          "name": "newOwner",
          "type": "address"
        }
      ],
      "name": "transferOwnership",
      "outputs": [],
      "payable": false,
      "stateMutability": "nonpayable",
      "type": "function"
    },
    {
      "inputs": [
        {
          "name": "_addressBurner",
          "type": "address"
        }
      ],
      "payable": false,
      "stateMutability": "nonpayable",
      "type": "constructor"
    },
    {
      "payable": true,
      "stateMutability": "payable",
      "type": "fallback"
    },
    {
      "anonymous": false,
      "inputs": [
        {
          "indexed": false,
          "name": "hash",
          "type": "string"
        },
        {
          "indexed": false,
          "name": "size",
          "type": "uint256"
        }
      ],
      "name": "NewHash",
      "type": "event"
    },
    {
      "anonymous": false,
      "inputs": [
        {
          "indexed": false,
          "name": "minimumFee",
          "type": "uint256"
        },
        {
          "indexed": false,
          "name": "rateFeesNumerator",
          "type": "uint256"
        },
        {
          "indexed": false,
          "name": "rateFeesDenominator",
          "type": "uint256"
        }
      ],
      "name": "UpdatedFeeParameters",
      "type": "event"
    },
    {
      "anonymous": false,
      "inputs": [
        {
          "indexed": false,
          "name": "threshold",
          "type": "uint256"
        }
      ],
      "name": "UpdatedMinimumFeeThreshold",
      "type": "event"
    },
    {
      "anonymous": false,
      "inputs": [
        {
          "indexed": false,
          "name": "burnerAddress",
          "type": "address"
        }
      ],
      "name": "UpdatedBurnerContract",
      "type": "event"
    },
    {
      "anonymous": false,
      "inputs": [
        {
          "indexed": true,
          "name": "previousOwner",
          "type": "address"
        },
        {
          "indexed": true,
          "name": "newOwner",
          "type": "address"
        }
      ],
      "name": "OwnershipTransferred",
      "type": "event"
    },
    {
      "constant": false,
      "inputs": [
        {
          "name": "_hash",
          "type": "string"
        },
        {
          "name": "_size",
          "type": "uint256"
        }
      ],
      "name": "submitHash",
      "outputs": [],
      "payable": true,
      "stateMutability": "payable",
      "type": "function"
    }
  ],
  "bytecode": "0x608060405234801561001057600080fd5b50604051602080610bc38339810180604052810190808051906020019092919050505080336000806101000a81548173ffffffffffffffffffffffffffffffffffffffff021916908373ffffffffffffffffffffffffffffffffffffffff1602179055506000809054906101000a900473ffffffffffffffffffffffffffffffffffffffff1673ffffffffffffffffffffffffffffffffffffffff16600073ffffffffffffffffffffffffffffffffffffffff167f8be0079c531659141344cd1fd0a4f28419497f9722a3daafe3b4186f6b6457e060405160405180910390a380600560006101000a81548173ffffffffffffffffffffffffffffffffffffffff021916908373ffffffffffffffffffffffffffffffffffffffff1602179055505050610a81806101426000396000f3006080604052600436106100d0576000357c0100000000000000000000000000000000000000000000000000000000900463ffffffff1680631a7626e7146100d5578063263f6a421461010057806342cde4e81461012b578063524eb29c14610156578063715018a61461019957806375c268f3146101b057806388ff5b58146101db5780638da5cb5b146102135780638f32d59b1461026a5780638f5b87e114610299578063b71cb02b146102da578063cb2537cb14610307578063e40e845714610348578063f2fde38b1461039f575b600080fd5b3480156100e157600080fd5b506100ea6103e2565b6040518082815260200191505060405180910390f35b34801561010c57600080fd5b506101156103e8565b6040518082815260200191505060405180910390f35b34801561013757600080fd5b506101406103ee565b6040518082815260200191505060405180910390f35b34801561016257600080fd5b50610197600480360381019080803573ffffffffffffffffffffffffffffffffffffffff1690602001909291905050506103f4565b005b3480156101a557600080fd5b506101ae6104d0565b005b3480156101bc57600080fd5b506101c56105a2565b6040518082815260200191505060405180910390f35b610211600480360381019080803590602001908201803590602001919091929391929390803590602001909291905050506105a8565b005b34801561021f57600080fd5b50610228610625565b604051808273ffffffffffffffffffffffffffffffffffffffff1673ffffffffffffffffffffffffffffffffffffffff16815260200191505060405180910390f35b34801561027657600080fd5b5061027f61064e565b604051808215151515815260200191505060405180910390f35b3480156102a557600080fd5b506102c4600480360381019080803590602001909291905050506106a5565b6040518082815260200191505060405180910390f35b3480156102e657600080fd5b5061030560048036038101908080359060200190929190505050610730565b005b34801561031357600080fd5b50610346600480360381019080803590602001909291908035906020019092919080359060200190929190505050610786565b005b34801561035457600080fd5b5061035d610800565b604051808273ffffffffffffffffffffffffffffffffffffffff1673ffffffffffffffffffffffffffffffffffffffff16815260200191505060405180910390f35b3480156103ab57600080fd5b506103e0600480360381019080803573ffffffffffffffffffffffffffffffffffffffff169060200190929190505050610826565b005b60015481565b60025481565b60045481565b6103fc61064e565b151561040757600080fd5b80600560006101000a81548173ffffffffffffffffffffffffffffffffffffffff021916908373ffffffffffffffffffffffffffffffffffffffff1602179055507fb2c87fdcc342ca09b09df1fb16a153b7ceb0a4b56ad223f12c8fbff63f98ccd8600560009054906101000a900473ffffffffffffffffffffffffffffffffffffffff16604051808273ffffffffffffffffffffffffffffffffffffffff1673ffffffffffffffffffffffffffffffffffffffff16815260200191505060405180910390a150565b6104d861064e565b15156104e357600080fd5b600073ffffffffffffffffffffffffffffffffffffffff166000809054906101000a900473ffffffffffffffffffffffffffffffffffffffff1673ffffffffffffffffffffffffffffffffffffffff167f8be0079c531659141344cd1fd0a4f28419497f9722a3daafe3b4186f6b6457e060405160405180910390a360008060006101000a81548173ffffffffffffffffffffffffffffffffffffffff021916908373ffffffffffffffffffffffffffffffffffffffff160217905550565b60035481565b346105b2826106a5565b1415156105be57600080fd5b6105c734610845565b7ff4e7e38d1b37f18f0e61ba25936f47da48fd1f0b49da48db21346311fd0f37c483838360405180806020018381526020018281038252858582818152602001925080828437820191505094505050505060405180910390a1505050565b60008060009054906101000a900473ffffffffffffffffffffffffffffffffffffffff16905090565b60008060009054906101000a900473ffffffffffffffffffffffffffffffffffffffff1673ffffffffffffffffffffffffffffffffffffffff163373ffffffffffffffffffffffffffffffffffffffff1614905090565b6000806000600454841115156106bf576001549250610729565b6106d4600454856108b190919063ffffffff16565b91506106eb600254836108d290919063ffffffff16565b905060006003541415156107115761070e6003548261091090919063ffffffff16565b90505b6107266001548261093a90919063ffffffff16565b92505b5050919050565b61073861064e565b151561074357600080fd5b806004819055507fc81dfee30d8860880246408e565f538edb9493d9cf7888c0cd54ad9a60f58b9c6004546040518082815260200191505060405180910390a150565b61078e61064e565b151561079957600080fd5b8260018190555081600281905550806003819055507f741cafcfc8058975fab7ed6bdaf402b47dca8aa9826990c454c058a6f9b06d1660015460025460035460405180848152602001838152602001828152602001935050505060405180910390a1505050565b600560009054906101000a900473ffffffffffffffffffffffffffffffffffffffff1681565b61082e61064e565b151561083957600080fd5b6108428161095b565b50565b600560009054906101000a900473ffffffffffffffffffffffffffffffffffffffff1673ffffffffffffffffffffffffffffffffffffffff166108fc829081150290604051600060405180830381858888f193505050501580156108ad573d6000803e3d6000fd5b5050565b6000808383111515156108c357600080fd5b82840390508091505092915050565b60008060008414156108e75760009150610909565b82840290508284828115156108f857fe5b0414151561090557600080fd5b8091505b5092915050565b60008060008311151561092257600080fd5b828481151561092d57fe5b0490508091505092915050565b600080828401905083811015151561095157600080fd5b8091505092915050565b600073ffffffffffffffffffffffffffffffffffffffff168173ffffffffffffffffffffffffffffffffffffffff161415151561099757600080fd5b8073ffffffffffffffffffffffffffffffffffffffff166000809054906101000a900473ffffffffffffffffffffffffffffffffffffffff1673ffffffffffffffffffffffffffffffffffffffff167f8be0079c531659141344cd1fd0a4f28419497f9722a3daafe3b4186f6b6457e060405160405180910390a3806000806101000a81548173ffffffffffffffffffffffffffffffffffffffff021916908373ffffffffffffffffffffffffffffffffffffffff160217905550505600a165627a7a723058206467eec3f139ee636cc30048feb7902ea267f9cbc6f573c38f1b5b3c08e99c5c0029",
  "source": "pragma solidity ^0.4.24;\n\nimport \"./StorageFeeCollector.sol\";\n\n/**\n * @title RequestHashStorage\n * @notice Contract that stores ipfs hashes with event logs\n */\ncontract RequestHashStorage is StorageFeeCollector {\n\n  /**\n   * @param _addressBurner Burner address address\n   */\n  constructor(address _addressBurner) \n    StorageFeeCollector(_addressBurner)\n    public\n  {\n  }\n\n  // Event for submitted hashes\n  event NewHash(string hash, uint size);\n\n  /**\n   * @notice Submit a new hash to the blockchain.\n   *\n   * @param _hash Hash of the request to be stored\n   * @param _size Size of the request to be stored\n   */\n  function submitHash(string _hash, uint256 _size)\n    external\n    payable\n  {\n    // Check fees are paid\n    require(getFeesAmount(_size) == msg.value);\n\n    // Send fees to burner, throws on failure\n    collectForREQBurning(msg.value);\n\n    // Emit event for log\n    emit NewHash(_hash, _size);\n  }\n\n  // Fallback function returns funds to the sender\n  function() \n    public\n    payable \n  { \n    revert();\n  }\n}\n",
  "sourcePath": "src/contracts/RequestHashStorage.sol",
  "compiler": {
    "name": "solc",
    "version": "0.4.24+commit.e67f0147.Emscripten.clang"
  },
  "schemaVersion": "2.0.1",
  "updatedAt": "2018-12-17T06:58:36.009Z"
}