{
  "contractName": "RequestEthereum",
  "abi": [
    {
      "constant": false,
      "inputs": [],
      "name": "withdraw",
      "outputs": [],
      "payable": false,
      "stateMutability": "nonpayable",
      "type": "function"
    },
    {
      "constant": false,
      "inputs": [],
      "name": "unpause",
      "outputs": [],
      "payable": false,
      "stateMutability": "nonpayable",
      "type": "function"
    },
    {
      "constant": false,
      "inputs": [
        {
          "name": "_requestId",
          "type": "bytes32"
        }
      ],
      "name": "payback",
      "outputs": [],
      "payable": true,
      "stateMutability": "payable",
      "type": "function"
    },
    {
      "constant": false,
      "inputs": [
        {
          "name": "_requestId",
          "type": "bytes32"
        },
        {
          "name": "_recipient",
          "type": "address"
        },
        {
          "name": "_amount",
          "type": "uint256"
        }
      ],
      "name": "fundOrder",
      "outputs": [
        {
          "name": "",
          "type": "bool"
        }
      ],
      "payable": false,
      "stateMutability": "nonpayable",
      "type": "function"
    },
    {
      "constant": true,
      "inputs": [],
      "name": "paused",
      "outputs": [
        {
          "name": "",
          "type": "bool"
        }
      ],
      "payable": false,
      "stateMutability": "view",
      "type": "function"
    },
    {
      "constant": true,
      "inputs": [],
      "name": "requestCore",
      "outputs": [
        {
          "name": "",
          "type": "address"
        }
      ],
      "payable": false,
      "stateMutability": "view",
      "type": "function"
    },
    {
      "constant": false,
      "inputs": [
        {
          "name": "_payer",
          "type": "address"
        },
        {
          "name": "_amountInitial",
          "type": "uint256"
        },
        {
          "name": "_extension",
          "type": "address"
        },
        {
          "name": "_extensionParams",
          "type": "bytes32[9]"
        },
        {
          "name": "_details",
          "type": "string"
        }
      ],
      "name": "createRequestAsPayee",
      "outputs": [
        {
          "name": "requestId",
          "type": "bytes32"
        }
      ],
      "payable": false,
      "stateMutability": "nonpayable",
      "type": "function"
    },
    {
      "constant": true,
      "inputs": [
        {
          "name": "signer",
          "type": "address"
        },
        {
          "name": "hash",
          "type": "bytes32"
        },
        {
          "name": "v",
          "type": "uint8"
        },
        {
          "name": "r",
          "type": "bytes32"
        },
        {
          "name": "s",
          "type": "bytes32"
        }
      ],
      "name": "isValidSignature",
      "outputs": [
        {
          "name": "",
          "type": "bool"
        }
      ],
      "payable": false,
      "stateMutability": "pure",
      "type": "function"
    },
    {
      "constant": false,
      "inputs": [],
      "name": "pause",
      "outputs": [],
      "payable": false,
      "stateMutability": "nonpayable",
      "type": "function"
    },
    {
      "constant": false,
      "inputs": [
        {
          "name": "_requestId",
          "type": "bytes32"
        }
      ],
      "name": "decline",
      "outputs": [
        {
          "name": "",
          "type": "bool"
        }
      ],
      "payable": false,
      "stateMutability": "nonpayable",
      "type": "function"
    },
    {
      "constant": true,
      "inputs": [],
      "name": "owner",
      "outputs": [
        {
          "name": "",
          "type": "address"
        }
      ],
      "payable": false,
      "stateMutability": "view",
      "type": "function"
    },
    {
      "constant": false,
      "inputs": [
        {
          "name": "_requestId",
          "type": "bytes32"
        },
        {
          "name": "_amount",
          "type": "uint256"
        }
      ],
      "name": "payment",
      "outputs": [
        {
          "name": "",
          "type": "bool"
        }
      ],
      "payable": false,
      "stateMutability": "nonpayable",
      "type": "function"
    },
    {
      "constant": false,
      "inputs": [
        {
          "name": "_requestId",
          "type": "bytes32"
        }
      ],
      "name": "cancel",
      "outputs": [
        {
          "name": "",
          "type": "bool"
        }
      ],
      "payable": false,
      "stateMutability": "nonpayable",
      "type": "function"
    },
    {
      "constant": false,
      "inputs": [
        {
          "name": "_payee",
          "type": "address"
        },
        {
          "name": "_amountInitial",
          "type": "uint256"
        },
        {
          "name": "_extension",
          "type": "address"
        },
        {
          "name": "_extensionParams",
          "type": "bytes32[9]"
        },
        {
          "name": "_tips",
          "type": "uint256"
        },
        {
          "name": "_details",
          "type": "string"
        }
      ],
      "name": "createRequestAsPayer",
      "outputs": [
        {
          "name": "requestId",
          "type": "bytes32"
        }
      ],
      "payable": true,
      "stateMutability": "payable",
      "type": "function"
    },
    {
      "constant": false,
      "inputs": [
        {
          "name": "_requestId",
          "type": "bytes32"
        },
        {
          "name": "_amount",
          "type": "uint256"
        }
      ],
      "name": "discount",
      "outputs": [],
      "payable": false,
      "stateMutability": "nonpayable",
      "type": "function"
    },
    {
      "constant": false,
      "inputs": [
        {
          "name": "_requestId",
          "type": "bytes32"
        },
        {
          "name": "_tips",
          "type": "uint256"
        }
      ],
      "name": "pay",
      "outputs": [],
      "payable": true,
      "stateMutability": "payable",
      "type": "function"
    },
    {
      "constant": true,
      "inputs": [
        {
          "name": "signer",
          "type": "address"
        },
        {
          "name": "payee",
          "type": "address"
        },
        {
          "name": "payer",
          "type": "address"
        },
        {
          "name": "amountInitial",
          "type": "uint256"
        },
        {
          "name": "extension",
          "type": "address"
        },
        {
          "name": "extensionParams",
          "type": "bytes32[9]"
        },
        {
          "name": "details",
          "type": "string"
        },
        {
          "name": "v",
          "type": "uint8"
        },
        {
          "name": "r",
          "type": "bytes32"
        },
        {
          "name": "s",
          "type": "bytes32"
        }
      ],
      "name": "checkRequestSignature",
      "outputs": [
        {
          "name": "",
          "type": "bool"
        }
      ],
      "payable": false,
      "stateMutability": "view",
      "type": "function"
    },
    {
      "constant": false,
      "inputs": [
        {
          "name": "_requestId",
          "type": "bytes32"
        }
      ],
      "name": "accept",
      "outputs": [
        {
          "name": "",
          "type": "bool"
        }
      ],
      "payable": false,
      "stateMutability": "nonpayable",
      "type": "function"
    },
    {
      "constant": true,
      "inputs": [
        {
          "name": "",
          "type": "address"
        }
      ],
      "name": "ethToWithdraw",
      "outputs": [
        {
          "name": "",
          "type": "uint256"
        }
      ],
      "payable": false,
      "stateMutability": "view",
      "type": "function"
    },
    {
      "constant": false,
      "inputs": [
        {
          "name": "newOwner",
          "type": "address"
        }
      ],
      "name": "transferOwnership",
      "outputs": [],
      "payable": false,
      "stateMutability": "nonpayable",
      "type": "function"
    },
    {
      "constant": false,
      "inputs": [
        {
          "name": "_payee",
          "type": "address"
        },
        {
          "name": "_amountInitial",
          "type": "uint256"
        },
        {
          "name": "_extension",
          "type": "address"
        },
        {
          "name": "_extensionParams",
          "type": "bytes32[9]"
        },
        {
          "name": "_tips",
          "type": "uint256"
        },
        {
          "name": "_details",
          "type": "string"
        },
        {
          "name": "v",
          "type": "uint8"
        },
        {
          "name": "r",
          "type": "bytes32"
        },
        {
          "name": "s",
          "type": "bytes32"
        }
      ],
      "name": "broadcastSignedRequestAsPayer",
      "outputs": [
        {
          "name": "requestId",
          "type": "bytes32"
        }
      ],
      "payable": true,
      "stateMutability": "payable",
      "type": "function"
    },
    {
      "inputs": [
        {
          "name": "_requestCoreAddress",
          "type": "address"
        }
      ],
      "payable": false,
      "stateMutability": "nonpayable",
      "type": "constructor"
    },
    {
      "anonymous": false,
      "inputs": [],
      "name": "Pause",
      "type": "event"
    },
    {
      "anonymous": false,
      "inputs": [],
      "name": "Unpause",
      "type": "event"
    },
    {
      "anonymous": false,
      "inputs": [
        {
          "indexed": true,
          "name": "previousOwner",
          "type": "address"
        },
        {
          "indexed": true,
          "name": "newOwner",
          "type": "address"
        }
      ],
      "name": "OwnershipTransferred",
      "type": "event"
    }
  ],
  "bytecode": "0x606060405260008060146101000a81548160ff021916908315150217905550341561002957600080fd5b60405160208061439483398101604052808051906020019091905050336000806101000a81548173ffffffffffffffffffffffffffffffffffffffff021916908373ffffffffffffffffffffffffffffffffffffffff16021790555080600160006101000a81548173ffffffffffffffffffffffffffffffffffffffff021916908373ffffffffffffffffffffffffffffffffffffffff160217905550506142be806100d66000396000f30060606040526004361061011d576000357c0100000000000000000000000000000000000000000000000000000000900463ffffffff1680633ccfd60b146101225780633f4ba83a1461013757806340f53f191461014c578063452e79a4146101685780635c975abb146101cf5780636c4fbaa4146101fc578063808a188e146102515780638163681e146102ea5780638456cb591461036e5780638cc7d3d1146103835780638da5cb5b146103c2578063a05bd4c614610417578063c4d252f51461045f578063c5fc900c1461049e578063c684dc9514610535578063d0ee4de014610565578063df050be81461058a578063e4725ba1146106d7578063ed80cf3b14610716578063f2fde38b14610763578063f88efd4e1461079c575b600080fd5b341561012d57600080fd5b610135610859565b005b341561014257600080fd5b61014a610925565b005b6101666004808035600019169060200190919050506109e3565b005b341561017357600080fd5b6101b560048080356000191690602001909190803573ffffffffffffffffffffffffffffffffffffffff16906020019091908035906020019091905050610ff1565b604051808215151515815260200191505060405180910390f35b34156101da57600080fd5b6101e2611038565b604051808215151515815260200191505060405180910390f35b341561020757600080fd5b61020f61104b565b604051808273ffffffffffffffffffffffffffffffffffffffff1673ffffffffffffffffffffffffffffffffffffffff16815260200191505060405180910390f35b341561025c57600080fd5b6102cc600480803573ffffffffffffffffffffffffffffffffffffffff1690602001909190803590602001909190803573ffffffffffffffffffffffffffffffffffffffff1690602001909190806101200190919080359060200190820180359060200191909192905050611071565b60405180826000191660001916815260200191505060405180910390f35b34156102f557600080fd5b610354600480803573ffffffffffffffffffffffffffffffffffffffff169060200190919080356000191690602001909190803560ff169060200190919080356000191690602001909190803560001916906020019091905050611374565b604051808215151515815260200191505060405180910390f35b341561037957600080fd5b61038161147b565b005b341561038e57600080fd5b6103a860048080356000191690602001909190505061153b565b604051808215151515815260200191505060405180910390f35b34156103cd57600080fd5b6103d56119b9565b604051808273ffffffffffffffffffffffffffffffffffffffff1673ffffffffffffffffffffffffffffffffffffffff16815260200191505060405180910390f35b341561042257600080fd5b6104456004808035600019169060200190919080359060200190919050506119de565b604051808215151515815260200191505060405180910390f35b341561046a57600080fd5b610484600480803560001916906020019091905050611a23565b604051808215151515815260200191505060405180910390f35b610517600480803573ffffffffffffffffffffffffffffffffffffffff1690602001909190803590602001909190803573ffffffffffffffffffffffffffffffffffffffff1690602001909190806101200190919080359060200190919080359060200190820180359060200191909192905050612046565b60405180826000191660001916815260200191505060405180910390f35b341561054057600080fd5b6105636004808035600019169060200190919080359060200190919050506123b8565b005b610588600480803560001916906020019091908035906020019091905050612aa9565b005b341561059557600080fd5b6106bd600480803573ffffffffffffffffffffffffffffffffffffffff1690602001909190803573ffffffffffffffffffffffffffffffffffffffff1690602001909190803573ffffffffffffffffffffffffffffffffffffffff1690602001909190803590602001909190803573ffffffffffffffffffffffffffffffffffffffff1690602001909190806101200190600980602002604051908101604052809291908260096020028082843782019150505050509190803590602001908201803590602001908080601f0160208091040260200160405190810160405280939291908181526020018383808284378201915050505050509190803560ff169060200190919080356000191690602001909190803560001916906020019091905050612cba565b604051808215151515815260200191505060405180910390f35b34156106e257600080fd5b6106fc600480803560001916906020019091905050612ceb565b604051808215151515815260200191505060405180910390f35b341561072157600080fd5b61074d600480803573ffffffffffffffffffffffffffffffffffffffff16906020019091905050612efc565b6040518082815260200191505060405180910390f35b341561076e57600080fd5b61079a600480803573ffffffffffffffffffffffffffffffffffffffff16906020019091905050612f14565b005b61083b600480803573ffffffffffffffffffffffffffffffffffffffff1690602001909190803590602001909190803573ffffffffffffffffffffffffffffffffffffffff169060200190919080610120019091908035906020019091908035906020019082018035906020019190919290803560ff169060200190919080356000191690602001909190803560001916906020019091905050613069565b60405180826000191660001916815260200191505060405180910390f35b6000600260003373ffffffffffffffffffffffffffffffffffffffff1673ffffffffffffffffffffffffffffffffffffffff1681526020019081526020016000205490506000600260003373ffffffffffffffffffffffffffffffffffffffff1673ffffffffffffffffffffffffffffffffffffffff168152602001908152602001600020819055503373ffffffffffffffffffffffffffffffffffffffff166108fc829081150290604051600060405180830381858888f19350505050151561092257600080fd5b50565b6000809054906101000a900473ffffffffffffffffffffffffffffffffffffffff1673ffffffffffffffffffffffffffffffffffffffff163373ffffffffffffffffffffffffffffffffffffffff1614151561098057600080fd5b600060149054906101000a900460ff16151561099b57600080fd5b60008060146101000a81548160ff0219169083151502179055507f7805862f689e2f13df9f062ff482ad3ad112aca9e0847911ed832e158c525b3360405160405180910390a1565b60008060008060149054906101000a900460ff16151515610a0357600080fd5b60016003811115610a1057fe5b600160009054906101000a900473ffffffffffffffffffffffffffffffffffffffff1673ffffffffffffffffffffffffffffffffffffffff166309648a9d866000604051602001526040518263ffffffff167c0100000000000000000000000000000000000000000000000000000000028152600401808260001916600019168152602001915050602060405180830381600087803b1515610ab157600080fd5b6102c65a03f11515610ac257600080fd5b505050604051805190506003811115610ad757fe5b14801515610ae457600080fd5b843373ffffffffffffffffffffffffffffffffffffffff16600160009054906101000a900473ffffffffffffffffffffffffffffffffffffffff1673ffffffffffffffffffffffffffffffffffffffff1662ca2f75836000604051602001526040518263ffffffff167c0100000000000000000000000000000000000000000000000000000000028152600401808260001916600019168152602001915050602060405180830381600087803b1515610b9c57600080fd5b6102c65a03f11515610bad57600080fd5b5050506040518051905073ffffffffffffffffffffffffffffffffffffffff16141515610bd957600080fd5b600160009054906101000a900473ffffffffffffffffffffffffffffffffffffffff1673ffffffffffffffffffffffffffffffffffffffff16636e5a2d6c876000604051602001526040518263ffffffff167c0100000000000000000000000000000000000000000000000000000000028152600401808260001916600019168152602001915050602060405180830381600087803b1515610c7a57600080fd5b6102c65a03f11515610c8b57600080fd5b50505060405180519050341115801515610ca457600080fd5b600160009054906101000a900473ffffffffffffffffffffffffffffffffffffffff1673ffffffffffffffffffffffffffffffffffffffff1663c139626b886000604051602001526040518263ffffffff167c0100000000000000000000000000000000000000000000000000000000028152600401808260001916600019168152602001915050602060405180830381600087803b1515610d4557600080fd5b6102c65a03f11515610d5657600080fd5b5050506040518051905095506001945060008673ffffffffffffffffffffffffffffffffffffffff1614158015610db957503373ffffffffffffffffffffffffffffffffffffffff168673ffffffffffffffffffffffffffffffffffffffff1614155b15610e66578593508373ffffffffffffffffffffffffffffffffffffffff1663695eda1988346000604051602001526040518363ffffffff167c010000000000000000000000000000000000000000000000000000000002815260040180836000191660001916815260200182815260200192505050602060405180830381600087803b1515610e4857600080fd5b6102c65a03f11515610e5957600080fd5b5050506040518051905094505b8415610fe857600160009054906101000a900473ffffffffffffffffffffffffffffffffffffffff1673ffffffffffffffffffffffffffffffffffffffff1663695eda1988346040518363ffffffff167c010000000000000000000000000000000000000000000000000000000002815260040180836000191660001916815260200182815260200192505050600060405180830381600087803b1515610f0c57600080fd5b6102c65a03f11515610f1d57600080fd5b505050610fe687600160009054906101000a900473ffffffffffffffffffffffffffffffffffffffff1673ffffffffffffffffffffffffffffffffffffffff1663a12cad708a6000604051602001526040518263ffffffff167c0100000000000000000000000000000000000000000000000000000000028152600401808260001916600019168152602001915050602060405180830381600087803b1515610fc557600080fd5b6102c65a03f11515610fd657600080fd5b5050506040518051905034613452565b505b50505050505050565b60008060149054906101000a900460ff1615151561100e57600080fd5b83611018816136af565b151561102357600080fd5b61102e858585613452565b9150509392505050565b600060149054906101000a900460ff1681565b600160009054906101000a900473ffffffffffffffffffffffffffffffffffffffff1681565b600080600060149054906101000a900460ff1615151561109057600080fd5b8773ffffffffffffffffffffffffffffffffffffffff163373ffffffffffffffffffffffffffffffffffffffff16141580156110e3575060008873ffffffffffffffffffffffffffffffffffffffff1614155b15156110ee57600080fd5b600160009054906101000a900473ffffffffffffffffffffffffffffffffffffffff1673ffffffffffffffffffffffffffffffffffffffff166366a8530c33338b8b8b8a8a6000604051602001526040518863ffffffff167c0100000000000000000000000000000000000000000000000000000000028152600401808873ffffffffffffffffffffffffffffffffffffffff1673ffffffffffffffffffffffffffffffffffffffff1681526020018773ffffffffffffffffffffffffffffffffffffffff1673ffffffffffffffffffffffffffffffffffffffff1681526020018673ffffffffffffffffffffffffffffffffffffffff1673ffffffffffffffffffffffffffffffffffffffff1681526020018581526020018473ffffffffffffffffffffffffffffffffffffffff1673ffffffffffffffffffffffffffffffffffffffff168152602001806020018281038252848482818152602001925080828437820191505098505050505050505050602060405180830381600087803b151561127957600080fd5b6102c65a03f1151561128a57600080fd5b50505060405180519050915060008673ffffffffffffffffffffffffffffffffffffffff16141515611366578590508073ffffffffffffffffffffffffffffffffffffffff1663d29574ba83876000604051602001526040518363ffffffff167c010000000000000000000000000000000000000000000000000000000002815260040180836000191660001916815260200182600960200280828437820191505092505050602060405180830381600087803b151561134957600080fd5b6102c65a03f1151561135a57600080fd5b50505060405180519050505b819150509695505050505050565b600060018560405180807f19457468657265756d205369676e6564204d6573736167653a0a333200000000815250601c0182600019166000191681526020019150506040518091039020858585604051600081526020016040526000604051602001526040518085600019166000191681526020018460ff1660ff16815260200183600019166000191681526020018260001916600019168152602001945050505050602060405160208103908084039060008661646e5a03f1151561143957600080fd5b50506020604051035173ffffffffffffffffffffffffffffffffffffffff168673ffffffffffffffffffffffffffffffffffffffff1614905095945050505050565b6000809054906101000a900473ffffffffffffffffffffffffffffffffffffffff1673ffffffffffffffffffffffffffffffffffffffff163373ffffffffffffffffffffffffffffffffffffffff161415156114d657600080fd5b600060149054906101000a900460ff161515156114f257600080fd5b6001600060146101000a81548160ff0219169083151502179055507f6985a02210a168e66602d3235cb6db0e70f92b3ba4d376a33c0f3d9434bff62560405160405180910390a1565b600080600080600060149054906101000a900460ff1615151561155d57600080fd5b611566856136af565b8061173457503373ffffffffffffffffffffffffffffffffffffffff16600160009054906101000a900473ffffffffffffffffffffffffffffffffffffffff1673ffffffffffffffffffffffffffffffffffffffff1663a12cad70876000604051602001526040518263ffffffff167c0100000000000000000000000000000000000000000000000000000000028152600401808260001916600019168152602001915050602060405180830381600087803b151561162457600080fd5b6102c65a03f1151561163557600080fd5b5050506040518051905073ffffffffffffffffffffffffffffffffffffffff1614801561173357506000600381111561166a57fe5b600160009054906101000a900473ffffffffffffffffffffffffffffffffffffffff1673ffffffffffffffffffffffffffffffffffffffff166309648a9d876000604051602001526040518263ffffffff167c0100000000000000000000000000000000000000000000000000000000028152600401808260001916600019168152602001915050602060405180830381600087803b151561170b57600080fd5b6102c65a03f1151561171c57600080fd5b50505060405180519050600381111561173157fe5b145b5b80151561174057600080fd5b600160009054906101000a900473ffffffffffffffffffffffffffffffffffffffff1673ffffffffffffffffffffffffffffffffffffffff1663c139626b876000604051602001526040518263ffffffff167c0100000000000000000000000000000000000000000000000000000000028152600401808260001916600019168152602001915050602060405180830381600087803b15156117e157600080fd5b6102c65a03f115156117f257600080fd5b5050506040518051905093506001925060008473ffffffffffffffffffffffffffffffffffffffff161415801561185557503373ffffffffffffffffffffffffffffffffffffffff168473ffffffffffffffffffffffffffffffffffffffff1614155b156118fa578391508173ffffffffffffffffffffffffffffffffffffffff16638cc7d3d1876000604051602001526040518263ffffffff167c0100000000000000000000000000000000000000000000000000000000028152600401808260001916600019168152602001915050602060405180830381600087803b15156118dc57600080fd5b6102c65a03f115156118ed57600080fd5b5050506040518051905092505b82156119ad57600160009054906101000a900473ffffffffffffffffffffffffffffffffffffffff1673ffffffffffffffffffffffffffffffffffffffff16638cc7d3d1876040518263ffffffff167c0100000000000000000000000000000000000000000000000000000000028152600401808260001916600019168152602001915050600060405180830381600087803b151561199857600080fd5b6102c65a03f115156119a957600080fd5b5050505b82945050505050919050565b6000809054906101000a900473ffffffffffffffffffffffffffffffffffffffff1681565b60008060149054906101000a900460ff161515156119fb57600080fd5b82611a05816136af565b1515611a1057600080fd5b611a1a84846137a2565b91505092915050565b600080600080600060149054906101000a900460ff16151515611a4557600080fd5b611a4e856136af565b80611cf757503373ffffffffffffffffffffffffffffffffffffffff16600160009054906101000a900473ffffffffffffffffffffffffffffffffffffffff1673ffffffffffffffffffffffffffffffffffffffff1662ca2f75876000604051602001526040518263ffffffff167c0100000000000000000000000000000000000000000000000000000000028152600401808260001916600019168152602001915050602060405180830381600087803b1515611b0b57600080fd5b6102c65a03f11515611b1c57600080fd5b5050506040518051905073ffffffffffffffffffffffffffffffffffffffff16148015611cf6575060006003811115611b5157fe5b600160009054906101000a900473ffffffffffffffffffffffffffffffffffffffff1673ffffffffffffffffffffffffffffffffffffffff166309648a9d876000604051602001526040518263ffffffff167c0100000000000000000000000000000000000000000000000000000000028152600401808260001916600019168152602001915050602060405180830381600087803b1515611bf257600080fd5b6102c65a03f11515611c0357600080fd5b505050604051805190506003811115611c1857fe5b1480611cf5575060016003811115611c2c57fe5b600160009054906101000a900473ffffffffffffffffffffffffffffffffffffffff1673ffffffffffffffffffffffffffffffffffffffff166309648a9d876000604051602001526040518263ffffffff167c0100000000000000000000000000000000000000000000000000000000028152600401808260001916600019168152602001915050602060405180830381600087803b1515611ccd57600080fd5b6102c65a03f11515611cde57600080fd5b505050604051805190506003811115611cf357fe5b145b5b5b801515611d0357600080fd5b6000600160009054906101000a900473ffffffffffffffffffffffffffffffffffffffff1673ffffffffffffffffffffffffffffffffffffffff16636e5a2d6c886000604051602001526040518263ffffffff167c0100000000000000000000000000000000000000000000000000000000028152600401808260001916600019168152602001915050602060405180830381600087803b1515611da657600080fd5b6102c65a03f11515611db757600080fd5b50505060405180519050141515611dcd57600080fd5b600160009054906101000a900473ffffffffffffffffffffffffffffffffffffffff1673ffffffffffffffffffffffffffffffffffffffff1663c139626b876000604051602001526040518263ffffffff167c0100000000000000000000000000000000000000000000000000000000028152600401808260001916600019168152602001915050602060405180830381600087803b1515611e6e57600080fd5b6102c65a03f11515611e7f57600080fd5b5050506040518051905093506001925060008473ffffffffffffffffffffffffffffffffffffffff1614158015611ee257503373ffffffffffffffffffffffffffffffffffffffff168473ffffffffffffffffffffffffffffffffffffffff1614155b15611f87578391508173ffffffffffffffffffffffffffffffffffffffff1663c4d252f5876000604051602001526040518263ffffffff167c0100000000000000000000000000000000000000000000000000000000028152600401808260001916600019168152602001915050602060405180830381600087803b1515611f6957600080fd5b6102c65a03f11515611f7a57600080fd5b5050506040518051905092505b821561203a57600160009054906101000a900473ffffffffffffffffffffffffffffffffffffffff1673ffffffffffffffffffffffffffffffffffffffff1663c4d252f5876040518263ffffffff167c0100000000000000000000000000000000000000000000000000000000028152600401808260001916600019168152602001915050600060405180830381600087803b151561202557600080fd5b6102c65a03f1151561203657600080fd5b5050505b82945050505050919050565b600080600060149054906101000a900460ff1615151561206557600080fd5b8873ffffffffffffffffffffffffffffffffffffffff163373ffffffffffffffffffffffffffffffffffffffff16141580156120b8575060008973ffffffffffffffffffffffffffffffffffffffff1614155b15156120c357600080fd5b8434101515156120d257600080fd5b346120e6868a613af790919063ffffffff16565b101515156120f357600080fd5b600160009054906101000a900473ffffffffffffffffffffffffffffffffffffffff1673ffffffffffffffffffffffffffffffffffffffff166366a8530c338b338c8c8a8a6000604051602001526040518863ffffffff167c0100000000000000000000000000000000000000000000000000000000028152600401808873ffffffffffffffffffffffffffffffffffffffff1673ffffffffffffffffffffffffffffffffffffffff1681526020018773ffffffffffffffffffffffffffffffffffffffff1673ffffffffffffffffffffffffffffffffffffffff1681526020018673ffffffffffffffffffffffffffffffffffffffff1673ffffffffffffffffffffffffffffffffffffffff1681526020018581526020018473ffffffffffffffffffffffffffffffffffffffff1673ffffffffffffffffffffffffffffffffffffffff168152602001806020018281038252848482818152602001925080828437820191505098505050505050505050602060405180830381600087803b151561227e57600080fd5b6102c65a03f1151561228f57600080fd5b50505060405180519050915060008773ffffffffffffffffffffffffffffffffffffffff1614151561236b578690508073ffffffffffffffffffffffffffffffffffffffff1663d29574ba83886000604051602001526040518363ffffffff167c010000000000000000000000000000000000000000000000000000000002815260040180836000191660001916815260200182600960200280828437820191505092505050602060405180830381600087803b151561234e57600080fd5b6102c65a03f1151561235f57600080fd5b50505060405180519050505b61237482613b15565b151561237f57600080fd5b6000851115612394576123928286613e4e565b505b60003411156123a9576123a782346137a2565b505b81915050979650505050505050565b60008060008060149054906101000a900460ff161515156123d857600080fd5b600160038111156123e557fe5b600160009054906101000a900473ffffffffffffffffffffffffffffffffffffffff1673ffffffffffffffffffffffffffffffffffffffff166309648a9d876000604051602001526040518263ffffffff167c0100000000000000000000000000000000000000000000000000000000028152600401808260001916600019168152602001915050602060405180830381600087803b151561248657600080fd5b6102c65a03f1151561249757600080fd5b5050506040518051905060038111156124ac57fe5b14806125895750600060038111156124c057fe5b600160009054906101000a900473ffffffffffffffffffffffffffffffffffffffff1673ffffffffffffffffffffffffffffffffffffffff166309648a9d876000604051602001526040518263ffffffff167c0100000000000000000000000000000000000000000000000000000000028152600401808260001916600019168152602001915050602060405180830381600087803b151561256157600080fd5b6102c65a03f1151561257257600080fd5b50505060405180519050600381111561258757fe5b145b80151561259557600080fd5b853373ffffffffffffffffffffffffffffffffffffffff16600160009054906101000a900473ffffffffffffffffffffffffffffffffffffffff1673ffffffffffffffffffffffffffffffffffffffff1662ca2f75836000604051602001526040518263ffffffff167c0100000000000000000000000000000000000000000000000000000000028152600401808260001916600019168152602001915050602060405180830381600087803b151561264d57600080fd5b6102c65a03f1151561265e57600080fd5b5050506040518051905073ffffffffffffffffffffffffffffffffffffffff1614151561268a57600080fd5b600160009054906101000a900473ffffffffffffffffffffffffffffffffffffffff1673ffffffffffffffffffffffffffffffffffffffff16636907c77d886000604051602001526040518263ffffffff167c0100000000000000000000000000000000000000000000000000000000028152600401808260001916600019168152602001915050602060405180830381600087803b151561272b57600080fd5b6102c65a03f1151561273c57600080fd5b50505060405180519050612814600160009054906101000a900473ffffffffffffffffffffffffffffffffffffffff1673ffffffffffffffffffffffffffffffffffffffff16636e5a2d6c8a6000604051602001526040518263ffffffff167c0100000000000000000000000000000000000000000000000000000000028152600401808260001916600019168152602001915050602060405180830381600087803b15156127ea57600080fd5b6102c65a03f115156127fb57600080fd5b5050506040518051905088613af790919063ffffffff16565b111580151561282257600080fd5b600160009054906101000a900473ffffffffffffffffffffffffffffffffffffffff1673ffffffffffffffffffffffffffffffffffffffff1663c139626b896000604051602001526040518263ffffffff167c0100000000000000000000000000000000000000000000000000000000028152600401808260001916600019168152602001915050602060405180830381600087803b15156128c357600080fd5b6102c65a03f115156128d457600080fd5b5050506040518051905095506001945060008673ffffffffffffffffffffffffffffffffffffffff161415801561293757503373ffffffffffffffffffffffffffffffffffffffff168673ffffffffffffffffffffffffffffffffffffffff1614155b156129e4578593508373ffffffffffffffffffffffffffffffffffffffff16633f4fc19c89896000604051602001526040518363ffffffff167c010000000000000000000000000000000000000000000000000000000002815260040180836000191660001916815260200182815260200192505050602060405180830381600087803b15156129c657600080fd5b6102c65a03f115156129d757600080fd5b5050506040518051905094505b8415612a9f57600160009054906101000a900473ffffffffffffffffffffffffffffffffffffffff1673ffffffffffffffffffffffffffffffffffffffff16633f4fc19c89896040518363ffffffff167c010000000000000000000000000000000000000000000000000000000002815260040180836000191660001916815260200182815260200192505050600060405180830381600087803b1515612a8a57600080fd5b6102c65a03f11515612a9b57600080fd5b5050505b5050505050505050565b600060149054906101000a900460ff16151515612ac557600080fd5b60016003811115612ad257fe5b600160009054906101000a900473ffffffffffffffffffffffffffffffffffffffff1673ffffffffffffffffffffffffffffffffffffffff166309648a9d846000604051602001526040518263ffffffff167c0100000000000000000000000000000000000000000000000000000000028152600401808260001916600019168152602001915050602060405180830381600087803b1515612b7357600080fd5b6102c65a03f11515612b8457600080fd5b505050604051805190506003811115612b9957fe5b14801515612ba657600080fd5b81341015801515612bb657600080fd5b34612c8584600160009054906101000a900473ffffffffffffffffffffffffffffffffffffffff1673ffffffffffffffffffffffffffffffffffffffff16636907c77d886000604051602001526040518263ffffffff167c0100000000000000000000000000000000000000000000000000000000028152600401808260001916600019168152602001915050602060405180830381600087803b1515612c5c57600080fd5b6102c65a03f11515612c6d57600080fd5b50505060405180519050613af790919063ffffffff16565b1015801515612c9357600080fd5b6000841115612ca857612ca68585613e4e565b505b612cb285346137a2565b505050505050565b600080612ccb8b8b8b8b8b8b6140dd565b9050612cda8c82878787611374565b9150509a9950505050505050505050565b60008060149054906101000a900460ff16151515612d0857600080fd5b612d11826136af565b80612edf57503373ffffffffffffffffffffffffffffffffffffffff16600160009054906101000a900473ffffffffffffffffffffffffffffffffffffffff1673ffffffffffffffffffffffffffffffffffffffff1663a12cad70846000604051602001526040518263ffffffff167c0100000000000000000000000000000000000000000000000000000000028152600401808260001916600019168152602001915050602060405180830381600087803b1515612dcf57600080fd5b6102c65a03f11515612de057600080fd5b5050506040518051905073ffffffffffffffffffffffffffffffffffffffff16148015612ede575060006003811115612e1557fe5b600160009054906101000a900473ffffffffffffffffffffffffffffffffffffffff1673ffffffffffffffffffffffffffffffffffffffff166309648a9d846000604051602001526040518263ffffffff167c0100000000000000000000000000000000000000000000000000000000028152600401808260001916600019168152602001915050602060405180830381600087803b1515612eb657600080fd5b6102c65a03f11515612ec757600080fd5b505050604051805190506003811115612edc57fe5b145b5b801515612eeb57600080fd5b612ef483613b15565b915050919050565b60026020528060005260406000206000915090505481565b6000809054906101000a900473ffffffffffffffffffffffffffffffffffffffff1673ffffffffffffffffffffffffffffffffffffffff163373ffffffffffffffffffffffffffffffffffffffff16141515612f6f57600080fd5b600073ffffffffffffffffffffffffffffffffffffffff168173ffffffffffffffffffffffffffffffffffffffff1614151515612fab57600080fd5b8073ffffffffffffffffffffffffffffffffffffffff166000809054906101000a900473ffffffffffffffffffffffffffffffffffffffff1673ffffffffffffffffffffffffffffffffffffffff167f8be0079c531659141344cd1fd0a4f28419497f9722a3daafe3b4186f6b6457e060405160405180910390a3806000806101000a81548173ffffffffffffffffffffffffffffffffffffffff021916908373ffffffffffffffffffffffffffffffffffffffff16021790555050565b600080600060149054906101000a900460ff1615151561308857600080fd5b8b73ffffffffffffffffffffffffffffffffffffffff163373ffffffffffffffffffffffffffffffffffffffff16141580156130db575060008c73ffffffffffffffffffffffffffffffffffffffff1614155b15156130e657600080fd5b8734101515156130f557600080fd5b34613109898d613af790919063ffffffff16565b1015151561311657600080fd5b61317f8c8d338e8e8e600980602002604051908101604052809291908260096020028082843782019150505050508d8d8080601f0160208091040260200160405190810160405280939291908181526020018383808284378201915050505050508c8c8c612cba565b151561318a57600080fd5b600160009054906101000a900473ffffffffffffffffffffffffffffffffffffffff1673ffffffffffffffffffffffffffffffffffffffff166366a8530c8d8e338f8f8d8d6000604051602001526040518863ffffffff167c0100000000000000000000000000000000000000000000000000000000028152600401808873ffffffffffffffffffffffffffffffffffffffff1673ffffffffffffffffffffffffffffffffffffffff1681526020018773ffffffffffffffffffffffffffffffffffffffff1673ffffffffffffffffffffffffffffffffffffffff1681526020018673ffffffffffffffffffffffffffffffffffffffff1673ffffffffffffffffffffffffffffffffffffffff1681526020018581526020018473ffffffffffffffffffffffffffffffffffffffff1673ffffffffffffffffffffffffffffffffffffffff168152602001806020018281038252848482818152602001925080828437820191505098505050505050505050602060405180830381600087803b151561331557600080fd5b6102c65a03f1151561332657600080fd5b50505060405180519050915060008a73ffffffffffffffffffffffffffffffffffffffff16141515613402578990508073ffffffffffffffffffffffffffffffffffffffff1663d29574ba838b6000604051602001526040518363ffffffff167c010000000000000000000000000000000000000000000000000000000002815260040180836000191660001916815260200182600960200280828437820191505092505050602060405180830381600087803b15156133e557600080fd5b6102c65a03f115156133f657600080fd5b50505060405180519050505b61340b82613b15565b151561341657600080fd5b600088111561342b576134298289613e4e565b505b60003411156134405761343e82346137a2565b505b819150509a9950505050505050505050565b600080600080600160009054906101000a900473ffffffffffffffffffffffffffffffffffffffff1673ffffffffffffffffffffffffffffffffffffffff1663c139626b886000604051602001526040518263ffffffff167c0100000000000000000000000000000000000000000000000000000000028152600401808260001916600019168152602001915050602060405180830381600087803b15156134f957600080fd5b6102c65a03f1151561350a57600080fd5b5050506040518051905092506001915060008373ffffffffffffffffffffffffffffffffffffffff161415801561356d57503373ffffffffffffffffffffffffffffffffffffffff168373ffffffffffffffffffffffffffffffffffffffff1614155b1561364e578290508073ffffffffffffffffffffffffffffffffffffffff1663452e79a48888886000604051602001526040518463ffffffff167c01000000000000000000000000000000000000000000000000000000000281526004018084600019166000191681526020018373ffffffffffffffffffffffffffffffffffffffff1673ffffffffffffffffffffffffffffffffffffffff1681526020018281526020019350505050602060405180830381600087803b151561363057600080fd5b6102c65a03f1151561364157600080fd5b5050506040518051905091505b81156136a25784600260008873ffffffffffffffffffffffffffffffffffffffff1673ffffffffffffffffffffffffffffffffffffffff168152602001908152602001600020600082825401925050819055505b8193505050509392505050565b6000600160009054906101000a900473ffffffffffffffffffffffffffffffffffffffff1673ffffffffffffffffffffffffffffffffffffffff1663c139626b836000604051602001526040518263ffffffff167c0100000000000000000000000000000000000000000000000000000000028152600401808260001916600019168152602001915050602060405180830381600087803b151561375257600080fd5b6102c65a03f1151561376357600080fd5b5050506040518051905073ffffffffffffffffffffffffffffffffffffffff163373ffffffffffffffffffffffffffffffffffffffff16149050919050565b600080600080600160009054906101000a900473ffffffffffffffffffffffffffffffffffffffff1673ffffffffffffffffffffffffffffffffffffffff1663c139626b876000604051602001526040518263ffffffff167c0100000000000000000000000000000000000000000000000000000000028152600401808260001916600019168152602001915050602060405180830381600087803b151561384957600080fd5b6102c65a03f1151561385a57600080fd5b5050506040518051905092506001915060008373ffffffffffffffffffffffffffffffffffffffff16141580156138bd57503373ffffffffffffffffffffffffffffffffffffffff168373ffffffffffffffffffffffffffffffffffffffff1614155b1561396a578290508073ffffffffffffffffffffffffffffffffffffffff1663a05bd4c687876000604051602001526040518363ffffffff167c010000000000000000000000000000000000000000000000000000000002815260040180836000191660001916815260200182815260200192505050602060405180830381600087803b151561394c57600080fd5b6102c65a03f1151561395d57600080fd5b5050506040518051905091505b8115613aeb57600160009054906101000a900473ffffffffffffffffffffffffffffffffffffffff1673ffffffffffffffffffffffffffffffffffffffff1663a05bd4c687876040518363ffffffff167c010000000000000000000000000000000000000000000000000000000002815260040180836000191660001916815260200182815260200192505050600060405180830381600087803b1515613a1057600080fd5b6102c65a03f11515613a2157600080fd5b505050613ae986600160009054906101000a900473ffffffffffffffffffffffffffffffffffffffff1673ffffffffffffffffffffffffffffffffffffffff1662ca2f75896000604051602001526040518263ffffffff167c0100000000000000000000000000000000000000000000000000000000028152600401808260001916600019168152602001915050602060405180830381600087803b1515613ac857600080fd5b6102c65a03f11515613ad957600080fd5b5050506040518051905087613452565b505b81935050505092915050565b6000808284019050838110151515613b0b57fe5b8091505092915050565b600080600080600160009054906101000a900473ffffffffffffffffffffffffffffffffffffffff1673ffffffffffffffffffffffffffffffffffffffff1663c139626b866000604051602001526040518263ffffffff167c0100000000000000000000000000000000000000000000000000000000028152600401808260001916600019168152602001915050602060405180830381600087803b1515613bbc57600080fd5b6102c65a03f11515613bcd57600080fd5b5050506040518051905092506001915060008373ffffffffffffffffffffffffffffffffffffffff1614158015613c3057503373ffffffffffffffffffffffffffffffffffffffff168373ffffffffffffffffffffffffffffffffffffffff1614155b15613d9057600160009054906101000a900473ffffffffffffffffffffffffffffffffffffffff1673ffffffffffffffffffffffffffffffffffffffff1663c139626b866000604051602001526040518263ffffffff167c0100000000000000000000000000000000000000000000000000000000028152600401808260001916600019168152602001915050602060405180830381600087803b1515613cd657600080fd5b6102c65a03f11515613ce757600080fd5b5050506040518051905090508073ffffffffffffffffffffffffffffffffffffffff1663e4725ba1866000604051602001526040518263ffffffff167c0100000000000000000000000000000000000000000000000000000000028152600401808260001916600019168152602001915050602060405180830381600087803b1515613d7257600080fd5b6102c65a03f11515613d8357600080fd5b5050506040518051905091505b8115613e4357600160009054906101000a900473ffffffffffffffffffffffffffffffffffffffff1673ffffffffffffffffffffffffffffffffffffffff1663e4725ba1866040518263ffffffff167c0100000000000000000000000000000000000000000000000000000000028152600401808260001916600019168152602001915050600060405180830381600087803b1515613e2e57600080fd5b6102c65a03f11515613e3f57600080fd5b5050505b819350505050919050565b600080600080600160009054906101000a900473ffffffffffffffffffffffffffffffffffffffff1673ffffffffffffffffffffffffffffffffffffffff1663c139626b876000604051602001526040518263ffffffff167c0100000000000000000000000000000000000000000000000000000000028152600401808260001916600019168152602001915050602060405180830381600087803b1515613ef557600080fd5b6102c65a03f11515613f0657600080fd5b5050506040518051905092506001915060008373ffffffffffffffffffffffffffffffffffffffff1614158015613f6957503373ffffffffffffffffffffffffffffffffffffffff168373ffffffffffffffffffffffffffffffffffffffff1614155b15614016578290508073ffffffffffffffffffffffffffffffffffffffff16636279dc5c87876000604051602001526040518363ffffffff167c010000000000000000000000000000000000000000000000000000000002815260040180836000191660001916815260200182815260200192505050602060405180830381600087803b1515613ff857600080fd5b6102c65a03f1151561400957600080fd5b5050506040518051905091505b81156140d157600160009054906101000a900473ffffffffffffffffffffffffffffffffffffffff1673ffffffffffffffffffffffffffffffffffffffff16636279dc5c87876040518363ffffffff167c010000000000000000000000000000000000000000000000000000000002815260040180836000191660001916815260200182815260200192505050600060405180830381600087803b15156140bc57600080fd5b6102c65a03f115156140cd57600080fd5b5050505b81935050505092915050565b600030878787878787604051808873ffffffffffffffffffffffffffffffffffffffff1673ffffffffffffffffffffffffffffffffffffffff166c010000000000000000000000000281526014018773ffffffffffffffffffffffffffffffffffffffff1673ffffffffffffffffffffffffffffffffffffffff166c010000000000000000000000000281526014018673ffffffffffffffffffffffffffffffffffffffff1673ffffffffffffffffffffffffffffffffffffffff166c010000000000000000000000000281526014018581526020018473ffffffffffffffffffffffffffffffffffffffff1673ffffffffffffffffffffffffffffffffffffffff166c0100000000000000000000000002815260140183600960200280838360005b8381101561421b578082015181840152602081019050614200565b5050505090500182805190602001908083835b602083101515614253578051825260208201915060208101905060208303925061422e565b6001836020036101000a0380198251168184511680821785525050505050509050019750505050505050506040518091039020905096955050505050505600a165627a7a7230582063e97267541ec755c8c781de8b1a34563aeae12b99c9f416dbec33a1a9c5c6530029",
  "source": "pragma solidity 0.4.18;\r\n\r\nimport '../core/RequestCore.sol';\r\nimport './extensions/RequestSynchroneInterface.sol';\r\nimport '../base/math/SafeMath.sol';\r\nimport '../base/lifecycle/Pausable.sol';\r\n\r\n/**\r\n * @title RequestEthereum\r\n *\r\n * @dev RequestEthereum is the sub contract managing the request payed in Ethereum\r\n *\r\n * @dev Requests can be created by the Payee with createRequest() or by the payer from a request signed offchain by the payee with createQuickRequest\r\n * @dev Requests can have 1 extension. it has to implement RequestSynchroneInterface and declared trusted on the Core\r\n */\r\ncontract RequestEthereum is Pausable {\r\n\tusing SafeMath for uint;\r\n\r\n\t// RequestCore object\r\n\tRequestCore public requestCore;\r\n\r\n\t// Ethereum available to withdraw\r\n\tstruct EthToWithdraw {\r\n\t\tuint amount;\r\n\t\taddress recipient;\r\n\t}\r\n\tmapping(address => uint) public ethToWithdraw;\r\n\r\n\t/*\r\n\t * @dev Constructor\r\n\t * @param _requestCoreAddress Request Core address\r\n\t */  \r\n\tfunction RequestEthereum(address _requestCoreAddress) public\r\n\t{\r\n\t\trequestCore=RequestCore(_requestCoreAddress);\r\n\t}\r\n\r\n\t/*\r\n\t * @dev Function to create a request as payee\r\n\t *\r\n\t * @dev msg.sender must be _payee\r\n\t *\r\n\t * @param _payer Entity supposed to pay\r\n\t * @param _amountInitial Initial amount initial to be received. This amount can't be changed.\r\n\t * @param _extension an extension can be linked to a request and allows advanced payments conditions such as escrow. Extensions have to be whitelisted in Core\r\n\t * @param _extensionParams Parameters for the extensions. It is an array of 9 bytes32.\r\n\t *\r\n\t * @return Returns the id of the request \r\n\t */\r\n\tfunction createRequestAsPayee(address _payer, uint _amountInitial, address _extension, bytes32[9] _extensionParams, string _details)\r\n\t\texternal\r\n\t\twhenNotPaused\r\n\t\treturns(bytes32 requestId)\r\n\t{\r\n\t\trequire(msg.sender != _payer && _payer != 0);\r\n\t\trequestId= requestCore.createRequest(msg.sender, msg.sender, _payer, _amountInitial, _extension, _details);\r\n\r\n\t\tif(_extension!=0) {\r\n\t\t\tRequestSynchroneInterface extension = RequestSynchroneInterface(_extension);\r\n\t\t\textension.createRequest(requestId, _extensionParams);\r\n\t\t}\r\n\r\n\t\treturn requestId;\r\n\t}\r\n\r\n\r\n\t/*\r\n\t * @dev Function to create a request as payer\r\n\t *\r\n\t * @dev msg.sender must be _payee or _payer\r\n\t *\r\n\t * @param _payee Entity which will receive the payment\r\n\t * @param _amountInitial Initial amount initial to be received. This amount can't be changed.\r\n\t * @param _extension an extension can be linked to a request and allows advanced payments conditions such as escrow. Extensions have to be whitelisted in Core\r\n\t * @param _extensionParams Parameters for the extensions. It is an array of 9 bytes32.\r\n\t *\r\n\t * @return Returns the id of the request \r\n\t */\r\n\tfunction createRequestAsPayer(address _payee, uint _amountInitial, address _extension, bytes32[9] _extensionParams, uint _tips, string _details)\r\n\t\texternal\r\n\t\tpayable\r\n\t\twhenNotPaused\r\n\t\treturns(bytes32 requestId)\r\n\t{\r\n\t\trequire(msg.sender != _payee && _payee != 0);\r\n\t\trequire(msg.value >= _tips); // tips declare must be lower than amount sent\r\n\t\trequire(_amountInitial.add(_tips) >= msg.value); // You cannot pay more than amount needed\r\n\r\n\t\trequestId= requestCore.createRequest(msg.sender, _payee, msg.sender, _amountInitial, _extension, _details);\r\n\r\n\t\tif(_extension!=0) {\r\n\t\t\tRequestSynchroneInterface extension = RequestSynchroneInterface(_extension);\r\n\t\t\textension.createRequest(requestId, _extensionParams);\r\n\t\t}\r\n\r\n\t\t// accept must succeed\r\n\t\trequire(acceptInternal(requestId));\r\n\r\n\t\tif(_tips > 0) {\r\n\t\t\taddAdditionalInternal(requestId, _tips);\r\n\t\t}\r\n\t\tif(msg.value > 0) {\r\n\t\t\tpaymentInternal(requestId, msg.value);\r\n\t\t}\r\n\r\n\t\treturn requestId;\r\n\t}\r\n\r\n\r\n\r\n\t/*\r\n\t * @dev Function to broadcast and accept an offchain signed request (can be paid and tips also)\r\n\t *\r\n\t * @dev msg.sender must be _payer\r\n\t * @dev the _payer can tips \r\n\t *\r\n\t * @param _payee Entity which will receive the payment\r\n\t * @param _payer Entity supposed to pay\r\n\t * @param _amountInitial Initial amount initial to be received. This amount can't be changed.\r\n\t * @param _extension an extension can be linked to a request and allows advanced payments conditions such as escrow. Extensions have to be whitelisted in Core\r\n\t * @param _extensionParams Parameters for the extension. It is an array of 9 bytes32\r\n\t * @param _tips amount of tips the payer want to declare\r\n\t * @param v ECDSA signature parameter v.\r\n\t * @param r ECDSA signature parameters r.\r\n\t * @param s ECDSA signature parameters s.\r\n\t *\r\n\t * @return Returns the id of the request \r\n\t */\r\n   function broadcastSignedRequestAsPayer(address _payee, uint _amountInitial, address _extension, bytes32[9] _extensionParams, uint _tips, string _details, uint8 v, bytes32 r, bytes32 s)\r\n\t\texternal\r\n\t\tpayable\r\n\t\twhenNotPaused\r\n\t\treturns(bytes32 requestId)\r\n\t{\r\n\t\trequire(msg.sender != _payee && _payee != 0);\r\n\t\trequire(msg.value >= _tips); // tips declare must be lower than amount sent\r\n\t\trequire(_amountInitial.add(_tips) >= msg.value); // You cannot pay more than amount needed\r\n\r\n\t\t// check the signature\r\n\t\trequire(checkRequestSignature(_payee,_payee,msg.sender,_amountInitial,_extension,_extensionParams,_details, v, r, s));\r\n\r\n\t\trequestId=requestCore.createRequest(_payee, _payee, msg.sender, _amountInitial, _extension, _details);\r\n\r\n\t\tif(_extension!=0) {\r\n\t\t\tRequestSynchroneInterface extension = RequestSynchroneInterface(_extension);\r\n\t\t\textension.createRequest(requestId, _extensionParams);\r\n\t\t}\r\n\r\n\t\t// accept must succeed\r\n\t\trequire(acceptInternal(requestId));\r\n\r\n\t\tif(_tips > 0) {\r\n\t\t\taddAdditionalInternal(requestId, _tips);\r\n\t\t}\r\n\t\tif(msg.value > 0) {\r\n\t\t\tpaymentInternal(requestId, msg.value);\r\n\t\t}\r\n\r\n\t\treturn requestId;\r\n\t}\r\n\r\n\t// ---- INTERFACE FUNCTIONS ------------------------------------------------------------------------------------\r\n\r\n\t/*\r\n\t * @dev Function to accept a request\r\n\t *\r\n\t * @dev msg.sender must be _payer or an extension used by the request\r\n\t *\r\n\t * @param _requestId id of the request \r\n\t *\r\n\t * @return true if the request is accepted, false otherwise\r\n\t */\r\n\tfunction accept(bytes32 _requestId) \r\n\t\texternal\r\n\t\twhenNotPaused\r\n\t\tcondition(isOnlyRequestExtension(_requestId) || (requestCore.getPayer(_requestId)==msg.sender && requestCore.getState(_requestId)==RequestCore.State.Created))\r\n\t\treturns(bool)\r\n\t{\r\n\t\treturn acceptInternal(_requestId);\r\n\t}\r\n\r\n\t/*\r\n\t * @dev Function to decline a request\r\n\t *\r\n\t * @dev msg.sender must be _payer or the extension used by the request\r\n\t *\r\n\t * @param _requestId id of the request \r\n\t *\r\n\t * @return true if the request is declined, false otherwise\r\n\t */\r\n\tfunction decline(bytes32 _requestId)\r\n\t\texternal\r\n\t\twhenNotPaused\r\n\t\tcondition(isOnlyRequestExtension(_requestId) || (requestCore.getPayer(_requestId)==msg.sender && requestCore.getState(_requestId)==RequestCore.State.Created))\r\n\t\treturns(bool)\r\n\t{\r\n\t\taddress extensionAddr = requestCore.getExtension(_requestId);\r\n\r\n\t\tbool isOK = true;\r\n\t\tif(extensionAddr!=0 && extensionAddr!=msg.sender)  \r\n\t\t{\r\n\t\t\tRequestSynchroneInterface extension = RequestSynchroneInterface(extensionAddr);\r\n\t\t\tisOK = extension.decline(_requestId);\r\n\t\t}\r\n\r\n\t\tif(isOK) \r\n\t\t{\r\n\t\t\trequestCore.decline(_requestId);\r\n\t\t}  \r\n\t\treturn isOK;\r\n\t}\r\n\r\n\t/*\r\n\t * @dev Function to declare a payment a request\r\n\t *\r\n\t * @dev msg.sender must be an extension used by the request\r\n\t *\r\n\t * @param _requestId id of the request \r\n\t * @param _amount amount of the payment to declare\r\n\t *\r\n\t * @return true if the payment is declared, false otherwise\r\n\t */\r\n\tfunction payment(bytes32 _requestId, uint _amount)\r\n\t\texternal\r\n\t\twhenNotPaused\r\n\t\tonlyRequestExtensions(_requestId)\r\n\t\treturns(bool)\r\n\t{\r\n\t\treturn paymentInternal(_requestId, _amount);\r\n\t}\r\n\r\n\t/*\r\n\t * @dev Function to order a fund mouvment \r\n\t *\r\n\t * @dev msg.sender must be an extension used by the request\r\n\t *\r\n\t * @param _requestId id of the request \r\n\t * @param _recipient adress where the wei has to me send to\r\n\t * @param _amount amount in wei to send\r\n\t *\r\n\t * @return true if the fund mouvement is done, false otherwise\r\n\t */\r\n\tfunction fundOrder(bytes32 _requestId, address _recipient, uint _amount)\r\n\t\texternal\r\n\t\twhenNotPaused\r\n\t\tonlyRequestExtensions(_requestId)\r\n\t\treturns(bool)\r\n\t{\r\n\t\treturn fundOrderInternal(_requestId, _recipient, _amount);\r\n\t}\r\n\r\n\t/*\r\n\t * @dev Function to cancel a request\r\n\t *\r\n\t * @dev msg.sender must be _payee or an extension used by the request\r\n\t * @dev only request with amountPaid equals to zero can be cancel\r\n\t *\r\n\t * @param _requestId id of the request \r\n\t *\r\n\t * @return true if the request is canceled, false otherwise\r\n\t */\r\n\tfunction cancel(bytes32 _requestId)\r\n\t\texternal\r\n\t\twhenNotPaused\r\n\t\tcondition(isOnlyRequestExtension(_requestId) || (requestCore.getPayee(_requestId)==msg.sender && (requestCore.getState(_requestId)==RequestCore.State.Created || requestCore.getState(_requestId)==RequestCore.State.Accepted)))\r\n\t\treturns(bool)\r\n\t{\r\n\t\t// impossible to cancel a Request with a balance != 0\r\n\t\trequire(requestCore.getAmountPaid(_requestId) == 0);\r\n\r\n\t\taddress extensionAddr = requestCore.getExtension(_requestId);\r\n\r\n\t\tbool isOK = true;\r\n\t\tif(extensionAddr!=0 && extensionAddr!=msg.sender)  \r\n\t\t{\r\n\t\t\tRequestSynchroneInterface extension = RequestSynchroneInterface(extensionAddr);\r\n\t\t\tisOK = extension.cancel(_requestId);\r\n\t\t}\r\n\t\t\r\n\t\tif(isOK) \r\n\t\t{\r\n\t\t  requestCore.cancel(_requestId);\r\n\t\t}\r\n\t\treturn isOK;\r\n\t}\r\n\r\n\t// ----------------------------------------------------------------------------------------\r\n\r\n\r\n\t// ---- CONTRACT FUNCTIONS ------------------------------------------------------------------------------------\r\n\t/*\r\n\t * @dev Function PAYABLE to pay in ether a request\r\n\t *\r\n\t * @dev the request must be accepted\r\n\t * @dev tips must be lower than the actual amount of wei sent\r\n\t *\r\n\t * @param _requestId id of the request\r\n\t * @param _tips amount of tips in wei to declare \r\n\t */\r\n\tfunction pay(bytes32 _requestId, uint _tips)\r\n\t\texternal\r\n\t\twhenNotPaused\r\n\t\tpayable\r\n\t\tcondition(requestCore.getState(_requestId)==RequestCore.State.Accepted)\r\n\t\tcondition(msg.value >= _tips) // tips declare must be lower than amount sent\r\n\t\tcondition(requestCore.getAmountInitialAfterSubAdd(_requestId).add(_tips) >= msg.value) // You can pay more than amount needed\r\n\t{\r\n\t\tif(_tips > 0) {\r\n\t\t\taddAdditionalInternal(_requestId, _tips);\r\n\t\t}\r\n\t\tpaymentInternal(_requestId, msg.value);\r\n\t}\r\n\r\n\t/*\r\n\t * @dev Function PAYABLE to pay back in ether a request to the payee\r\n\t *\r\n\t * @dev msg.sender must be _payer\r\n\t * @dev the request must be accepted\r\n\t * @dev the payback must be lower than the amount already paid for the request\r\n\t *\r\n\t * @param _requestId id of the request\r\n\t */\r\n\tfunction payback(bytes32 _requestId)\r\n\t\texternal\r\n\t\twhenNotPaused\r\n\t\tcondition(requestCore.getState(_requestId)==RequestCore.State.Accepted)\r\n\t\tonlyRequestPayee(_requestId)\r\n\t\tcondition(msg.value <= requestCore.getAmountPaid(_requestId))\r\n\t\tpayable\r\n\t{   \r\n\t\taddress extensionAddr = requestCore.getExtension(_requestId);\r\n\r\n\t\tbool isOK = true;\r\n\t\tif(extensionAddr!=0 && extensionAddr!=msg.sender)  \r\n\t\t{\r\n\t\t\tRequestSynchroneInterface extension = RequestSynchroneInterface(extensionAddr);\r\n\t\t\tisOK = extension.refund(_requestId, msg.value);\r\n\t\t}\r\n\r\n\t\tif(isOK) \r\n\t\t{\r\n\t\t\trequestCore.refund(_requestId, msg.value);\r\n\t\t\t// refund done, the money is ready to withdraw by the payer\r\n\t\t\tfundOrderInternal(_requestId, requestCore.getPayer(_requestId), msg.value);\r\n\t\t}\r\n\t}\r\n\r\n\t/*\r\n\t * @dev Function to declare a discount\r\n\t *\r\n\t * @dev msg.sender must be _payee or an extension used by the request\r\n\t * @dev the request must be accepted or created\r\n\t *\r\n\t * @param _requestId id of the request\r\n\t * @param _amount amount of discount in wei to declare \r\n\t */\r\n\tfunction discount(bytes32 _requestId, uint _amount)\r\n\t\texternal\r\n\t\twhenNotPaused\r\n\t\tcondition(requestCore.getState(_requestId)==RequestCore.State.Accepted || requestCore.getState(_requestId)==RequestCore.State.Created)\r\n\t\tonlyRequestPayee(_requestId)\r\n\t\tcondition(_amount.add(requestCore.getAmountPaid(_requestId)) <= requestCore.getAmountInitialAfterSubAdd(_requestId))\r\n\t{\r\n\t\taddress extensionAddr = requestCore.getExtension(_requestId);\r\n\r\n\t\tbool isOK = true;\r\n\t\tif(extensionAddr!=0 && extensionAddr!=msg.sender)  \r\n\t\t{\r\n\t\t\tRequestSynchroneInterface extension = RequestSynchroneInterface(extensionAddr);\r\n\t\t\tisOK = extension.addSubtract(_requestId, _amount);\r\n\t\t}\r\n\r\n\t\tif(isOK) \r\n\t\t{\r\n\t\t\trequestCore.addSubtract(_requestId, _amount);\r\n\t\t}\r\n\t}\r\n\r\n\r\n\t/*\r\n\t * @dev Function to withdraw ether\r\n\t */\r\n\tfunction withdraw()\r\n\t\tpublic\r\n\t{\r\n\t\tuint amount = ethToWithdraw[msg.sender];\r\n\t\tethToWithdraw[msg.sender] = 0;\r\n\t\tmsg.sender.transfer(amount);\r\n\t}\r\n\t// ----------------------------------------------------------------------------------------\r\n\r\n\r\n\t// ---- INTERNAL FUNCTIONS ------------------------------------------------------------------------------------\r\n\t/*\r\n\t * @dev Function internal to manage payment declaration\r\n\t *\r\n\t * @param _requestId id of the request\r\n\t * @param _amount amount of payment in wei to declare \r\n\t *\r\n\t * @return true if the payment is done, false otherwise\r\n\t */\r\n\tfunction paymentInternal(bytes32 _requestId, uint _amount) \r\n\t\tinternal\r\n\t\treturns(bool)\r\n\t{\r\n\t\taddress extensionAddr = requestCore.getExtension(_requestId);\r\n\r\n\t\tbool isOK = true;\r\n\t\tif(extensionAddr!=0 && extensionAddr!=msg.sender) \r\n\t\t{\r\n\t\t\tRequestSynchroneInterface extension = RequestSynchroneInterface(extensionAddr);\r\n\t\t\tisOK = extension.payment(_requestId, _amount);\r\n\t\t}\r\n\r\n\t\tif(isOK) \r\n\t\t{\r\n\t\t\trequestCore.payment(_requestId, _amount);\r\n\t\t\t// payment done, the money is ready to withdraw by the payee\r\n\t\t\tfundOrderInternal(_requestId, requestCore.getPayee(_requestId), _amount);\r\n\t\t}\r\n\t\treturn isOK;\r\n\t}\r\n\r\n\t/*\r\n\t * @dev Function internal to manage tips declaration\r\n\t *\r\n\t * @param _requestId id of the request\r\n\t * @param _amount amount of tips in wei to declare \r\n\t *\r\n\t * @return true if the tips is declared, false otherwise\r\n\t */\r\n\tfunction  addAdditionalInternal(bytes32 _requestId, uint _amount) \r\n\t\tinternal\r\n\t\treturns(bool)\r\n\t{\r\n\t\taddress extensionAddr = requestCore.getExtension(_requestId);\r\n\r\n\t\tbool isOK = true;\r\n\t\tif(extensionAddr!=0 && extensionAddr!=msg.sender)  \r\n\t\t{\r\n\t\t\tRequestSynchroneInterface extension = RequestSynchroneInterface(extensionAddr);\r\n\t\t\tisOK = extension.addAdditional(_requestId, _amount);\r\n\t\t}\r\n\r\n\t\tif(isOK) \r\n\t\t{\r\n\t\t\trequestCore.addAdditional(_requestId, _amount);\r\n\t\t}\r\n\t\treturn isOK;\r\n\t}\r\n\r\n\t/*\r\n\t * @dev Function internal to manage fund mouvement\r\n\t *\r\n\t * @param _requestId id of the request \r\n\t * @param _recipient adress where the wei has to me send to\r\n\t * @param _amount amount in wei to send\r\n\t *\r\n\t * @return true if the fund mouvement is done, false otherwise\r\n\t */\r\n\tfunction fundOrderInternal(bytes32 _requestId, address _recipient, uint _amount) \r\n\t\tinternal\r\n\t\treturns(bool)\r\n\t{\r\n\t\taddress extensionAddr = requestCore.getExtension(_requestId);\r\n\r\n\t\tbool isOK = true;\r\n\t\tif(extensionAddr!=0 && extensionAddr!=msg.sender)  \r\n\t\t{\r\n\t\t\tRequestSynchroneInterface extension = RequestSynchroneInterface(extensionAddr);\r\n\t\t\tisOK = extension.fundOrder(_requestId,_recipient,_amount);\r\n\t\t}\r\n\r\n\t\tif(isOK) \r\n\t\t{\r\n\t\t\t// sending fund means make it availbale to withdraw here\r\n\t\t\tethToWithdraw[_recipient] += _amount;\r\n\t\t}   \r\n\t\treturn isOK;\r\n\t}\r\n\r\n\t/*\r\n\t * @dev Function internal to manage acceptance\r\n\t *\r\n\t * @param _requestId id of the request \r\n\t *\r\n\t * @return true if the request is accept, false otherwise\r\n\t */\r\n\tfunction acceptInternal(bytes32 _requestId) \r\n\t\tinternal\r\n\t\treturns(bool)\r\n\t{\r\n\t\taddress extensionAddr = requestCore.getExtension(_requestId);\r\n\r\n\t\tbool isOK = true;\r\n\t\tif(extensionAddr!=0 && extensionAddr!=msg.sender)  \r\n\t\t{\r\n\t\t\tRequestSynchroneInterface extension = RequestSynchroneInterface(requestCore.getExtension(_requestId));\r\n\t\t\tisOK = extension.accept(_requestId);\r\n\t\t}\r\n\r\n\t\tif(isOK) \r\n\t\t{\r\n\t\t\trequestCore.accept(_requestId);\r\n\t\t}  \r\n\t\treturn isOK;\r\n\t}\r\n\r\n\t/*\r\n\t * @dev Function internal to calculate Keccak-256 hash of a request with specified parameters\r\n\t *\r\n\t * @param _payee Entity which will receive the payment\r\n\t * @param _payer Entity supposed to pay\r\n\t * @param _amountInitial Initial amount initial to be received. This amount can't be changed.\r\n\t * @param _extensions Up to 3 extensions can be linked to a request and allows advanced payments conditions such as escrow. Extensions have to be whitelisted in Core\r\n\t * @param _extensionParams Parameters for the extensions. It is an array of 9 bytes32, the 3 first element are for the first extension, the 3 next for the second extension and the last 3 for the third extension.\r\n\t *\r\n\t * @return Keccak-256 hash of a request\r\n\t */\r\n\tfunction getRequestHash(address _payee, address _payer, uint _amountInitial, address _extension, bytes32[9] _extensionParams, string _details)\r\n\t\tinternal\r\n\t\tview\r\n\t\treturns(bytes32)\r\n\t{\r\n\t\treturn keccak256(this,_payee,_payer,_amountInitial,_extension,_extensionParams,_details);\r\n\t}\r\n\r\n\t/*\r\n\t * @dev Verifies that a hash signature is valid. 0x style\r\n\t * @param signer address of signer.\r\n\t * @param hash Signed Keccak-256 hash.\r\n\t * @param v ECDSA signature parameter v.\r\n\t * @param r ECDSA signature parameters r.\r\n\t * @param s ECDSA signature parameters s.\r\n\t * @return Validity of order signature.\r\n\t */\r\n\tfunction isValidSignature(\r\n\t\taddress signer,\r\n\t\tbytes32 hash,\r\n\t\tuint8 v,\r\n\t\tbytes32 r,\r\n\t\tbytes32 s)\r\n\t\tpublic\r\n\t\tpure\r\n\t\treturns (bool)\r\n\t{\r\n\t\treturn signer == ecrecover(\r\n\t\t\tkeccak256(\"\\x19Ethereum Signed Message:\\n32\", hash),\r\n\t\t\tv,\r\n\t\t\tr,\r\n\t\t\ts\r\n\t\t);\r\n\t}\r\n\r\n\tfunction checkRequestSignature(\r\n\t\taddress signer,\r\n\t\taddress payee,\r\n\t\taddress payer,\r\n\t\tuint amountInitial,\r\n\t\taddress extension,\r\n\t\tbytes32[9] extensionParams,\r\n\t\tstring details,\r\n\t\tuint8 v,\r\n\t\tbytes32 r,\r\n\t\tbytes32 s)\r\n\t\tpublic\r\n\t\tview\r\n\t\treturns (bool)\r\n\t{\r\n\t\tbytes32 hash = getRequestHash(payee,payer,amountInitial,extension,extensionParams,details);\r\n\t\treturn isValidSignature(signer, hash, v, r, s);\r\n\t}\r\n\r\n\t/*\r\n\t * @dev Function internal to check if the msg.sender is an extension of the request\r\n\t *\r\n\t * @param _requestId id of the request \r\n\t *\r\n\t * @return true if msg.sender is an extension of the request\r\n\t */\r\n\tfunction isOnlyRequestExtension(bytes32 _requestId) \r\n\t\tinternal \r\n\t\tview\r\n\t\treturns(bool)\r\n\t{\r\n\t\treturn msg.sender==requestCore.getExtension(_requestId);\r\n\t}\r\n\r\n\t//modifier\r\n\tmodifier condition(bool c) \r\n\t{\r\n\t\trequire(c);\r\n\t\t_;\r\n\t}\r\n\r\n\t/*\r\n\t * @dev Modifier to check if msg.sender is payer\r\n\t * @dev Revert if msg.sender is not payer\r\n\t * @param _requestId id of the request \r\n\t */\t\r\n\tmodifier onlyRequestPayer(bytes32 _requestId) \r\n\t{\r\n\t\trequire(requestCore.getPayer(_requestId)==msg.sender);\r\n\t\t_;\r\n\t}\r\n\t\r\n\t/*\r\n\t * @dev Modifier to check if msg.sender is payee\r\n\t * @dev Revert if msg.sender is not payee\r\n\t * @param _requestId id of the request \r\n\t */\t\r\n\tmodifier onlyRequestPayee(bytes32 _requestId) \r\n\t{\r\n\t\trequire(requestCore.getPayee(_requestId)==msg.sender);\r\n\t\t_;\r\n\t}\r\n\r\n\t/*\r\n\t * @dev Modifier to check if msg.sender is payee or payer\r\n\t * @dev Revert if msg.sender is not payee or payer\r\n\t * @param _requestId id of the request \r\n\t */\r\n\tmodifier onlyRequestPayeeOrPayer(bytes32 _requestId) \r\n\t{\r\n\t\trequire(requestCore.getPayee(_requestId)==msg.sender || requestCore.getPayer(_requestId)==msg.sender);\r\n\t\t_;\r\n\t}\r\n\r\n\t/*\r\n\t * @dev Modifier to check if request is in a specify state\r\n\t * @dev Revert if request not in a specify state\r\n\t * @param _requestId id of the request \r\n\t * @param _state state to check\r\n\t */\r\n\tmodifier onlyRequestState(bytes32 _requestId, RequestCore.State _state) \r\n\t{\r\n\t\trequire(requestCore.getState(_requestId)==_state);\r\n\t\t_;\r\n\t}\r\n\r\n\t/*\r\n\t * @dev Modifier to check if the msg.sender is an extension of the request\r\n\t * @dev Revert if msg.sender is not an extension of the request\r\n\t * @param _requestId id of the request\r\n\t */\r\n\tmodifier onlyRequestExtensions(bytes32 _requestId) \r\n\t{\r\n\t\trequire(isOnlyRequestExtension(_requestId));\r\n\t\t_;\r\n\t}\r\n}\r\n",
  "sourcePath": "C:\\Users\\vince\\Documents\\Request\\git\\Request_SmartContracts\\contracts\\synchrone\\RequestEthereum.sol",
  "compiler": {
    "name": "solc",
    "version": "0.4.18+commit.9cf6e910.Emscripten.clang"
  },
  "schemaVersion": "1.0.1",
  "updatedAt": "2017-11-20T14:50:21.971Z"
}