{
  "contractName": "RequestCore",
  "abi": [
    {
      "constant": true,
      "inputs": [
        {
          "name": "_requestId",
          "type": "bytes32"
        }
      ],
      "name": "getPayee",
      "outputs": [
        {
          "name": "",
          "type": "address"
        }
      ],
      "payable": false,
      "stateMutability": "view",
      "type": "function"
    },
    {
      "constant": true,
      "inputs": [
        {
          "name": "_requestId",
          "type": "bytes32"
        }
      ],
      "name": "getAmountInitial",
      "outputs": [
        {
          "name": "",
          "type": "uint256"
        }
      ],
      "payable": false,
      "stateMutability": "view",
      "type": "function"
    },
    {
      "constant": true,
      "inputs": [
        {
          "name": "_requestId",
          "type": "bytes32"
        }
      ],
      "name": "getState",
      "outputs": [
        {
          "name": "",
          "type": "uint8"
        }
      ],
      "payable": false,
      "stateMutability": "view",
      "type": "function"
    },
    {
      "constant": true,
      "inputs": [
        {
          "name": "_requestId",
          "type": "bytes32"
        }
      ],
      "name": "getSubContract",
      "outputs": [
        {
          "name": "",
          "type": "address"
        }
      ],
      "payable": false,
      "stateMutability": "view",
      "type": "function"
    },
    {
      "constant": false,
      "inputs": [
        {
          "name": "_oldExtension",
          "type": "address"
        }
      ],
      "name": "adminRemoveExtension",
      "outputs": [],
      "payable": false,
      "stateMutability": "nonpayable",
      "type": "function"
    },
    {
      "constant": false,
      "inputs": [],
      "name": "unpause",
      "outputs": [],
      "payable": false,
      "stateMutability": "nonpayable",
      "type": "function"
    },
    {
      "constant": false,
      "inputs": [
        {
          "name": "_requestId",
          "type": "bytes32"
        },
        {
          "name": "_amount",
          "type": "uint256"
        }
      ],
      "name": "addSubtract",
      "outputs": [],
      "payable": false,
      "stateMutability": "nonpayable",
      "type": "function"
    },
    {
      "constant": true,
      "inputs": [
        {
          "name": "_requestId",
          "type": "bytes32"
        }
      ],
      "name": "getAmountSubtract",
      "outputs": [
        {
          "name": "",
          "type": "uint256"
        }
      ],
      "payable": false,
      "stateMutability": "view",
      "type": "function"
    },
    {
      "constant": false,
      "inputs": [
        {
          "name": "_newContractAddress",
          "type": "address"
        }
      ],
      "name": "adminAddTrustedSubContract",
      "outputs": [],
      "payable": false,
      "stateMutability": "nonpayable",
      "type": "function"
    },
    {
      "constant": true,
      "inputs": [],
      "name": "paused",
      "outputs": [
        {
          "name": "",
          "type": "bool"
        }
      ],
      "payable": false,
      "stateMutability": "view",
      "type": "function"
    },
    {
      "constant": false,
      "inputs": [
        {
          "name": "_requestId",
          "type": "bytes32"
        },
        {
          "name": "_amount",
          "type": "uint256"
        }
      ],
      "name": "addAdditional",
      "outputs": [],
      "payable": false,
      "stateMutability": "nonpayable",
      "type": "function"
    },
    {
      "constant": false,
      "inputs": [
        {
          "name": "_creator",
          "type": "address"
        },
        {
          "name": "_payee",
          "type": "address"
        },
        {
          "name": "_payer",
          "type": "address"
        },
        {
          "name": "_amountInitial",
          "type": "uint256"
        },
        {
          "name": "_extension",
          "type": "address"
        },
        {
          "name": "_details",
          "type": "string"
        }
      ],
      "name": "createRequest",
      "outputs": [
        {
          "name": "requestId",
          "type": "bytes32"
        }
      ],
      "payable": false,
      "stateMutability": "nonpayable",
      "type": "function"
    },
    {
      "constant": true,
      "inputs": [
        {
          "name": "_requestId",
          "type": "bytes32"
        }
      ],
      "name": "getAmountInitialAfterSubAdd",
      "outputs": [
        {
          "name": "",
          "type": "uint256"
        }
      ],
      "payable": false,
      "stateMutability": "view",
      "type": "function"
    },
    {
      "constant": false,
      "inputs": [
        {
          "name": "_requestId",
          "type": "bytes32"
        },
        {
          "name": "_amount",
          "type": "uint256"
        }
      ],
      "name": "refund",
      "outputs": [],
      "payable": false,
      "stateMutability": "nonpayable",
      "type": "function"
    },
    {
      "constant": true,
      "inputs": [
        {
          "name": "_requestId",
          "type": "bytes32"
        }
      ],
      "name": "getAmountAdditional",
      "outputs": [
        {
          "name": "",
          "type": "uint256"
        }
      ],
      "payable": false,
      "stateMutability": "view",
      "type": "function"
    },
    {
      "constant": true,
      "inputs": [
        {
          "name": "_requestId",
          "type": "bytes32"
        }
      ],
      "name": "getAmountPaid",
      "outputs": [
        {
          "name": "",
          "type": "uint256"
        }
      ],
      "payable": false,
      "stateMutability": "view",
      "type": "function"
    },
    {
      "constant": false,
      "inputs": [],
      "name": "pause",
      "outputs": [],
      "payable": false,
      "stateMutability": "nonpayable",
      "type": "function"
    },
    {
      "constant": false,
      "inputs": [
        {
          "name": "_oldTrustedContractAddress",
          "type": "address"
        }
      ],
      "name": "adminRemoveTrustedSubContract",
      "outputs": [],
      "payable": false,
      "stateMutability": "nonpayable",
      "type": "function"
    },
    {
      "constant": false,
      "inputs": [
        {
          "name": "_requestId",
          "type": "bytes32"
        }
      ],
      "name": "decline",
      "outputs": [],
      "payable": false,
      "stateMutability": "nonpayable",
      "type": "function"
    },
    {
      "constant": true,
      "inputs": [],
      "name": "owner",
      "outputs": [
        {
          "name": "",
          "type": "address"
        }
      ],
      "payable": false,
      "stateMutability": "view",
      "type": "function"
    },
    {
      "constant": true,
      "inputs": [
        {
          "name": "_extension",
          "type": "address"
        }
      ],
      "name": "getStatusExtension",
      "outputs": [
        {
          "name": "",
          "type": "uint8"
        }
      ],
      "payable": false,
      "stateMutability": "view",
      "type": "function"
    },
    {
      "constant": true,
      "inputs": [
        {
          "name": "",
          "type": "bytes32"
        }
      ],
      "name": "requests",
      "outputs": [
        {
          "name": "creator",
          "type": "address"
        },
        {
          "name": "payee",
          "type": "address"
        },
        {
          "name": "payer",
          "type": "address"
        },
        {
          "name": "amountInitial",
          "type": "uint256"
        },
        {
          "name": "subContract",
          "type": "address"
        },
        {
          "name": "amountPaid",
          "type": "uint256"
        },
        {
          "name": "amountAdditional",
          "type": "uint256"
        },
        {
          "name": "amountSubtract",
          "type": "uint256"
        },
        {
          "name": "state",
          "type": "uint8"
        },
        {
          "name": "extension",
          "type": "address"
        },
        {
          "name": "details",
          "type": "string"
        }
      ],
      "payable": false,
      "stateMutability": "view",
      "type": "function"
    },
    {
      "constant": true,
      "inputs": [],
      "name": "numRequests",
      "outputs": [
        {
          "name": "",
          "type": "uint256"
        }
      ],
      "payable": false,
      "stateMutability": "view",
      "type": "function"
    },
    {
      "constant": false,
      "inputs": [
        {
          "name": "_requestId",
          "type": "bytes32"
        },
        {
          "name": "_amount",
          "type": "uint256"
        }
      ],
      "name": "payment",
      "outputs": [],
      "payable": false,
      "stateMutability": "nonpayable",
      "type": "function"
    },
    {
      "constant": true,
      "inputs": [
        {
          "name": "_requestId",
          "type": "bytes32"
        }
      ],
      "name": "getPayer",
      "outputs": [
        {
          "name": "",
          "type": "address"
        }
      ],
      "payable": false,
      "stateMutability": "view",
      "type": "function"
    },
    {
      "constant": false,
      "inputs": [
        {
          "name": "_newExtension",
          "type": "address"
        }
      ],
      "name": "adminAddTrustedExtension",
      "outputs": [],
      "payable": false,
      "stateMutability": "nonpayable",
      "type": "function"
    },
    {
      "constant": true,
      "inputs": [
        {
          "name": "_requestId",
          "type": "bytes32"
        }
      ],
      "name": "getExtension",
      "outputs": [
        {
          "name": "",
          "type": "address"
        }
      ],
      "payable": false,
      "stateMutability": "view",
      "type": "function"
    },
    {
      "constant": false,
      "inputs": [
        {
          "name": "_requestId",
          "type": "bytes32"
        }
      ],
      "name": "cancel",
      "outputs": [],
      "payable": false,
      "stateMutability": "nonpayable",
      "type": "function"
    },
    {
      "constant": true,
      "inputs": [
        {
          "name": "",
          "type": "address"
        }
      ],
      "name": "trustedExtensions",
      "outputs": [
        {
          "name": "",
          "type": "uint8"
        }
      ],
      "payable": false,
      "stateMutability": "view",
      "type": "function"
    },
    {
      "constant": false,
      "inputs": [
        {
          "name": "_requestId",
          "type": "bytes32"
        }
      ],
      "name": "accept",
      "outputs": [],
      "payable": false,
      "stateMutability": "nonpayable",
      "type": "function"
    },
    {
      "constant": true,
      "inputs": [
        {
          "name": "",
          "type": "address"
        }
      ],
      "name": "trustedSubContracts",
      "outputs": [
        {
          "name": "",
          "type": "uint8"
        }
      ],
      "payable": false,
      "stateMutability": "view",
      "type": "function"
    },
    {
      "constant": false,
      "inputs": [
        {
          "name": "newOwner",
          "type": "address"
        }
      ],
      "name": "transferOwnership",
      "outputs": [],
      "payable": false,
      "stateMutability": "nonpayable",
      "type": "function"
    },
    {
      "constant": true,
      "inputs": [
        {
          "name": "_contractAddress",
          "type": "address"
        }
      ],
      "name": "getStatusContract",
      "outputs": [
        {
          "name": "",
          "type": "uint8"
        }
      ],
      "payable": false,
      "stateMutability": "view",
      "type": "function"
    },
    {
      "constant": true,
      "inputs": [],
      "name": "VERSION",
      "outputs": [
        {
          "name": "",
          "type": "uint256"
        }
      ],
      "payable": false,
      "stateMutability": "view",
      "type": "function"
    },
    {
      "inputs": [],
      "payable": false,
      "stateMutability": "nonpayable",
      "type": "constructor"
    },
    {
      "anonymous": false,
      "inputs": [
        {
          "indexed": false,
          "name": "requestId",
          "type": "bytes32"
        },
        {
          "indexed": false,
          "name": "payee",
          "type": "address"
        },
        {
          "indexed": false,
          "name": "payer",
          "type": "address"
        }
      ],
      "name": "Created",
      "type": "event"
    },
    {
      "anonymous": false,
      "inputs": [
        {
          "indexed": false,
          "name": "requestId",
          "type": "bytes32"
        }
      ],
      "name": "Accepted",
      "type": "event"
    },
    {
      "anonymous": false,
      "inputs": [
        {
          "indexed": false,
          "name": "requestId",
          "type": "bytes32"
        }
      ],
      "name": "Declined",
      "type": "event"
    },
    {
      "anonymous": false,
      "inputs": [
        {
          "indexed": false,
          "name": "requestId",
          "type": "bytes32"
        }
      ],
      "name": "Canceled",
      "type": "event"
    },
    {
      "anonymous": false,
      "inputs": [
        {
          "indexed": false,
          "name": "requestId",
          "type": "bytes32"
        },
        {
          "indexed": false,
          "name": "amountPaid",
          "type": "uint256"
        }
      ],
      "name": "Payment",
      "type": "event"
    },
    {
      "anonymous": false,
      "inputs": [
        {
          "indexed": false,
          "name": "requestId",
          "type": "bytes32"
        },
        {
          "indexed": false,
          "name": "amountRefunded",
          "type": "uint256"
        }
      ],
      "name": "Refunded",
      "type": "event"
    },
    {
      "anonymous": false,
      "inputs": [
        {
          "indexed": false,
          "name": "requestId",
          "type": "bytes32"
        },
        {
          "indexed": false,
          "name": "amountAdded",
          "type": "uint256"
        }
      ],
      "name": "AddAdditional",
      "type": "event"
    },
    {
      "anonymous": false,
      "inputs": [
        {
          "indexed": false,
          "name": "requestId",
          "type": "bytes32"
        },
        {
          "indexed": false,
          "name": "amountSubtracted",
          "type": "uint256"
        }
      ],
      "name": "AddSubtract",
      "type": "event"
    },
    {
      "anonymous": false,
      "inputs": [
        {
          "indexed": false,
          "name": "newContract",
          "type": "address"
        }
      ],
      "name": "NewTrustedContract",
      "type": "event"
    },
    {
      "anonymous": false,
      "inputs": [
        {
          "indexed": false,
          "name": "oldContract",
          "type": "address"
        }
      ],
      "name": "RemoveTrustedContract",
      "type": "event"
    },
    {
      "anonymous": false,
      "inputs": [
        {
          "indexed": false,
          "name": "newExtension",
          "type": "address"
        }
      ],
      "name": "NewTrustedExtension",
      "type": "event"
    },
    {
      "anonymous": false,
      "inputs": [
        {
          "indexed": false,
          "name": "oldExtension",
          "type": "address"
        }
      ],
      "name": "RemoveTrustedExtension",
      "type": "event"
    },
    {
      "anonymous": false,
      "inputs": [],
      "name": "Pause",
      "type": "event"
    },
    {
      "anonymous": false,
      "inputs": [],
      "name": "Unpause",
      "type": "event"
    },
    {
      "anonymous": false,
      "inputs": [
        {
          "indexed": true,
          "name": "previousOwner",
          "type": "address"
        },
        {
          "indexed": true,
          "name": "newOwner",
          "type": "address"
        }
      ],
      "name": "OwnershipTransferred",
      "type": "event"
    }
  ],
  "bytecode": "0x606060405260008060146101000a81548160ff021916908315150217905550341561002957600080fd5b336000806101000a81548173ffffffffffffffffffffffffffffffffffffffff021916908373ffffffffffffffffffffffffffffffffffffffff1602179055506000600381905550612608806100806000396000f3006060604052600436106101ab576000357c0100000000000000000000000000000000000000000000000000000000900463ffffffff168062ca2f75146101b05780630279e9431461021757806309648a9d1461025257806310c9c9ed1461029b578063304ebbc4146103025780633f4ba83a1461033b5780633f4fc19c146103505780634e3fa15e146103805780635c34b18f146103bb5780635c975abb146103f45780636279dc5c1461042157806366a8530c146104515780636907c77d1461054f578063695eda191461058a5780636c0e154e146105ba5780636e5a2d6c146105f55780638456cb59146106305780638c17429f146106455780638cc7d3d11461067e5780638da5cb5b146106a5578063919c90a6146106fa5780639d8669851461074d5780639fb42b1f1461093a578063a05bd4c614610963578063a12cad7014610993578063a246a6f5146109fa578063c139626b14610a33578063c4d252f514610a9a578063c868154914610ac1578063e4725ba114610b14578063e4cb0a0a14610b3b578063f2fde38b14610b8e578063f8db71b514610bc7578063ffa1ad7414610c1a575b600080fd5b34156101bb57600080fd5b6101d5600480803560001916906020019091905050610c43565b604051808273ffffffffffffffffffffffffffffffffffffffff1673ffffffffffffffffffffffffffffffffffffffff16815260200191505060405180910390f35b341561022257600080fd5b61023c600480803560001916906020019091905050610c8b565b6040518082815260200191505060405180910390f35b341561025d57600080fd5b610277600480803560001916906020019091905050610cb3565b6040518082600381111561028757fe5b60ff16815260200191505060405180910390f35b34156102a657600080fd5b6102c0600480803560001916906020019091905050610ce8565b604051808273ffffffffffffffffffffffffffffffffffffffff1673ffffffffffffffffffffffffffffffffffffffff16815260200191505060405180910390f35b341561030d57600080fd5b610339600480803573ffffffffffffffffffffffffffffffffffffffff16906020019091905050610d30565b005b341561034657600080fd5b61034e610ea9565b005b341561035b57600080fd5b61037e600480803560001916906020019091908035906020019091905050610f67565b005b341561038b57600080fd5b6103a560048080356000191690602001909190505061106c565b6040518082815260200191505060405180910390f35b34156103c657600080fd5b6103f2600480803573ffffffffffffffffffffffffffffffffffffffff16906020019091905050611094565b005b34156103ff57600080fd5b6104076111ad565b604051808215151515815260200191505060405180910390f35b341561042c57600080fd5b61044f6004808035600019169060200190919080359060200190919050506111c0565b005b341561045c57600080fd5b610531600480803573ffffffffffffffffffffffffffffffffffffffff1690602001909190803573ffffffffffffffffffffffffffffffffffffffff1690602001909190803573ffffffffffffffffffffffffffffffffffffffff1690602001909190803590602001909190803573ffffffffffffffffffffffffffffffffffffffff1690602001909190803590602001908201803590602001908080601f016020809104026020016040519081016040528093929190818152602001838380828437820191505050505050919050506112c5565b60405180826000191660001916815260200191505060405180910390f35b341561055a57600080fd5b610574600480803560001916906020019091905050611788565b6040518082815260200191505060405180910390f35b341561059557600080fd5b6105b8600480803560001916906020019091908035906020019091905050611810565b005b34156105c557600080fd5b6105df6004808035600019169060200190919050506118f8565b6040518082815260200191505060405180910390f35b341561060057600080fd5b61061a600480803560001916906020019091905050611920565b6040518082815260200191505060405180910390f35b341561063b57600080fd5b610643611948565b005b341561065057600080fd5b61067c600480803573ffffffffffffffffffffffffffffffffffffffff16906020019091905050611a08565b005b341561068957600080fd5b6106a3600480803560001916906020019091905050611b81565b005b34156106b057600080fd5b6106b8611c67565b604051808273ffffffffffffffffffffffffffffffffffffffff1673ffffffffffffffffffffffffffffffffffffffff16815260200191505060405180910390f35b341561070557600080fd5b610731600480803573ffffffffffffffffffffffffffffffffffffffff16906020019091905050611c8c565b604051808260ff1660ff16815260200191505060405180910390f35b341561075857600080fd5b610772600480803560001916906020019091905050611ce2565b604051808c73ffffffffffffffffffffffffffffffffffffffff1673ffffffffffffffffffffffffffffffffffffffff1681526020018b73ffffffffffffffffffffffffffffffffffffffff1673ffffffffffffffffffffffffffffffffffffffff1681526020018a73ffffffffffffffffffffffffffffffffffffffff1673ffffffffffffffffffffffffffffffffffffffff1681526020018981526020018873ffffffffffffffffffffffffffffffffffffffff1673ffffffffffffffffffffffffffffffffffffffff16815260200187815260200186815260200185815260200184600381111561086257fe5b60ff1681526020018373ffffffffffffffffffffffffffffffffffffffff1673ffffffffffffffffffffffffffffffffffffffff168152602001806020018281038252838181546001816001161561010002031660029004815260200191508054600181600116156101000203166002900480156109215780601f106108f657610100808354040283529160200191610921565b820191906000526020600020905b81548152906001019060200180831161090457829003601f168201915b50509c5050505050505050505050505060405180910390f35b341561094557600080fd5b61094d611de8565b6040518082815260200191505060405180910390f35b341561096e57600080fd5b610991600480803560001916906020019091908035906020019091905050611dee565b005b341561099e57600080fd5b6109b8600480803560001916906020019091905050611ed6565b604051808273ffffffffffffffffffffffffffffffffffffffff1673ffffffffffffffffffffffffffffffffffffffff16815260200191505060405180910390f35b3415610a0557600080fd5b610a31600480803573ffffffffffffffffffffffffffffffffffffffff16906020019091905050611f1e565b005b3415610a3e57600080fd5b610a58600480803560001916906020019091905050612038565b604051808273ffffffffffffffffffffffffffffffffffffffff1673ffffffffffffffffffffffffffffffffffffffff16815260200191505060405180910390f35b3415610aa557600080fd5b610abf600480803560001916906020019091905050612080565b005b3415610acc57600080fd5b610af8600480803573ffffffffffffffffffffffffffffffffffffffff16906020019091905050612179565b604051808260ff1660ff16815260200191505060405180910390f35b3415610b1f57600080fd5b610b39600480803560001916906020019091905050612199565b005b3415610b4657600080fd5b610b72600480803573ffffffffffffffffffffffffffffffffffffffff1690602001909190505061227f565b604051808260ff1660ff16815260200191505060405180910390f35b3415610b9957600080fd5b610bc5600480803573ffffffffffffffffffffffffffffffffffffffff1690602001909190505061229f565b005b3415610bd257600080fd5b610bfe600480803573ffffffffffffffffffffffffffffffffffffffff169060200190919050506123f4565b604051808260ff1660ff16815260200191505060405180910390f35b3415610c2557600080fd5b610c2d61244a565b6040518082815260200191505060405180910390f35b600060046000836000191660001916815260200190815260200160002060010160009054906101000a900473ffffffffffffffffffffffffffffffffffffffff169050919050565b6000600460008360001916600019168152602001908152602001600020600301549050919050565b600060046000836000191660001916815260200190815260200160002060080160009054906101000a900460ff169050919050565b600060046000836000191660001916815260200190815260200160002060040160009054906101000a900473ffffffffffffffffffffffffffffffffffffffff169050919050565b6000809054906101000a900473ffffffffffffffffffffffffffffffffffffffff1673ffffffffffffffffffffffffffffffffffffffff163373ffffffffffffffffffffffffffffffffffffffff16141515610d8b57600080fd5b6000600260008373ffffffffffffffffffffffffffffffffffffffff1673ffffffffffffffffffffffffffffffffffffffff16815260200190815260200160002060009054906101000a900460ff1660ff1614151515610dea57600080fd5b6000600260008373ffffffffffffffffffffffffffffffffffffffff1673ffffffffffffffffffffffffffffffffffffffff16815260200190815260200160002060006101000a81548160ff021916908360ff1602179055507fdc9a204d909138de82035fe2db864cb4bd386a905d05418e46cc3c2983d5bb8b81604051808273ffffffffffffffffffffffffffffffffffffffff1673ffffffffffffffffffffffffffffffffffffffff16815260200191505060405180910390a150565b6000809054906101000a900473ffffffffffffffffffffffffffffffffffffffff1673ffffffffffffffffffffffffffffffffffffffff163373ffffffffffffffffffffffffffffffffffffffff16141515610f0457600080fd5b600060149054906101000a900460ff161515610f1f57600080fd5b60008060146101000a81548160ff0219169083151502179055507f7805862f689e2f13df9f062ff482ad3ad112aca9e0847911ed832e158c525b3360405160405180910390a1565b600060046000846000191660001916815260200190815260200160002090503373ffffffffffffffffffffffffffffffffffffffff168160040160009054906101000a900473ffffffffffffffffffffffffffffffffffffffff1673ffffffffffffffffffffffffffffffffffffffff16141515610fe457600080fd5b610ffb82826007015461244f90919063ffffffff16565b8160070181905550806003015481600701548260030154031115151561102057600080fd5b7f477cb15caea0801c2a0d32e40304eeb9a8a37250055d0e50686e2ac43e38802683836040518083600019166000191681526020018281526020019250505060405180910390a1505050565b6000600460008360001916600019168152602001908152602001600020600701549050919050565b6000809054906101000a900473ffffffffffffffffffffffffffffffffffffffff1673ffffffffffffffffffffffffffffffffffffffff163373ffffffffffffffffffffffffffffffffffffffff161415156110ef57600080fd5b60018060008373ffffffffffffffffffffffffffffffffffffffff1673ffffffffffffffffffffffffffffffffffffffff16815260200190815260200160002060006101000a81548160ff021916908360ff1602179055507f26644c0325b712ffff764a64a71985fb39d46406ffb32dd76c3ca00c56136a5781604051808273ffffffffffffffffffffffffffffffffffffffff1673ffffffffffffffffffffffffffffffffffffffff16815260200191505060405180910390a150565b600060149054906101000a900460ff1681565b600060046000846000191660001916815260200190815260200160002090503373ffffffffffffffffffffffffffffffffffffffff168160040160009054906101000a900473ffffffffffffffffffffffffffffffffffffffff1673ffffffffffffffffffffffffffffffffffffffff1614151561123d57600080fd5b61125482826006015461244f90919063ffffffff16565b8160060181905550806003015481600301548260060154011015151561127957600080fd5b7facf510f4ea7548b3aa698d8c982b1d34ca991a16d38e8ce52b91da4c6a79ff1d83836040518083600019166000191681526020018281526020019250505060405180910390a1505050565b60008060149054906101000a900460ff161515156112e257600080fd5b3360018060008373ffffffffffffffffffffffffffffffffffffffff1673ffffffffffffffffffffffffffffffffffffffff16815260200190815260200160002060009054906101000a900460ff1660ff1614151561134057600080fd5b8360008173ffffffffffffffffffffffffffffffffffffffff1614806113b557506001600260008373ffffffffffffffffffffffffffffffffffffffff1673ffffffffffffffffffffffffffffffffffffffff16815260200190815260200160002060009054906101000a900460ff1660ff16145b15156113c057600080fd5b6113cc8989898961246d565b15156113d757600080fd5b6113ed600160035461244f90919063ffffffff16565b6003819055506003546001604051808381526020018281526020019250505060405180910390209250610160604051908101604052808a73ffffffffffffffffffffffffffffffffffffffff1681526020018973ffffffffffffffffffffffffffffffffffffffff1681526020018873ffffffffffffffffffffffffffffffffffffffff1681526020018781526020013373ffffffffffffffffffffffffffffffffffffffff168152602001600081526020016000815260200160008152602001600060038111156114bb57fe5b81526020018673ffffffffffffffffffffffffffffffffffffffff1681526020018581525060046000856000191660001916815260200190815260200160002060008201518160000160006101000a81548173ffffffffffffffffffffffffffffffffffffffff021916908373ffffffffffffffffffffffffffffffffffffffff16021790555060208201518160010160006101000a81548173ffffffffffffffffffffffffffffffffffffffff021916908373ffffffffffffffffffffffffffffffffffffffff16021790555060408201518160020160006101000a81548173ffffffffffffffffffffffffffffffffffffffff021916908373ffffffffffffffffffffffffffffffffffffffff1602179055506060820151816003015560808201518160040160006101000a81548173ffffffffffffffffffffffffffffffffffffffff021916908373ffffffffffffffffffffffffffffffffffffffff16021790555060a0820151816005015560c0820151816006015560e082015181600701556101008201518160080160006101000a81548160ff0219169083600381111561166457fe5b02179055506101208201518160080160016101000a81548173ffffffffffffffffffffffffffffffffffffffff021916908373ffffffffffffffffffffffffffffffffffffffff1602179055506101408201518160090190805190602001906116ce929190612537565b509050507fe6d28c9f55198aba8818ea50c42929faefa033fb2984d9095b4da1e9993474788389896040518084600019166000191681526020018373ffffffffffffffffffffffffffffffffffffffff1673ffffffffffffffffffffffffffffffffffffffff1681526020018273ffffffffffffffffffffffffffffffffffffffff1673ffffffffffffffffffffffffffffffffffffffff168152602001935050505060405180910390a182925050509695505050505050565b6000611809600460008460001916600019168152602001908152602001600020600701546117fb600460008660001916600019168152602001908152602001600020600601546004600087600019166000191681526020019081526020016000206003015461244f90919063ffffffff16565b61251e90919063ffffffff16565b9050919050565b600060046000846000191660001916815260200190815260200160002090503373ffffffffffffffffffffffffffffffffffffffff168160040160009054906101000a900473ffffffffffffffffffffffffffffffffffffffff1673ffffffffffffffffffffffffffffffffffffffff1614151561188d57600080fd5b6118a482826005015461251e90919063ffffffff16565b81600501819055507f1535ab411323bb41ad642ccf14068bbd78818ed38dd9b4421c927cc6eeb07e2d83836040518083600019166000191681526020018281526020019250505060405180910390a1505050565b6000600460008360001916600019168152602001908152602001600020600601549050919050565b6000600460008360001916600019168152602001908152602001600020600501549050919050565b6000809054906101000a900473ffffffffffffffffffffffffffffffffffffffff1673ffffffffffffffffffffffffffffffffffffffff163373ffffffffffffffffffffffffffffffffffffffff161415156119a357600080fd5b600060149054906101000a900460ff161515156119bf57600080fd5b6001600060146101000a81548160ff0219169083151502179055507f6985a02210a168e66602d3235cb6db0e70f92b3ba4d376a33c0f3d9434bff62560405160405180910390a1565b6000809054906101000a900473ffffffffffffffffffffffffffffffffffffffff1673ffffffffffffffffffffffffffffffffffffffff163373ffffffffffffffffffffffffffffffffffffffff16141515611a6357600080fd5b6000600160008373ffffffffffffffffffffffffffffffffffffffff1673ffffffffffffffffffffffffffffffffffffffff16815260200190815260200160002060009054906101000a900460ff1660ff1614151515611ac257600080fd5b6000600160008373ffffffffffffffffffffffffffffffffffffffff1673ffffffffffffffffffffffffffffffffffffffff16815260200190815260200160002060006101000a81548160ff021916908360ff1602179055507f37e1aad3ab2362f3de04d0fe2369a3dd3596a8c79745fb1345df1336f07cb72881604051808273ffffffffffffffffffffffffffffffffffffffff1673ffffffffffffffffffffffffffffffffffffffff16815260200191505060405180910390a150565b600060046000836000191660001916815260200190815260200160002090503373ffffffffffffffffffffffffffffffffffffffff168160040160009054906101000a900473ffffffffffffffffffffffffffffffffffffffff1673ffffffffffffffffffffffffffffffffffffffff16141515611bfe57600080fd5b60028160080160006101000a81548160ff02191690836003811115611c1f57fe5b02179055507f63a74c035a6c582a01b99a0efcd1faba14bf17a953d6ee04ebadac0aa34876fd8260405180826000191660001916815260200191505060405180910390a15050565b6000809054906101000a900473ffffffffffffffffffffffffffffffffffffffff1681565b6000600260008373ffffffffffffffffffffffffffffffffffffffff1673ffffffffffffffffffffffffffffffffffffffff16815260200190815260200160002060009054906101000a900460ff169050919050565b60046020528060005260406000206000915090508060000160009054906101000a900473ffffffffffffffffffffffffffffffffffffffff16908060010160009054906101000a900473ffffffffffffffffffffffffffffffffffffffff16908060020160009054906101000a900473ffffffffffffffffffffffffffffffffffffffff16908060030154908060040160009054906101000a900473ffffffffffffffffffffffffffffffffffffffff16908060050154908060060154908060070154908060080160009054906101000a900460ff16908060080160019054906101000a900473ffffffffffffffffffffffffffffffffffffffff16908060090190508b565b60035481565b600060046000846000191660001916815260200190815260200160002090503373ffffffffffffffffffffffffffffffffffffffff168160040160009054906101000a900473ffffffffffffffffffffffffffffffffffffffff1673ffffffffffffffffffffffffffffffffffffffff16141515611e6b57600080fd5b611e8282826005015461244f90919063ffffffff16565b81600501819055507f1cd328a1be3e091c1139295424bcd1ab9f8b73e34d95ef6974547b2bc9e82fbf83836040518083600019166000191681526020018281526020019250505060405180910390a1505050565b600060046000836000191660001916815260200190815260200160002060020160009054906101000a900473ffffffffffffffffffffffffffffffffffffffff169050919050565b6000809054906101000a900473ffffffffffffffffffffffffffffffffffffffff1673ffffffffffffffffffffffffffffffffffffffff163373ffffffffffffffffffffffffffffffffffffffff16141515611f7957600080fd5b6001600260008373ffffffffffffffffffffffffffffffffffffffff1673ffffffffffffffffffffffffffffffffffffffff16815260200190815260200160002060006101000a81548160ff021916908360ff1602179055507ff86a6607d50e3e49c32332972e579f045ace5af1902162e45ac1802ccc006ff981604051808273ffffffffffffffffffffffffffffffffffffffff1673ffffffffffffffffffffffffffffffffffffffff16815260200191505060405180910390a150565b600060046000836000191660001916815260200190815260200160002060080160019054906101000a900473ffffffffffffffffffffffffffffffffffffffff169050919050565b600060046000836000191660001916815260200190815260200160002090503373ffffffffffffffffffffffffffffffffffffffff168160040160009054906101000a900473ffffffffffffffffffffffffffffffffffffffff1673ffffffffffffffffffffffffffffffffffffffff161415156120fd57600080fd5b6000816005015414151561211057600080fd5b60038160080160006101000a81548160ff0219169083600381111561213157fe5b02179055507f134fdd648feeaf30251f0157f9624ef8608ff9a042aad6d13e73f35d21d3f88d8260405180826000191660001916815260200191505060405180910390a15050565b60026020528060005260406000206000915054906101000a900460ff1681565b600060046000836000191660001916815260200190815260200160002090503373ffffffffffffffffffffffffffffffffffffffff168160040160009054906101000a900473ffffffffffffffffffffffffffffffffffffffff1673ffffffffffffffffffffffffffffffffffffffff1614151561221657600080fd5b60018160080160006101000a81548160ff0219169083600381111561223757fe5b02179055507f1f3c0697c3ada95f9e84a917995664b76cd8b4ae5de25e77ee111122ae3a00d08260405180826000191660001916815260200191505060405180910390a15050565b60016020528060005260406000206000915054906101000a900460ff1681565b6000809054906101000a900473ffffffffffffffffffffffffffffffffffffffff1673ffffffffffffffffffffffffffffffffffffffff163373ffffffffffffffffffffffffffffffffffffffff161415156122fa57600080fd5b600073ffffffffffffffffffffffffffffffffffffffff168173ffffffffffffffffffffffffffffffffffffffff161415151561233657600080fd5b8073ffffffffffffffffffffffffffffffffffffffff166000809054906101000a900473ffffffffffffffffffffffffffffffffffffffff1673ffffffffffffffffffffffffffffffffffffffff167f8be0079c531659141344cd1fd0a4f28419497f9722a3daafe3b4186f6b6457e060405160405180910390a3806000806101000a81548173ffffffffffffffffffffffffffffffffffffffff021916908373ffffffffffffffffffffffffffffffffffffffff16021790555050565b6000600160008373ffffffffffffffffffffffffffffffffffffffff1673ffffffffffffffffffffffffffffffffffffffff16815260200190815260200160002060009054906101000a900460ff169050919050565b600181565b600080828401905083811015151561246357fe5b8091505092915050565b6000808573ffffffffffffffffffffffffffffffffffffffff16141580156124ac575060008473ffffffffffffffffffffffffffffffffffffffff1614155b80156124cf575060008373ffffffffffffffffffffffffffffffffffffffff1614155b801561250757508273ffffffffffffffffffffffffffffffffffffffff168473ffffffffffffffffffffffffffffffffffffffff1614155b8015612514575060008214155b9050949350505050565b600082821115151561252c57fe5b818303905092915050565b828054600181600116156101000203166002900490600052602060002090601f016020900481019282601f1061257857805160ff19168380011785556125a6565b828001600101855582156125a6579182015b828111156125a557825182559160200191906001019061258a565b5b5090506125b391906125b7565b5090565b6125d991905b808211156125d55760008160009055506001016125bd565b5090565b905600a165627a7a723058200cebd5f8f3dd6700087015db53f6a5a8c5e52ed52d538e0597d27c838bf73b9d0029",
  "source": "pragma solidity 0.4.18;\r\n\r\nimport './Administrable.sol';\r\nimport '../base/math/SafeMath.sol';\r\n\r\n/**\r\n * @title RequestCore\r\n *\r\n * @dev The Core is the main contract which store all the Requests.\r\n *\r\n * @dev The Core philosophy is to be as much flexible as possible to adapt in the future to any new system\r\n * @dev All the important conditions and an important part of the business logic takes place in the subcontracts.\r\n * @dev Requests can only be created in the subcontracts\r\n * @dev Subcontracts have to be allowed by the Core and respect the business logic.\r\n * @dev Request Network will develop one subcontracts per currency and anyone can creates its own subcontracts.\r\n */\r\ncontract RequestCore is Administrable {\r\n    // current version of the core\r\n    uint public constant VERSION = 1;\r\n\r\n    using SafeMath for uint;\r\n\r\n    enum State { Created, Accepted, Declined, Canceled }\r\n\r\n    struct Request {\r\n        address creator;\r\n        address payee;\r\n        address payer;\r\n        uint amountInitial;\r\n        address subContract;\r\n        uint amountPaid;\r\n        uint amountAdditional;\r\n        uint amountSubtract;\r\n        State state;\r\n        address extension;\r\n        string details;\r\n    }\r\n\r\n    // index of the Request in the mapping\r\n    uint public numRequests; \r\n    \r\n    // mapping of all the Requests\r\n    mapping(bytes32 => Request) public requests;\r\n\r\n    /*\r\n     *  Events \r\n     */\r\n    event Created(bytes32 requestId, address payee, address payer);\r\n    event Accepted(bytes32 requestId);\r\n    event Declined(bytes32 requestId);\r\n    event Canceled(bytes32 requestId);\r\n    event Payment(bytes32 requestId, uint amountPaid);\r\n    event Refunded(bytes32 requestId, uint amountRefunded);\r\n    event AddAdditional(bytes32 requestId, uint amountAdded);\r\n    event AddSubtract(bytes32 requestId, uint amountSubtracted);\r\n\r\n    /*\r\n     *  Constructor \r\n     */\r\n    function RequestCore() \r\n        public\r\n    {\r\n        numRequests = 0;\r\n    }\r\n\r\n    /*\r\n     * @dev Function used by Subcontracts to create a request in the Core\r\n     * @param _creator Request creator\r\n     * @param _payee Entity which will receive the payment\r\n     * @param _payer Entity supposed to pay\r\n     * @param _amountInitial Initial amount initial to be received. This amount can't be changed.\r\n     * @param _extension an extension can be linked to a request and allows advanced payments conditions such as escrow. Extensions have to be whitelisted in Core\r\n     * @return Returns the id of the request \r\n     */   \r\n    function createRequest(address _creator, address _payee, address _payer, uint _amountInitial, address _extension, string _details) \r\n        public\r\n        whenNotPaused \r\n        isTrustedContract(msg.sender)\r\n        isTrustedExtension(_extension)\r\n        returns (bytes32 requestId) \r\n    {\r\n        require(isParametersValidForFutureRequest(_creator, _payee, _payer, _amountInitial));\r\n\r\n        numRequests = numRequests.add(1);\r\n        requestId = keccak256(numRequests,VERSION);\r\n\r\n        requests[requestId] = Request(_creator, _payee, _payer, _amountInitial, msg.sender, 0, 0, 0, State.Created, _extension, _details); \r\n\r\n        Created(requestId, _payee, _payer);\r\n        return requestId;\r\n    }\r\n\r\n    /*\r\n     * @dev Function used by Subcontracts to accept a request in the Core. A request accepted is recognized by the payer as legit\r\n     * @param _requestId Request id\r\n     */ \r\n    function accept(bytes32 _requestId) \r\n        public\r\n    {\r\n        Request storage r = requests[_requestId];\r\n        require(r.subContract==msg.sender); \r\n        r.state = State.Accepted;\r\n        Accepted(_requestId);\r\n    }\r\n\r\n    /*\r\n     * @dev Function used by Subcontracts to decline a request in the Core. A request declined is recognized by the payer as not legit and might be spam\r\n     * @param _requestId Request id\r\n     */ \r\n    function decline(bytes32 _requestId)\r\n        public\r\n    {\r\n        Request storage r = requests[_requestId];\r\n        require(r.subContract==msg.sender); \r\n        r.state = State.Declined;\r\n        Declined(_requestId);\r\n    }\r\n\r\n    /*\r\n     * @dev Function used by Subcontracts to cancel a request in the Core. Several reasons can lead to cancel a reason, see request life cycle for more info.\r\n     * @param _requestId Request id\r\n     */ \r\n    function cancel(bytes32 _requestId)\r\n        public\r\n    {\r\n        Request storage r = requests[_requestId];\r\n        require(r.subContract==msg.sender);\r\n        require(r.amountPaid==0); // only Request with balance null can be canceled\r\n        r.state = State.Canceled;\r\n        Canceled(_requestId);\r\n    }   \r\n\r\n    /*\r\n     * @dev Function used by Subcontracts to declare a payment in the Core. The subcontract guarantee that the request was paid for a specific amount\r\n     * @param _requestId Request id\r\n     * @param _amount amount paid\r\n     */ \r\n    function payment(bytes32 _requestId, uint _amount)\r\n        public\r\n    {   \r\n        Request storage r = requests[_requestId];\r\n        require(r.subContract==msg.sender); \r\n\r\n        r.amountPaid = r.amountPaid.add(_amount);\r\n\r\n        Payment(_requestId, _amount);\r\n    }\r\n\r\n    /*\r\n     * @dev Function used by Subcontracts to declare a refund in the Core. A refund is initiated by the payee to the payer and decrease the amount paid in the request\r\n     * @param _requestId Request id\r\n     * @param _amount amount refunded\r\n     */ \r\n    function refund(bytes32 _requestId, uint _amount)\r\n        public\r\n    {   \r\n        Request storage r = requests[_requestId];\r\n        require(r.subContract==msg.sender); \r\n\r\n        r.amountPaid = r.amountPaid.sub(_amount);\r\n\r\n        Refunded(_requestId, _amount);\r\n    }\r\n\r\n    /*\r\n     * @dev Function used by Subcontracts to add an additional amount to pay to the request. The amount initial can not be changed but a tips, a  penalty or several reason can lead to a request being paid an additional\r\n     * @param _requestId Request id\r\n     * @param _amount additional amount\r\n     */ \r\n    function addAdditional(bytes32 _requestId, uint _amount)\r\n        public\r\n    {   \r\n        Request storage r = requests[_requestId];\r\n        require(r.subContract==msg.sender); \r\n\r\n        r.amountAdditional = r.amountAdditional.add(_amount);\r\n\r\n        require(r.amountAdditional+r.amountInitial >= r.amountInitial); // avoid overflow\r\n\r\n        AddAdditional(_requestId, _amount);\r\n    }\r\n\r\n    /*\r\n     * @dev Function used by Subcontracts to add a Substract amount to the request. A substract lead to a lower payment needed for the request. It can happens for several reasons including credit note, discount, reimbursement.\r\n     * @param _requestId Request id\r\n     * @param _amount subtract amount\r\n     */ \r\n    function addSubtract(bytes32 _requestId, uint _amount)\r\n        public\r\n    {   \r\n        Request storage r = requests[_requestId];\r\n        require(r.subContract==msg.sender);\r\n\r\n        r.amountSubtract = r.amountSubtract.add(_amount);\r\n\r\n        require(r.amountInitial-r.amountSubtract <= r.amountInitial); // avoid underflow\r\n\r\n        AddSubtract(_requestId, _amount);\r\n    }\r\n\r\n\r\n\r\n    /*\r\n     * @dev Get payee of a request\r\n     * @param _requestId Request id\r\n     * @return payee address\r\n     */ \r\n    function getPayee(bytes32 _requestId)\r\n        public\r\n        constant\r\n        returns(address)\r\n    {\r\n        return requests[_requestId].payee;\r\n    }\r\n\r\n    /*\r\n     * @dev Get payer of a request\r\n     * @param _requestId Request id\r\n     * @return payer address\r\n     */ \r\n    function getPayer(bytes32 _requestId)\r\n        public\r\n        constant\r\n        returns(address)\r\n    {\r\n        return requests[_requestId].payer;\r\n    }\r\n\r\n    /*\r\n     * @dev Get amount initial of a request\r\n     * @param _requestId Request id\r\n     * @return amount initial\r\n     */     \r\n    function getAmountInitial(bytes32 _requestId)\r\n        public\r\n        constant\r\n        returns(uint)\r\n    {\r\n        return requests[_requestId].amountInitial;\r\n    }\r\n\r\n    /*\r\n     * @dev Get amount initial of a request plus additional and minus subtract\r\n     * @param _requestId Request id\r\n     * @return amount initial plus additional and minus subtract\r\n     */ \r\n    function getAmountInitialAfterSubAdd(bytes32 _requestId)\r\n        public\r\n        constant\r\n        returns(uint)\r\n    {\r\n        return requests[_requestId].amountInitial.add(requests[_requestId].amountAdditional).sub(requests[_requestId].amountSubtract);\r\n    }\r\n\r\n    /*\r\n     * @dev Get subContract of a request\r\n     * @param _requestId Request id\r\n     * @return subContract address\r\n     */\r\n    function getSubContract(bytes32 _requestId)\r\n        public\r\n        constant\r\n        returns(address)\r\n    {\r\n        return requests[_requestId].subContract;\r\n    }\r\n\r\n    /*\r\n     * @dev Get amount paid of a request\r\n     * @param _requestId Request id\r\n     * @return amount paid\r\n     */     \r\n    function getAmountPaid(bytes32 _requestId)\r\n        public\r\n        constant\r\n        returns(uint)\r\n    {\r\n        return requests[_requestId].amountPaid;\r\n    }\r\n\r\n    /*\r\n     * @dev Get amount additional of a request\r\n     * @param _requestId Request id\r\n     * @return amount additional\r\n     */ \r\n    function getAmountAdditional(bytes32 _requestId)\r\n        public\r\n        constant\r\n        returns(uint)\r\n    {\r\n        return requests[_requestId].amountAdditional;\r\n    }\r\n\r\n    /*\r\n     * @dev Get amount subtract of a request\r\n     * @param _requestId Request id\r\n     * @return amount subtract\r\n     */ \r\n    function getAmountSubtract(bytes32 _requestId)\r\n        public\r\n        constant\r\n        returns(uint)\r\n    {\r\n        return requests[_requestId].amountSubtract;\r\n    }\r\n\r\n    /*\r\n     * @dev Get state of a request\r\n     * @param _requestId Request id\r\n     * @return state\r\n     */ \r\n    function getState(bytes32 _requestId)\r\n        public\r\n        constant\r\n        returns(State)\r\n    {\r\n        return requests[_requestId].state;\r\n    }\r\n\r\n    /*\r\n     * @dev Get extension of a request\r\n     * @param _requestId Request id\r\n     * @return address\r\n     */\r\n    function getExtension(bytes32 _requestId)\r\n        public\r\n        constant\r\n        returns(address)\r\n    {\r\n        return requests[_requestId].extension;\r\n    } \r\n\r\n    /*\r\n     * @dev Check parameters before creating a request\r\n     * @param _creator Request\r\n     * @param _payee future payee\r\n     * @param _payer future payer\r\n     * @param _amountInitial future amount initial\r\n     */\r\n    function isParametersValidForFutureRequest(address _creator, address _payee, address _payer, uint _amountInitial) \r\n        pure\r\n        internal\r\n        returns(bool)\r\n    {\r\n        return _creator!=0 && _payee!=0 && _payer!=0 && _payee!=_payer && _amountInitial!=0;\r\n    }\r\n}",
  "sourcePath": "C:\\Users\\vince\\Documents\\Request\\git\\Request_SmartContracts\\contracts\\core\\RequestCore.sol",
  "compiler": {
    "name": "solc",
    "version": "0.4.18+commit.9cf6e910.Emscripten.clang"
  },
  "schemaVersion": "1.0.1",
  "updatedAt": "2017-11-13T13:50:53.422Z"
}