{
  "contractName": "RequestSynchroneExtensionEscrow",
  "abi": [
    {
      "constant": true,
      "inputs": [
        {
          "name": "",
          "type": "bytes32"
        }
      ],
      "name": "escrows",
      "outputs": [
        {
          "name": "subContract",
          "type": "address"
        },
        {
          "name": "escrow",
          "type": "address"
        },
        {
          "name": "state",
          "type": "uint8"
        },
        {
          "name": "amountPaid",
          "type": "uint256"
        },
        {
          "name": "amountRefunded",
          "type": "uint256"
        }
      ],
      "payable": false,
      "stateMutability": "view",
      "type": "function"
    },
    {
      "constant": false,
      "inputs": [],
      "name": "unpause",
      "outputs": [],
      "payable": false,
      "stateMutability": "nonpayable",
      "type": "function"
    },
    {
      "constant": false,
      "inputs": [
        {
          "name": "_requestId",
          "type": "bytes32"
        },
        {
          "name": "_amount",
          "type": "uint256"
        }
      ],
      "name": "addSubtract",
      "outputs": [
        {
          "name": "",
          "type": "bool"
        }
      ],
      "payable": false,
      "stateMutability": "nonpayable",
      "type": "function"
    },
    {
      "constant": false,
      "inputs": [
        {
          "name": "_requestId",
          "type": "bytes32"
        },
        {
          "name": "_recipient",
          "type": "address"
        },
        {
          "name": "_amount",
          "type": "uint256"
        }
      ],
      "name": "fundOrder",
      "outputs": [
        {
          "name": "",
          "type": "bool"
        }
      ],
      "payable": false,
      "stateMutability": "nonpayable",
      "type": "function"
    },
    {
      "constant": false,
      "inputs": [
        {
          "name": "_requestId",
          "type": "bytes32"
        }
      ],
      "name": "releaseToPayee",
      "outputs": [],
      "payable": false,
      "stateMutability": "nonpayable",
      "type": "function"
    },
    {
      "constant": true,
      "inputs": [],
      "name": "paused",
      "outputs": [
        {
          "name": "",
          "type": "bool"
        }
      ],
      "payable": false,
      "stateMutability": "view",
      "type": "function"
    },
    {
      "constant": false,
      "inputs": [
        {
          "name": "_requestId",
          "type": "bytes32"
        },
        {
          "name": "_amount",
          "type": "uint256"
        }
      ],
      "name": "addAdditional",
      "outputs": [
        {
          "name": "",
          "type": "bool"
        }
      ],
      "payable": false,
      "stateMutability": "nonpayable",
      "type": "function"
    },
    {
      "constant": false,
      "inputs": [
        {
          "name": "_requestId",
          "type": "bytes32"
        },
        {
          "name": "_amount",
          "type": "uint256"
        }
      ],
      "name": "refund",
      "outputs": [
        {
          "name": "",
          "type": "bool"
        }
      ],
      "payable": false,
      "stateMutability": "nonpayable",
      "type": "function"
    },
    {
      "constant": true,
      "inputs": [],
      "name": "requestCore",
      "outputs": [
        {
          "name": "",
          "type": "address"
        }
      ],
      "payable": false,
      "stateMutability": "view",
      "type": "function"
    },
    {
      "constant": false,
      "inputs": [
        {
          "name": "_requestId",
          "type": "bytes32"
        }
      ],
      "name": "refundToPayer",
      "outputs": [],
      "payable": false,
      "stateMutability": "nonpayable",
      "type": "function"
    },
    {
      "constant": false,
      "inputs": [],
      "name": "pause",
      "outputs": [],
      "payable": false,
      "stateMutability": "nonpayable",
      "type": "function"
    },
    {
      "constant": false,
      "inputs": [
        {
          "name": "_requestId",
          "type": "bytes32"
        }
      ],
      "name": "decline",
      "outputs": [
        {
          "name": "",
          "type": "bool"
        }
      ],
      "payable": false,
      "stateMutability": "nonpayable",
      "type": "function"
    },
    {
      "constant": true,
      "inputs": [],
      "name": "owner",
      "outputs": [
        {
          "name": "",
          "type": "address"
        }
      ],
      "payable": false,
      "stateMutability": "view",
      "type": "function"
    },
    {
      "constant": false,
      "inputs": [
        {
          "name": "_requestId",
          "type": "bytes32"
        },
        {
          "name": "_amount",
          "type": "uint256"
        }
      ],
      "name": "payment",
      "outputs": [
        {
          "name": "",
          "type": "bool"
        }
      ],
      "payable": false,
      "stateMutability": "nonpayable",
      "type": "function"
    },
    {
      "constant": false,
      "inputs": [
        {
          "name": "_requestId",
          "type": "bytes32"
        }
      ],
      "name": "cancel",
      "outputs": [
        {
          "name": "",
          "type": "bool"
        }
      ],
      "payable": false,
      "stateMutability": "nonpayable",
      "type": "function"
    },
    {
      "constant": false,
      "inputs": [
        {
          "name": "_requestId",
          "type": "bytes32"
        },
        {
          "name": "_params",
          "type": "bytes32[9]"
        }
      ],
      "name": "createRequest",
      "outputs": [
        {
          "name": "",
          "type": "bool"
        }
      ],
      "payable": false,
      "stateMutability": "nonpayable",
      "type": "function"
    },
    {
      "constant": false,
      "inputs": [
        {
          "name": "_requestId",
          "type": "bytes32"
        }
      ],
      "name": "accept",
      "outputs": [
        {
          "name": "",
          "type": "bool"
        }
      ],
      "payable": false,
      "stateMutability": "nonpayable",
      "type": "function"
    },
    {
      "constant": false,
      "inputs": [
        {
          "name": "newOwner",
          "type": "address"
        }
      ],
      "name": "transferOwnership",
      "outputs": [],
      "payable": false,
      "stateMutability": "nonpayable",
      "type": "function"
    },
    {
      "inputs": [
        {
          "name": "_requestCoreAddress",
          "type": "address"
        }
      ],
      "payable": false,
      "stateMutability": "nonpayable",
      "type": "constructor"
    },
    {
      "anonymous": false,
      "inputs": [
        {
          "indexed": false,
          "name": "requestId",
          "type": "bytes32"
        },
        {
          "indexed": false,
          "name": "amount",
          "type": "uint256"
        }
      ],
      "name": "EscrowPayment",
      "type": "event"
    },
    {
      "anonymous": false,
      "inputs": [
        {
          "indexed": false,
          "name": "requestId",
          "type": "bytes32"
        }
      ],
      "name": "EscrowReleaseRequest",
      "type": "event"
    },
    {
      "anonymous": false,
      "inputs": [
        {
          "indexed": false,
          "name": "requestId",
          "type": "bytes32"
        }
      ],
      "name": "EscrowRefundRequest",
      "type": "event"
    },
    {
      "anonymous": false,
      "inputs": [],
      "name": "Pause",
      "type": "event"
    },
    {
      "anonymous": false,
      "inputs": [],
      "name": "Unpause",
      "type": "event"
    },
    {
      "anonymous": false,
      "inputs": [
        {
          "indexed": true,
          "name": "previousOwner",
          "type": "address"
        },
        {
          "indexed": true,
          "name": "newOwner",
          "type": "address"
        }
      ],
      "name": "OwnershipTransferred",
      "type": "event"
    }
  ],
  "bytecode": "0x606060405260008060146101000a81548160ff021916908315150217905550341561002957600080fd5b604051602080611ca383398101604052808051906020019091905050336000806101000a81548173ffffffffffffffffffffffffffffffffffffffff021916908373ffffffffffffffffffffffffffffffffffffffff16021790555080600260006101000a81548173ffffffffffffffffffffffffffffffffffffffff021916908373ffffffffffffffffffffffffffffffffffffffff16021790555050611bcd806100d66000396000f3006060604052600436106100fc576000357c0100000000000000000000000000000000000000000000000000000000900463ffffffff1680632d83549c146101015780633f4ba83a146101be5780633f4fc19c146101d3578063452e79a41461021b57806356d37118146102825780635c975abb146102a95780636279dc5c146102d6578063695eda191461031e5780636c4fbaa41461036657806383c4016a146103bb5780638456cb59146103e25780638cc7d3d1146103f75780638da5cb5b14610436578063a05bd4c61461048b578063c4d252f5146104d3578063d29574ba14610512578063e4725ba11461057e578063f2fde38b146105bd575b600080fd5b341561010c57600080fd5b6101266004808035600019169060200190919050506105f6565b604051808673ffffffffffffffffffffffffffffffffffffffff1673ffffffffffffffffffffffffffffffffffffffff1681526020018573ffffffffffffffffffffffffffffffffffffffff1673ffffffffffffffffffffffffffffffffffffffff16815260200184600281111561019a57fe5b60ff1681526020018381526020018281526020019550505050505060405180910390f35b34156101c957600080fd5b6101d1610679565b005b34156101de57600080fd5b610201600480803560001916906020019091908035906020019091905050610737565b604051808215151515815260200191505060405180910390f35b341561022657600080fd5b61026860048080356000191690602001909190803573ffffffffffffffffffffffffffffffffffffffff16906020019091908035906020019091905050610743565b604051808215151515815260200191505060405180910390f35b341561028d57600080fd5b6102a7600480803560001916906020019091905050610750565b005b34156102b457600080fd5b6102bc610bd5565b604051808215151515815260200191505060405180910390f35b34156102e157600080fd5b610304600480803560001916906020019091908035906020019091905050610be8565b604051808215151515815260200191505060405180910390f35b341561032957600080fd5b61034c600480803560001916906020019091908035906020019091905050610bf4565b604051808215151515815260200191505060405180910390f35b341561037157600080fd5b610379610c00565b604051808273ffffffffffffffffffffffffffffffffffffffff1673ffffffffffffffffffffffffffffffffffffffff16815260200191505060405180910390f35b34156103c657600080fd5b6103e0600480803560001916906020019091905050610c26565b005b34156103ed57600080fd5b6103f5611274565b005b341561040257600080fd5b61041c600480803560001916906020019091905050611334565b604051808215151515815260200191505060405180910390f35b341561044157600080fd5b61044961133f565b604051808273ffffffffffffffffffffffffffffffffffffffff1673ffffffffffffffffffffffffffffffffffffffff16815260200191505060405180910390f35b341561049657600080fd5b6104b9600480803560001916906020019091908035906020019091905050611364565b604051808215151515815260200191505060405180910390f35b34156104de57600080fd5b6104f8600480803560001916906020019091905050611625565b604051808215151515815260200191505060405180910390f35b341561051d57600080fd5b610564600480803560001916906020019091908061012001906009806020026040519081016040528092919082600960200280828437820191505050505091905050611715565b604051808215151515815260200191505060405180910390f35b341561058957600080fd5b6105a36004808035600019169060200190919050506119bd565b604051808215151515815260200191505060405180910390f35b34156105c857600080fd5b6105f4600480803573ffffffffffffffffffffffffffffffffffffffff169060200190919050506119c8565b005b60016020528060005260406000206000915090508060000160009054906101000a900473ffffffffffffffffffffffffffffffffffffffff16908060010160009054906101000a900473ffffffffffffffffffffffffffffffffffffffff16908060010160149054906101000a900460ff16908060020154908060030154905085565b6000809054906101000a900473ffffffffffffffffffffffffffffffffffffffff1673ffffffffffffffffffffffffffffffffffffffff163373ffffffffffffffffffffffffffffffffffffffff161415156106d457600080fd5b600060149054906101000a900460ff1615156106ef57600080fd5b60008060146101000a81548160ff0219169083151502179055507f7805862f689e2f13df9f062ff482ad3ad112aca9e0847911ed832e158c525b3360405160405180910390a1565b60006001905092915050565b6000600190509392505050565b600080600060149054906101000a900460ff1615151561076f57600080fd5b823373ffffffffffffffffffffffffffffffffffffffff1660016000836000191660001916815260200190815260200160002060010160009054906101000a900473ffffffffffffffffffffffffffffffffffffffff1673ffffffffffffffffffffffffffffffffffffffff1614806108ce57503373ffffffffffffffffffffffffffffffffffffffff16600260009054906101000a900473ffffffffffffffffffffffffffffffffffffffff1673ffffffffffffffffffffffffffffffffffffffff1663a12cad70836000604051602001526040518263ffffffff167c0100000000000000000000000000000000000000000000000000000000028152600401808260001916600019168152602001915050602060405180830381600087803b151561089b57600080fd5b6102c65a03f115156108ac57600080fd5b5050506040518051905073ffffffffffffffffffffffffffffffffffffffff16145b15156108d957600080fd5b8360008060028111156108e857fe5b60016000846000191660001916815260200190815260200160002060010160149054906101000a900460ff16600281111561091f57fe5b14151561092b57600080fd5b85600180600381111561093a57fe5b600260009054906101000a900473ffffffffffffffffffffffffffffffffffffffff1673ffffffffffffffffffffffffffffffffffffffff166309648a9d846000604051602001526040518263ffffffff167c0100000000000000000000000000000000000000000000000000000000028152600401808260001916600019168152602001915050602060405180830381600087803b15156109db57600080fd5b6102c65a03f115156109ec57600080fd5b505050604051805190506003811115610a0157fe5b141515610a0d57600080fd5b6002600160008a6000191660001916815260200190815260200160002060010160146101000a81548160ff02191690836002811115610a4857fe5b02179055507f42b0f31519c4d6f0d5905e3bcbc1081cd5ee948f9aa336ce3857a98407d868738860405180826000191660001916815260200191505060405180910390a1610adb600160008a6000191660001916815260200190815260200160002060030154600160008b6000191660001916815260200190815260200160002060020154611b1d90919063ffffffff16565b96506000871115610bcb5760016000896000191660001916815260200190815260200160002060000160009054906101000a900473ffffffffffffffffffffffffffffffffffffffff1695508573ffffffffffffffffffffffffffffffffffffffff1663a05bd4c689896000604051602001526040518363ffffffff167c010000000000000000000000000000000000000000000000000000000002815260040180836000191660001916815260200182815260200192505050602060405180830381600087803b1515610bae57600080fd5b6102c65a03f11515610bbf57600080fd5b50505060405180519050505b5050505050505050565b600060149054906101000a900460ff1681565b60006001905092915050565b60006001905092915050565b600260009054906101000a900473ffffffffffffffffffffffffffffffffffffffff1681565b600080600060149054906101000a900460ff16151515610c4557600080fd5b823373ffffffffffffffffffffffffffffffffffffffff1660016000836000191660001916815260200190815260200160002060010160009054906101000a900473ffffffffffffffffffffffffffffffffffffffff1673ffffffffffffffffffffffffffffffffffffffff161480610da357503373ffffffffffffffffffffffffffffffffffffffff16600260009054906101000a900473ffffffffffffffffffffffffffffffffffffffff1673ffffffffffffffffffffffffffffffffffffffff1662ca2f75836000604051602001526040518263ffffffff167c0100000000000000000000000000000000000000000000000000000000028152600401808260001916600019168152602001915050602060405180830381600087803b1515610d7057600080fd5b6102c65a03f11515610d8157600080fd5b5050506040518051905073ffffffffffffffffffffffffffffffffffffffff16145b1515610dae57600080fd5b836000806002811115610dbd57fe5b60016000846000191660001916815260200190815260200160002060010160149054906101000a900460ff166002811115610df457fe5b141515610e0057600080fd5b856001806003811115610e0f57fe5b600260009054906101000a900473ffffffffffffffffffffffffffffffffffffffff1673ffffffffffffffffffffffffffffffffffffffff166309648a9d846000604051602001526040518263ffffffff167c0100000000000000000000000000000000000000000000000000000000028152600401808260001916600019168152602001915050602060405180830381600087803b1515610eb057600080fd5b6102c65a03f11515610ec157600080fd5b505050604051805190506003811115610ed657fe5b141515610ee257600080fd5b60018060008a6000191660001916815260200190815260200160002060010160146101000a81548160ff02191690836002811115610f1c57fe5b02179055507f8f482593d146341944d7bd7864ae7499d8775b00371dc73213734151224536368860405180826000191660001916815260200191505060405180910390a1610faf600160008a6000191660001916815260200190815260200160002060030154600160008b6000191660001916815260200190815260200160002060020154611b1d90919063ffffffff16565b965060016000896000191660001916815260200190815260200160002060020154600160008a600019166000191681526020019081526020016000206003018190555060016000896000191660001916815260200190815260200160002060000160009054906101000a900473ffffffffffffffffffffffffffffffffffffffff16955060008711156111cf578573ffffffffffffffffffffffffffffffffffffffff1663452e79a489600260009054906101000a900473ffffffffffffffffffffffffffffffffffffffff1673ffffffffffffffffffffffffffffffffffffffff1663a12cad708c6000604051602001526040518263ffffffff167c0100000000000000000000000000000000000000000000000000000000028152600401808260001916600019168152602001915050602060405180830381600087803b15156110fa57600080fd5b6102c65a03f1151561110b57600080fd5b505050604051805190508a6000604051602001526040518463ffffffff167c01000000000000000000000000000000000000000000000000000000000281526004018084600019166000191681526020018373ffffffffffffffffffffffffffffffffffffffff1673ffffffffffffffffffffffffffffffffffffffff1681526020018281526020019350505050602060405180830381600087803b15156111b257600080fd5b6102c65a03f115156111c357600080fd5b50505060405180519050505b8573ffffffffffffffffffffffffffffffffffffffff1663c4d252f5896000604051602001526040518263ffffffff167c0100000000000000000000000000000000000000000000000000000000028152600401808260001916600019168152602001915050602060405180830381600087803b151561124e57600080fd5b6102c65a03f1151561125f57600080fd5b50505060405180519050505050505050505050565b6000809054906101000a900473ffffffffffffffffffffffffffffffffffffffff1673ffffffffffffffffffffffffffffffffffffffff163373ffffffffffffffffffffffffffffffffffffffff161415156112cf57600080fd5b600060149054906101000a900460ff161515156112eb57600080fd5b6001600060146101000a81548160ff0219169083151502179055507f6985a02210a168e66602d3235cb6db0e70f92b3ba4d376a33c0f3d9434bff62560405160405180910390a1565b600060019050919050565b6000809054906101000a900473ffffffffffffffffffffffffffffffffffffffff1681565b60008060149054906101000a900460ff1615151561138157600080fd5b823373ffffffffffffffffffffffffffffffffffffffff1660016000836000191660001916815260200190815260200160002060000160009054906101000a900473ffffffffffffffffffffffffffffffffffffffff1673ffffffffffffffffffffffffffffffffffffffff161415156113fa57600080fd5b83600180600281111561140957fe5b60016000846000191660001916815260200190815260200160002060010160149054906101000a900460ff16600281111561144057fe5b1415151561144d57600080fd5b600260009054906101000a900473ffffffffffffffffffffffffffffffffffffffff1673ffffffffffffffffffffffffffffffffffffffff16636907c77d876000604051602001526040518263ffffffff167c0100000000000000000000000000000000000000000000000000000000028152600401808260001916600019168152602001915050602060405180830381600087803b15156114ee57600080fd5b6102c65a03f115156114ff57600080fd5b5050506040518051905061156a6001600089600019166000191681526020019081526020016000206003015461155c600160008b600019166000191681526020019081526020016000206002015489611b3690919063ffffffff16565b611b1d90919063ffffffff16565b1115151561157757600080fd5b6115a88560016000896000191660001916815260200190815260200160002060020154611b3690919063ffffffff16565b600160008860001916600019168152602001908152602001600020600201819055507f640ab74eaec4a0c0c67aec6ef5873788a00b6ccca55e5e13b23503e46b91b5e686866040518083600019166000191681526020018281526020019250505060405180910390a161161a86611b54565b935050505092915050565b60008060149054906101000a900460ff1615151561164257600080fd5b813373ffffffffffffffffffffffffffffffffffffffff1660016000836000191660001916815260200190815260200160002060000160009054906101000a900473ffffffffffffffffffffffffffffffffffffffff1673ffffffffffffffffffffffffffffffffffffffff161415156116bb57600080fd5b600061170c6001600086600019166000191681526020019081526020016000206003015460016000876000191660001916815260200190815260200160002060020154611b1d90919063ffffffff16565b14915050919050565b60008060149054906101000a900460ff1615151561173257600080fd5b336001600260009054906101000a900473ffffffffffffffffffffffffffffffffffffffff1673ffffffffffffffffffffffffffffffffffffffff1663f8db71b5836000604051602001526040518263ffffffff167c0100000000000000000000000000000000000000000000000000000000028152600401808273ffffffffffffffffffffffffffffffffffffffff1673ffffffffffffffffffffffffffffffffffffffff168152602001915050602060405180830381600087803b15156117fa57600080fd5b6102c65a03f1151561180b57600080fd5b5050506040518051905060ff1614151561182457600080fd5b600060010283600060098110151561183857fe5b602002015160001916141580151561184f57600080fd5b60a0604051908101604052803373ffffffffffffffffffffffffffffffffffffffff16815260200185600060098110151561188657fe5b60200201516001900473ffffffffffffffffffffffffffffffffffffffff168152602001600060028111156118b757fe5b815260200160008152602001600081525060016000876000191660001916815260200190815260200160002060008201518160000160006101000a81548173ffffffffffffffffffffffffffffffffffffffff021916908373ffffffffffffffffffffffffffffffffffffffff16021790555060208201518160010160006101000a81548173ffffffffffffffffffffffffffffffffffffffff021916908373ffffffffffffffffffffffffffffffffffffffff16021790555060408201518160010160146101000a81548160ff0219169083600281111561199557fe5b0217905550606082015181600201556080820151816003015590505060019250505092915050565b600060019050919050565b6000809054906101000a900473ffffffffffffffffffffffffffffffffffffffff1673ffffffffffffffffffffffffffffffffffffffff163373ffffffffffffffffffffffffffffffffffffffff16141515611a2357600080fd5b600073ffffffffffffffffffffffffffffffffffffffff168173ffffffffffffffffffffffffffffffffffffffff1614151515611a5f57600080fd5b8073ffffffffffffffffffffffffffffffffffffffff166000809054906101000a900473ffffffffffffffffffffffffffffffffffffffff1673ffffffffffffffffffffffffffffffffffffffff167f8be0079c531659141344cd1fd0a4f28419497f9722a3daafe3b4186f6b6457e060405160405180910390a3806000806101000a81548173ffffffffffffffffffffffffffffffffffffffff021916908373ffffffffffffffffffffffffffffffffffffffff16021790555050565b6000828211151515611b2b57fe5b818303905092915050565b6000808284019050838110151515611b4a57fe5b8091505092915050565b6000600280811115611b6257fe5b60016000846000191660001916815260200190815260200160002060010160149054906101000a900460ff166002811115611b9957fe5b1490509190505600a165627a7a723058206fbb85f134a002989545e9fc0599070ef2d3a98976ec608f816f01f6d754d8e90029",
  "source": "pragma solidity 0.4.18;\r\n\r\nimport '../../core/RequestCore.sol';\r\nimport './RequestSynchroneInterface.sol';\r\nimport '../../base/math/SafeMath.sol';\r\n\r\n// many pattern from http://solidity.readthedocs.io/en/develop/types.html#structs\r\ncontract RequestSynchroneExtensionEscrow is RequestSynchroneInterface {\r\n\tusing SafeMath for uint;\r\n\r\n\tenum EscrowState { Created, Refunded, Released }\r\n\r\n\t// mapping of requestId => escrow\r\n\tstruct RequestEscrow {\r\n\t\taddress subContract;\r\n\t\taddress escrow;\r\n\t\tEscrowState state;\r\n\t\tuint amountPaid;\r\n\t\tuint amountRefunded;\r\n\t}\r\n\tmapping(bytes32 => RequestEscrow) public escrows;\r\n\r\n\tevent EscrowPayment(bytes32 requestId, uint amount);\r\n\tevent EscrowReleaseRequest(bytes32 requestId);\r\n\tevent EscrowRefundRequest(bytes32 requestId);\r\n\r\n\t// address of the contract of the request system\r\n\tRequestCore public requestCore;\r\n\r\n\t// contract constructor\r\n\tfunction RequestSynchroneExtensionEscrow(address _requestCoreAddress) \r\n\t\tpublic\r\n\t{\r\n\t\trequestCore = RequestCore(_requestCoreAddress);\r\n\t}\r\n\r\n\tfunction createRequest(bytes32 _requestId, bytes32[9] _params)\r\n\t\tpublic\r\n\t\twhenNotPaused\r\n\t\tisSubContractTrusted(msg.sender)\r\n\t\tcondition(_params[0]!=0)\r\n\t\treturns(bool)\r\n\t{\r\n\t\tescrows[_requestId] = RequestEscrow(msg.sender, address(_params[0]), EscrowState.Created, 0,0); // create RequestEscrow\r\n\t\treturn true;\r\n\t}\r\n\r\n\tfunction payment(bytes32 _requestId, uint _amount)\r\n\t\tpublic\r\n\t\twhenNotPaused\r\n\t\tisSubContractRight(_requestId)\r\n\t\tinNOTEscrowState(_requestId, EscrowState.Refunded)\r\n\t\treturns(bool)\r\n\t{\r\n\t\trequire(_amount.add(escrows[_requestId].amountPaid).sub(escrows[_requestId].amountRefunded) <= requestCore.getAmountInitialAfterSubAdd(_requestId)); // value must be greater than 0 and all the payments should not overpass the amountExpected\r\n\r\n\t\tescrows[_requestId].amountPaid = escrows[_requestId].amountPaid.add(_amount);\r\n\r\n\t\tEscrowPayment(_requestId, _amount);\r\n\r\n\t\treturn isEscrowReleasedPayment(_requestId);\r\n\t}\r\n\r\n\t// cancel request\r\n\tfunction cancel(bytes32 _requestId) \r\n\t\tpublic\r\n\t\twhenNotPaused\r\n\t\tisSubContractRight(_requestId)\r\n\t\treturns(bool)\r\n\t{\r\n\t\treturn escrows[_requestId].amountPaid.sub(escrows[_requestId].amountRefunded) == 0;\r\n\t}\r\n\r\n\t\t// Escrow Function\r\n\t// escrow can release the payment to the seller\r\n\tfunction releaseToPayee(bytes32 _requestId)\r\n\t\texternal\r\n\t\twhenNotPaused\r\n\t\tonlyRequestEscrowOrPayer(_requestId)\r\n\t\tinEscrowState(_requestId, EscrowState.Created)\r\n\t\tonlyRequestState(_requestId, RequestCore.State.Accepted)\r\n\t{\r\n\t\t// release the money\r\n\t\tescrows[_requestId].state = EscrowState.Released;\r\n\t\tEscrowReleaseRequest(_requestId);\r\n\r\n\t\tuint amountToPaid = escrows[_requestId].amountPaid.sub(escrows[_requestId].amountRefunded);\r\n\r\n\t\tif(amountToPaid > 0) {\r\n\t\t\tRequestSynchroneInterface subContract = RequestSynchroneInterface(escrows[_requestId].subContract);\r\n\t\t\tsubContract.payment(_requestId, amountToPaid);\r\n\t\t}\r\n\t}\r\n\r\n\t// escrow can refund the payment to the âyer\r\n\tfunction refundToPayer(bytes32 _requestId)\r\n\t\texternal\r\n\t\twhenNotPaused\r\n\t\tonlyRequestEscrowOrPayee(_requestId)\r\n\t\tinEscrowState(_requestId, EscrowState.Created)\r\n\t\tonlyRequestState(_requestId, RequestCore.State.Accepted)\r\n\t{\r\n\t\t// Refund the money\r\n\t\tescrows[_requestId].state = EscrowState.Refunded;\r\n\t\tEscrowRefundRequest(_requestId);\r\n\r\n\t\tuint amountToRefund = escrows[_requestId].amountPaid.sub(escrows[_requestId].amountRefunded);\r\n\t\tescrows[_requestId].amountRefunded = escrows[_requestId].amountPaid;\r\n\r\n\t\tRequestSynchroneInterface subContract = RequestSynchroneInterface(escrows[_requestId].subContract);\r\n\t\tif(amountToRefund>0) subContract.fundOrder(_requestId, requestCore.getPayer(_requestId), amountToRefund); \r\n\t\tsubContract.cancel(_requestId); \r\n\t}\r\n\r\n\r\n\r\n\t// internal function \r\n\tfunction isEscrowReleasedPayment(bytes32 _requestId) \r\n\t\tview \r\n\t\tinternal \r\n\t\treturns(bool) \r\n\t{\r\n\t\treturn escrows[_requestId].state == EscrowState.Released;\r\n\t}\r\n\r\n\r\n\t//modifier\r\n\tmodifier condition(bool c) {\r\n\t\trequire(c);\r\n\t\t_;\r\n\t}\r\n\r\n\tmodifier onlyRequestEscrow(bytes32 _requestId) {\r\n\t\trequire(escrows[_requestId].escrow==msg.sender);\r\n\t\t_;\r\n\t}\r\n\r\n\tmodifier onlyRequestEscrowOrPayer(bytes32 _requestId) {\r\n\t\trequire(escrows[_requestId].escrow==msg.sender || requestCore.getPayer(_requestId)==msg.sender);\r\n\t\t_;\r\n\t}\r\n\r\n\tmodifier onlyRequestEscrowOrPayee(bytes32 _requestId) {\r\n\t\trequire(escrows[_requestId].escrow==msg.sender || requestCore.getPayee(_requestId)==msg.sender);\r\n\t\t_;\r\n\t}\r\n\r\n\tmodifier inEscrowState(bytes32 _requestId, EscrowState es) {\r\n\t\trequire(escrows[_requestId].state==es);\r\n\t\t_;\r\n\t}\r\n\r\n\tmodifier inNOTEscrowState(bytes32 _requestId, EscrowState es) {\r\n\t\trequire(escrows[_requestId].state!=es);\r\n\t\t_;\r\n\t}\r\n\r\n\tmodifier onlyRequestState(bytes32 _requestId, RequestCore.State state) {\r\n\t\trequire(requestCore.getState(_requestId)==state);\r\n\t\t_;\r\n\t}\r\n\r\n\tmodifier isSubContractTrusted(address subContract) {\r\n\t\trequire(requestCore.getStatusContract(subContract)==1);\r\n\t\t_;\r\n\t}\r\n\r\n\tmodifier isSubContractRight(bytes32 _requestId)\r\n\t{\r\n\t\trequire(escrows[_requestId].subContract == msg.sender);\r\n\t\t_;\r\n\t}   \r\n}\r\n",
  "sourcePath": "C:\\Users\\vince\\Documents\\Request\\git\\Request_SmartContracts\\contracts\\synchrone\\extensions\\RequestSynchroneExtensionEscrow.sol",
  "compiler": {
    "name": "solc",
    "version": "0.4.18+commit.9cf6e910.Emscripten.clang"
  },
  "schemaVersion": "1.0.1",
  "updatedAt": "2017-11-10T10:45:56.266Z"
}