{
  "contractName": "RequestEthereum",
  "abi": [
    {
      "constant": false,
      "inputs": [
        {
          "name": "_requestId",
          "type": "bytes32"
        },
        {
          "name": "_additionals",
          "type": "uint256"
        }
      ],
      "name": "paymentAction",
      "outputs": [],
      "payable": true,
      "stateMutability": "payable",
      "type": "function"
    },
    {
      "constant": false,
      "inputs": [
        {
          "name": "_payer",
          "type": "address"
        },
        {
          "name": "_expectedAmount",
          "type": "int256"
        },
        {
          "name": "_extension",
          "type": "address"
        },
        {
          "name": "_extensionParams",
          "type": "bytes32[9]"
        },
        {
          "name": "_data",
          "type": "string"
        }
      ],
      "name": "createRequestAsPayee",
      "outputs": [
        {
          "name": "requestId",
          "type": "bytes32"
        }
      ],
      "payable": true,
      "stateMutability": "payable",
      "type": "function"
    },
    {
      "constant": false,
      "inputs": [],
      "name": "withdraw",
      "outputs": [],
      "payable": false,
      "stateMutability": "nonpayable",
      "type": "function"
    },
    {
      "constant": false,
      "inputs": [],
      "name": "unpause",
      "outputs": [],
      "payable": false,
      "stateMutability": "nonpayable",
      "type": "function"
    },
    {
      "constant": false,
      "inputs": [
        {
          "name": "_requestId",
          "type": "bytes32"
        },
        {
          "name": "_recipient",
          "type": "address"
        },
        {
          "name": "_amount",
          "type": "uint256"
        }
      ],
      "name": "fundOrder",
      "outputs": [
        {
          "name": "",
          "type": "bool"
        }
      ],
      "payable": false,
      "stateMutability": "nonpayable",
      "type": "function"
    },
    {
      "constant": false,
      "inputs": [
        {
          "name": "_requestId",
          "type": "bytes32"
        },
        {
          "name": "_amount",
          "type": "uint256"
        }
      ],
      "name": "additionalAction",
      "outputs": [],
      "payable": false,
      "stateMutability": "nonpayable",
      "type": "function"
    },
    {
      "constant": true,
      "inputs": [],
      "name": "paused",
      "outputs": [
        {
          "name": "",
          "type": "bool"
        }
      ],
      "payable": false,
      "stateMutability": "view",
      "type": "function"
    },
    {
      "constant": true,
      "inputs": [],
      "name": "requestCore",
      "outputs": [
        {
          "name": "",
          "type": "address"
        }
      ],
      "payable": false,
      "stateMutability": "view",
      "type": "function"
    },
    {
      "constant": true,
      "inputs": [
        {
          "name": "signer",
          "type": "address"
        },
        {
          "name": "hash",
          "type": "bytes32"
        },
        {
          "name": "v",
          "type": "uint8"
        },
        {
          "name": "r",
          "type": "bytes32"
        },
        {
          "name": "s",
          "type": "bytes32"
        }
      ],
      "name": "isValidSignature",
      "outputs": [
        {
          "name": "",
          "type": "bool"
        }
      ],
      "payable": false,
      "stateMutability": "pure",
      "type": "function"
    },
    {
      "constant": false,
      "inputs": [],
      "name": "pause",
      "outputs": [],
      "payable": false,
      "stateMutability": "nonpayable",
      "type": "function"
    },
    {
      "constant": false,
      "inputs": [
        {
          "name": "_requestId",
          "type": "bytes32"
        },
        {
          "name": "_amount",
          "type": "uint256"
        }
      ],
      "name": "subtractAction",
      "outputs": [],
      "payable": false,
      "stateMutability": "nonpayable",
      "type": "function"
    },
    {
      "constant": true,
      "inputs": [],
      "name": "owner",
      "outputs": [
        {
          "name": "",
          "type": "address"
        }
      ],
      "payable": false,
      "stateMutability": "view",
      "type": "function"
    },
    {
      "constant": false,
      "inputs": [
        {
          "name": "_requestId",
          "type": "bytes32"
        },
        {
          "name": "_amount",
          "type": "uint256"
        }
      ],
      "name": "payment",
      "outputs": [
        {
          "name": "",
          "type": "bool"
        }
      ],
      "payable": false,
      "stateMutability": "nonpayable",
      "type": "function"
    },
    {
      "constant": false,
      "inputs": [
        {
          "name": "_requestId",
          "type": "bytes32"
        }
      ],
      "name": "refundAction",
      "outputs": [],
      "payable": true,
      "stateMutability": "payable",
      "type": "function"
    },
    {
      "constant": false,
      "inputs": [
        {
          "name": "_requestId",
          "type": "bytes32"
        }
      ],
      "name": "cancel",
      "outputs": [
        {
          "name": "",
          "type": "bool"
        }
      ],
      "payable": false,
      "stateMutability": "nonpayable",
      "type": "function"
    },
    {
      "constant": true,
      "inputs": [
        {
          "name": "signer",
          "type": "address"
        },
        {
          "name": "payee",
          "type": "address"
        },
        {
          "name": "payer",
          "type": "address"
        },
        {
          "name": "expectedAmount",
          "type": "int256"
        },
        {
          "name": "extension",
          "type": "address"
        },
        {
          "name": "extensionParams",
          "type": "bytes32[9]"
        },
        {
          "name": "data",
          "type": "string"
        },
        {
          "name": "v",
          "type": "uint8"
        },
        {
          "name": "r",
          "type": "bytes32"
        },
        {
          "name": "s",
          "type": "bytes32"
        }
      ],
      "name": "checkRequestSignature",
      "outputs": [
        {
          "name": "",
          "type": "bool"
        }
      ],
      "payable": false,
      "stateMutability": "view",
      "type": "function"
    },
    {
      "constant": false,
      "inputs": [
        {
          "name": "_requestId",
          "type": "bytes32"
        }
      ],
      "name": "accept",
      "outputs": [
        {
          "name": "",
          "type": "bool"
        }
      ],
      "payable": false,
      "stateMutability": "nonpayable",
      "type": "function"
    },
    {
      "constant": false,
      "inputs": [
        {
          "name": "_payee",
          "type": "address"
        },
        {
          "name": "_expectedAmount",
          "type": "int256"
        },
        {
          "name": "_extension",
          "type": "address"
        },
        {
          "name": "_extensionParams",
          "type": "bytes32[9]"
        },
        {
          "name": "_additionals",
          "type": "uint256"
        },
        {
          "name": "_data",
          "type": "string"
        }
      ],
      "name": "createRequestAsPayer",
      "outputs": [
        {
          "name": "requestId",
          "type": "bytes32"
        }
      ],
      "payable": true,
      "stateMutability": "payable",
      "type": "function"
    },
    {
      "constant": true,
      "inputs": [
        {
          "name": "",
          "type": "address"
        }
      ],
      "name": "ethToWithdraw",
      "outputs": [
        {
          "name": "",
          "type": "uint256"
        }
      ],
      "payable": false,
      "stateMutability": "view",
      "type": "function"
    },
    {
      "constant": false,
      "inputs": [
        {
          "name": "newOwner",
          "type": "address"
        }
      ],
      "name": "transferOwnership",
      "outputs": [],
      "payable": false,
      "stateMutability": "nonpayable",
      "type": "function"
    },
    {
      "inputs": [
        {
          "name": "_requestCoreAddress",
          "type": "address"
        }
      ],
      "payable": false,
      "stateMutability": "nonpayable",
      "type": "constructor"
    },
    {
      "anonymous": false,
      "inputs": [
        {
          "indexed": false,
          "name": "requestId",
          "type": "bytes32"
        },
        {
          "indexed": false,
          "name": "recipient",
          "type": "address"
        },
        {
          "indexed": false,
          "name": "amount",
          "type": "uint256"
        }
      ],
      "name": "EtherAvailableToWithdraw",
      "type": "event"
    },
    {
      "anonymous": false,
      "inputs": [],
      "name": "Pause",
      "type": "event"
    },
    {
      "anonymous": false,
      "inputs": [],
      "name": "Unpause",
      "type": "event"
    },
    {
      "anonymous": false,
      "inputs": [
        {
          "indexed": true,
          "name": "previousOwner",
          "type": "address"
        },
        {
          "indexed": true,
          "name": "newOwner",
          "type": "address"
        }
      ],
      "name": "OwnershipTransferred",
      "type": "event"
    }
  ],
  "bytecode": "0x606060405260008060146101000a81548160ff021916908315150217905550341561002957600080fd5b604051602080613c9d83398101604052808051906020019091905050336000806101000a81548173ffffffffffffffffffffffffffffffffffffffff021916908373ffffffffffffffffffffffffffffffffffffffff16021790555080600160006101000a81548173ffffffffffffffffffffffffffffffffffffffff021916908373ffffffffffffffffffffffffffffffffffffffff16021790555050613bc7806100d66000396000f300606060405260043610610112576000357c0100000000000000000000000000000000000000000000000000000000900463ffffffff1680630772cd2f146101175780632d8f745d1461013c5780633ccfd60b146101ca5780633f4ba83a146101df578063452e79a4146101f457806354c8fffb1461025b5780635c975abb1461028b5780636c4fbaa4146102b85780638163681e1461030d5780638456cb59146103915780638812b042146103a65780638da5cb5b146103d6578063a05bd4c61461042b578063b9103e1f14610473578063c4d252f51461048f578063e01ba5b1146104ce578063e4725ba11461061b578063ec82d8ae1461065a578063ed80cf3b146106f1578063f2fde38b1461073e575b600080fd5b61013a600480803560001916906020019091908035906020019091905050610777565b005b6101ac600480803573ffffffffffffffffffffffffffffffffffffffff1690602001909190803590602001909190803573ffffffffffffffffffffffffffffffffffffffff1690602001909190806101200190919080359060200190820180359060200191909192905050610a62565b60405180826000191660001916815260200191505060405180910390f35b34156101d557600080fd5b6101dd610d76565b005b34156101ea57600080fd5b6101f2610e42565b005b34156101ff57600080fd5b61024160048080356000191690602001909190803573ffffffffffffffffffffffffffffffffffffffff16906020019091908035906020019091905050610f00565b604051808215151515815260200191505060405180910390f35b341561026657600080fd5b610289600480803560001916906020019091908035906020019091905050610f47565b005b341561029657600080fd5b61029e61122f565b604051808215151515815260200191505060405180910390f35b34156102c357600080fd5b6102cb611242565b604051808273ffffffffffffffffffffffffffffffffffffffff1673ffffffffffffffffffffffffffffffffffffffff16815260200191505060405180910390f35b341561031857600080fd5b610377600480803573ffffffffffffffffffffffffffffffffffffffff169060200190919080356000191690602001909190803560ff169060200190919080356000191690602001909190803560001916906020019091905050611268565b604051808215151515815260200191505060405180910390f35b341561039c57600080fd5b6103a461136f565b005b34156103b157600080fd5b6103d460048080356000191690602001909190803590602001909190505061142f565b005b34156103e157600080fd5b6103e9611719565b604051808273ffffffffffffffffffffffffffffffffffffffff1673ffffffffffffffffffffffffffffffffffffffff16815260200191505060405180910390f35b341561043657600080fd5b61045960048080356000191690602001909190803590602001909190505061173e565b604051808215151515815260200191505060405180910390f35b61048d600480803560001916906020019091905050611783565b005b341561049a57600080fd5b6104b4600480803560001916906020019091905050611985565b604051808215151515815260200191505060405180910390f35b34156104d957600080fd5b610601600480803573ffffffffffffffffffffffffffffffffffffffff1690602001909190803573ffffffffffffffffffffffffffffffffffffffff1690602001909190803573ffffffffffffffffffffffffffffffffffffffff1690602001909190803590602001909190803573ffffffffffffffffffffffffffffffffffffffff1690602001909190806101200190600980602002604051908101604052809291908260096020028082843782019150505050509190803590602001908201803590602001908080601f0160208091040260200160405190810160405280939291908181526020018383808284378201915050505050509190803560ff169060200190919080356000191690602001909190803560001916906020019091905050611e2b565b604051808215151515815260200191505060405180910390f35b341561062657600080fd5b610640600480803560001916906020019091905050611e5c565b604051808215151515815260200191505060405180910390f35b6106d3600480803573ffffffffffffffffffffffffffffffffffffffff1690602001909190803590602001909190803573ffffffffffffffffffffffffffffffffffffffff169060200190919080610120019091908035906020019091908035906020019082018035906020019190919290505061206d565b60405180826000191660001916815260200191505060405180910390f35b34156106fc57600080fd5b610728600480803573ffffffffffffffffffffffffffffffffffffffff169060200190919050506124ec565b6040518082815260200191505060405180910390f35b341561074957600080fd5b610775600480803573ffffffffffffffffffffffffffffffffffffffff16906020019091905050612504565b005b600060149054906101000a900460ff1615151561079357600080fd5b600160028111156107a057fe5b600160009054906101000a900473ffffffffffffffffffffffffffffffffffffffff1673ffffffffffffffffffffffffffffffffffffffff166309648a9d846000604051602001526040518263ffffffff167c0100000000000000000000000000000000000000000000000000000000028152600401808260001916600019168152602001915050602060405180830381600087803b151561084157600080fd5b6102c65a03f1151561085257600080fd5b50505060405180519050600281111561086757fe5b148061094457506000600281111561087b57fe5b600160009054906101000a900473ffffffffffffffffffffffffffffffffffffffff1673ffffffffffffffffffffffffffffffffffffffff166309648a9d846000604051602001526040518263ffffffff167c0100000000000000000000000000000000000000000000000000000000028152600401808260001916600019168152602001915050602060405180830381600087803b151561091c57600080fd5b6102c65a03f1151561092d57600080fd5b50505060405180519050600281111561094257fe5b145b80151561095057600080fd5b6000600281111561095d57fe5b600160009054906101000a900473ffffffffffffffffffffffffffffffffffffffff1673ffffffffffffffffffffffffffffffffffffffff166309648a9d856000604051602001526040518263ffffffff167c0100000000000000000000000000000000000000000000000000000000028152600401808260001916600019168152602001915050602060405180830381600087803b15156109fe57600080fd5b6102c65a03f11515610a0f57600080fd5b505050604051805190506002811115610a2457fe5b1415610a3557610a3383612659565b505b6000821115610a5257610a5083610a4b84612992565b6129ae565b505b610a5c8334612c3d565b50505050565b600080600060149054906101000a900460ff16151515610a8157600080fd5b60008712151515610a9157600080fd5b8773ffffffffffffffffffffffffffffffffffffffff163373ffffffffffffffffffffffffffffffffffffffff1614158015610ae4575060008873ffffffffffffffffffffffffffffffffffffffff1614155b1515610aef57600080fd5b600160009054906101000a900473ffffffffffffffffffffffffffffffffffffffff1673ffffffffffffffffffffffffffffffffffffffff16630cf450913433338c8c8c8b8b6000604051602001526040518963ffffffff167c0100000000000000000000000000000000000000000000000000000000028152600401808873ffffffffffffffffffffffffffffffffffffffff1673ffffffffffffffffffffffffffffffffffffffff1681526020018773ffffffffffffffffffffffffffffffffffffffff1673ffffffffffffffffffffffffffffffffffffffff1681526020018673ffffffffffffffffffffffffffffffffffffffff1673ffffffffffffffffffffffffffffffffffffffff1681526020018581526020018473ffffffffffffffffffffffffffffffffffffffff1673ffffffffffffffffffffffffffffffffffffffff1681526020018060200182810382528484828181526020019250808284378201915050985050505050505050506020604051808303818588803b1515610c7a57600080fd5b6125ee5a03f11515610c8b57600080fd5b5050505060405180519050915060008673ffffffffffffffffffffffffffffffffffffffff16141515610d68578590508073ffffffffffffffffffffffffffffffffffffffff1663d29574ba83876000604051602001526040518363ffffffff167c010000000000000000000000000000000000000000000000000000000002815260040180836000191660001916815260200182600960200280828437820191505092505050602060405180830381600087803b1515610d4b57600080fd5b6102c65a03f11515610d5c57600080fd5b50505060405180519050505b819150509695505050505050565b6000600260003373ffffffffffffffffffffffffffffffffffffffff1673ffffffffffffffffffffffffffffffffffffffff1681526020019081526020016000205490506000600260003373ffffffffffffffffffffffffffffffffffffffff1673ffffffffffffffffffffffffffffffffffffffff168152602001908152602001600020819055503373ffffffffffffffffffffffffffffffffffffffff166108fc829081150290604051600060405180830381858888f193505050501515610e3f57600080fd5b50565b6000809054906101000a900473ffffffffffffffffffffffffffffffffffffffff1673ffffffffffffffffffffffffffffffffffffffff163373ffffffffffffffffffffffffffffffffffffffff16141515610e9d57600080fd5b600060149054906101000a900460ff161515610eb857600080fd5b60008060146101000a81548160ff0219169083151502179055507f7805862f689e2f13df9f062ff482ad3ad112aca9e0847911ed832e158c525b3360405160405180910390a1565b60008060149054906101000a900460ff16151515610f1d57600080fd5b83610f2781612f9a565b1515610f3257600080fd5b610f3d85858561308d565b9150509392505050565b600060149054906101000a900460ff16151515610f6357600080fd5b60016002811115610f7057fe5b600160009054906101000a900473ffffffffffffffffffffffffffffffffffffffff1673ffffffffffffffffffffffffffffffffffffffff166309648a9d846000604051602001526040518263ffffffff167c0100000000000000000000000000000000000000000000000000000000028152600401808260001916600019168152602001915050602060405180830381600087803b151561101157600080fd5b6102c65a03f1151561102257600080fd5b50505060405180519050600281111561103757fe5b148061111457506000600281111561104b57fe5b600160009054906101000a900473ffffffffffffffffffffffffffffffffffffffff1673ffffffffffffffffffffffffffffffffffffffff166309648a9d846000604051602001526040518263ffffffff167c0100000000000000000000000000000000000000000000000000000000028152600401808260001916600019168152602001915050602060405180830381600087803b15156110ec57600080fd5b6102c65a03f115156110fd57600080fd5b50505060405180519050600281111561111257fe5b145b80151561112057600080fd5b823373ffffffffffffffffffffffffffffffffffffffff16600160009054906101000a900473ffffffffffffffffffffffffffffffffffffffff1673ffffffffffffffffffffffffffffffffffffffff1663a12cad70836000604051602001526040518263ffffffff167c0100000000000000000000000000000000000000000000000000000000028152600401808260001916600019168152602001915050602060405180830381600087803b15156111d957600080fd5b6102c65a03f115156111ea57600080fd5b5050506040518051905073ffffffffffffffffffffffffffffffffffffffff1614151561121657600080fd5b6112288461122385612992565b6129ae565b5050505050565b600060149054906101000a900460ff1681565b600160009054906101000a900473ffffffffffffffffffffffffffffffffffffffff1681565b600060018560405180807f19457468657265756d205369676e6564204d6573736167653a0a333200000000815250601c0182600019166000191681526020019150506040518091039020858585604051600081526020016040526000604051602001526040518085600019166000191681526020018460ff1660ff16815260200183600019166000191681526020018260001916600019168152602001945050505050602060405160208103908084039060008661646e5a03f1151561132d57600080fd5b50506020604051035173ffffffffffffffffffffffffffffffffffffffff168673ffffffffffffffffffffffffffffffffffffffff1614905095945050505050565b6000809054906101000a900473ffffffffffffffffffffffffffffffffffffffff1673ffffffffffffffffffffffffffffffffffffffff163373ffffffffffffffffffffffffffffffffffffffff161415156113ca57600080fd5b600060149054906101000a900460ff161515156113e657600080fd5b6001600060146101000a81548160ff0219169083151502179055507f6985a02210a168e66602d3235cb6db0e70f92b3ba4d376a33c0f3d9434bff62560405160405180910390a1565b600060149054906101000a900460ff1615151561144b57600080fd5b6001600281111561145857fe5b600160009054906101000a900473ffffffffffffffffffffffffffffffffffffffff1673ffffffffffffffffffffffffffffffffffffffff166309648a9d846000604051602001526040518263ffffffff167c0100000000000000000000000000000000000000000000000000000000028152600401808260001916600019168152602001915050602060405180830381600087803b15156114f957600080fd5b6102c65a03f1151561150a57600080fd5b50505060405180519050600281111561151f57fe5b14806115fc57506000600281111561153357fe5b600160009054906101000a900473ffffffffffffffffffffffffffffffffffffffff1673ffffffffffffffffffffffffffffffffffffffff166309648a9d846000604051602001526040518263ffffffff167c0100000000000000000000000000000000000000000000000000000000028152600401808260001916600019168152602001915050602060405180830381600087803b15156115d457600080fd5b6102c65a03f115156115e557600080fd5b5050506040518051905060028111156115fa57fe5b145b80151561160857600080fd5b823373ffffffffffffffffffffffffffffffffffffffff16600160009054906101000a900473ffffffffffffffffffffffffffffffffffffffff1673ffffffffffffffffffffffffffffffffffffffff1662ca2f75836000604051602001526040518263ffffffff167c0100000000000000000000000000000000000000000000000000000000028152600401808260001916600019168152602001915050602060405180830381600087803b15156116c057600080fd5b6102c65a03f115156116d157600080fd5b5050506040518051905073ffffffffffffffffffffffffffffffffffffffff161415156116fd57600080fd5b6117128461170a85612992565b6000036129ae565b5050505050565b6000809054906101000a900473ffffffffffffffffffffffffffffffffffffffff1681565b60008060149054906101000a900460ff1615151561175b57600080fd5b8261176581612f9a565b151561177057600080fd5b61177a8484612c3d565b91505092915050565b600060149054906101000a900460ff1615151561179f57600080fd5b600160028111156117ac57fe5b600160009054906101000a900473ffffffffffffffffffffffffffffffffffffffff1673ffffffffffffffffffffffffffffffffffffffff166309648a9d836000604051602001526040518263ffffffff167c0100000000000000000000000000000000000000000000000000000000028152600401808260001916600019168152602001915050602060405180830381600087803b151561184d57600080fd5b6102c65a03f1151561185e57600080fd5b50505060405180519050600281111561187357fe5b1480151561188057600080fd5b813373ffffffffffffffffffffffffffffffffffffffff16600160009054906101000a900473ffffffffffffffffffffffffffffffffffffffff1673ffffffffffffffffffffffffffffffffffffffff1662ca2f75836000604051602001526040518263ffffffff167c0100000000000000000000000000000000000000000000000000000000028152600401808260001916600019168152602001915050602060405180830381600087803b151561193857600080fd5b6102c65a03f1151561194957600080fd5b5050506040518051905073ffffffffffffffffffffffffffffffffffffffff1614151561197557600080fd5b61197f83346133e9565b50505050565b60008060149054906101000a900460ff161515156119a257600080fd5b6119ab82612f9a565b80611b7957503373ffffffffffffffffffffffffffffffffffffffff16600160009054906101000a900473ffffffffffffffffffffffffffffffffffffffff1673ffffffffffffffffffffffffffffffffffffffff1663a12cad70846000604051602001526040518263ffffffff167c0100000000000000000000000000000000000000000000000000000000028152600401808260001916600019168152602001915050602060405180830381600087803b1515611a6957600080fd5b6102c65a03f11515611a7a57600080fd5b5050506040518051905073ffffffffffffffffffffffffffffffffffffffff16148015611b78575060006002811115611aaf57fe5b600160009054906101000a900473ffffffffffffffffffffffffffffffffffffffff1673ffffffffffffffffffffffffffffffffffffffff166309648a9d846000604051602001526040518263ffffffff167c0100000000000000000000000000000000000000000000000000000000028152600401808260001916600019168152602001915050602060405180830381600087803b1515611b5057600080fd5b6102c65a03f11515611b6157600080fd5b505050604051805190506002811115611b7657fe5b145b5b80611d4657503373ffffffffffffffffffffffffffffffffffffffff16600160009054906101000a900473ffffffffffffffffffffffffffffffffffffffff1673ffffffffffffffffffffffffffffffffffffffff1662ca2f75846000604051602001526040518263ffffffff167c0100000000000000000000000000000000000000000000000000000000028152600401808260001916600019168152602001915050602060405180830381600087803b1515611c3657600080fd5b6102c65a03f11515611c4757600080fd5b5050506040518051905073ffffffffffffffffffffffffffffffffffffffff16148015611d455750600280811115611c7b57fe5b600160009054906101000a900473ffffffffffffffffffffffffffffffffffffffff1673ffffffffffffffffffffffffffffffffffffffff166309648a9d846000604051602001526040518263ffffffff167c0100000000000000000000000000000000000000000000000000000000028152600401808260001916600019168152602001915050602060405180830381600087803b1515611d1c57600080fd5b6102c65a03f11515611d2d57600080fd5b505050604051805190506002811115611d4257fe5b14155b5b1515611d5157600080fd5b6000600160009054906101000a900473ffffffffffffffffffffffffffffffffffffffff1673ffffffffffffffffffffffffffffffffffffffff16638e739461846000604051602001526040518263ffffffff167c0100000000000000000000000000000000000000000000000000000000028152600401808260001916600019168152602001915050602060405180830381600087803b1515611df457600080fd5b6102c65a03f11515611e0557600080fd5b50505060405180519050141515611e1b57600080fd5b611e248261374a565b9050919050565b600080611e3c8b8b8b8b8b8b6139c8565b9050611e4b8c82878787611268565b9150509a9950505050505050505050565b60008060149054906101000a900460ff16151515611e7957600080fd5b611e8282612f9a565b8061205057503373ffffffffffffffffffffffffffffffffffffffff16600160009054906101000a900473ffffffffffffffffffffffffffffffffffffffff1673ffffffffffffffffffffffffffffffffffffffff1663a12cad70846000604051602001526040518263ffffffff167c0100000000000000000000000000000000000000000000000000000000028152600401808260001916600019168152602001915050602060405180830381600087803b1515611f4057600080fd5b6102c65a03f11515611f5157600080fd5b5050506040518051905073ffffffffffffffffffffffffffffffffffffffff1614801561204f575060006002811115611f8657fe5b600160009054906101000a900473ffffffffffffffffffffffffffffffffffffffff1673ffffffffffffffffffffffffffffffffffffffff166309648a9d846000604051602001526040518263ffffffff167c0100000000000000000000000000000000000000000000000000000000028152600401808260001916600019168152602001915050602060405180830381600087803b151561202757600080fd5b6102c65a03f1151561203857600080fd5b50505060405180519050600281111561204d57fe5b145b5b80151561205c57600080fd5b61206583612659565b915050919050565b60008060008060149054906101000a900460ff1615151561208d57600080fd5b6000891215151561209d57600080fd5b8973ffffffffffffffffffffffffffffffffffffffff163373ffffffffffffffffffffffffffffffffffffffff16141580156120f0575060008a73ffffffffffffffffffffffffffffffffffffffff1614155b15156120fb57600080fd5b600160009054906101000a900473ffffffffffffffffffffffffffffffffffffffff1673ffffffffffffffffffffffffffffffffffffffff16637f538fd68a338b6000604051602001526040518463ffffffff167c0100000000000000000000000000000000000000000000000000000000028152600401808481526020018373ffffffffffffffffffffffffffffffffffffffff1673ffffffffffffffffffffffffffffffffffffffff1681526020018273ffffffffffffffffffffffffffffffffffffffff1673ffffffffffffffffffffffffffffffffffffffff1681526020019350505050602060405180830381600087803b15156121fc57600080fd5b6102c65a03f1151561220d57600080fd5b505050604051805190509150600160009054906101000a900473ffffffffffffffffffffffffffffffffffffffff1673ffffffffffffffffffffffffffffffffffffffff16630cf4509183338d338e8e8c8c6000604051602001526040518963ffffffff167c0100000000000000000000000000000000000000000000000000000000028152600401808873ffffffffffffffffffffffffffffffffffffffff1673ffffffffffffffffffffffffffffffffffffffff1681526020018773ffffffffffffffffffffffffffffffffffffffff1673ffffffffffffffffffffffffffffffffffffffff1681526020018673ffffffffffffffffffffffffffffffffffffffff1673ffffffffffffffffffffffffffffffffffffffff1681526020018581526020018473ffffffffffffffffffffffffffffffffffffffff1673ffffffffffffffffffffffffffffffffffffffff1681526020018060200182810382528484828181526020019250808284378201915050985050505050505050506020604051808303818588803b15156123a457600080fd5b6125ee5a03f115156123b557600080fd5b5050505060405180519050925060008873ffffffffffffffffffffffffffffffffffffffff16141515612492578790508073ffffffffffffffffffffffffffffffffffffffff1663d29574ba84896000604051602001526040518363ffffffff167c010000000000000000000000000000000000000000000000000000000002815260040180836000191660001916815260200182600960200280828437820191505092505050602060405180830381600087803b151561247557600080fd5b6102c65a03f1151561248657600080fd5b50505060405180519050505b61249b83612659565b15156124a657600080fd5b60008611156124c3576124c1836124bc88612992565b6129ae565b505b600082340311156124dc576124da83833403612c3d565b505b8292505050979650505050505050565b60026020528060005260406000206000915090505481565b6000809054906101000a900473ffffffffffffffffffffffffffffffffffffffff1673ffffffffffffffffffffffffffffffffffffffff163373ffffffffffffffffffffffffffffffffffffffff1614151561255f57600080fd5b600073ffffffffffffffffffffffffffffffffffffffff168173ffffffffffffffffffffffffffffffffffffffff161415151561259b57600080fd5b8073ffffffffffffffffffffffffffffffffffffffff166000809054906101000a900473ffffffffffffffffffffffffffffffffffffffff1673ffffffffffffffffffffffffffffffffffffffff167f8be0079c531659141344cd1fd0a4f28419497f9722a3daafe3b4186f6b6457e060405160405180910390a3806000806101000a81548173ffffffffffffffffffffffffffffffffffffffff021916908373ffffffffffffffffffffffffffffffffffffffff16021790555050565b600080600080600160009054906101000a900473ffffffffffffffffffffffffffffffffffffffff1673ffffffffffffffffffffffffffffffffffffffff1663c139626b866000604051602001526040518263ffffffff167c0100000000000000000000000000000000000000000000000000000000028152600401808260001916600019168152602001915050602060405180830381600087803b151561270057600080fd5b6102c65a03f1151561271157600080fd5b5050506040518051905092506001915060008373ffffffffffffffffffffffffffffffffffffffff161415801561277457503373ffffffffffffffffffffffffffffffffffffffff168373ffffffffffffffffffffffffffffffffffffffff1614155b156128d457600160009054906101000a900473ffffffffffffffffffffffffffffffffffffffff1673ffffffffffffffffffffffffffffffffffffffff1663c139626b866000604051602001526040518263ffffffff167c0100000000000000000000000000000000000000000000000000000000028152600401808260001916600019168152602001915050602060405180830381600087803b151561281a57600080fd5b6102c65a03f1151561282b57600080fd5b5050506040518051905090508073ffffffffffffffffffffffffffffffffffffffff1663e4725ba1866000604051602001526040518263ffffffff167c0100000000000000000000000000000000000000000000000000000000028152600401808260001916600019168152602001915050602060405180830381600087803b15156128b657600080fd5b6102c65a03f115156128c757600080fd5b5050506040518051905091505b811561298757600160009054906101000a900473ffffffffffffffffffffffffffffffffffffffff1673ffffffffffffffffffffffffffffffffffffffff1663e4725ba1866040518263ffffffff167c0100000000000000000000000000000000000000000000000000000000028152600401808260001916600019168152602001915050600060405180830381600087803b151561297257600080fd5b6102c65a03f1151561298357600080fd5b5050505b819350505050919050565b600080829050600081121515156129a557fe5b80915050919050565b600080600080600160009054906101000a900473ffffffffffffffffffffffffffffffffffffffff1673ffffffffffffffffffffffffffffffffffffffff1663c139626b876000604051602001526040518263ffffffff167c0100000000000000000000000000000000000000000000000000000000028152600401808260001916600019168152602001915050602060405180830381600087803b1515612a5557600080fd5b6102c65a03f11515612a6657600080fd5b5050506040518051905092506001915060008373ffffffffffffffffffffffffffffffffffffffff1614158015612ac957503373ffffffffffffffffffffffffffffffffffffffff168373ffffffffffffffffffffffffffffffffffffffff1614155b15612b76578290508073ffffffffffffffffffffffffffffffffffffffff1663f3479fe887876000604051602001526040518363ffffffff167c010000000000000000000000000000000000000000000000000000000002815260040180836000191660001916815260200182815260200192505050602060405180830381600087803b1515612b5857600080fd5b6102c65a03f11515612b6957600080fd5b5050506040518051905091505b8115612c3157600160009054906101000a900473ffffffffffffffffffffffffffffffffffffffff1673ffffffffffffffffffffffffffffffffffffffff1663f3479fe887876040518363ffffffff167c010000000000000000000000000000000000000000000000000000000002815260040180836000191660001916815260200182815260200192505050600060405180830381600087803b1515612c1c57600080fd5b6102c65a03f11515612c2d57600080fd5b5050505b81935050505092915050565b600080600080600160009054906101000a900473ffffffffffffffffffffffffffffffffffffffff1673ffffffffffffffffffffffffffffffffffffffff1663c139626b876000604051602001526040518263ffffffff167c0100000000000000000000000000000000000000000000000000000000028152600401808260001916600019168152602001915050602060405180830381600087803b1515612ce457600080fd5b6102c65a03f11515612cf557600080fd5b5050506040518051905092506001915060008373ffffffffffffffffffffffffffffffffffffffff1614158015612d5857503373ffffffffffffffffffffffffffffffffffffffff168373ffffffffffffffffffffffffffffffffffffffff1614155b15612e05578290508073ffffffffffffffffffffffffffffffffffffffff1663a05bd4c687876000604051602001526040518363ffffffff167c010000000000000000000000000000000000000000000000000000000002815260040180836000191660001916815260200182815260200192505050602060405180830381600087803b1515612de757600080fd5b6102c65a03f11515612df857600080fd5b5050506040518051905091505b8115612f8e57600160009054906101000a900473ffffffffffffffffffffffffffffffffffffffff1673ffffffffffffffffffffffffffffffffffffffff166379455ff587612e5388612992565b6040518363ffffffff167c010000000000000000000000000000000000000000000000000000000002815260040180836000191660001916815260200182815260200192505050600060405180830381600087803b1515612eb357600080fd5b6102c65a03f11515612ec457600080fd5b505050612f8c86600160009054906101000a900473ffffffffffffffffffffffffffffffffffffffff1673ffffffffffffffffffffffffffffffffffffffff1662ca2f75896000604051602001526040518263ffffffff167c0100000000000000000000000000000000000000000000000000000000028152600401808260001916600019168152602001915050602060405180830381600087803b1515612f6b57600080fd5b6102c65a03f11515612f7c57600080fd5b505050604051805190508761308d565b505b81935050505092915050565b6000600160009054906101000a900473ffffffffffffffffffffffffffffffffffffffff1673ffffffffffffffffffffffffffffffffffffffff1663c139626b836000604051602001526040518263ffffffff167c0100000000000000000000000000000000000000000000000000000000028152600401808260001916600019168152602001915050602060405180830381600087803b151561303d57600080fd5b6102c65a03f1151561304e57600080fd5b5050506040518051905073ffffffffffffffffffffffffffffffffffffffff163373ffffffffffffffffffffffffffffffffffffffff16149050919050565b600080600080600160009054906101000a900473ffffffffffffffffffffffffffffffffffffffff1673ffffffffffffffffffffffffffffffffffffffff1663c139626b886000604051602001526040518263ffffffff167c0100000000000000000000000000000000000000000000000000000000028152600401808260001916600019168152602001915050602060405180830381600087803b151561313457600080fd5b6102c65a03f1151561314557600080fd5b5050506040518051905092506001915060008373ffffffffffffffffffffffffffffffffffffffff16141580156131a857503373ffffffffffffffffffffffffffffffffffffffff168373ffffffffffffffffffffffffffffffffffffffff1614155b15613289578290508073ffffffffffffffffffffffffffffffffffffffff1663452e79a48888886000604051602001526040518463ffffffff167c01000000000000000000000000000000000000000000000000000000000281526004018084600019166000191681526020018373ffffffffffffffffffffffffffffffffffffffff1673ffffffffffffffffffffffffffffffffffffffff1681526020018281526020019350505050602060405180830381600087803b151561326b57600080fd5b6102c65a03f1151561327c57600080fd5b5050506040518051905091505b81156133dc578573ffffffffffffffffffffffffffffffffffffffff166108fc869081150290604051600060405180830381858888f1935050505015156133db5761331c85600260008973ffffffffffffffffffffffffffffffffffffffff1673ffffffffffffffffffffffffffffffffffffffff16815260200190815260200160002054613b7d90919063ffffffff16565b600260008873ffffffffffffffffffffffffffffffffffffffff1673ffffffffffffffffffffffffffffffffffffffff168152602001908152602001600020819055507fe84fecfd511d70ad718604b7102e9aaede73206d434b31dfb673119f9e4bd3d08787876040518084600019166000191681526020018373ffffffffffffffffffffffffffffffffffffffff1673ffffffffffffffffffffffffffffffffffffffff168152602001828152602001935050505060405180910390a15b5b8193505050509392505050565b600080600080600160009054906101000a900473ffffffffffffffffffffffffffffffffffffffff1673ffffffffffffffffffffffffffffffffffffffff1663c139626b876000604051602001526040518263ffffffff167c0100000000000000000000000000000000000000000000000000000000028152600401808260001916600019168152602001915050602060405180830381600087803b151561349057600080fd5b6102c65a03f115156134a157600080fd5b5050506040518051905092506001915060008373ffffffffffffffffffffffffffffffffffffffff161415801561350457503373ffffffffffffffffffffffffffffffffffffffff168373ffffffffffffffffffffffffffffffffffffffff1614155b156135b1578290508073ffffffffffffffffffffffffffffffffffffffff1663695eda1987876000604051602001526040518363ffffffff167c010000000000000000000000000000000000000000000000000000000002815260040180836000191660001916815260200182815260200192505050602060405180830381600087803b151561359357600080fd5b6102c65a03f115156135a457600080fd5b5050506040518051905091505b811561373e57600160009054906101000a900473ffffffffffffffffffffffffffffffffffffffff1673ffffffffffffffffffffffffffffffffffffffff166379455ff5876135ff88612992565b6000036040518363ffffffff167c010000000000000000000000000000000000000000000000000000000002815260040180836000191660001916815260200182815260200192505050600060405180830381600087803b151561366257600080fd5b6102c65a03f1151561367357600080fd5b50505061373c86600160009054906101000a900473ffffffffffffffffffffffffffffffffffffffff1673ffffffffffffffffffffffffffffffffffffffff1663a12cad70896000604051602001526040518263ffffffff167c0100000000000000000000000000000000000000000000000000000000028152600401808260001916600019168152602001915050602060405180830381600087803b151561371b57600080fd5b6102c65a03f1151561372c57600080fd5b505050604051805190508761308d565b505b81935050505092915050565b600080600080600160009054906101000a900473ffffffffffffffffffffffffffffffffffffffff1673ffffffffffffffffffffffffffffffffffffffff1663c139626b866000604051602001526040518263ffffffff167c0100000000000000000000000000000000000000000000000000000000028152600401808260001916600019168152602001915050602060405180830381600087803b15156137f157600080fd5b6102c65a03f1151561380257600080fd5b5050506040518051905092506001915060008373ffffffffffffffffffffffffffffffffffffffff161415801561386557503373ffffffffffffffffffffffffffffffffffffffff168373ffffffffffffffffffffffffffffffffffffffff1614155b1561390a578290508073ffffffffffffffffffffffffffffffffffffffff1663c4d252f5866000604051602001526040518263ffffffff167c0100000000000000000000000000000000000000000000000000000000028152600401808260001916600019168152602001915050602060405180830381600087803b15156138ec57600080fd5b6102c65a03f115156138fd57600080fd5b5050506040518051905091505b81156139bd57600160009054906101000a900473ffffffffffffffffffffffffffffffffffffffff1673ffffffffffffffffffffffffffffffffffffffff1663c4d252f5866040518263ffffffff167c0100000000000000000000000000000000000000000000000000000000028152600401808260001916600019168152602001915050600060405180830381600087803b15156139a857600080fd5b6102c65a03f115156139b957600080fd5b5050505b819350505050919050565b600030878787878787604051808873ffffffffffffffffffffffffffffffffffffffff1673ffffffffffffffffffffffffffffffffffffffff166c010000000000000000000000000281526014018773ffffffffffffffffffffffffffffffffffffffff1673ffffffffffffffffffffffffffffffffffffffff166c010000000000000000000000000281526014018673ffffffffffffffffffffffffffffffffffffffff1673ffffffffffffffffffffffffffffffffffffffff166c010000000000000000000000000281526014018581526020018473ffffffffffffffffffffffffffffffffffffffff1673ffffffffffffffffffffffffffffffffffffffff166c0100000000000000000000000002815260140183600960200280838360005b83811015613b06578082015181840152602081019050613aeb565b5050505090500182805190602001908083835b602083101515613b3e5780518252602082019150602081019050602083039250613b19565b6001836020036101000a038019825116818451168082178552505050505050905001975050505050505050604051809103902090509695505050505050565b6000808284019050838110151515613b9157fe5b80915050929150505600a165627a7a72305820a45df7ddc374a658dbe17b65b67ac44a2e9287f98fe04dd567d00a1b8a23413d0029",
  "source": "pragma solidity 0.4.18;\r\n\r\nimport '../core/RequestCore.sol';\r\nimport '../base/math/SafeMath.sol';\r\nimport '../base/lifecycle/Pausable.sol';\r\nimport './extensions/RequestSynchroneInterface.sol';\r\n\r\n/**\r\n * @title RequestEthereum\r\n *\r\n * @dev RequestEthereum is the currency contract managing the request payed in Ethereum\r\n *\r\n * @dev Requests can be created by the Payee with createRequest() or by the payer from a request signed offchain by the payee with createQuickRequest\r\n * @dev Requests can have 1 extension. it has to implement RequestSynchroneInterface and declared trusted on the Core\r\n */\r\ncontract RequestEthereum is Pausable {\r\n\tusing SafeMath for uint256;\r\n\r\n\t// RequestCore object\r\n\tRequestCore public requestCore;\r\n\r\n\t// Ethereum available to withdraw\r\n\tmapping(address => uint256) public ethToWithdraw;\r\n\r\n    /*\r\n     *  Events \r\n     */\r\n\tevent EtherAvailableToWithdraw(bytes32 requestId, address recipient, uint256 amount);\r\n\r\n\t/*\r\n\t * @dev Constructor\r\n\t * @param _requestCoreAddress Request Core address\r\n\t */  \r\n\tfunction RequestEthereum(address _requestCoreAddress) public\r\n\t{\r\n\t\trequestCore=RequestCore(_requestCoreAddress);\r\n\t}\r\n\r\n\t/*\r\n\t * @dev Function to create a request as payee\r\n\t *\r\n\t * @dev msg.sender must be _payee\r\n\t *\r\n\t * @param _payer Entity supposed to pay\r\n\t * @param _expectedAmount Expected amount to be received. This amount can't be changed.\r\n\t * @param _extension an extension can be linked to a request and allows advanced payments conditions such as escrow. Extensions have to be whitelisted in Core\r\n\t * @param _extensionParams Parameters for the extensions. It is an array of 9 bytes32.\r\n\t *\r\n\t * @return Returns the id of the request \r\n\t */\r\n\tfunction createRequestAsPayee(address _payer, int256 _expectedAmount, address _extension, bytes32[9] _extensionParams, string _data)\r\n\t\texternal\r\n\t\tpayable\r\n\t\twhenNotPaused\r\n\t\treturns(bytes32 requestId)\r\n\t{\r\n\t\trequire(_expectedAmount>=0);\r\n\t\trequire(msg.sender != _payer && _payer != 0);\r\n\t\trequestId= requestCore.createRequest.value(msg.value)(msg.sender, msg.sender, _payer, _expectedAmount, _extension, _data);\r\n\r\n\t\tif(_extension!=0) {\r\n\t\t\tRequestSynchroneInterface extension = RequestSynchroneInterface(_extension);\r\n\t\t\textension.createRequest(requestId, _extensionParams);\r\n\t\t}\r\n\r\n\t\treturn requestId;\r\n\t}\r\n\r\n\r\n\t/*\r\n\t * @dev Function to create a request as payer\r\n\t *\r\n\t * @dev msg.sender must be _payee or _payer\r\n\t *\r\n\t * @param _payee Entity which will receive the payment\r\n\t * @param _expectedAmount Expected amount to be received. This amount can't be changed.\r\n\t * @param _extension an extension can be linked to a request and allows advanced payments conditions such as escrow. Extensions have to be whitelisted in Core\r\n\t * @param _extensionParams Parameters for the extensions. It is an array of 9 bytes32.\r\n\t *\r\n\t * @return Returns the id of the request \r\n\t */\r\n\tfunction createRequestAsPayer(address _payee, int256 _expectedAmount, address _extension, bytes32[9] _extensionParams, uint256 _additionals, string _data)\r\n\t\texternal\r\n\t\tpayable\r\n\t\twhenNotPaused\r\n\t\treturns(bytes32 requestId)\r\n\t{\r\n\t\trequire(_expectedAmount>=0);\r\n\t\trequire(msg.sender != _payee && _payee != 0);\r\n\r\n\t\tuint256 collectAmount = requestCore.getCollectEstimation(_expectedAmount,msg.sender,_extension);\r\n\t\trequestId= requestCore.createRequest.value(collectAmount)(msg.sender, _payee, msg.sender, _expectedAmount, _extension, _data);\r\n\r\n\t\tif(_extension!=0) {\r\n\t\t\tRequestSynchroneInterface extension = RequestSynchroneInterface(_extension);\r\n\t\t\textension.createRequest(requestId, _extensionParams);\r\n\t\t}\r\n\r\n\t\t// accept must succeed\r\n\t\trequire(acceptInternal(requestId));\r\n\r\n\t\tif(_additionals > 0) {\r\n\t\t\tupdateExpectedAmountInternal(requestId, _additionals.toInt256Safe());\r\n\t\t}\r\n\t\tif(msg.value-collectAmount > 0) {\r\n\t\t\tpaymentInternal(requestId, msg.value-collectAmount);\r\n\t\t}\r\n\r\n\t\treturn requestId;\r\n\t}\r\n\r\n\r\n\r\n\t/*\r\n\t * @dev Function to broadcast and accept an offchain signed request (can be paid and additionals also)\r\n\t *\r\n\t * @dev msg.sender must be _payer\r\n\t * @dev the _payer can additionals \r\n\t *\r\n\t * @param _payee Entity which will receive the payment\r\n\t * @param _payer Entity supposed to pay\r\n\t * @param _expectedAmount Expected amount to be received. This amount can't be changed.\r\n\t * @param _extension an extension can be linked to a request and allows advanced payments conditions such as escrow. Extensions have to be whitelisted in Core\r\n\t * @param _extensionParams Parameters for the extension. It is an array of 9 bytes32\r\n\t * @param _additionals amount of additionals the payer want to declare\r\n\t * @param v ECDSA signature parameter v.\r\n\t * @param r ECDSA signature parameters r.\r\n\t * @param s ECDSA signature parameters s.\r\n\t *\r\n\t * @return Returns the id of the request \r\n\t */\r\n\t// function broadcastSignedRequestAsPayer(address _payee, int256 _expectedAmount, address _extension, bytes32[9] _extensionParams, uint256 _additionals, string _data, uint8 v, bytes32 r, bytes32 s)\r\n\t// \texternal\r\n\t// \tpayable\r\n\t// \twhenNotPaused\r\n\t// \treturns(bytes32 requestId)\r\n\t// {\r\n\t// \trequire(_expectedAmount>=0);\r\n\t// \trequire(msg.sender != _payee && _payee != 0);\r\n\r\n\t// \t// check the signature\r\n\t// \trequire(checkRequestSignature(_payee,_payee,msg.sender,_expectedAmount,_extension,_extensionParams,_data, v, r, s));\r\n\r\n\t// \tuint256 collectAmount = requestCore.getCollectEstimation(_expectedAmount,msg.sender,_extension);\r\n\t// \trequestId=requestCore.createRequest.value(collectAmount)(_payee, _payee, msg.sender, _expectedAmount, _extension, _data).value(collectAmount);\r\n\r\n\t// \tif(_extension!=0) {\r\n\t// \t\tRequestSynchroneInterface extension = RequestSynchroneInterface(_extension);\r\n\t// \t\textension.createRequest(requestId, _extensionParams);\r\n\t// \t}\r\n\r\n\t// \t// accept must succeed\r\n\t// \trequire(acceptInternal(requestId));\r\n\r\n\t// \tif(_additionals > 0) {\r\n\t// \t\tupdateExpectedAmountInternal(requestId, _additionals.toInt256Safe());\r\n\t// \t}\r\n\t// \tif(msg.value-collectAmount > 0) {\r\n\t// \t\tpaymentInternal(requestId, msg.value-collectAmount);\r\n\t// \t}\r\n\r\n\t// \treturn requestId;\r\n\t// }\r\n\r\n\t// ---- INTERFACE FUNCTIONS ------------------------------------------------------------------------------------\r\n\r\n\t/*\r\n\t * @dev Function to accept a request\r\n\t *\r\n\t * @dev msg.sender must be _payer or an extension used by the request\r\n\t *\r\n\t * @param _requestId id of the request \r\n\t *\r\n\t * @return true if the request is accepted, false otherwise\r\n\t */\r\n\tfunction accept(bytes32 _requestId) \r\n\t\texternal\r\n\t\twhenNotPaused\r\n\t\tcondition(isOnlyRequestExtension(_requestId) || (requestCore.getPayer(_requestId)==msg.sender && requestCore.getState(_requestId)==RequestCore.State.Created))\r\n\t\treturns(bool)\r\n\t{\r\n\t\treturn acceptInternal(_requestId);\r\n\t}\r\n\r\n\t/*\r\n\t * @dev Function to declare a payment a request\r\n\t *\r\n\t * @dev msg.sender must be an extension used by the request\r\n\t *\r\n\t * @param _requestId id of the request \r\n\t * @param _amount amount of the payment to declare\r\n\t *\r\n\t * @return true if the payment is declared, false otherwise\r\n\t */\r\n\tfunction payment(bytes32 _requestId, uint256 _amount)\r\n\t\texternal\r\n\t\twhenNotPaused\r\n\t\tonlyRequestExtensions(_requestId)\r\n\t\treturns(bool)\r\n\t{\r\n\t\treturn paymentInternal(_requestId, _amount);\r\n\t}\r\n\r\n\t/*\r\n\t * @dev Function to order a fund mouvment \r\n\t *\r\n\t * @dev msg.sender must be an extension used by the request\r\n\t *\r\n\t * @param _requestId id of the request \r\n\t * @param _recipient adress where the wei has to me send to\r\n\t * @param _amount amount in wei to send\r\n\t *\r\n\t * @return true if the fund mouvement is done, false otherwise\r\n\t */\r\n\tfunction fundOrder(bytes32 _requestId, address _recipient, uint256 _amount)\r\n\t\texternal\r\n\t\twhenNotPaused\r\n\t\tonlyRequestExtensions(_requestId)\r\n\t\treturns(bool)\r\n\t{\r\n\t\treturn fundOrderInternal(_requestId, _recipient, _amount);\r\n\t}\r\n\r\n\t/*\r\n\t * @dev Function to cancel a request\r\n\t *\r\n\t * @dev msg.sender must be the extension used by the request or the _payer (if request is created) or the _payee (if request is not canceled)\r\n\t * @dev only request with balance equals to zero can be cancel\r\n\t *\r\n\t * @param _requestId id of the request \r\n\t *\r\n\t * @return true if the request is canceled, false otherwise\r\n\t */\r\n\tfunction cancel(bytes32 _requestId)\r\n\t\texternal\r\n\t\twhenNotPaused\r\n\t\treturns(bool)\r\n\t{\r\n\t\trequire(isOnlyRequestExtension(_requestId) \r\n\t\t\t\t|| (requestCore.getPayer(_requestId)==msg.sender && requestCore.getState(_requestId)==RequestCore.State.Created)\r\n\t\t\t\t|| (requestCore.getPayee(_requestId)==msg.sender && requestCore.getState(_requestId)!=RequestCore.State.Canceled)\r\n\t\t);\r\n\r\n\t\t// impossible to cancel a Request with a balance != 0\r\n\t\trequire(requestCore.getBalance(_requestId) == 0);\r\n\r\n\t\treturn cancelInternal(_requestId);\r\n\t}\r\n\r\n\t// ----------------------------------------------------------------------------------------\r\n\r\n\r\n\t// ---- CONTRACT FUNCTIONS ------------------------------------------------------------------------------------\r\n\t/*\r\n\t * @dev Function PAYABLE to pay in ether a request\r\n\t *\r\n\t * @dev the request must be accepted\r\n\t *\r\n\t * @param _requestId id of the request\r\n\t * @param _additionals amount of additionals in wei to declare \r\n\t */\r\n\tfunction paymentAction(bytes32 _requestId, uint256 _additionals)\r\n\t\texternal\r\n\t\twhenNotPaused\r\n\t\tpayable\r\n\t\tcondition(requestCore.getState(_requestId)==RequestCore.State.Accepted || requestCore.getState(_requestId)==RequestCore.State.Created)\r\n\t{\r\n\t\t// automatically accept request\r\n\t\tif(requestCore.getState(_requestId)==RequestCore.State.Created) {\r\n\t\t\tacceptInternal(_requestId);\r\n\t\t}\r\n\r\n\t\tif(_additionals > 0) {\r\n\t\t\tupdateExpectedAmountInternal(_requestId, _additionals.toInt256Safe());\r\n\t\t}\r\n\t\tpaymentInternal(_requestId, msg.value);\r\n\t}\r\n\r\n\t/*\r\n\t * @dev Function PAYABLE to pay back in ether a request to the payee\r\n\t *\r\n\t * @dev msg.sender must be _payer\r\n\t * @dev the request must be accepted\r\n\t * @dev the payback must be lower than the amount already paid for the request\r\n\t *\r\n\t * @param _requestId id of the request\r\n\t */\r\n\tfunction refundAction(bytes32 _requestId)\r\n\t\texternal\r\n\t\twhenNotPaused\r\n\t\tcondition(requestCore.getState(_requestId)==RequestCore.State.Accepted)\r\n\t\tonlyRequestPayee(_requestId)\r\n\t\tpayable\r\n\t{\r\n\t\trefundInternal(_requestId, msg.value);\r\n\t}\r\n\r\n\t/*\r\n\t * @dev Function to declare a subtract\r\n\t *\r\n\t * @dev msg.sender must be _payee or an extension used by the request\r\n\t * @dev the request must be accepted or created\r\n\t *\r\n\t * @param _requestId id of the request\r\n\t * @param _amount amount of subtract in wei to declare \r\n\t */\r\n\tfunction subtractAction(bytes32 _requestId, uint256 _amount)\r\n\t\texternal\r\n\t\twhenNotPaused\r\n\t\tcondition(requestCore.getState(_requestId)==RequestCore.State.Accepted || requestCore.getState(_requestId)==RequestCore.State.Created)\r\n\t\tonlyRequestPayee(_requestId)\r\n\t{\r\n\t\tupdateExpectedAmountInternal(_requestId, -_amount.toInt256Safe());\r\n\t}\r\n\r\n\t/*\r\n\t * @dev Function to declare a additional\r\n\t *\r\n\t * @dev msg.sender must be _payer or an extension used by the request\r\n\t * @dev the request must be accepted or created\r\n\t *\r\n\t * @param _requestId id of the request\r\n\t * @param _amount amount of additional in wei to declare \r\n\t */\r\n\tfunction additionalAction(bytes32 _requestId, uint256 _amount)\r\n\t\texternal\r\n\t\twhenNotPaused\r\n\t\tcondition(requestCore.getState(_requestId)==RequestCore.State.Accepted || requestCore.getState(_requestId)==RequestCore.State.Created)\r\n\t\tonlyRequestPayer(_requestId)\r\n\t{\r\n\t\tupdateExpectedAmountInternal(_requestId, _amount.toInt256Safe());\r\n\t}\r\n\r\n\r\n\t/*\r\n\t * @dev Function to withdraw ether\r\n\t */\r\n\tfunction withdraw()\r\n\t\tpublic\r\n\t{\r\n\t\tuint256 amount = ethToWithdraw[msg.sender];\r\n\t\tethToWithdraw[msg.sender] = 0;\r\n\t\tmsg.sender.transfer(amount);\r\n\t}\r\n\t// ----------------------------------------------------------------------------------------\r\n\r\n\r\n\t// ---- INTERNAL FUNCTIONS ------------------------------------------------------------------------------------\r\n\t/*\r\n\t * @dev Function internal to manage payment declaration\r\n\t *\r\n\t * @param _requestId id of the request\r\n\t * @param _amount amount of payment in wei to declare \r\n\t *\r\n\t * @return true if the payment is done, false otherwise\r\n\t */\r\n\tfunction paymentInternal(bytes32 _requestId, uint256 _amount) \r\n\t\tinternal\r\n\t\treturns(bool)\r\n\t{\r\n\t\taddress extensionAddr = requestCore.getExtension(_requestId);\r\n\r\n\t\tbool isOK = true;\r\n\t\tif(extensionAddr!=0 && extensionAddr!=msg.sender) \r\n\t\t{\r\n\t\t\tRequestSynchroneInterface extension = RequestSynchroneInterface(extensionAddr);\r\n\t\t\tisOK = extension.payment(_requestId, _amount);\r\n\t\t}\r\n\r\n\t\tif(isOK) \r\n\t\t{\r\n\t\t\trequestCore.updateBalance(_requestId, _amount.toInt256Safe());\r\n\t\t\t// payment done, the money is ready to withdraw by the payee\r\n\t\t\tfundOrderInternal(_requestId, requestCore.getPayee(_requestId), _amount);\r\n\t\t}\r\n\t\treturn isOK;\r\n\t}\r\n\r\n\t/*\r\n\t * @dev Function internal to manage refund declaration\r\n\t *\r\n\t * @param _requestId id of the request\r\n\t * @param _amount amount of the refund in wei to declare \r\n\t *\r\n\t * @return true if the refund is done, false otherwise\r\n\t */\r\n\tfunction refundInternal(bytes32 _requestId, uint256 _amount) \r\n\t\tinternal\r\n\t\treturns(bool)\r\n\t{\r\n\t\taddress extensionAddr = requestCore.getExtension(_requestId);\r\n\r\n\t\tbool isOK = true;\r\n\t\tif(extensionAddr!=0 && extensionAddr!=msg.sender) \r\n\t\t{\r\n\t\t\tRequestSynchroneInterface extension = RequestSynchroneInterface(extensionAddr);\r\n\t\t\tisOK = extension.refund(_requestId, _amount);\r\n\t\t}\r\n\r\n\t\tif(isOK) \r\n\t\t{\r\n\t\t\trequestCore.updateBalance(_requestId, -_amount.toInt256Safe());\r\n\t\t\t// payment done, the money is ready to withdraw by the payee\r\n\t\t\tfundOrderInternal(_requestId, requestCore.getPayer(_requestId), _amount);\r\n\t\t}\r\n\t\treturn isOK;\r\n\t}\r\n\r\n\t/*\r\n\t * @dev Function internal to manage additionals & subtracts declaration\r\n\t *\r\n\t * @param _requestId id of the request\r\n\t * @param _amount amount of additionals or subtracts in wei to declare \r\n\t *\r\n\t * @return true if the additionals or subtracts is declared, false otherwise\r\n\t */\r\n\tfunction  updateExpectedAmountInternal(bytes32 _requestId, int256 _amount) \r\n\t\tinternal\r\n\t\treturns(bool)\r\n\t{\r\n\t\taddress extensionAddr = requestCore.getExtension(_requestId);\r\n\r\n\t\tbool isOK = true;\r\n\t\tif(extensionAddr!=0 && extensionAddr!=msg.sender)  \r\n\t\t{\r\n\t\t\tRequestSynchroneInterface extension = RequestSynchroneInterface(extensionAddr);\r\n\t\t\tisOK = extension.updateExpectedAmount(_requestId, _amount);\r\n\t\t}\r\n\r\n\t\tif(isOK) \r\n\t\t{\r\n\t\t\trequestCore.updateExpectedAmount(_requestId, _amount);\r\n\t\t}\r\n\t\treturn isOK;\r\n\t}\r\n\r\n\t/*\r\n\t * @dev Function internal to manage fund mouvement\r\n\t *\r\n\t * @param _requestId id of the request \r\n\t * @param _recipient adress where the wei has to me send to\r\n\t * @param _amount amount in wei to send\r\n\t *\r\n\t * @return true if the fund mouvement is done, false otherwise\r\n\t */\r\n\tfunction fundOrderInternal(bytes32 _requestId, address _recipient, uint256 _amount) \r\n\t\tinternal\r\n\t\treturns(bool)\r\n\t{\r\n\t\taddress extensionAddr = requestCore.getExtension(_requestId);\r\n\r\n\t\tbool isOK = true;\r\n\t\tif(extensionAddr!=0 && extensionAddr!=msg.sender)  \r\n\t\t{\r\n\t\t\tRequestSynchroneInterface extension = RequestSynchroneInterface(extensionAddr);\r\n\t\t\tisOK = extension.fundOrder(_requestId,_recipient,_amount);\r\n\t\t}\r\n\r\n\t\tif(isOK) \r\n\t\t{\r\n\t\t\t// try to send the fund \r\n\t\t\tif(!_recipient.send(_amount)) {\r\n\t\t\t\t// if sendding fail, the funds are availbale to withdraw\r\n\t\t\t\tethToWithdraw[_recipient] = ethToWithdraw[_recipient].add(_amount);\r\n\t\t\t\t// spread the word that the money is not sent but available to withdraw\r\n\t\t\t\tEtherAvailableToWithdraw(_requestId, _recipient, _amount);\r\n\t\t\t}\r\n\r\n\t\t}   \r\n\t\treturn isOK;\r\n\t}\r\n\r\n\t/*\r\n\t * @dev Function internal to manage acceptance\r\n\t *\r\n\t * @param _requestId id of the request \r\n\t *\r\n\t * @return true if the request is accept, false otherwise\r\n\t */\r\n\tfunction acceptInternal(bytes32 _requestId) \r\n\t\tinternal\r\n\t\treturns(bool)\r\n\t{\r\n\t\taddress extensionAddr = requestCore.getExtension(_requestId);\r\n\r\n\t\tbool isOK = true;\r\n\t\tif(extensionAddr!=0 && extensionAddr!=msg.sender)  \r\n\t\t{\r\n\t\t\tRequestSynchroneInterface extension = RequestSynchroneInterface(requestCore.getExtension(_requestId));\r\n\t\t\tisOK = extension.accept(_requestId);\r\n\t\t}\r\n\r\n\t\tif(isOK) \r\n\t\t{\r\n\t\t\trequestCore.accept(_requestId);\r\n\t\t}  \r\n\t\treturn isOK;\r\n\t}\r\n\r\n\r\n\t/*\r\n\t * @dev Function internal to manage cancel\r\n\t *\r\n\t * @param _requestId id of the request \r\n\t *\r\n\t * @return true if the request is cancel, false otherwise\r\n\t */\r\n\tfunction cancelInternal(bytes32 _requestId) \r\n\t\tinternal\r\n\t\treturns(bool)\r\n\t{\r\n\t\taddress extensionAddr = requestCore.getExtension(_requestId);\r\n\r\n\t\tbool isOK = true;\r\n\t\tif(extensionAddr!=0 && extensionAddr!=msg.sender)  \r\n\t\t{\r\n\t\t\tRequestSynchroneInterface extension = RequestSynchroneInterface(extensionAddr);\r\n\t\t\tisOK = extension.cancel(_requestId);\r\n\t\t}\r\n\t\t\r\n\t\tif(isOK) \r\n\t\t{\r\n\t\t  requestCore.cancel(_requestId);\r\n\t\t}\r\n\t\treturn isOK;\r\n\t}\r\n\r\n\r\n\t/*\r\n\t * @dev Function internal to calculate Keccak-256 hash of a request with specified parameters\r\n\t *\r\n\t * @param _payee Entity which will receive the payment\r\n\t * @param _payer Entity supposed to pay\r\n\t * @param _expectedAmount Expected amount to be received. This amount can't be changed.\r\n\t * @param _extensions Up to 3 extensions can be linked to a request and allows advanced payments conditions such as escrow. Extensions have to be whitelisted in Core\r\n\t * @param _extensionParams Parameters for the extensions. It is an array of 9 bytes32, the 3 first element are for the first extension, the 3 next for the second extension and the last 3 for the third extension.\r\n\t *\r\n\t * @return Keccak-256 hash of a request\r\n\t */\r\n\tfunction getRequestHash(address _payee, address _payer, int256 _expectedAmount, address _extension, bytes32[9] _extensionParams, string _data)\r\n\t\tinternal\r\n\t\tview\r\n\t\treturns(bytes32)\r\n\t{\r\n\t\treturn keccak256(this,_payee,_payer,_expectedAmount,_extension,_extensionParams,_data);\r\n\t}\r\n\r\n\t/*\r\n\t * @dev Verifies that a hash signature is valid. 0x style\r\n\t * @param signer address of signer.\r\n\t * @param hash Signed Keccak-256 hash.\r\n\t * @param v ECDSA signature parameter v.\r\n\t * @param r ECDSA signature parameters r.\r\n\t * @param s ECDSA signature parameters s.\r\n\t * @return Validity of order signature.\r\n\t */\r\n\tfunction isValidSignature(\r\n\t\taddress signer,\r\n\t\tbytes32 hash,\r\n\t\tuint8 v,\r\n\t\tbytes32 r,\r\n\t\tbytes32 s)\r\n\t\tpublic\r\n\t\tpure\r\n\t\treturns (bool)\r\n\t{\r\n\t\treturn signer == ecrecover(\r\n\t\t\tkeccak256(\"\\x19Ethereum Signed Message:\\n32\", hash),\r\n\t\t\tv,\r\n\t\t\tr,\r\n\t\t\ts\r\n\t\t);\r\n\t}\r\n\r\n\tfunction checkRequestSignature(\r\n\t\taddress signer,\r\n\t\taddress payee,\r\n\t\taddress payer,\r\n\t\tint256 expectedAmount,\r\n\t\taddress extension,\r\n\t\tbytes32[9] extensionParams,\r\n\t\tstring data,\r\n\t\tuint8 v,\r\n\t\tbytes32 r,\r\n\t\tbytes32 s)\r\n\t\tpublic\r\n\t\tview\r\n\t\treturns (bool)\r\n\t{\r\n\t\tbytes32 hash = getRequestHash(payee,payer,expectedAmount,extension,extensionParams,data);\r\n\t\treturn isValidSignature(signer, hash, v, r, s);\r\n\t}\r\n\r\n\t/*\r\n\t * @dev Function internal to check if the msg.sender is an extension of the request\r\n\t *\r\n\t * @param _requestId id of the request \r\n\t *\r\n\t * @return true if msg.sender is an extension of the request\r\n\t */\r\n\tfunction isOnlyRequestExtension(bytes32 _requestId) \r\n\t\tinternal \r\n\t\tview\r\n\t\treturns(bool)\r\n\t{\r\n\t\treturn msg.sender==requestCore.getExtension(_requestId);\r\n\t}\r\n\r\n\t//modifier\r\n\tmodifier condition(bool c) \r\n\t{\r\n\t\trequire(c);\r\n\t\t_;\r\n\t}\r\n\r\n\t/*\r\n\t * @dev Modifier to check if msg.sender is payer\r\n\t * @dev Revert if msg.sender is not payer\r\n\t * @param _requestId id of the request \r\n\t */\t\r\n\tmodifier onlyRequestPayer(bytes32 _requestId) \r\n\t{\r\n\t\trequire(requestCore.getPayer(_requestId)==msg.sender);\r\n\t\t_;\r\n\t}\r\n\t\r\n\t/*\r\n\t * @dev Modifier to check if msg.sender is payee\r\n\t * @dev Revert if msg.sender is not payee\r\n\t * @param _requestId id of the request \r\n\t */\t\r\n\tmodifier onlyRequestPayee(bytes32 _requestId) \r\n\t{\r\n\t\trequire(requestCore.getPayee(_requestId)==msg.sender);\r\n\t\t_;\r\n\t}\r\n\r\n\t/*\r\n\t * @dev Modifier to check if msg.sender is payee or payer\r\n\t * @dev Revert if msg.sender is not payee or payer\r\n\t * @param _requestId id of the request \r\n\t */\r\n\tmodifier onlyRequestPayeeOrPayer(bytes32 _requestId) \r\n\t{\r\n\t\trequire(requestCore.getPayee(_requestId)==msg.sender || requestCore.getPayer(_requestId)==msg.sender);\r\n\t\t_;\r\n\t}\r\n\r\n\t/*\r\n\t * @dev Modifier to check if request is in a specify state\r\n\t * @dev Revert if request not in a specify state\r\n\t * @param _requestId id of the request \r\n\t * @param _state state to check\r\n\t */\r\n\tmodifier onlyRequestState(bytes32 _requestId, RequestCore.State _state) \r\n\t{\r\n\t\trequire(requestCore.getState(_requestId)==_state);\r\n\t\t_;\r\n\t}\r\n\r\n\t/*\r\n\t * @dev Modifier to check if the msg.sender is an extension of the request\r\n\t * @dev Revert if msg.sender is not an extension of the request\r\n\t * @param _requestId id of the request\r\n\t */\r\n\tmodifier onlyRequestExtensions(bytes32 _requestId) \r\n\t{\r\n\t\trequire(isOnlyRequestExtension(_requestId));\r\n\t\t_;\r\n\t}\r\n}\r\n",
  "sourcePath": "C:\\Users\\vince\\Documents\\Request\\git\\Request_SmartContracts\\contracts\\synchrone\\RequestEthereum.sol",
  "compiler": {
    "name": "solc",
    "version": "0.4.18+commit.9cf6e910.Emscripten.clang"
  },
  "schemaVersion": "1.0.1",
  "updatedAt": "2017-12-05T14:06:22.705Z"
}