{
  "contractName": "RequestSynchroneExtensionEscrow",
  "abi": [
    {
      "constant": true,
      "inputs": [
        {
          "name": "",
          "type": "bytes32"
        }
      ],
      "name": "escrows",
      "outputs": [
        {
          "name": "subContract",
          "type": "address"
        },
        {
          "name": "escrow",
          "type": "address"
        },
        {
          "name": "state",
          "type": "uint8"
        },
        {
          "name": "amountPaid",
          "type": "uint256"
        },
        {
          "name": "amountRefunded",
          "type": "uint256"
        }
      ],
      "payable": false,
      "stateMutability": "view",
      "type": "function"
    },
    {
      "constant": false,
      "inputs": [],
      "name": "unpause",
      "outputs": [],
      "payable": false,
      "stateMutability": "nonpayable",
      "type": "function"
    },
    {
      "constant": false,
      "inputs": [
        {
          "name": "_requestId",
          "type": "bytes32"
        },
        {
          "name": "_amount",
          "type": "uint256"
        }
      ],
      "name": "addSubtract",
      "outputs": [
        {
          "name": "",
          "type": "bool"
        }
      ],
      "payable": false,
      "stateMutability": "nonpayable",
      "type": "function"
    },
    {
      "constant": false,
      "inputs": [
        {
          "name": "_requestId",
          "type": "bytes32"
        },
        {
          "name": "_recipient",
          "type": "address"
        },
        {
          "name": "_amount",
          "type": "uint256"
        }
      ],
      "name": "fundOrder",
      "outputs": [
        {
          "name": "",
          "type": "bool"
        }
      ],
      "payable": false,
      "stateMutability": "nonpayable",
      "type": "function"
    },
    {
      "constant": false,
      "inputs": [
        {
          "name": "_requestId",
          "type": "bytes32"
        }
      ],
      "name": "releaseToPayee",
      "outputs": [],
      "payable": false,
      "stateMutability": "nonpayable",
      "type": "function"
    },
    {
      "constant": true,
      "inputs": [],
      "name": "paused",
      "outputs": [
        {
          "name": "",
          "type": "bool"
        }
      ],
      "payable": false,
      "stateMutability": "view",
      "type": "function"
    },
    {
      "constant": false,
      "inputs": [
        {
          "name": "_requestId",
          "type": "bytes32"
        },
        {
          "name": "_amount",
          "type": "uint256"
        }
      ],
      "name": "addAdditional",
      "outputs": [
        {
          "name": "",
          "type": "bool"
        }
      ],
      "payable": false,
      "stateMutability": "nonpayable",
      "type": "function"
    },
    {
      "constant": false,
      "inputs": [
        {
          "name": "_requestId",
          "type": "bytes32"
        },
        {
          "name": "_amount",
          "type": "uint256"
        }
      ],
      "name": "refund",
      "outputs": [
        {
          "name": "",
          "type": "bool"
        }
      ],
      "payable": false,
      "stateMutability": "nonpayable",
      "type": "function"
    },
    {
      "constant": true,
      "inputs": [],
      "name": "requestCore",
      "outputs": [
        {
          "name": "",
          "type": "address"
        }
      ],
      "payable": false,
      "stateMutability": "view",
      "type": "function"
    },
    {
      "constant": false,
      "inputs": [
        {
          "name": "_requestId",
          "type": "bytes32"
        }
      ],
      "name": "refundToPayer",
      "outputs": [],
      "payable": false,
      "stateMutability": "nonpayable",
      "type": "function"
    },
    {
      "constant": false,
      "inputs": [],
      "name": "pause",
      "outputs": [],
      "payable": false,
      "stateMutability": "nonpayable",
      "type": "function"
    },
    {
      "constant": true,
      "inputs": [],
      "name": "owner",
      "outputs": [
        {
          "name": "",
          "type": "address"
        }
      ],
      "payable": false,
      "stateMutability": "view",
      "type": "function"
    },
    {
      "constant": false,
      "inputs": [
        {
          "name": "_requestId",
          "type": "bytes32"
        },
        {
          "name": "_amount",
          "type": "uint256"
        }
      ],
      "name": "payment",
      "outputs": [
        {
          "name": "",
          "type": "bool"
        }
      ],
      "payable": false,
      "stateMutability": "nonpayable",
      "type": "function"
    },
    {
      "constant": false,
      "inputs": [
        {
          "name": "_requestId",
          "type": "bytes32"
        }
      ],
      "name": "cancel",
      "outputs": [
        {
          "name": "",
          "type": "bool"
        }
      ],
      "payable": false,
      "stateMutability": "nonpayable",
      "type": "function"
    },
    {
      "constant": false,
      "inputs": [
        {
          "name": "_requestId",
          "type": "bytes32"
        },
        {
          "name": "_params",
          "type": "bytes32[9]"
        }
      ],
      "name": "createRequest",
      "outputs": [
        {
          "name": "",
          "type": "bool"
        }
      ],
      "payable": false,
      "stateMutability": "nonpayable",
      "type": "function"
    },
    {
      "constant": false,
      "inputs": [
        {
          "name": "_requestId",
          "type": "bytes32"
        }
      ],
      "name": "accept",
      "outputs": [
        {
          "name": "",
          "type": "bool"
        }
      ],
      "payable": false,
      "stateMutability": "nonpayable",
      "type": "function"
    },
    {
      "constant": false,
      "inputs": [
        {
          "name": "newOwner",
          "type": "address"
        }
      ],
      "name": "transferOwnership",
      "outputs": [],
      "payable": false,
      "stateMutability": "nonpayable",
      "type": "function"
    },
    {
      "inputs": [
        {
          "name": "_requestCoreAddress",
          "type": "address"
        }
      ],
      "payable": false,
      "stateMutability": "nonpayable",
      "type": "constructor"
    },
    {
      "anonymous": false,
      "inputs": [
        {
          "indexed": false,
          "name": "requestId",
          "type": "bytes32"
        },
        {
          "indexed": false,
          "name": "amount",
          "type": "uint256"
        }
      ],
      "name": "EscrowPayment",
      "type": "event"
    },
    {
      "anonymous": false,
      "inputs": [
        {
          "indexed": false,
          "name": "requestId",
          "type": "bytes32"
        }
      ],
      "name": "EscrowReleaseRequest",
      "type": "event"
    },
    {
      "anonymous": false,
      "inputs": [
        {
          "indexed": false,
          "name": "requestId",
          "type": "bytes32"
        }
      ],
      "name": "EscrowRefundRequest",
      "type": "event"
    },
    {
      "anonymous": false,
      "inputs": [],
      "name": "Pause",
      "type": "event"
    },
    {
      "anonymous": false,
      "inputs": [],
      "name": "Unpause",
      "type": "event"
    },
    {
      "anonymous": false,
      "inputs": [
        {
          "indexed": true,
          "name": "previousOwner",
          "type": "address"
        },
        {
          "indexed": true,
          "name": "newOwner",
          "type": "address"
        }
      ],
      "name": "OwnershipTransferred",
      "type": "event"
    }
  ],
  "bytecode": "0x606060405260008060146101000a81548160ff021916908315150217905550341561002957600080fd5b604051602080611eb883398101604052808051906020019091905050336000806101000a81548173ffffffffffffffffffffffffffffffffffffffff021916908373ffffffffffffffffffffffffffffffffffffffff16021790555080600260006101000a81548173ffffffffffffffffffffffffffffffffffffffff021916908373ffffffffffffffffffffffffffffffffffffffff16021790555050611de2806100d66000396000f3006060604052600436106100f1576000357c0100000000000000000000000000000000000000000000000000000000900463ffffffff1680632d83549c146100f65780633f4ba83a146101b35780633f4fc19c146101c8578063452e79a41461021057806356d37118146102775780635c975abb1461029e5780636279dc5c146102cb578063695eda19146103135780636c4fbaa41461035b57806383c4016a146103b05780638456cb59146103d75780638da5cb5b146103ec578063a05bd4c614610441578063c4d252f514610489578063d29574ba146104c8578063e4725ba114610534578063f2fde38b14610573575b600080fd5b341561010157600080fd5b61011b6004808035600019169060200190919050506105ac565b604051808673ffffffffffffffffffffffffffffffffffffffff1673ffffffffffffffffffffffffffffffffffffffff1681526020018573ffffffffffffffffffffffffffffffffffffffff1673ffffffffffffffffffffffffffffffffffffffff16815260200184600281111561018f57fe5b60ff1681526020018381526020018281526020019550505050505060405180910390f35b34156101be57600080fd5b6101c661062f565b005b34156101d357600080fd5b6101f66004808035600019169060200190919080359060200190919050506106ed565b604051808215151515815260200191505060405180910390f35b341561021b57600080fd5b61025d60048080356000191690602001909190803573ffffffffffffffffffffffffffffffffffffffff1690602001909190803590602001909190505061087b565b604051808215151515815260200191505060405180910390f35b341561028257600080fd5b61029c600480803560001916906020019091905050610888565b005b34156102a957600080fd5b6102b1610d0d565b604051808215151515815260200191505060405180910390f35b34156102d657600080fd5b6102f9600480803560001916906020019091908035906020019091905050610d20565b604051808215151515815260200191505060405180910390f35b341561031e57600080fd5b610341600480803560001916906020019091908035906020019091905050610d2c565b604051808215151515815260200191505060405180910390f35b341561036657600080fd5b61036e610e20565b604051808273ffffffffffffffffffffffffffffffffffffffff1673ffffffffffffffffffffffffffffffffffffffff16815260200191505060405180910390f35b34156103bb57600080fd5b6103d5600480803560001916906020019091905050610e46565b005b34156103e257600080fd5b6103ea611494565b005b34156103f757600080fd5b6103ff611554565b604051808273ffffffffffffffffffffffffffffffffffffffff1673ffffffffffffffffffffffffffffffffffffffff16815260200191505060405180910390f35b341561044c57600080fd5b61046f600480803560001916906020019091908035906020019091905050611579565b604051808215151515815260200191505060405180910390f35b341561049457600080fd5b6104ae60048080356000191690602001909190505061183a565b604051808215151515815260200191505060405180910390f35b34156104d357600080fd5b61051a60048080356000191690602001909190806101200190600980602002604051908101604052809291908260096020028082843782019150505050509190505061192a565b604051808215151515815260200191505060405180910390f35b341561053f57600080fd5b610559600480803560001916906020019091905050611bd2565b604051808215151515815260200191505060405180910390f35b341561057e57600080fd5b6105aa600480803573ffffffffffffffffffffffffffffffffffffffff16906020019091905050611bdd565b005b60016020528060005260406000206000915090508060000160009054906101000a900473ffffffffffffffffffffffffffffffffffffffff16908060010160009054906101000a900473ffffffffffffffffffffffffffffffffffffffff16908060010160149054906101000a900460ff16908060020154908060030154905085565b6000809054906101000a900473ffffffffffffffffffffffffffffffffffffffff1673ffffffffffffffffffffffffffffffffffffffff163373ffffffffffffffffffffffffffffffffffffffff1614151561068a57600080fd5b600060149054906101000a900460ff1615156106a557600080fd5b60008060146101000a81548160ff0219169083151502179055507f7805862f689e2f13df9f062ff482ad3ad112aca9e0847911ed832e158c525b3360405160405180910390a1565b60008060149054906101000a900460ff1615151561070a57600080fd5b823373ffffffffffffffffffffffffffffffffffffffff1660016000836000191660001916815260200190815260200160002060000160009054906101000a900473ffffffffffffffffffffffffffffffffffffffff1673ffffffffffffffffffffffffffffffffffffffff1614151561078357600080fd5b600260009054906101000a900473ffffffffffffffffffffffffffffffffffffffff1673ffffffffffffffffffffffffffffffffffffffff16636907c77d856000604051602001526040518263ffffffff167c0100000000000000000000000000000000000000000000000000000000028152600401808260001916600019168152602001915050602060405180830381600087803b151561082457600080fd5b6102c65a03f1151561083557600080fd5b505050604051805190506108706001600087600019166000191681526020019081526020016000206002015485611d3290919063ffffffff16565b111591505092915050565b6000600190509392505050565b600080600060149054906101000a900460ff161515156108a757600080fd5b823373ffffffffffffffffffffffffffffffffffffffff1660016000836000191660001916815260200190815260200160002060010160009054906101000a900473ffffffffffffffffffffffffffffffffffffffff1673ffffffffffffffffffffffffffffffffffffffff161480610a0657503373ffffffffffffffffffffffffffffffffffffffff16600260009054906101000a900473ffffffffffffffffffffffffffffffffffffffff1673ffffffffffffffffffffffffffffffffffffffff1663a12cad70836000604051602001526040518263ffffffff167c0100000000000000000000000000000000000000000000000000000000028152600401808260001916600019168152602001915050602060405180830381600087803b15156109d357600080fd5b6102c65a03f115156109e457600080fd5b5050506040518051905073ffffffffffffffffffffffffffffffffffffffff16145b1515610a1157600080fd5b836000806002811115610a2057fe5b60016000846000191660001916815260200190815260200160002060010160149054906101000a900460ff166002811115610a5757fe5b141515610a6357600080fd5b856001806002811115610a7257fe5b600260009054906101000a900473ffffffffffffffffffffffffffffffffffffffff1673ffffffffffffffffffffffffffffffffffffffff166309648a9d846000604051602001526040518263ffffffff167c0100000000000000000000000000000000000000000000000000000000028152600401808260001916600019168152602001915050602060405180830381600087803b1515610b1357600080fd5b6102c65a03f11515610b2457600080fd5b505050604051805190506002811115610b3957fe5b141515610b4557600080fd5b6002600160008a6000191660001916815260200190815260200160002060010160146101000a81548160ff02191690836002811115610b8057fe5b02179055507f42b0f31519c4d6f0d5905e3bcbc1081cd5ee948f9aa336ce3857a98407d868738860405180826000191660001916815260200191505060405180910390a1610c13600160008a6000191660001916815260200190815260200160002060030154600160008b6000191660001916815260200190815260200160002060020154611d5090919063ffffffff16565b96506000871115610d035760016000896000191660001916815260200190815260200160002060000160009054906101000a900473ffffffffffffffffffffffffffffffffffffffff1695508573ffffffffffffffffffffffffffffffffffffffff1663a05bd4c689896000604051602001526040518363ffffffff167c010000000000000000000000000000000000000000000000000000000002815260040180836000191660001916815260200182815260200192505050602060405180830381600087803b1515610ce657600080fd5b6102c65a03f11515610cf757600080fd5b50505060405180519050505b5050505050505050565b600060149054906101000a900460ff1681565b60006001905092915050565b60008060149054906101000a900460ff16151515610d4957600080fd5b823373ffffffffffffffffffffffffffffffffffffffff1660016000836000191660001916815260200190815260200160002060000160009054906101000a900473ffffffffffffffffffffffffffffffffffffffff1673ffffffffffffffffffffffffffffffffffffffff16141515610dc257600080fd5b610df38360016000876000191660001916815260200190815260200160002060020154611d5090919063ffffffff16565b60016000866000191660001916815260200190815260200160002060020181905550600191505092915050565b600260009054906101000a900473ffffffffffffffffffffffffffffffffffffffff1681565b600080600060149054906101000a900460ff16151515610e6557600080fd5b823373ffffffffffffffffffffffffffffffffffffffff1660016000836000191660001916815260200190815260200160002060010160009054906101000a900473ffffffffffffffffffffffffffffffffffffffff1673ffffffffffffffffffffffffffffffffffffffff161480610fc357503373ffffffffffffffffffffffffffffffffffffffff16600260009054906101000a900473ffffffffffffffffffffffffffffffffffffffff1673ffffffffffffffffffffffffffffffffffffffff1662ca2f75836000604051602001526040518263ffffffff167c0100000000000000000000000000000000000000000000000000000000028152600401808260001916600019168152602001915050602060405180830381600087803b1515610f9057600080fd5b6102c65a03f11515610fa157600080fd5b5050506040518051905073ffffffffffffffffffffffffffffffffffffffff16145b1515610fce57600080fd5b836000806002811115610fdd57fe5b60016000846000191660001916815260200190815260200160002060010160149054906101000a900460ff16600281111561101457fe5b14151561102057600080fd5b85600180600281111561102f57fe5b600260009054906101000a900473ffffffffffffffffffffffffffffffffffffffff1673ffffffffffffffffffffffffffffffffffffffff166309648a9d846000604051602001526040518263ffffffff167c0100000000000000000000000000000000000000000000000000000000028152600401808260001916600019168152602001915050602060405180830381600087803b15156110d057600080fd5b6102c65a03f115156110e157600080fd5b5050506040518051905060028111156110f657fe5b14151561110257600080fd5b60018060008a6000191660001916815260200190815260200160002060010160146101000a81548160ff0219169083600281111561113c57fe5b02179055507f8f482593d146341944d7bd7864ae7499d8775b00371dc73213734151224536368860405180826000191660001916815260200191505060405180910390a16111cf600160008a6000191660001916815260200190815260200160002060030154600160008b6000191660001916815260200190815260200160002060020154611d5090919063ffffffff16565b965060016000896000191660001916815260200190815260200160002060020154600160008a600019166000191681526020019081526020016000206003018190555060016000896000191660001916815260200190815260200160002060000160009054906101000a900473ffffffffffffffffffffffffffffffffffffffff16955060008711156113ef578573ffffffffffffffffffffffffffffffffffffffff1663452e79a489600260009054906101000a900473ffffffffffffffffffffffffffffffffffffffff1673ffffffffffffffffffffffffffffffffffffffff1663a12cad708c6000604051602001526040518263ffffffff167c0100000000000000000000000000000000000000000000000000000000028152600401808260001916600019168152602001915050602060405180830381600087803b151561131a57600080fd5b6102c65a03f1151561132b57600080fd5b505050604051805190508a6000604051602001526040518463ffffffff167c01000000000000000000000000000000000000000000000000000000000281526004018084600019166000191681526020018373ffffffffffffffffffffffffffffffffffffffff1673ffffffffffffffffffffffffffffffffffffffff1681526020018281526020019350505050602060405180830381600087803b15156113d257600080fd5b6102c65a03f115156113e357600080fd5b50505060405180519050505b8573ffffffffffffffffffffffffffffffffffffffff1663c4d252f5896000604051602001526040518263ffffffff167c0100000000000000000000000000000000000000000000000000000000028152600401808260001916600019168152602001915050602060405180830381600087803b151561146e57600080fd5b6102c65a03f1151561147f57600080fd5b50505060405180519050505050505050505050565b6000809054906101000a900473ffffffffffffffffffffffffffffffffffffffff1673ffffffffffffffffffffffffffffffffffffffff163373ffffffffffffffffffffffffffffffffffffffff161415156114ef57600080fd5b600060149054906101000a900460ff1615151561150b57600080fd5b6001600060146101000a81548160ff0219169083151502179055507f6985a02210a168e66602d3235cb6db0e70f92b3ba4d376a33c0f3d9434bff62560405160405180910390a1565b6000809054906101000a900473ffffffffffffffffffffffffffffffffffffffff1681565b60008060149054906101000a900460ff1615151561159657600080fd5b823373ffffffffffffffffffffffffffffffffffffffff1660016000836000191660001916815260200190815260200160002060000160009054906101000a900473ffffffffffffffffffffffffffffffffffffffff1673ffffffffffffffffffffffffffffffffffffffff1614151561160f57600080fd5b83600180600281111561161e57fe5b60016000846000191660001916815260200190815260200160002060010160149054906101000a900460ff16600281111561165557fe5b1415151561166257600080fd5b600260009054906101000a900473ffffffffffffffffffffffffffffffffffffffff1673ffffffffffffffffffffffffffffffffffffffff16636907c77d876000604051602001526040518263ffffffff167c0100000000000000000000000000000000000000000000000000000000028152600401808260001916600019168152602001915050602060405180830381600087803b151561170357600080fd5b6102c65a03f1151561171457600080fd5b5050506040518051905061177f60016000896000191660001916815260200190815260200160002060030154611771600160008b600019166000191681526020019081526020016000206002015489611d3290919063ffffffff16565b611d5090919063ffffffff16565b1115151561178c57600080fd5b6117bd8560016000896000191660001916815260200190815260200160002060020154611d3290919063ffffffff16565b600160008860001916600019168152602001908152602001600020600201819055507f640ab74eaec4a0c0c67aec6ef5873788a00b6ccca55e5e13b23503e46b91b5e686866040518083600019166000191681526020018281526020019250505060405180910390a161182f86611d69565b935050505092915050565b60008060149054906101000a900460ff1615151561185757600080fd5b813373ffffffffffffffffffffffffffffffffffffffff1660016000836000191660001916815260200190815260200160002060000160009054906101000a900473ffffffffffffffffffffffffffffffffffffffff1673ffffffffffffffffffffffffffffffffffffffff161415156118d057600080fd5b60006119216001600086600019166000191681526020019081526020016000206003015460016000876000191660001916815260200190815260200160002060020154611d5090919063ffffffff16565b14915050919050565b60008060149054906101000a900460ff1615151561194757600080fd5b336001600260009054906101000a900473ffffffffffffffffffffffffffffffffffffffff1673ffffffffffffffffffffffffffffffffffffffff1663f8db71b5836000604051602001526040518263ffffffff167c0100000000000000000000000000000000000000000000000000000000028152600401808273ffffffffffffffffffffffffffffffffffffffff1673ffffffffffffffffffffffffffffffffffffffff168152602001915050602060405180830381600087803b1515611a0f57600080fd5b6102c65a03f11515611a2057600080fd5b5050506040518051905060ff16141515611a3957600080fd5b6000600102836000600981101515611a4d57fe5b6020020151600019161415801515611a6457600080fd5b60a0604051908101604052803373ffffffffffffffffffffffffffffffffffffffff168152602001856000600981101515611a9b57fe5b60200201516001900473ffffffffffffffffffffffffffffffffffffffff16815260200160006002811115611acc57fe5b815260200160008152602001600081525060016000876000191660001916815260200190815260200160002060008201518160000160006101000a81548173ffffffffffffffffffffffffffffffffffffffff021916908373ffffffffffffffffffffffffffffffffffffffff16021790555060208201518160010160006101000a81548173ffffffffffffffffffffffffffffffffffffffff021916908373ffffffffffffffffffffffffffffffffffffffff16021790555060408201518160010160146101000a81548160ff02191690836002811115611baa57fe5b0217905550606082015181600201556080820151816003015590505060019250505092915050565b600060019050919050565b6000809054906101000a900473ffffffffffffffffffffffffffffffffffffffff1673ffffffffffffffffffffffffffffffffffffffff163373ffffffffffffffffffffffffffffffffffffffff16141515611c3857600080fd5b600073ffffffffffffffffffffffffffffffffffffffff168173ffffffffffffffffffffffffffffffffffffffff1614151515611c7457600080fd5b8073ffffffffffffffffffffffffffffffffffffffff166000809054906101000a900473ffffffffffffffffffffffffffffffffffffffff1673ffffffffffffffffffffffffffffffffffffffff167f8be0079c531659141344cd1fd0a4f28419497f9722a3daafe3b4186f6b6457e060405160405180910390a3806000806101000a81548173ffffffffffffffffffffffffffffffffffffffff021916908373ffffffffffffffffffffffffffffffffffffffff16021790555050565b6000808284019050838110151515611d4657fe5b8091505092915050565b6000828211151515611d5e57fe5b818303905092915050565b6000600280811115611d7757fe5b60016000846000191660001916815260200190815260200160002060010160149054906101000a900460ff166002811115611dae57fe5b1490509190505600a165627a7a72305820f2ce65abc0e2f3c8fe6130e5d6311db765bdf152d53c4e39afe52c5bc2e1f9910029",
  "source": "pragma solidity 0.4.18;\r\n\r\nimport '../../core/RequestCore.sol';\r\nimport './RequestSynchroneInterface.sol';\r\nimport '../../base/math/SafeMath.sol';\r\n\r\n// many pattern from http://solidity.readthedocs.io/en/develop/types.html#structs\r\ncontract RequestSynchroneExtensionEscrow is RequestSynchroneInterface {\r\n\tusing SafeMath for uint;\r\n\r\n\tenum EscrowState { Created, Refunded, Released }\r\n\r\n\t// mapping of requestId => escrow\r\n\tstruct RequestEscrow {\r\n\t\taddress subContract;\r\n\t\taddress escrow;\r\n\t\tEscrowState state;\r\n\t\tuint amountPaid;\r\n\t\tuint amountRefunded;\r\n\t}\r\n\tmapping(bytes32 => RequestEscrow) public escrows;\r\n\r\n\tevent EscrowPayment(bytes32 requestId, uint amount);\r\n\tevent EscrowReleaseRequest(bytes32 requestId);\r\n\tevent EscrowRefundRequest(bytes32 requestId);\r\n\r\n\t// address of the contract of the request system\r\n\tRequestCore public requestCore;\r\n\r\n\t// contract constructor\r\n\tfunction RequestSynchroneExtensionEscrow(address _requestCoreAddress) \r\n\t\tpublic\r\n\t{\r\n\t\trequestCore = RequestCore(_requestCoreAddress);\r\n\t}\r\n\r\n\tfunction createRequest(bytes32 _requestId, bytes32[9] _params)\r\n\t\tpublic\r\n\t\twhenNotPaused\r\n\t\tisSubContractTrusted(msg.sender)\r\n\t\tcondition(_params[0]!=0)\r\n\t\treturns(bool)\r\n\t{\r\n\t\tescrows[_requestId] = RequestEscrow(msg.sender, address(_params[0]), EscrowState.Created, 0,0); // create RequestEscrow\r\n\t\treturn true;\r\n\t}\r\n\r\n\tfunction payment(bytes32 _requestId, uint _amount)\r\n\t\tpublic\r\n\t\twhenNotPaused\r\n\t\tisSubContractRight(_requestId)\r\n\t\tinNOTEscrowState(_requestId, EscrowState.Refunded)\r\n\t\treturns(bool)\r\n\t{\r\n\t\trequire(_amount.add(escrows[_requestId].amountPaid).sub(escrows[_requestId].amountRefunded) <= requestCore.getAmountInitialAfterSubAdd(_requestId)); // value must be greater than 0 and all the payments should not overpass the amountExpected\r\n\r\n\t\tescrows[_requestId].amountPaid = escrows[_requestId].amountPaid.add(_amount);\r\n\r\n\t\tEscrowPayment(_requestId, _amount);\r\n\r\n\t\treturn isEscrowReleasedPayment(_requestId);\r\n\t}\r\n\r\n\t// refund request\r\n\tfunction refund(bytes32 _requestId, uint _amount)\r\n\t\tpublic\r\n\t\twhenNotPaused\r\n\t\tisSubContractRight(_requestId)\r\n\t\treturns(bool)\r\n\t{\r\n\t\tescrows[_requestId].amountPaid = escrows[_requestId].amountPaid.sub(_amount);\r\n\t\treturn true;\r\n\t}\r\n\r\n\t// cancel request\r\n\tfunction cancel(bytes32 _requestId) \r\n\t\tpublic\r\n\t\twhenNotPaused\r\n\t\tisSubContractRight(_requestId)\r\n\t\treturns(bool)\r\n\t{\r\n\t\treturn escrows[_requestId].amountPaid.sub(escrows[_requestId].amountRefunded) == 0;\r\n\t}\r\n\r\n\t\t// Escrow Function\r\n\t// escrow can release the payment to the seller\r\n\tfunction releaseToPayee(bytes32 _requestId)\r\n\t\texternal\r\n\t\twhenNotPaused\r\n\t\tonlyRequestEscrowOrPayer(_requestId)\r\n\t\tinEscrowState(_requestId, EscrowState.Created)\r\n\t\tonlyRequestState(_requestId, RequestCore.State.Accepted)\r\n\t{\r\n\t\t// release the money\r\n\t\tescrows[_requestId].state = EscrowState.Released;\r\n\t\tEscrowReleaseRequest(_requestId);\r\n\r\n\t\tuint amountToPaid = escrows[_requestId].amountPaid.sub(escrows[_requestId].amountRefunded);\r\n\r\n\t\tif(amountToPaid > 0) {\r\n\t\t\tRequestSynchroneInterface subContract = RequestSynchroneInterface(escrows[_requestId].subContract);\r\n\t\t\tsubContract.payment(_requestId, amountToPaid);\r\n\t\t}\r\n\t}\r\n\r\n\t// escrow can refund the payment to the âyer\r\n\tfunction refundToPayer(bytes32 _requestId)\r\n\t\texternal\r\n\t\twhenNotPaused\r\n\t\tonlyRequestEscrowOrPayee(_requestId)\r\n\t\tinEscrowState(_requestId, EscrowState.Created)\r\n\t\tonlyRequestState(_requestId, RequestCore.State.Accepted)\r\n\t{\r\n\t\t// Refund the money\r\n\t\tescrows[_requestId].state = EscrowState.Refunded;\r\n\t\tEscrowRefundRequest(_requestId);\r\n\r\n\t\tuint amountToRefund = escrows[_requestId].amountPaid.sub(escrows[_requestId].amountRefunded);\r\n\t\tescrows[_requestId].amountRefunded = escrows[_requestId].amountPaid;\r\n\r\n\t\tRequestSynchroneInterface subContract = RequestSynchroneInterface(escrows[_requestId].subContract);\r\n\t\tif(amountToRefund>0) subContract.fundOrder(_requestId, requestCore.getPayer(_requestId), amountToRefund); \r\n\t\tsubContract.cancel(_requestId); \r\n\t}\r\n\r\n\tfunction addSubtract(bytes32 _requestId, uint _amount) \r\n\t\tpublic \r\n\t\twhenNotPaused\r\n\t\tisSubContractRight(_requestId)\r\n\t\treturns(bool)\r\n\t{\r\n\t\t// nothing to do\r\n\t\treturn _amount.add(escrows[_requestId].amountPaid) <= requestCore.getAmountInitialAfterSubAdd(_requestId);\r\n\t} \r\n\r\n\r\n\t// internal function \r\n\tfunction isEscrowReleasedPayment(bytes32 _requestId) \r\n\t\tview \r\n\t\tinternal \r\n\t\treturns(bool) \r\n\t{\r\n\t\treturn escrows[_requestId].state == EscrowState.Released;\r\n\t}\r\n\r\n\r\n\t//modifier\r\n\tmodifier condition(bool c) {\r\n\t\trequire(c);\r\n\t\t_;\r\n\t}\r\n\r\n\tmodifier onlyRequestEscrow(bytes32 _requestId) {\r\n\t\trequire(escrows[_requestId].escrow==msg.sender);\r\n\t\t_;\r\n\t}\r\n\r\n\tmodifier onlyRequestEscrowOrPayer(bytes32 _requestId) {\r\n\t\trequire(escrows[_requestId].escrow==msg.sender || requestCore.getPayer(_requestId)==msg.sender);\r\n\t\t_;\r\n\t}\r\n\r\n\tmodifier onlyRequestEscrowOrPayee(bytes32 _requestId) {\r\n\t\trequire(escrows[_requestId].escrow==msg.sender || requestCore.getPayee(_requestId)==msg.sender);\r\n\t\t_;\r\n\t}\r\n\r\n\tmodifier inEscrowState(bytes32 _requestId, EscrowState es) {\r\n\t\trequire(escrows[_requestId].state==es);\r\n\t\t_;\r\n\t}\r\n\r\n\tmodifier inNOTEscrowState(bytes32 _requestId, EscrowState es) {\r\n\t\trequire(escrows[_requestId].state!=es);\r\n\t\t_;\r\n\t}\r\n\r\n\tmodifier onlyRequestState(bytes32 _requestId, RequestCore.State state) {\r\n\t\trequire(requestCore.getState(_requestId)==state);\r\n\t\t_;\r\n\t}\r\n\r\n\tmodifier isSubContractTrusted(address subContract) {\r\n\t\trequire(requestCore.getStatusContract(subContract)==1);\r\n\t\t_;\r\n\t}\r\n\r\n\tmodifier isSubContractRight(bytes32 _requestId)\r\n\t{\r\n\t\trequire(escrows[_requestId].subContract == msg.sender);\r\n\t\t_;\r\n\t}\t \r\n}\r\n",
  "sourcePath": "C:\\Users\\vince\\Documents\\Request\\git\\Request_SmartContracts\\contracts\\synchrone\\extensions\\RequestSynchroneExtensionEscrow.sol",
  "compiler": {
    "name": "solc",
    "version": "0.4.18+commit.9cf6e910.Emscripten.clang"
  },
  "schemaVersion": "1.0.1",
  "updatedAt": "2017-11-21T15:07:10.014Z"
}