{
  "contractName": "RequestBurnManagerSimple",
  "abi": [
    {
      "constant": false,
      "inputs": [
        {
          "name": "_reqBurnerContract",
          "type": "address"
        }
      ],
      "name": "setReqBurnerContract",
      "outputs": [],
      "payable": false,
      "stateMutability": "nonpayable",
      "type": "function"
    },
    {
      "constant": false,
      "inputs": [
        {
          "name": "_newRate",
          "type": "uint256"
        }
      ],
      "name": "setFeesPerTenThousand",
      "outputs": [],
      "payable": false,
      "stateMutability": "nonpayable",
      "type": "function"
    },
    {
      "constant": false,
      "inputs": [],
      "name": "unpause",
      "outputs": [],
      "payable": false,
      "stateMutability": "nonpayable",
      "type": "function"
    },
    {
      "constant": true,
      "inputs": [
        {
          "name": "_expectedAmount",
          "type": "int256"
        },
        {
          "name": "_currencyContract",
          "type": "address"
        },
        {
          "name": "_extension",
          "type": "address"
        }
      ],
      "name": "collectEstimation",
      "outputs": [
        {
          "name": "",
          "type": "uint256"
        }
      ],
      "payable": false,
      "stateMutability": "view",
      "type": "function"
    },
    {
      "constant": true,
      "inputs": [],
      "name": "paused",
      "outputs": [
        {
          "name": "",
          "type": "bool"
        }
      ],
      "payable": false,
      "stateMutability": "view",
      "type": "function"
    },
    {
      "constant": true,
      "inputs": [],
      "name": "reqBurnerContract",
      "outputs": [
        {
          "name": "",
          "type": "address"
        }
      ],
      "payable": false,
      "stateMutability": "view",
      "type": "function"
    },
    {
      "constant": false,
      "inputs": [
        {
          "name": "_expectedAmount",
          "type": "int256"
        },
        {
          "name": "_currencyContract",
          "type": "address"
        },
        {
          "name": "_extension",
          "type": "address"
        }
      ],
      "name": "collectForReqBurning",
      "outputs": [
        {
          "name": "",
          "type": "bool"
        }
      ],
      "payable": true,
      "stateMutability": "payable",
      "type": "function"
    },
    {
      "constant": false,
      "inputs": [],
      "name": "pause",
      "outputs": [
        {
          "name": "",
          "type": "uint256"
        }
      ],
      "payable": false,
      "stateMutability": "nonpayable",
      "type": "function"
    },
    {
      "constant": true,
      "inputs": [],
      "name": "owner",
      "outputs": [
        {
          "name": "",
          "type": "address"
        }
      ],
      "payable": false,
      "stateMutability": "view",
      "type": "function"
    },
    {
      "constant": true,
      "inputs": [],
      "name": "feesPer10000",
      "outputs": [
        {
          "name": "",
          "type": "uint256"
        }
      ],
      "payable": false,
      "stateMutability": "view",
      "type": "function"
    },
    {
      "constant": false,
      "inputs": [
        {
          "name": "_newMax",
          "type": "uint256"
        }
      ],
      "name": "setMaxCollectable",
      "outputs": [
        {
          "name": "",
          "type": "uint16"
        }
      ],
      "payable": false,
      "stateMutability": "nonpayable",
      "type": "function"
    },
    {
      "constant": true,
      "inputs": [
        {
          "name": "_reqBurnerContract",
          "type": "address"
        }
      ],
      "name": "maxFees",
      "outputs": [
        {
          "name": "",
          "type": "uint256"
        }
      ],
      "payable": false,
      "stateMutability": "view",
      "type": "function"
    },
    {
      "inputs": [
        {
          "name": "newOwner",
          "type": "address"
        }
      ],
      "payable": false,
      "stateMutability": "nonpayable",
      "type": "function",
      "anonymous": false,
      "name": "transferOwnership",
      "constant": false,
      "outputs": []
    },
    {
      "anonymous": false,
      "inputs": [
        {
          "name": "_reqBurnerContract",
          "type": "address"
        }
      ],
      "name": "Unpause",
      "type": "constructor",
      "payable": false,
      "stateMutability": "nonpayable"
    },
    {
      "anonymous": false,
      "inputs": [
        {
          "indexed": true,
          "name": "previousOwner",
          "type": "address"
        },
        {
          "indexed": true,
          "name": "newOwner",
          "type": "address"
        }
      ],
      "name": "Pause",
      "type": "event"
    },
    {
      "anonymous": false,
      "inputs": [
        {
          "indexed": true,
          "name": "previousOwner",
          "type": "address"
        },
        {
          "indexed": true,
          "name": "newOwner",
          "type": "address"
        }
      ],
      "name": "Unpause",
      "type": "event"
    },
    {
      "anonymous": false,
      "inputs": [
        {
          "indexed": true,
          "name": "previousOwner",
          "type": "address"
        },
        {
          "indexed": true,
          "name": "newOwner",
          "type": "address"
        }
      ],
      "name": "OwnershipTransferred",
      "type": "event"
    }
  ],
  "bytecode": "0x606060405260008060146101000a81548160ff02191690831515021790555066071afd498d0000600255341561003457600080fd5b604051602080610a9583398101604052808051906020019091905050336000806101000a81548173ffffffffffffffffffffffffffffffffffffffff021916908373ffffffffffffffffffffffffffffffffffffffff16021790555080600360006101000a81548173ffffffffffffffffffffffffffffffffffffffff021916908373ffffffffffffffffffffffffffffffffffffffff160217905550506109b4806100e16000396000f3006060604052600436106100c5576000357c0100000000000000000000000000000000000000000000000000000000900463ffffffff168063345a86f5146100ca57806338bf77c3146101035780633f4ba83a1461012657806349ede0ca1461013b5780635c975abb146101b057806370170834146101dd578063720d3f49146102325780638456cb59146102a05780638da5cb5b146102b5578063b2ba0aa51461030a578063d7b8de0014610333578063e83e34b114610356578063f2fde38b1461037f575b600080fd5b34156100d557600080fd5b610101600480803573ffffffffffffffffffffffffffffffffffffffff169060200190919050506103b8565b005b341561010e57600080fd5b6101246004808035906020019091905050610457565b005b341561013157600080fd5b6101396104bc565b005b341561014657600080fd5b61019a600480803590602001909190803573ffffffffffffffffffffffffffffffffffffffff1690602001909190803573ffffffffffffffffffffffffffffffffffffffff1690602001909190505061057a565b6040518082815260200191505060405180910390f35b34156101bb57600080fd5b6101c36105d8565b604051808215151515815260200191505060405180910390f35b34156101e857600080fd5b6101f06105eb565b604051808273ffffffffffffffffffffffffffffffffffffffff1673ffffffffffffffffffffffffffffffffffffffff16815260200191505060405180910390f35b610286600480803590602001909190803573ffffffffffffffffffffffffffffffffffffffff1690602001909190803573ffffffffffffffffffffffffffffffffffffffff16906020019091905050610611565b604051808215151515815260200191505060405180910390f35b34156102ab57600080fd5b6102b361068f565b005b34156102c057600080fd5b6102c861074f565b604051808273ffffffffffffffffffffffffffffffffffffffff1673ffffffffffffffffffffffffffffffffffffffff16815260200191505060405180910390f35b341561031557600080fd5b61031d610774565b6040518082815260200191505060405180910390f35b341561033e57600080fd5b610354600480803590602001909190505061077a565b005b341561036157600080fd5b6103696107df565b6040518082815260200191505060405180910390f35b341561038a57600080fd5b6103b6600480803573ffffffffffffffffffffffffffffffffffffffff169060200190919050506107e5565b005b6000809054906101000a900473ffffffffffffffffffffffffffffffffffffffff1673ffffffffffffffffffffffffffffffffffffffff163373ffffffffffffffffffffffffffffffffffffffff1614151561041357600080fd5b80600360006101000a81548173ffffffffffffffffffffffffffffffffffffffff021916908373ffffffffffffffffffffffffffffffffffffffff16021790555050565b6000809054906101000a900473ffffffffffffffffffffffffffffffffffffffff1673ffffffffffffffffffffffffffffffffffffffff163373ffffffffffffffffffffffffffffffffffffffff161415156104b257600080fd5b8060018190555050565b6000809054906101000a900473ffffffffffffffffffffffffffffffffffffffff1673ffffffffffffffffffffffffffffffffffffffff163373ffffffffffffffffffffffffffffffffffffffff1614151561051757600080fd5b600060149054906101000a900460ff16151561053257600080fd5b60008060146101000a81548160ff0219169083151502179055507f7805862f689e2f13df9f062ff482ad3ad112aca9e0847911ed832e158c525b3360405160405180910390a1565b600080600085121561058f57600091506105d0565b6105b86127106105aa6001548861093a90919063ffffffff16565b61096d90919063ffffffff16565b905060025481106105cb576002546105cd565b805b91505b509392505050565b600060149054906101000a900460ff1681565b600360009054906101000a900473ffffffffffffffffffffffffffffffffffffffff1681565b60003461061f85858561057a565b141561068357600360009054906101000a900473ffffffffffffffffffffffffffffffffffffffff1673ffffffffffffffffffffffffffffffffffffffff166108fc349081150290604051600060405180830381858888f193505050509050610688565b600090505b9392505050565b6000809054906101000a900473ffffffffffffffffffffffffffffffffffffffff1673ffffffffffffffffffffffffffffffffffffffff163373ffffffffffffffffffffffffffffffffffffffff161415156106ea57600080fd5b600060149054906101000a900460ff1615151561070657600080fd5b6001600060146101000a81548160ff0219169083151502179055507f6985a02210a168e66602d3235cb6db0e70f92b3ba4d376a33c0f3d9434bff62560405160405180910390a1565b6000809054906101000a900473ffffffffffffffffffffffffffffffffffffffff1681565b60015481565b6000809054906101000a900473ffffffffffffffffffffffffffffffffffffffff1673ffffffffffffffffffffffffffffffffffffffff163373ffffffffffffffffffffffffffffffffffffffff161415156107d557600080fd5b8060028190555050565b60025481565b6000809054906101000a900473ffffffffffffffffffffffffffffffffffffffff1673ffffffffffffffffffffffffffffffffffffffff163373ffffffffffffffffffffffffffffffffffffffff1614151561084057600080fd5b600073ffffffffffffffffffffffffffffffffffffffff168173ffffffffffffffffffffffffffffffffffffffff161415151561087c57600080fd5b8073ffffffffffffffffffffffffffffffffffffffff166000809054906101000a900473ffffffffffffffffffffffffffffffffffffffff1673ffffffffffffffffffffffffffffffffffffffff167f8be0079c531659141344cd1fd0a4f28419497f9722a3daafe3b4186f6b6457e060405160405180910390a3806000806101000a81548173ffffffffffffffffffffffffffffffffffffffff021916908373ffffffffffffffffffffffffffffffffffffffff16021790555050565b6000808284029050600084148061095b575082848281151561095857fe5b04145b151561096357fe5b8091505092915050565b600080828481151561097b57fe5b04905080915050929150505600a165627a7a72305820613c725045af27c61b73230372ddd76281227bc9cd60a317671523c5cf99f5890029",
  "source": "pragma solidity 0.4.18;\r\n\r\nimport './RequestBurnManagerInterface.sol';\r\nimport '../base/math/SafeMath.sol';\r\nimport '../base/lifecycle/Pausable.sol';\r\n\r\n/**\r\n * @title RequestBurnManagerSimple\r\n *\r\n * @dev RequestBurnManagerSimple is a contract managing the fees in the most simple way (percentage of the expected amount)\r\n */\r\ncontract RequestBurnManagerSimple is RequestBurnManagerInterface, Pausable {\r\n\tusing SafeMath for uint256;\r\n\r\n\t// fees percentage (per 10 000)\r\n\tuint256 public feesPer10000;\r\n\r\n\tuint256 public maxFees = 0.002 ether;\r\n\r\n\t// address of the contract that will burn req token (probably through Kyber)\r\n\taddress public reqBurnerContract;\r\n\r\n\t/*\r\n\t * @dev Constructor\r\n\t * @param _requestCoreAddress Request Core address\r\n\t */  \r\n\tfunction RequestBurnManagerSimple(address _reqBurnerContract) \r\n\t\tpublic\r\n\t{\r\n\t\treqBurnerContract = _reqBurnerContract;\r\n\t}\r\n\r\n\t/*\r\n\t * @dev collect Fees\r\n\t * @param _requestId Request id\r\n\t */  \r\n\tfunction collectForReqBurning(int256 _expectedAmount, address _currencyContract, address _extension)\r\n\t\texternal\r\n\t\tpayable\r\n\t\treturns(bool)\r\n\t{\r\n\t\tif(collectEstimation(_expectedAmount,_currencyContract,_extension)==msg.value) {\r\n\t\t\treturn reqBurnerContract.send(msg.value);\r\n\t\t} else {\r\n\t\t\treturn false;\r\n\t\t}\r\n\t}\r\n\r\n\t/*\r\n\t * @dev computeFees\r\n\t * @param _requestId Request id\r\n\t * @return \r\n\t */  \r\n\tfunction collectEstimation(int256 _expectedAmount, address _currencyContract, address _extension)\r\n\t\tpublic\r\n\t\tview\r\n\t\treturns(uint256)\r\n\t{\r\n\t\tif(_expectedAmount<0) return 0;\r\n\t\tuint256 computedCollect = uint256(_expectedAmount).mul(feesPer10000).div(10000);\r\n\t\treturn computedCollect < maxFees ? computedCollect : maxFees;\r\n\t}\r\n\r\n\r\n\t/*\r\n\t * @dev computeFees\r\n\t * @param _newRate new rate\r\n\t * @return \r\n\t */  \r\n\tfunction setFeesPerTenThousand(uint256 _newRate) \r\n\t\texternal\r\n\t\tonlyOwner\r\n\t{\r\n\t\tfeesPer10000=_newRate;\r\n\t}\r\n\r\n\t/*\r\n\t * @dev setMaxCollectable\r\n\t * @param _newMax new max\r\n\t * @return \r\n\t */  \r\n\tfunction setMaxCollectable(uint256 _newMax) \r\n\t\texternal\r\n\t\tonlyOwner\r\n\t{\r\n\t\tmaxFees=_newMax;\r\n\t}\r\n\r\n\r\n\t/*\r\n\t * @dev setReqBurnerContract\r\n\t * @param _reqBurnerContract address of the contract that will burn req token (probably through Kyber)\r\n\t * @return \r\n\t */  \r\n\tfunction setReqBurnerContract(address _reqBurnerContract) \r\n\t\texternal\r\n\t\tonlyOwner\r\n\t{\r\n\t\treqBurnerContract=_reqBurnerContract;\r\n\t}\r\n}\r\n",
  "sourcePath": "C:\\Users\\vince\\Documents\\Request\\git\\Request_SmartContracts\\contracts\\collect\\RequestBurnManagerSimple.sol",
  "compiler": {
    "name": "solc",
    "version": "0.4.18+commit.9cf6e910.Emscripten.clang"
  },
  "schemaVersion": "1.0.1",
  "updatedAt": "2017-12-05T18:40:24.423Z"
}