{
  "_format": "hh-sol-artifact-1",
  "contractName": "DiamondLoupeFacet",
  "sourceName": "src/contracts/facets/DiamondLoupeFacet.sol",
  "abi": [
    {
      "inputs": [
        {
          "internalType": "bytes4",
          "name": "_functionSelector",
          "type": "bytes4"
        }
      ],
      "name": "facetAddress",
      "outputs": [
        {
          "internalType": "address",
          "name": "facetAddress_",
          "type": "address"
        }
      ],
      "stateMutability": "view",
      "type": "function"
    },
    {
      "inputs": [],
      "name": "facetAddresses",
      "outputs": [
        {
          "internalType": "address[]",
          "name": "facetAddresses_",
          "type": "address[]"
        }
      ],
      "stateMutability": "view",
      "type": "function"
    },
    {
      "inputs": [
        {
          "internalType": "address",
          "name": "_facet",
          "type": "address"
        }
      ],
      "name": "facetFunctionSelectors",
      "outputs": [
        {
          "internalType": "bytes4[]",
          "name": "_facetFunctionSelectors",
          "type": "bytes4[]"
        }
      ],
      "stateMutability": "view",
      "type": "function"
    },
    {
      "inputs": [],
      "name": "facets",
      "outputs": [
        {
          "components": [
            {
              "internalType": "address",
              "name": "facetAddress",
              "type": "address"
            },
            {
              "internalType": "bytes4[]",
              "name": "functionSelectors",
              "type": "bytes4[]"
            }
          ],
          "internalType": "struct IDiamondLoupe.Facet[]",
          "name": "facets_",
          "type": "tuple[]"
        }
      ],
      "stateMutability": "view",
      "type": "function"
    },
    {
      "inputs": [
        {
          "internalType": "bytes4",
          "name": "_interfaceId",
          "type": "bytes4"
        }
      ],
      "name": "supportsInterface",
      "outputs": [
        {
          "internalType": "bool",
          "name": "",
          "type": "bool"
        }
      ],
      "stateMutability": "view",
      "type": "function"
    }
  ],
  "bytecode": "0x608060405234801561001057600080fd5b5061127c806100206000396000f3fe608060405234801561001057600080fd5b50600436106100575760003560e01c806301ffc9a71461005c57806352ef6b2c1461008c5780637a0ed627146100aa578063adfca15e146100c8578063cdffacc6146100f8575b600080fd5b61007660048036038101906100719190610cbf565b610128565b6040516100839190610fb9565b60405180910390f35b61009461019e565b6040516100a19190610f53565b60405180910390f35b6100b2610406565b6040516100bf9190610f97565b60405180910390f35b6100e260048036038101906100dd9190610c92565b610975565b6040516100ef9190610f75565b60405180910390f35b610112600480360381019061010d9190610cbf565b610b9f565b60405161011f9190610f38565b60405180910390f35b600080610133610c0b565b9050806003016000847bffffffffffffffffffffffffffffffffffffffffffffffffffffffff19167bffffffffffffffffffffffffffffffffffffffffffffffffffffffff1916815260200190815260200160002060009054906101000a900460ff16915050919050565b606060006101aa610c0b565b90508060020160009054906101000a900461ffff1661ffff1667ffffffffffffffff8111156101dc576101db6111e4565b5b60405190808252806020026020018201604052801561020a5781602001602082028036833780820191505090505b50915060008060005b8360020160009054906101000a900461ffff1661ffff168210156103fc57600084600101600083815260200190815260200160002054905060005b60088110156103e75783806102629061113d565b9450508560020160009054906101000a900461ffff1661ffff16841115610288576103e7565b6000600582901b83901b90506000876000016000837bffffffffffffffffffffffffffffffffffffffffffffffffffffffff19167bffffffffffffffffffffffffffffffffffffffffffffffffffffffff191681526020019081526020016000205460601c90506000805b88811015610365578a818151811061030e5761030d6111b5565b5b602002602001015173ffffffffffffffffffffffffffffffffffffffff168373ffffffffffffffffffffffffffffffffffffffff1614156103525760019150610365565b808061035d9061113d565b9150506102f3565b508015610374575050506103d4565b818a8981518110610388576103876111b5565b5b602002602001019073ffffffffffffffffffffffffffffffffffffffff16908173ffffffffffffffffffffffffffffffffffffffff168152505087806103cd9061113d565b9850505050505b80806103df9061113d565b91505061024e565b505080806103f49061113d565b915050610213565b5081845250505090565b60606000610412610c0b565b90508060020160009054906101000a900461ffff1661ffff1667ffffffffffffffff811115610444576104436111e4565b5b60405190808252806020026020018201604052801561047d57816020015b61046a610c38565b8152602001906001900390816104625790505b50915060008160020160009054906101000a900461ffff1661ffff1667ffffffffffffffff8111156104b2576104b16111e4565b5b6040519080825280602002602001820160405280156104e05781602001602082028036833780820191505090505b50905060008060005b8460020160009054906101000a900461ffff1661ffff1682101561090057600085600101600083815260200190815260200160002054905060005b60088110156108eb5783806105389061113d565b9450508660020160009054906101000a900461ffff1661ffff1684111561055e576108eb565b6000600582901b83901b90506000886000016000837bffffffffffffffffffffffffffffffffffffffffffffffffffffffff19167bffffffffffffffffffffffffffffffffffffffffffffffffffffffff191681526020019081526020016000205460601c90506000805b8881101561073a578273ffffffffffffffffffffffffffffffffffffffff168c82815181106105fb576105fa6111b5565b5b60200260200101516000015173ffffffffffffffffffffffffffffffffffffffff16141561072757838c8281518110610637576106366111b5565b5b6020026020010151602001518b8381518110610656576106556111b5565b5b602002602001015161ffff1681518110610673576106726111b5565b5b60200260200101907bffffffffffffffffffffffffffffffffffffffffffffffffffffffff191690817bffffffffffffffffffffffffffffffffffffffffffffffffffffffff19168152505060ff8a82815181106106d4576106d36111b5565b5b602002602001015161ffff16106106ea57600080fd5b8981815181106106fd576106fc6111b5565b5b60200260200101805180919061071290611112565b61ffff1661ffff16815250506001915061073a565b80806107329061113d565b9150506105c9565b508015610749575050506108d8565b818b898151811061075d5761075c6111b5565b5b60200260200101516000019073ffffffffffffffffffffffffffffffffffffffff16908173ffffffffffffffffffffffffffffffffffffffff16815250508960020160009054906101000a900461ffff1661ffff1667ffffffffffffffff8111156107cb576107ca6111e4565b5b6040519080825280602002602001820160405280156107f95781602001602082028036833780820191505090505b508b898151811061080d5761080c6111b5565b5b602002602001015160200181905250828b89815181106108305761082f6111b5565b5b60200260200101516020015160008151811061084f5761084e6111b5565b5b60200260200101907bffffffffffffffffffffffffffffffffffffffffffffffffffffffff191690817bffffffffffffffffffffffffffffffffffffffffffffffffffffffff19168152505060018989815181106108b0576108af6111b5565b5b602002602001019061ffff16908161ffff168152505087806108d19061113d565b9850505050505b80806108e39061113d565b915050610524565b505080806108f89061113d565b9150506104e9565b5060005b8281101561096a576000848281518110610921576109206111b5565b5b602002602001015161ffff1690506000878381518110610944576109436111b5565b5b6020026020010151602001519050818152505080806109629061113d565b915050610904565b508185525050505090565b60606000610981610c0b565b905060008160020160009054906101000a900461ffff1661ffff1667ffffffffffffffff8111156109b5576109b46111e4565b5b6040519080825280602002602001820160405280156109e35781602001602082028036833780820191505090505b5092506000805b8360020160009054906101000a900461ffff1661ffff16821015610b9357600084600101600083815260200190815260200160002054905060005b6008811015610b7e578380610a399061113d565b9450508560020160009054906101000a900461ffff1661ffff16841115610a5f57610b7e565b6000600582901b83901b90506000876000016000837bffffffffffffffffffffffffffffffffffffffffffffffffffffffff19167bffffffffffffffffffffffffffffffffffffffffffffffffffffffff191681526020019081526020016000205460601c90508073ffffffffffffffffffffffffffffffffffffffff168a73ffffffffffffffffffffffffffffffffffffffff161415610b695781898881518110610b0e57610b0d6111b5565b5b60200260200101907bffffffffffffffffffffffffffffffffffffffffffffffffffffffff191690817bffffffffffffffffffffffffffffffffffffffffffffffffffffffff1916815250508680610b659061113d565b9750505b50508080610b769061113d565b915050610a25565b50508080610b8b9061113d565b9150506109ea565b50818452505050919050565b600080610baa610c0b565b9050806000016000847bffffffffffffffffffffffffffffffffffffffffffffffffffffffff19167bffffffffffffffffffffffffffffffffffffffffffffffffffffffff191681526020019081526020016000205460601c915050919050565b6000807fc8fcad8db84d3cc18b4c41d551ea0ee66dd599cde068d998e57d5e09332c131c90508091505090565b6040518060400160405280600073ffffffffffffffffffffffffffffffffffffffff168152602001606081525090565b600081359050610c7781611218565b92915050565b600081359050610c8c8161122f565b92915050565b600060208284031215610ca857610ca7611213565b5b6000610cb684828501610c68565b91505092915050565b600060208284031215610cd557610cd4611213565b5b6000610ce384828501610c7d565b91505092915050565b6000610cf88383610d30565b60208301905092915050565b6000610d108383610eec565b60208301905092915050565b6000610d288383610efb565b905092915050565b610d3981611090565b82525050565b610d4881611090565b82525050565b6000610d5982611004565b610d63818561104c565b9350610d6e83610fd4565b8060005b83811015610d9f578151610d868882610cec565b9750610d9183611025565b925050600181019050610d72565b5085935050505092915050565b6000610db78261100f565b610dc1818561105d565b9350610dcc83610fe4565b8060005b83811015610dfd578151610de48882610d04565b9750610def83611032565b925050600181019050610dd0565b5085935050505092915050565b6000610e158261100f565b610e1f818561106e565b9350610e2a83610fe4565b8060005b83811015610e5b578151610e428882610d04565b9750610e4d83611032565b925050600181019050610e2e565b5085935050505092915050565b6000610e738261101a565b610e7d818561107f565b935083602082028501610e8f85610ff4565b8060005b85811015610ecb5784840389528151610eac8582610d1c565b9450610eb78361103f565b925060208a01995050600181019050610e93565b50829750879550505050505092915050565b610ee6816110a2565b82525050565b610ef5816110ae565b82525050565b6000604083016000830151610f136000860182610d30565b5060208301518482036020860152610f2b8282610dac565b9150508091505092915050565b6000602082019050610f4d6000830184610d3f565b92915050565b60006020820190508181036000830152610f6d8184610d4e565b905092915050565b60006020820190508181036000830152610f8f8184610e0a565b905092915050565b60006020820190508181036000830152610fb18184610e68565b905092915050565b6000602082019050610fce6000830184610edd565b92915050565b6000819050602082019050919050565b6000819050602082019050919050565b6000819050602082019050919050565b600081519050919050565b600081519050919050565b600081519050919050565b6000602082019050919050565b6000602082019050919050565b6000602082019050919050565b600082825260208201905092915050565b600082825260208201905092915050565b600082825260208201905092915050565b600082825260208201905092915050565b600061109b826110e8565b9050919050565b60008115159050919050565b60007fffffffff0000000000000000000000000000000000000000000000000000000082169050919050565b600061ffff82169050919050565b600073ffffffffffffffffffffffffffffffffffffffff82169050919050565b6000819050919050565b600061111d826110da565b915061ffff82141561113257611131611186565b5b600182019050919050565b600061114882611108565b91507fffffffffffffffffffffffffffffffffffffffffffffffffffffffffffffffff82141561117b5761117a611186565b5b600182019050919050565b7f4e487b7100000000000000000000000000000000000000000000000000000000600052601160045260246000fd5b7f4e487b7100000000000000000000000000000000000000000000000000000000600052603260045260246000fd5b7f4e487b7100000000000000000000000000000000000000000000000000000000600052604160045260246000fd5b600080fd5b61122181611090565b811461122c57600080fd5b50565b611238816110ae565b811461124357600080fd5b5056fea264697066735822122045e41cd5dc62b62c3c88e7df849d1b060df3cd84113f3280e3c765628683b41764736f6c63430008060033",
  "linkReferences": {},
  "deployedLinkReferences": {}
}