{
  "_format": "hh-sol-artifact-1",
  "contractName": "DiamondPaymentFacet",
  "sourceName": "src/contracts/facets/DiamondPaymentFacet.sol",
  "abi": [
    {
      "anonymous": false,
      "inputs": [
        {
          "indexed": false,
          "internalType": "address",
          "name": "to",
          "type": "address"
        },
        {
          "indexed": false,
          "internalType": "uint256",
          "name": "amount",
          "type": "uint256"
        },
        {
          "indexed": true,
          "internalType": "bytes",
          "name": "paymentReference",
          "type": "bytes"
        }
      ],
      "name": "NativeTransfer",
      "type": "event"
    },
    {
      "anonymous": false,
      "inputs": [
        {
          "indexed": false,
          "internalType": "address",
          "name": "to",
          "type": "address"
        },
        {
          "indexed": false,
          "internalType": "uint256",
          "name": "amount",
          "type": "uint256"
        },
        {
          "indexed": true,
          "internalType": "bytes",
          "name": "paymentReference",
          "type": "bytes"
        },
        {
          "indexed": false,
          "internalType": "uint256",
          "name": "feeAmount",
          "type": "uint256"
        },
        {
          "indexed": false,
          "internalType": "address",
          "name": "feeAddress",
          "type": "address"
        }
      ],
      "name": "NativeTransferWithFees",
      "type": "event"
    },
    {
      "anonymous": false,
      "inputs": [
        {
          "indexed": false,
          "internalType": "address",
          "name": "tokenAddress",
          "type": "address"
        },
        {
          "indexed": false,
          "internalType": "address",
          "name": "to",
          "type": "address"
        },
        {
          "indexed": false,
          "internalType": "uint256",
          "name": "amount",
          "type": "uint256"
        },
        {
          "indexed": true,
          "internalType": "bytes",
          "name": "paymentReference",
          "type": "bytes"
        }
      ],
      "name": "TokenTransfer",
      "type": "event"
    },
    {
      "anonymous": false,
      "inputs": [
        {
          "indexed": false,
          "internalType": "address",
          "name": "tokenAddress",
          "type": "address"
        },
        {
          "indexed": false,
          "internalType": "address",
          "name": "to",
          "type": "address"
        },
        {
          "indexed": false,
          "internalType": "uint256",
          "name": "amount",
          "type": "uint256"
        },
        {
          "indexed": true,
          "internalType": "bytes",
          "name": "paymentReference",
          "type": "bytes"
        },
        {
          "indexed": false,
          "internalType": "uint256",
          "name": "feeAmount",
          "type": "uint256"
        },
        {
          "indexed": false,
          "internalType": "address",
          "name": "feeAddress",
          "type": "address"
        }
      ],
      "name": "TokenTransferWithFees",
      "type": "event"
    },
    {
      "inputs": [
        {
          "internalType": "address payable",
          "name": "_to",
          "type": "address"
        },
        {
          "internalType": "uint256",
          "name": "_amount",
          "type": "uint256"
        },
        {
          "internalType": "bytes",
          "name": "_paymentReference",
          "type": "bytes"
        },
        {
          "internalType": "uint256",
          "name": "_feeAmount",
          "type": "uint256"
        },
        {
          "internalType": "address payable",
          "name": "_feeAddress",
          "type": "address"
        }
      ],
      "name": "exactNativeTransferWithFees",
      "outputs": [],
      "stateMutability": "payable",
      "type": "function"
    },
    {
      "inputs": [
        {
          "internalType": "address",
          "name": "_to",
          "type": "address"
        },
        {
          "internalType": "bytes",
          "name": "_paymentReference",
          "type": "bytes"
        }
      ],
      "name": "nativeTransfer",
      "outputs": [],
      "stateMutability": "payable",
      "type": "function"
    },
    {
      "inputs": [
        {
          "internalType": "address payable",
          "name": "_to",
          "type": "address"
        },
        {
          "internalType": "bytes",
          "name": "_paymentReference",
          "type": "bytes"
        },
        {
          "internalType": "uint256",
          "name": "_feeAmount",
          "type": "uint256"
        },
        {
          "internalType": "address payable",
          "name": "_feeAddress",
          "type": "address"
        }
      ],
      "name": "nativeTransferWithFees",
      "outputs": [],
      "stateMutability": "payable",
      "type": "function"
    },
    {
      "inputs": [
        {
          "internalType": "address",
          "name": "_tokenAddress",
          "type": "address"
        },
        {
          "internalType": "address",
          "name": "_to",
          "type": "address"
        },
        {
          "internalType": "uint256",
          "name": "_amount",
          "type": "uint256"
        },
        {
          "internalType": "bytes",
          "name": "_paymentReference",
          "type": "bytes"
        }
      ],
      "name": "tokenTransfer",
      "outputs": [],
      "stateMutability": "nonpayable",
      "type": "function"
    },
    {
      "inputs": [
        {
          "internalType": "address",
          "name": "_tokenAddress",
          "type": "address"
        },
        {
          "internalType": "address",
          "name": "_to",
          "type": "address"
        },
        {
          "internalType": "uint256",
          "name": "_amount",
          "type": "uint256"
        },
        {
          "internalType": "bytes",
          "name": "_paymentReference",
          "type": "bytes"
        },
        {
          "internalType": "uint256",
          "name": "_feeAmount",
          "type": "uint256"
        },
        {
          "internalType": "address",
          "name": "_feeAddress",
          "type": "address"
        }
      ],
      "name": "tokenTransferWithFees",
      "outputs": [],
      "stateMutability": "nonpayable",
      "type": "function"
    }
  ],
  "bytecode": "0x608060405234801561001057600080fd5b506111e0806100206000396000f3fe60806040526004361061004a5760003560e01c80633206dfd21461004f57806355a780e51461006b57806379fa31a014610087578063972cf288146100b0578063f536d468146100d9575b600080fd5b6100696004803603810190610064919061083d565b6100f5565b005b61008560048036038101906100809190610a96565b610115565b005b34801561009357600080fd5b506100ae60048036038101906100a9919061095f565b610218565b005b3480156100bc57600080fd5b506100d760048036038101906100d291906109e7565b6102bc565b005b6100f360048036038101906100ee91906108c5565b6103f3565b005b61010e8583346101059190610e92565b868686866103f3565b5050505050565b60008373ffffffffffffffffffffffffffffffffffffffff163460405161013b90610c9e565b60006040518083038185875af1925050503d8060008114610178576040519150601f19603f3d011682016040523d82523d6000602084013e61017d565b606091505b50509050806101c1576040517f08c379a00000000000000000000000000000000000000000000000000000000081526004016101b890610e0b565b60405180910390fd5b82826040516101d1929190610c6e565b60405180910390207f19331b6d3d4bd895fbc020a10239fb09fc919d2f6e34af36c9df0de68a452346853460405161020a929190610d82565b60405180910390a250505050565b610223858585610629565b610262576040517f08c379a000000000000000000000000000000000000000000000000000000000815260040161025990610dab565b60405180910390fd5b8181604051610272929190610c6e565b60405180910390207f96bd57d3c3174096a8d69b378ddbbc106adbfcb63971c045e64b183faec806508686866040516102ad93929190610cf8565b60405180910390a25050505050565b6102c7878787610629565b610306576040517f08c379a00000000000000000000000000000000000000000000000000000000081526004016102fd90610e2b565b60405180910390fd5b6000821180156103435750600073ffffffffffffffffffffffffffffffffffffffff168173ffffffffffffffffffffffffffffffffffffffff1614155b1561039357610353878284610629565b610392576040517f08c379a000000000000000000000000000000000000000000000000000000000815260040161038990610dcb565b60405180910390fd5b5b83836040516103a3929190610c6e565b60405180910390207f3eaaa6d2730e5f5dc304c525e1338f4be05510f077e636c734c7bdbd17eede0c88888886866040516103e2959493929190610d2f565b60405180910390a250505050505050565b60008673ffffffffffffffffffffffffffffffffffffffff168660405161041990610c9e565b60006040518083038185875af1925050503d8060008114610456576040519150601f19603f3d011682016040523d82523d6000602084013e61045b565b606091505b505090508061049f576040517f08c379a000000000000000000000000000000000000000000000000000000000815260040161049690610e0b565b60405180910390fd5b8173ffffffffffffffffffffffffffffffffffffffff16836040516104c390610c9e565b60006040518083038185875af1925050503d8060008114610500576040519150601f19603f3d011682016040523d82523d6000602084013e610505565b606091505b50505060003373ffffffffffffffffffffffffffffffffffffffff1684883461052e9190610e92565b6105389190610e92565b60405161054490610c9e565b60006040518083038185875af1925050503d8060008114610581576040519150601f19603f3d011682016040523d82523d6000602084013e610586565b606091505b50509050806105ca576040517f08c379a00000000000000000000000000000000000000000000000000000000081526004016105c190610e4b565b60405180910390fd5b85856040516105da929190610c6e565b60405180910390207ffe78c817a37b6f58bb253f00ffe7df3c55b44a9e08ce6fa0540eb40b6f2cedad898987876040516106179493929190610cb3565b60405180910390a25050505050505050565b6000833b61063657600080fd5b60008473ffffffffffffffffffffffffffffffffffffffff1633858560405160240161066493929190610cf8565b6040516020818303038152906040527f23b872dd000000000000000000000000000000000000000000000000000000007bffffffffffffffffffffffffffffffffffffffffffffffffffffffff19166020820180517bffffffffffffffffffffffffffffffffffffffffffffffffffffffff83818316178352505050506040516106ee9190610c87565b6000604051808303816000865af19150503d806000811461072b576040519150601f19603f3d011682016040523d82523d6000602084013e610730565b606091505b505090503d6000811461074a576020811461075357600080fd5b6001925061075f565b60206000803e60005192505b50806107a0576040517f08c379a000000000000000000000000000000000000000000000000000000000815260040161079790610deb565b60405180910390fd5b509392505050565b6000813590506107b781611165565b92915050565b6000813590506107cc8161117c565b92915050565b60008083601f8401126107e8576107e7610fc0565b5b8235905067ffffffffffffffff81111561080557610804610fbb565b5b60208301915083600182028301111561082157610820610fc5565b5b9250929050565b60008135905061083781611193565b92915050565b60008060008060006080868803121561085957610858610fcf565b5b6000610867888289016107bd565b955050602086013567ffffffffffffffff81111561088857610887610fca565b5b610894888289016107d2565b945094505060406108a788828901610828565b92505060606108b8888289016107bd565b9150509295509295909350565b60008060008060008060a087890312156108e2576108e1610fcf565b5b60006108f089828a016107bd565b965050602061090189828a01610828565b955050604087013567ffffffffffffffff81111561092257610921610fca565b5b61092e89828a016107d2565b9450945050606061094189828a01610828565b925050608061095289828a016107bd565b9150509295509295509295565b60008060008060006080868803121561097b5761097a610fcf565b5b6000610989888289016107a8565b955050602061099a888289016107a8565b94505060406109ab88828901610828565b935050606086013567ffffffffffffffff8111156109cc576109cb610fca565b5b6109d8888289016107d2565b92509250509295509295909350565b600080600080600080600060c0888a031215610a0657610a05610fcf565b5b6000610a148a828b016107a8565b9750506020610a258a828b016107a8565b9650506040610a368a828b01610828565b955050606088013567ffffffffffffffff811115610a5757610a56610fca565b5b610a638a828b016107d2565b94509450506080610a768a828b01610828565b92505060a0610a878a828b016107a8565b91505092959891949750929550565b600080600060408486031215610aaf57610aae610fcf565b5b6000610abd868287016107a8565b935050602084013567ffffffffffffffff811115610ade57610add610fca565b5b610aea868287016107d2565b92509250509250925092565b610aff81610f14565b82525050565b610b0e81610ec6565b82525050565b6000610b208385610e76565b9350610b2d838584610f4a565b82840190509392505050565b6000610b4482610e6b565b610b4e8185610e76565b9350610b5e818560208601610f59565b80840191505092915050565b6000610b77603783610e81565b9150610b8282610fd4565b604082019050919050565b6000610b9a603783610e81565b9150610ba582611023565b604082019050919050565b6000610bbd602083610e81565b9150610bc882611072565b602082019050919050565b6000610be0601b83610e81565b9150610beb8261109b565b602082019050919050565b6000610c03603b83610e81565b9150610c0e826110c4565b604082019050919050565b6000610c26602b83610e81565b9150610c3182611113565b604082019050919050565b6000610c49600083610e76565b9150610c5482611162565b600082019050919050565b610c6881610f0a565b82525050565b6000610c7b828486610b14565b91508190509392505050565b6000610c938284610b39565b915081905092915050565b6000610ca982610c3c565b9150819050919050565b6000608082019050610cc86000830187610af6565b610cd56020830186610c5f565b610ce26040830185610c5f565b610cef6060830184610af6565b95945050505050565b6000606082019050610d0d6000830186610b05565b610d1a6020830185610b05565b610d276040830184610c5f565b949350505050565b600060a082019050610d446000830188610b05565b610d516020830187610b05565b610d5e6040830186610c5f565b610d6b6060830185610c5f565b610d786080830184610b05565b9695505050505050565b6000604082019050610d976000830185610b05565b610da46020830184610c5f565b9392505050565b60006020820190508181036000830152610dc481610b6a565b9050919050565b60006020820190508181036000830152610de481610b8d565b9050919050565b60006020820190508181036000830152610e0481610bb0565b9050919050565b60006020820190508181036000830152610e2481610bd3565b9050919050565b60006020820190508181036000830152610e4481610bf6565b9050919050565b60006020820190508181036000830152610e6481610c19565b9050919050565b600081519050919050565b600081905092915050565b600082825260208201905092915050565b6000610e9d82610f0a565b9150610ea883610f0a565b925082821015610ebb57610eba610f8c565b5b828203905092915050565b6000610ed182610eea565b9050919050565b6000610ee382610eea565b9050919050565b600073ffffffffffffffffffffffffffffffffffffffff82169050919050565b6000819050919050565b6000610f1f82610f26565b9050919050565b6000610f3182610f38565b9050919050565b6000610f4382610eea565b9050919050565b82818337600083830152505050565b60005b83811015610f77578082015181840152602081019050610f5c565b83811115610f86576000848401525b50505050565b7f4e487b7100000000000000000000000000000000000000000000000000000000600052601160045260246000fd5b600080fd5b600080fd5b600080fd5b600080fd5b600080fd5b7f5472616e7366657246726f6d576974685265666572656e6365206661696c656460008201527f3a207472616e7366657246726f6d2829206661696c6564000000000000000000602082015250565b7f546f6b656e5472616e736665725769746846656573206661696c65643a20666560008201527f65207472616e7366657246726f6d2829206661696c6564000000000000000000602082015250565b7f7472616e7366657246726f6d282920686173206265656e207265766572746564600082015250565b7f436f756c64206e6f74207061792074686520726563697069656e740000000000600082015250565b7f546f6b656e5472616e736665725769746846656573206661696c65643a20706160008201527f796d656e74207472616e7366657246726f6d2829206661696c65640000000000602082015250565b7f436f756c64206e6f742073656e642072656d61696e696e672066756e6473207460008201527f6f20746865207061796572000000000000000000000000000000000000000000602082015250565b50565b61116e81610ec6565b811461117957600080fd5b50565b61118581610ed8565b811461119057600080fd5b50565b61119c81610f0a565b81146111a757600080fd5b5056fea26469706673582212206c74cecc408f6dd25e2e6fc504a8e1423a9f5e55928461b18ca651c6d0eb84c164736f6c63430008060033",
  "linkReferences": {},
  "deployedLinkReferences": {}
}