{
  "_format": "hh-sol-artifact-1",
  "contractName": "DiamonPaymentSwapFacet",
  "sourceName": "src/contracts/facets/DiamondPaymentSwapFacet.sol",
  "abi": [
    {
      "inputs": [
        {
          "internalType": "address",
          "name": "_newSwapRouterAddress",
          "type": "address"
        }
      ],
      "name": "setSwapRouter",
      "outputs": [],
      "stateMutability": "nonpayable",
      "type": "function"
    },
    {
      "inputs": [
        {
          "internalType": "address",
          "name": "_to",
          "type": "address"
        },
        {
          "internalType": "uint256",
          "name": "_requestAmount",
          "type": "uint256"
        },
        {
          "internalType": "uint256",
          "name": "_amountInMax",
          "type": "uint256"
        },
        {
          "internalType": "address[]",
          "name": "_path",
          "type": "address[]"
        },
        {
          "internalType": "bytes",
          "name": "_paymentReference",
          "type": "bytes"
        },
        {
          "internalType": "uint256",
          "name": "_feeAmount",
          "type": "uint256"
        },
        {
          "internalType": "address",
          "name": "_feeAddress",
          "type": "address"
        },
        {
          "internalType": "uint256",
          "name": "_deadline",
          "type": "uint256"
        }
      ],
      "name": "tokenTransferWithSwap",
      "outputs": [],
      "stateMutability": "nonpayable",
      "type": "function"
    },
    {
      "inputs": [
        {
          "internalType": "address",
          "name": "_to",
          "type": "address"
        },
        {
          "internalType": "uint256",
          "name": "_requestAmount",
          "type": "uint256"
        },
        {
          "internalType": "uint256",
          "name": "_amountInMax",
          "type": "uint256"
        },
        {
          "internalType": "address[]",
          "name": "_swapRouterPath",
          "type": "address[]"
        },
        {
          "internalType": "address[]",
          "name": "_chainlinkPath",
          "type": "address[]"
        },
        {
          "internalType": "bytes",
          "name": "_paymentReference",
          "type": "bytes"
        },
        {
          "internalType": "uint256",
          "name": "_requestFeeAmount",
          "type": "uint256"
        },
        {
          "internalType": "address",
          "name": "_feeAddress",
          "type": "address"
        },
        {
          "internalType": "uint256",
          "name": "_deadline",
          "type": "uint256"
        },
        {
          "internalType": "uint256",
          "name": "_chainlinkMaxRateTimespan",
          "type": "uint256"
        }
      ],
      "name": "tokenTransferWithSwapAndConversion",
      "outputs": [],
      "stateMutability": "nonpayable",
      "type": "function"
    }
  ],
  "bytecode": "0x608060405234801561001057600080fd5b50612630806100206000396000f3fe608060405234801561001057600080fd5b50600436106100415760003560e01c806341273657146100465780635d9cee4614610062578063d78cb3e11461007e575b600080fd5b610060600480360381019061005b9190611573565b61009a565b005b61007c600480360381019061007791906115a0565b6100f5565b005b61009860048036038101906100939190611697565b6102b8565b005b6100a26104ea565b60006100ac610585565b9050818160000160006101000a81548173ffffffffffffffffffffffffffffffffffffffff021916908373ffffffffffffffffffffffffffffffffffffffff1602179055505050565b6000838a6101039190611fe4565b90506101388888600081811061011c5761011b612212565b5b90506020020160208101906101319190611573565b308b6105b2565b610177576040517f08c379a000000000000000000000000000000000000000000000000000000000815260040161016e90611d6b565b60405180910390fd5b6101c4818a8a8a80806020026020016040519081016040528093929190818152602001838360200280828437600081840152601f19601f8201169050808301925050505050505085610731565b600061021e8c6102148b8b80806020026020016040519081016040528093929190818152602001838360200280828437600081840152601f19601f820116905080830192505050505050506109b7565b89898f898b6109e8565b905080610260576040517f08c379a000000000000000000000000000000000000000000000000000000000815260040161025790611e4b565b60405180910390fd5b6102aa898980806020026020016040519081016040528093929190818152602001838360200280828437600081840152601f19601f82011690508083019250505050505050610b6e565b505050505050505050505050565b85600187516102c791906120c5565b815181106102d8576102d7612212565b5b602002602001015173ffffffffffffffffffffffffffffffffffffffff16876001895161030591906120c5565b8151811061031657610315612212565b5b602002602001015173ffffffffffffffffffffffffffffffffffffffff1614610374576040517f08c379a000000000000000000000000000000000000000000000000000000000815260040161036b90611dcb565b60405180910390fd5b600073ffffffffffffffffffffffffffffffffffffffff168373ffffffffffffffffffffffffffffffffffffffff1614156103e4576040517f08c379a00000000000000000000000000000000000000000000000000000000081526004016103db90611e2b565b60405180910390fd5b6000806103f3888c8886610f0f565b9150915061041d8960008151811061040e5761040d612212565b5b6020026020010151308c6105b2565b61045c576040517f08c379a000000000000000000000000000000000000000000000000000000000815260040161045390611d4b565b60405180910390fd5b610473818361046b9190611fe4565b8b8b87610731565b60006104908d8d8b8b8b8b888a61048a9190611fe4565b8b611111565b9050806104d2576040517f08c379a00000000000000000000000000000000000000000000000000000000081526004016104c990611dab565b60405180910390fd5b6104db8a610b6e565b50505050505050505050505050565b6104f261129a565b60040160009054906101000a900473ffffffffffffffffffffffffffffffffffffffff1673ffffffffffffffffffffffffffffffffffffffff163373ffffffffffffffffffffffffffffffffffffffff1614610583576040517f08c379a000000000000000000000000000000000000000000000000000000000815260040161057a90611d2b565b60405180910390fd5b565b6000807f606857a8a2f686ea2144fad939042f8886a033827cac0b63b58491852842ff5490508091505090565b6000833b6105bf57600080fd5b60008473ffffffffffffffffffffffffffffffffffffffff163385856040516024016105ed93929190611bb3565b6040516020818303038152906040527f23b872dd000000000000000000000000000000000000000000000000000000007bffffffffffffffffffffffffffffffffffffffffffffffffffffffff19166020820180517bffffffffffffffffffffffffffffffffffffffffffffffffffffffff83818316178352505050506040516106779190611b58565b6000604051808303816000865af19150503d80600081146106b4576040519150601f19603f3d011682016040523d82523d6000602084013e6106b9565b606091505b505090503d600081146106d357602081146106dc57600080fd5b600192506106e8565b60206000803e60005192505b5080610729576040517f08c379a000000000000000000000000000000000000000000000000000000000815260040161072090611d8b565b60405180910390fd5b509392505050565b60008260008151811061074757610746612212565b5b60200260200101519050600061075b610585565b9050848273ffffffffffffffffffffffffffffffffffffffff1663dd62ed3e308460000160009054906101000a900473ffffffffffffffffffffffffffffffffffffffff166040518363ffffffff1660e01b81526004016107bd929190611b8a565b60206040518083038186803b1580156107d557600080fd5b505afa1580156107e9573d6000803e3d6000fd5b505050506040513d601f19601f8201168201806040525081019061080d9190611840565b10156108ec5760007fffffffffffffffffffffffffffffffffffffffffffffffffffffffffffffffff90508273ffffffffffffffffffffffffffffffffffffffff1663095ea7b38360000160009054906101000a900473ffffffffffffffffffffffffffffffffffffffff16836040518363ffffffff1660e01b8152600401610897929190611c54565b602060405180830381600087803b1580156108b157600080fd5b505af11580156108c5573d6000803e3d6000fd5b505050506040513d601f19601f820116820180604052508101906108e99190611813565b50505b60008160000160009054906101000a900473ffffffffffffffffffffffffffffffffffffffff1690508073ffffffffffffffffffffffffffffffffffffffff16638803dbee88888830896040518663ffffffff1660e01b8152600401610956959493929190611e6b565b600060405180830381600087803b15801561097057600080fd5b505af1158015610984573d6000803e3d6000fd5b505050506040513d6000823e3d601f19601f820116820180604052508101906109ad91906117ca565b5050505050505050565b600081600183516109c891906120c5565b815181106109d9576109d8612212565b5b60200260200101519050919050565b6000806109f361129a565b905060007f972cf28875a4a37d83cc0752b281ed51d0e47bf4fb5430e86e56c2489b59e20090506000826000016000837bffffffffffffffffffffffffffffffffffffffffffffffffffffffff19167bffffffffffffffffffffffffffffffffffffffffffffffffffffffff191681526020019081526020016000205460601c90506000828b8d8a8d8d8b8d604051602401610a959796959493929190611bea565b604051602081830303815290604052907bffffffffffffffffffffffffffffffffffffffffffffffffffffffff19166020820180517bffffffffffffffffffffffffffffffffffffffffffffffffffffffff838183161783525050505090508173ffffffffffffffffffffffffffffffffffffffff1681604051610b199190611b58565b600060405180830381855af49150503d8060008114610b54576040519150601f19603f3d011682016040523d82523d6000602084013e610b59565b606091505b50508095505050505050979650505050505050565b600081600081518110610b8457610b83612212565b5b6020026020010151905060008260018451610b9f91906120c5565b81518110610bb057610baf612212565b5b6020026020010151905060008273ffffffffffffffffffffffffffffffffffffffff166370a08231306040518263ffffffff1660e01b8152600401610bf59190611b6f565b60206040518083038186803b158015610c0d57600080fd5b505afa158015610c21573d6000803e3d6000fd5b505050506040513d601f19601f82011682018060405250810190610c459190611840565b1115610d62578173ffffffffffffffffffffffffffffffffffffffff1663a9059cbb338473ffffffffffffffffffffffffffffffffffffffff166370a08231306040518263ffffffff1660e01b8152600401610ca19190611b6f565b60206040518083038186803b158015610cb957600080fd5b505afa158015610ccd573d6000803e3d6000fd5b505050506040513d601f19601f82011682018060405250810190610cf19190611840565b6040518363ffffffff1660e01b8152600401610d0e929190611c54565b602060405180830381600087803b158015610d2857600080fd5b505af1158015610d3c573d6000803e3d6000fd5b505050506040513d601f19601f82011682018060405250810190610d609190611813565b505b60008173ffffffffffffffffffffffffffffffffffffffff166370a08231306040518263ffffffff1660e01b8152600401610d9d9190611b6f565b60206040518083038186803b158015610db557600080fd5b505afa158015610dc9573d6000803e3d6000fd5b505050506040513d601f19601f82011682018060405250810190610ded9190611840565b1115610f0a578073ffffffffffffffffffffffffffffffffffffffff1663a9059cbb338373ffffffffffffffffffffffffffffffffffffffff166370a08231306040518263ffffffff1660e01b8152600401610e499190611b6f565b60206040518083038186803b158015610e6157600080fd5b505afa158015610e75573d6000803e3d6000fd5b505050506040513d601f19601f82011682018060405250810190610e999190611840565b6040518363ffffffff1660e01b8152600401610eb6929190611c54565b602060405180830381600087803b158015610ed057600080fd5b505af1158015610ee4573d6000803e3d6000fd5b505050506040513d601f19601f82011682018060405250810190610f089190611813565b505b505050565b60008060007f97edd4fa1f5b353df26d4fdbdbba1d90cc765b46752be5249bba4132813cb071905060008188604051602401610f4b9190611d09565b604051602081830303815290604052907bffffffffffffffffffffffffffffffffffffffffffffffffffffffff19166020820180517bffffffffffffffffffffffffffffffffffffffffffffffffffffffff838183161783525050505090506000803073ffffffffffffffffffffffffffffffffffffffff1683604051610fd29190611b58565b600060405180830381855af49150503d806000811461100d576040519150601f19603f3d011682016040523d82523d6000602084013e611012565b606091505b509150915081611057576040517f08c379a000000000000000000000000000000000000000000000000000000000815260040161104e90611deb565b60405180910390fd5b600080600083806020019051810190611070919061186d565b92509250925060008a1480611090575089824261108d91906120c5565b11155b6110cf576040517f08c379a00000000000000000000000000000000000000000000000000000000081526004016110c690611e0b565b60405180910390fd5b80838d6110dc919061206b565b6110e6919061203a565b985080838c6110f5919061206b565b6110ff919061203a565b97505050505050505094509492505050565b60008061111c61129a565b905060007f1fda5e18658afec44f0c907bae3f75d75a081f716ab96a746e65e08b22e034a290506000826000016000837bffffffffffffffffffffffffffffffffffffffffffffffffffffffff19167bffffffffffffffffffffffffffffffffffffffffffffffffffffffff191681526020019081526020016000205460601c90506000828d8d8d8d8d8d8d8d6040516024016111c0989796959493929190611c7d565b604051602081830303815290604052907bffffffffffffffffffffffffffffffffffffffffffffffffffffffff19166020820180517bffffffffffffffffffffffffffffffffffffffffffffffffffffffff838183161783525050505090508173ffffffffffffffffffffffffffffffffffffffff16816040516112449190611b58565b600060405180830381855af49150503d806000811461127f576040519150601f19603f3d011682016040523d82523d6000602084013e611284565b606091505b5050809550505050505098975050505050505050565b6000807fc8fcad8db84d3cc18b4c41d551ea0ee66dd599cde068d998e57d5e09332c131c90508091505090565b60006112da6112d584611eea565b611ec5565b905080838252602082019050828560208602820111156112fd576112fc61227a565b5b60005b8581101561132d578161131388826113e9565b845260208401935060208301925050600181019050611300565b5050509392505050565b600061134a61134584611f16565b611ec5565b9050808382526020820190508285602086028201111561136d5761136c61227a565b5b60005b8581101561139d5781611383888261155e565b845260208401935060208301925050600181019050611370565b5050509392505050565b60006113ba6113b584611f42565b611ec5565b9050828152602081018484840111156113d6576113d561227f565b5b6113e1848285612141565b509392505050565b6000813590506113f8816125b5565b92915050565b60008083601f84011261141457611413612275565b5b8235905067ffffffffffffffff81111561143157611430612270565b5b60208301915083602082028301111561144d5761144c61227a565b5b9250929050565b600082601f83011261146957611468612275565b5b81356114798482602086016112c7565b91505092915050565b600082601f83011261149757611496612275565b5b81516114a7848260208601611337565b91505092915050565b6000815190506114bf816125cc565b92915050565b60008083601f8401126114db576114da612275565b5b8235905067ffffffffffffffff8111156114f8576114f7612270565b5b6020830191508360018202830111156115145761151361227a565b5b9250929050565b600082601f8301126115305761152f612275565b5b81356115408482602086016113a7565b91505092915050565b600081359050611558816125e3565b92915050565b60008151905061156d816125e3565b92915050565b60006020828403121561158957611588612289565b5b6000611597848285016113e9565b91505092915050565b6000806000806000806000806000806101008b8d0312156115c4576115c3612289565b5b60006115d28d828e016113e9565b9a505060206115e38d828e01611549565b99505060406115f48d828e01611549565b98505060608b013567ffffffffffffffff81111561161557611614612284565b5b6116218d828e016113fe565b975097505060808b013567ffffffffffffffff81111561164457611643612284565b5b6116508d828e016114c5565b955095505060a06116638d828e01611549565b93505060c06116748d828e016113e9565b92505060e06116858d828e01611549565b9150509295989b9194979a5092959850565b6000806000806000806000806000806101408b8d0312156116bb576116ba612289565b5b60006116c98d828e016113e9565b9a505060206116da8d828e01611549565b99505060406116eb8d828e01611549565b98505060608b013567ffffffffffffffff81111561170c5761170b612284565b5b6117188d828e01611454565b97505060808b013567ffffffffffffffff81111561173957611738612284565b5b6117458d828e01611454565b96505060a08b013567ffffffffffffffff81111561176657611765612284565b5b6117728d828e0161151b565b95505060c06117838d828e01611549565b94505060e06117948d828e016113e9565b9350506101006117a68d828e01611549565b9250506101206117b88d828e01611549565b9150509295989b9194979a5092959850565b6000602082840312156117e0576117df612289565b5b600082015167ffffffffffffffff8111156117fe576117fd612284565b5b61180a84828501611482565b91505092915050565b60006020828403121561182957611828612289565b5b6000611837848285016114b0565b91505092915050565b60006020828403121561185657611855612289565b5b60006118648482850161155e565b91505092915050565b60008060006060848603121561188657611885612289565b5b60006118948682870161155e565b93505060206118a58682870161155e565b92505060406118b68682870161155e565b9150509250925092565b60006118cc83836118d8565b60208301905092915050565b6118e1816120f9565b82525050565b6118f0816120f9565b82525050565b600061190182611f83565b61190b8185611fa6565b935061191683611f73565b8060005b8381101561194757815161192e88826118c0565b975061193983611f99565b92505060018101905061191a565b5085935050505092915050565b60006119608385611fb7565b935061196d838584612141565b6119768361228e565b840190509392505050565b600061198c82611f8e565b6119968185611fb7565b93506119a6818560208601612150565b6119af8161228e565b840191505092915050565b60006119c582611f8e565b6119cf8185611fc8565b93506119df818560208601612150565b80840191505092915050565b60006119f8602283611fd3565b9150611a038261229f565b604082019050919050565b6000611a1b604583611fd3565b9150611a26826122ee565b606082019050919050565b6000611a3e604583611fd3565b9150611a4982612363565b606082019050919050565b6000611a61602083611fd3565b9150611a6c826123d8565b602082019050919050565b6000611a84604f83611fd3565b9150611a8f82612401565b606082019050919050565b6000611aa7606083611fd3565b9150611ab282612476565b606082019050919050565b6000611aca601d83611fd3565b9150611ad5826124eb565b602082019050919050565b6000611aed601b83611fd3565b9150611af882612514565b602082019050919050565b6000611b10601283611fd3565b9150611b1b8261253d565b602082019050919050565b6000611b33603783611fd3565b9150611b3e82612566565b604082019050919050565b611b5281612137565b82525050565b6000611b6482846119ba565b915081905092915050565b6000602082019050611b8460008301846118e7565b92915050565b6000604082019050611b9f60008301856118e7565b611bac60208301846118e7565b9392505050565b6000606082019050611bc860008301866118e7565b611bd560208301856118e7565b611be26040830184611b49565b949350505050565b600060c082019050611bff600083018a6118e7565b611c0c60208301896118e7565b611c196040830188611b49565b8181036060830152611c2c818688611954565b9050611c3b6080830185611b49565b611c4860a08301846118e7565b98975050505050505050565b6000604082019050611c6960008301856118e7565b611c766020830184611b49565b9392505050565b600061010082019050611c93600083018b6118e7565b611ca0602083018a611b49565b8181036040830152611cb281896118f6565b90508181036060830152611cc68188611981565b9050611cd56080830187611b49565b611ce260a08301866118e7565b611cef60c0830185611b49565b611cfc60e0830184611b49565b9998505050505050505050565b60006020820190508181036000830152611d2381846118f6565b905092915050565b60006020820190508181036000830152611d44816119eb565b9050919050565b60006020820190508181036000830152611d6481611a0e565b9050919050565b60006020820190508181036000830152611d8481611a31565b9050919050565b60006020820190508181036000830152611da481611a54565b9050919050565b60006020820190508181036000830152611dc481611a77565b9050919050565b60006020820190508181036000830152611de481611a9a565b9050919050565b60006020820190508181036000830152611e0481611abd565b9050919050565b60006020820190508181036000830152611e2481611ae0565b9050919050565b60006020820190508181036000830152611e4481611b03565b9050919050565b60006020820190508181036000830152611e6481611b26565b9050919050565b600060a082019050611e806000830188611b49565b611e8d6020830187611b49565b8181036040830152611e9f81866118f6565b9050611eae60608301856118e7565b611ebb6080830184611b49565b9695505050505050565b6000611ecf611ee0565b9050611edb8282612183565b919050565b6000604051905090565b600067ffffffffffffffff821115611f0557611f04612241565b5b602082029050602081019050919050565b600067ffffffffffffffff821115611f3157611f30612241565b5b602082029050602081019050919050565b600067ffffffffffffffff821115611f5d57611f5c612241565b5b611f668261228e565b9050602081019050919050565b6000819050602082019050919050565b600081519050919050565b600081519050919050565b6000602082019050919050565b600082825260208201905092915050565b600082825260208201905092915050565b600081905092915050565b600082825260208201905092915050565b6000611fef82612137565b9150611ffa83612137565b9250827fffffffffffffffffffffffffffffffffffffffffffffffffffffffffffffffff0382111561202f5761202e6121b4565b5b828201905092915050565b600061204582612137565b915061205083612137565b9250826120605761205f6121e3565b5b828204905092915050565b600061207682612137565b915061208183612137565b9250817fffffffffffffffffffffffffffffffffffffffffffffffffffffffffffffffff04831182151516156120ba576120b96121b4565b5b828202905092915050565b60006120d082612137565b91506120db83612137565b9250828210156120ee576120ed6121b4565b5b828203905092915050565b600061210482612117565b9050919050565b60008115159050919050565b600073ffffffffffffffffffffffffffffffffffffffff82169050919050565b6000819050919050565b82818337600083830152505050565b60005b8381101561216e578082015181840152602081019050612153565b8381111561217d576000848401525b50505050565b61218c8261228e565b810181811067ffffffffffffffff821117156121ab576121aa612241565b5b80604052505050565b7f4e487b7100000000000000000000000000000000000000000000000000000000600052601160045260246000fd5b7f4e487b7100000000000000000000000000000000000000000000000000000000600052601260045260246000fd5b7f4e487b7100000000000000000000000000000000000000000000000000000000600052603260045260246000fd5b7f4e487b7100000000000000000000000000000000000000000000000000000000600052604160045260246000fd5b600080fd5b600080fd5b600080fd5b600080fd5b600080fd5b600080fd5b6000601f19601f8301169050919050565b7f4c69624469616d6f6e643a204d75737420626520636f6e7472616374206f776e60008201527f6572000000000000000000000000000000000000000000000000000000000000602082015250565b7f746f6b656e5472616e736665725769746853776170416e64436f6e766572736960008201527f6f6e206661696c65643a20736166655472616e7366657246726f6d282920666160208201527f696c65642e000000000000000000000000000000000000000000000000000000604082015250565b7f746f6b656e5472616e736665725769746853776170206661696c65643a20736160008201527f66655472616e7366657246726f6d282920737761707065722d7061796572206660208201527f61696c6564000000000000000000000000000000000000000000000000000000604082015250565b7f7472616e7366657246726f6d282920686173206265656e207265766572746564600082015250565b7f746f6b656e5472616e736665725769746853776170416e64436f6e766572736960008201527f6f6e206661696c65643a20746f6b656e5472616e7366657257697468436f6e7660208201527f657273696f6e2829206661696c65640000000000000000000000000000000000604082015250565b7f746f6b656e5472616e736665725769746853776170416e64436f6e766572736960008201527f6f6e206661696c65643a2054686520726571756573746564207377617020746f60208201527f6b656e206d75737420626520746865207061796d656e742063757272656e6379604082015250565b7f436f756c64206e6f742067657420636f6e76657273696f6e2072617465000000600082015250565b7f61676772656761746f722072617465206973206f757464617465640000000000600082015250565b7f496e76616c696420666565206164647265730000000000000000000000000000600082015250565b7f746f6b656e5472616e736665725769746853776170206661696c65643a206d6160008201527f6b65546f6b656e5061796d656e742829206661696c6564000000000000000000602082015250565b6125be816120f9565b81146125c957600080fd5b50565b6125d58161210b565b81146125e057600080fd5b50565b6125ec81612137565b81146125f757600080fd5b5056fea264697066735822122097227ddf9404fbdbfd67c2ba28abd4f4c21967d7d4a936f04a8c9040059676c664736f6c63430008060033",
  "linkReferences": {},
  "deployedLinkReferences": {}
}